{
  "_format": "hh-sol-artifact-1",
  "contractName": "DataConsumer",
  "sourceName": "contracts/DataConsumer.sol",
  "abi": [
    {
      "anonymous": false,
      "inputs": [
        {
          "indexed": true,
          "internalType": "bytes32",
          "name": "id",
          "type": "bytes32"
        }
      ],
      "name": "ChainlinkCancelled",
      "type": "event"
    },
    {
      "anonymous": false,
      "inputs": [
        {
          "indexed": true,
          "internalType": "bytes32",
          "name": "id",
          "type": "bytes32"
        }
      ],
      "name": "ChainlinkFulfilled",
      "type": "event"
    },
    {
      "anonymous": false,
      "inputs": [
        {
          "indexed": true,
          "internalType": "bytes32",
          "name": "id",
          "type": "bytes32"
        }
      ],
      "name": "ChainlinkRequested",
      "type": "event"
    },
    {
      "anonymous": false,
      "inputs": [
        {
          "indexed": true,
          "internalType": "bytes32",
          "name": "requestId",
          "type": "bytes32"
        },
        {
          "indexed": false,
          "internalType": "uint8",
          "name": "logNum",
          "type": "uint8"
        }
      ],
      "name": "Log",
      "type": "event"
    },
    {
      "anonymous": false,
      "inputs": [
        {
          "indexed": false,
          "internalType": "address",
          "name": "recAddress",
          "type": "address"
        },
        {
          "indexed": false,
          "internalType": "uint256",
          "name": "value",
          "type": "uint256"
        }
      ],
      "name": "LogAddress",
      "type": "event"
    },
    {
      "anonymous": false,
      "inputs": [
        {
          "indexed": true,
          "internalType": "address",
          "name": "previousOwner",
          "type": "address"
        },
        {
          "indexed": true,
          "internalType": "address",
          "name": "newOwner",
          "type": "address"
        }
      ],
      "name": "OwnershipTransferred",
      "type": "event"
    },
    {
      "anonymous": false,
      "inputs": [
        {
          "indexed": true,
          "internalType": "bytes32",
          "name": "requestId",
          "type": "bytes32"
        },
        {
          "indexed": false,
          "internalType": "bytes",
          "name": "data",
          "type": "bytes"
        },
        {
          "indexed": false,
          "internalType": "uint256",
          "name": "blockNumber",
          "type": "uint256"
        },
        {
          "indexed": false,
          "internalType": "bytes32",
          "name": "datahash",
          "type": "bytes32"
        }
      ],
      "name": "SearchConformed",
      "type": "event"
    },
    {
      "anonymous": false,
      "inputs": [
        {
          "indexed": true,
          "internalType": "bytes32",
          "name": "requestId",
          "type": "bytes32"
        },
        {
          "indexed": false,
          "internalType": "string",
          "name": "key",
          "type": "string"
        }
      ],
      "name": "SearchInfo",
      "type": "event"
    },
    {
      "stateMutability": "payable",
      "type": "fallback"
    },
    {
      "inputs": [],
      "name": "ARBITER_NUM",
      "outputs": [
        {
          "internalType": "uint256",
          "name": "",
          "type": "uint256"
        }
      ],
      "stateMutability": "view",
      "type": "function"
    },
    {
      "inputs": [
        {
          "internalType": "string",
          "name": "_version",
          "type": "string"
        }
      ],
      "name": "__DataConsumer_init",
      "outputs": [],
      "stateMutability": "nonpayable",
      "type": "function"
    },
    {
      "inputs": [
        {
          "internalType": "address",
          "name": "_to",
          "type": "address"
        },
        {
          "internalType": "uint256",
          "name": "_value",
          "type": "uint256"
        }
      ],
      "name": "_safeTransferCurrency",
      "outputs": [],
      "stateMutability": "nonpayable",
      "type": "function"
    },
    {
      "inputs": [
        {
          "internalType": "address",
          "name": "_oracle",
          "type": "address"
        },
        {
          "internalType": "string",
          "name": "_jobId",
          "type": "string"
        },
        {
          "internalType": "string",
          "name": "_pubKey",
          "type": "string"
        },
        {
          "internalType": "string",
          "name": "_sign",
          "type": "string"
        },
        {
          "internalType": "address",
          "name": "_receiveAddress",
          "type": "address"
        }
      ],
      "name": "addOralceAndJobId",
      "outputs": [],
      "stateMutability": "nonpayable",
      "type": "function"
    },
    {
      "inputs": [],
      "name": "clearOralceAndJobId",
      "outputs": [],
      "stateMutability": "nonpayable",
      "type": "function"
    },
    {
      "inputs": [],
      "name": "clearSearchResult",
      "outputs": [],
      "stateMutability": "nonpayable",
      "type": "function"
    },
    {
      "inputs": [
        {
          "internalType": "bytes32",
          "name": "_requestId",
          "type": "bytes32"
        },
        {
          "internalType": "bytes",
          "name": "_didData",
          "type": "bytes"
        }
      ],
      "name": "fulfillEthereumDidData",
      "outputs": [],
      "stateMutability": "nonpayable",
      "type": "function"
    },
    {
      "inputs": [],
      "name": "getArbiterList",
      "outputs": [
        {
          "internalType": "bytes32[12]",
          "name": "",
          "type": "bytes32[12]"
        }
      ],
      "stateMutability": "view",
      "type": "function"
    },
    {
      "inputs": [],
      "name": "getChannelInfoList",
      "outputs": [
        {
          "components": [
            {
              "internalType": "string",
              "name": "did",
              "type": "string"
            },
            {
              "internalType": "string",
              "name": "method",
              "type": "string"
            },
            {
              "internalType": "uint8",
              "name": "status",
              "type": "uint8"
            },
            {
              "internalType": "bytes32",
              "name": "dataHash",
              "type": "bytes32"
            },
            {
              "internalType": "uint8",
              "name": "totalReqestNum",
              "type": "uint8"
            },
            {
              "internalType": "bytes32[12]",
              "name": "requestIds",
              "type": "bytes32[12]"
            },
            {
              "internalType": "bool[12]",
              "name": "isSearchs",
              "type": "bool[12]"
            }
          ],
          "internalType": "struct DataConsumer.ChannelInfo[50]",
          "name": "",
          "type": "tuple[50]"
        }
      ],
      "stateMutability": "view",
      "type": "function"
    },
    {
      "inputs": [],
      "name": "getFee",
      "outputs": [
        {
          "internalType": "uint256",
          "name": "",
          "type": "uint256"
        }
      ],
      "stateMutability": "view",
      "type": "function"
    },
    {
      "inputs": [],
      "name": "getOralceAndJobs",
      "outputs": [
        {
          "internalType": "address[]",
          "name": "",
          "type": "address[]"
        },
        {
          "internalType": "string[]",
          "name": "",
          "type": "string[]"
        }
      ],
      "stateMutability": "view",
      "type": "function"
    },
    {
      "inputs": [
        {
          "internalType": "string",
          "name": "_jobId",
          "type": "string"
        }
      ],
      "name": "getPayMap",
      "outputs": [
        {
          "internalType": "address",
          "name": "",
          "type": "address"
        }
      ],
      "stateMutability": "view",
      "type": "function"
    },
    {
      "inputs": [],
      "name": "getPlatformRate",
      "outputs": [
        {
          "internalType": "uint256",
          "name": "",
          "type": "uint256"
        }
      ],
      "stateMutability": "view",
      "type": "function"
    },
    {
      "inputs": [
        {
          "internalType": "string",
          "name": "_did",
          "type": "string"
        },
        {
          "internalType": "string",
          "name": "_method",
          "type": "string"
        }
      ],
      "name": "getSearchResult",
      "outputs": [
        {
          "internalType": "bytes32",
          "name": "",
          "type": "bytes32"
        }
      ],
      "stateMutability": "view",
      "type": "function"
    },
    {
      "inputs": [],
      "name": "maxChannel",
      "outputs": [
        {
          "internalType": "uint256",
          "name": "",
          "type": "uint256"
        }
      ],
      "stateMutability": "view",
      "type": "function"
    },
    {
      "inputs": [],
      "name": "owner",
      "outputs": [
        {
          "internalType": "address",
          "name": "",
          "type": "address"
        }
      ],
      "stateMutability": "view",
      "type": "function"
    },
    {
      "inputs": [
        {
          "internalType": "string",
          "name": "_pubkey",
          "type": "string"
        },
        {
          "internalType": "string",
          "name": "_data",
          "type": "string"
        },
        {
          "internalType": "string",
          "name": "_sig",
          "type": "string"
        }
      ],
      "name": "p256Verify",
      "outputs": [
        {
          "internalType": "bool",
          "name": "",
          "type": "bool"
        }
      ],
      "stateMutability": "view",
      "type": "function"
    },
    {
      "inputs": [],
      "name": "renounceOwnership",
      "outputs": [],
      "stateMutability": "nonpayable",
      "type": "function"
    },
    {
      "inputs": [
        {
          "internalType": "string",
          "name": "did",
          "type": "string"
        },
        {
          "internalType": "string",
          "name": "method",
          "type": "string"
        }
      ],
      "name": "requestResultFromList",
      "outputs": [],
      "stateMutability": "payable",
      "type": "function"
    },
    {
      "inputs": [
        {
          "internalType": "uint256",
          "name": "_fee",
          "type": "uint256"
        }
      ],
      "name": "setFee",
      "outputs": [],
      "stateMutability": "nonpayable",
      "type": "function"
    },
    {
      "inputs": [
        {
          "internalType": "string",
          "name": "_jobId",
          "type": "string"
        },
        {
          "internalType": "address",
          "name": "_receiveAddress",
          "type": "address"
        }
      ],
      "name": "setPayMap",
      "outputs": [],
      "stateMutability": "nonpayable",
      "type": "function"
    },
    {
      "inputs": [
        {
          "internalType": "uint256",
          "name": "_platformRate",
          "type": "uint256"
        }
      ],
      "name": "setPlatformRate",
      "outputs": [],
      "stateMutability": "nonpayable",
      "type": "function"
    },
    {
      "inputs": [
        {
          "internalType": "address",
          "name": "newOwner",
          "type": "address"
        }
      ],
      "name": "transferOwnership",
      "outputs": [],
      "stateMutability": "nonpayable",
      "type": "function"
    },
    {
      "inputs": [],
      "name": "withDrawCurrency",
      "outputs": [],
      "stateMutability": "nonpayable",
      "type": "function"
    },
    {
      "stateMutability": "payable",
      "type": "receive"
    }
  ],
  "bytecode": "0x608060405234801561001057600080fd5b5061533d806100206000396000f3fe60806040526004361061014f5760003560e01c80636f09273e116100b6578063b16b5a131161006f578063b16b5a1314610419578063b887cd5a14610456578063ced72f871461047f578063d1fd3948146104aa578063ed183a19146104d6578063f2fde38b146104ff57610156565b80636f09273e1461032d578063715018a6146103445780638681a58e1461035b5780638da5cb5b146103985780638f4ec2aa146103c3578063aa12bc3c146103ee57610156565b80634dd77f2e116101085780634dd77f2e14610240578063542d189e1461025c57806354db8d0d14610287578063685051c1146102b057806369fe0e2d146102d95780636ef382321461030257610156565b80630146cf291461015857806302be60401461016f5780632c7bcda7146101ac5780632e654c10146101c35780633115db9d146101ec5780633a5592821461021757610156565b3661015657005b005b34801561016457600080fd5b5061016d610528565b005b34801561017b57600080fd5b50610196600480360381019061019191906144f5565b61053a565b6040516101a39190614d9d565b60405180910390f35b3480156101b857600080fd5b506101c161072a565b005b3480156101cf57600080fd5b506101ea60048036038101906101e59190614460565b610822565b005b3480156101f857600080fd5b5061020161096f565b60405161020e9190614f09565b60405180910390f35b34801561022357600080fd5b5061023e600480360381019061023991906143d0565b610974565b005b61025a600480360381019061025591906144f5565b610a72565b005b34801561026857600080fd5b50610271611034565b60405161027e9190614d60565b60405180910390f35b34801561029357600080fd5b506102ae60048036038101906102a991906145f8565b6112bd565b005b3480156102bc57600080fd5b506102d760048036038101906102d291906144a1565b611377565b005b3480156102e557600080fd5b5061030060048036038101906102fb91906145f8565b611488565b005b34801561030e57600080fd5b50610317611542565b6040516103249190614f09565b60405180910390f35b34801561033957600080fd5b50610342611547565b005b34801561035057600080fd5b50610359611614565b005b34801561036757600080fd5b50610382600480360381019061037d9190614460565b611784565b60405161038f9190614cc9565b60405180910390f35b3480156103a457600080fd5b506103ad6117cd565b6040516103ba9190614cc9565b60405180910390f35b3480156103cf57600080fd5b506103d86117f7565b6040516103e59190614f09565b60405180910390f35b3480156103fa57600080fd5b50610403611802565b6040516104109190614d44565b60405180910390f35b34801561042557600080fd5b50610440600480360381019061043b9190614561565b611831565b60405161044d9190614d82565b60405180910390f35b34801561046257600080fd5b5061047d60048036038101906104789190614311565b611893565b005b34801561048b57600080fd5b50610494611a9f565b6040516104a19190614f09565b60405180910390f35b3480156104b657600080fd5b506104bf611aaa565b6040516104cd929190614d0d565b60405180910390f35b3480156104e257600080fd5b506104fd60048036038101906104f8919061440c565b611c24565b005b34801561050b57600080fd5b50610526600480360381019061052191906142e8565b611e41565b005b6000606e81905550610538612036565b565b600080600090505b603281101561071e5761060184606f836032811061055c57fe5b601202016000018054600181600116156101000203166002900480601f0160208091040260200160405190810160405280929190818152602001828054600181600116156101000203166002900480156105f75780601f106105cc576101008083540402835291602001916105f7565b820191906000526020600020905b8154815290600101906020018083116105da57829003601f168201915b505050505061205b565b80156106bf57506106be83606f836032811061061957fe5b601202016001018054600181600116156101000203166002900480601f0160208091040260200160405190810160405280929190818152602001828054600181600116156101000203166002900480156106b45780601f10610689576101008083540402835291602001916106b4565b820191906000526020600020905b81548152906001019060200180831161069757829003601f168201915b505050505061205b565b5b80156106ef57506002606f82603281106106d557fe5b6012020160020160009054906101000a900460ff1660ff16145b1561071157606f816032811061070157fe5b6012020160030154915050610724565b8080600101915050610542565b50600090505b92915050565b6107326120b4565b73ffffffffffffffffffffffffffffffffffffffff166107506117cd565b73ffffffffffffffffffffffffffffffffffffffff16146107d9576040517f08c379a00000000000000000000000000000000000000000000000000000000081526004018080602001828103825260208152602001807f4f776e61626c653a2063616c6c6572206973206e6f7420746865206f776e657281525060200191505060405180910390fd5b3373ffffffffffffffffffffffffffffffffffffffff166108fc479081150290604051600060405180830381858888f1935050505015801561081f573d6000803e3d6000fd5b50565b600660019054906101000a900460ff168061084157506108406120bc565b5b806108595750600660009054906101000a900460ff16155b6108ae576040517f08c379a000000000000000000000000000000000000000000000000000000000815260040180806020018281038252602e815260200180615291602e913960400191505060405180910390fd5b6000600660019054906101000a900460ff161590508015610900576001600660016101000a81548160ff0219169083151502179055506001600660006101000a81548160ff0219169083151502179055505b6109086120cd565b81606d908051906020019061091e929190613e7c565b506000606e8190555061092f61216c565b610937612036565b60006103f48190555060006103f781905550801561096b576000600660016101000a81548160ff0219169083151502179055505b5050565b603281565b60008273ffffffffffffffffffffffffffffffffffffffff1682600067ffffffffffffffff811180156109a657600080fd5b506040519080825280601f01601f1916602001820160405280156109d95781602001600182028036833780820191505090505b506040516109e79190614c9b565b60006040518083038185875af1925050503d8060008114610a24576040519150601f19603f3d011682016040523d82523d6000602084013e610a29565b606091505b5050905080610a6d576040517f08c379a0000000000000000000000000000000000000000000000000000000008152600401610a6490614e69565b60405180910390fd5b505050565b6103f754341015610ab8576040517f08c379a0000000000000000000000000000000000000000000000000000000008152600401610aaf90614ea9565b60405180910390fd5b6000801b7f38797b189f8fcca19a8584f8e2b27aa01e3df12fc134242bcd02789670aff65d6000604051610aec9190614df6565b60405180910390a2606e600081548092919060010191905055506000606b805490509050600060326001606e540381610b2157fe5b0690506001606f8260328110610b3357fe5b6012020160020160009054906101000a900460ff1660ff161415610b8c576040517f08c379a0000000000000000000000000000000000000000000000000000000008152600401610b8390614e89565b60405180910390fd5b83606f8260328110610b9a57fe5b601202016000019080519060200190610bb4929190613e7c565b5082606f8260328110610bc357fe5b601202016001019080519060200190610bdd929190613e7c565b506001606f8260328110610bed57fe5b6012020160020160006101000a81548160ff021916908360ff16021790555060005b8281101561102d576000610ce2610cd4606c8481548110610c2c57fe5b906000526020600020018054600181600116156101000203166002900480601f016020809104026020016040519081016040528092919081815260200182805460018160011615610100020316600290048015610cca5780601f10610c9f57610100808354040283529160200191610cca565b820191906000526020600020905b815481529060010190602001808311610cad57829003601f168201915b505050505061227f565b3063ed183a1960e01b6122a9565b9050610d2e6040518060400160405280600381526020017f646964000000000000000000000000000000000000000000000000000000000081525087836122da9092919063ffffffff16565b610d826040518060400160405280600281526020017f6964000000000000000000000000000000000000000000000000000000000000815250610d72606e5461230d565b836122da9092919063ffffffff16565b610dcc6040518060400160405280600681526020017f6d6574686f64000000000000000000000000000000000000000000000000000081525086836122da9092919063ffffffff16565b610e4b6040518060400160405280600481526020017f70617468000000000000000000000000000000000000000000000000000000008152506040518060400160405280601281526020017f726573756c742c7472616e73616374696f6e0000000000000000000000000000815250836122da9092919063ffffffff16565b610e8e606b8381548110610e5b57fe5b9060005260206000200160009054906101000a900473ffffffffffffffffffffffffffffffffffffffff16826000612451565b606f8460328110610e9b57fe5b6012020160050183600c8110610ead57fe5b0181905550606f8360328110610ebf57fe5b6012020160050182600c8110610ed157fe5b01547f38797b189f8fcca19a8584f8e2b27aa01e3df12fc134242bcd02789670aff65d6001604051610f039190614e11565b60405180910390a26000606f8460328110610f1a57fe5b6012020160110183600c8110610f2c57fe5b602091828204019190066101000a81548160ff021916908315150217905550606f8360328110610f5857fe5b6012020160050182600c8110610f6a57fe5b01547f2fd9d21ee86512bf635aea9a4c120aed075b03667e1cb2a500183d908ac1b28587604051610f9b9190614e47565b60405180910390a2606c8281548110610fb057fe5b906000526020600020016103f560008581526020019081526020016000206000606f8660328110610fdd57fe5b6012020160050185600c8110610fef57fe5b01548152602001908152602001600020908054600181600116156101000203166002900461101e929190613f0a565b50508080600101915050610c0f565b5050505050565b61103c613f9f565b606f603280602002604051908101604052809291906000905b828210156112b4578382601202016040518060e0016040529081600082018054600181600116156101000203166002900480601f0160208091040260200160405190810160405280929190818152602001828054600181600116156101000203166002900480156111075780601f106110dc57610100808354040283529160200191611107565b820191906000526020600020905b8154815290600101906020018083116110ea57829003601f168201915b50505050508152602001600182018054600181600116156101000203166002900480601f0160208091040260200160405190810160405280929190818152602001828054600181600116156101000203166002900480156111a95780601f1061117e576101008083540402835291602001916111a9565b820191906000526020600020905b81548152906001019060200180831161118c57829003601f168201915b505050505081526020016002820160009054906101000a900460ff1660ff1660ff168152602001600382015481526020016004820160009054906101000a900460ff1660ff1660ff16815260200160058201600c806020026040519081016040528092919082600c8015611232576020028201915b81548152602001906001019080831161121e575b5050505050815260200160118201600c806020026040519081016040528092919082600c801561129c576020028201916000905b82829054906101000a900460ff161515815260200190600101906020826000010492830192600103820291508084116112665790505b50505050508152505081526020019060010190611055565b50505050905090565b6112c56120b4565b73ffffffffffffffffffffffffffffffffffffffff166112e36117cd565b73ffffffffffffffffffffffffffffffffffffffff161461136c576040517f08c379a00000000000000000000000000000000000000000000000000000000081526004018080602001828103825260208152602001807f4f776e61626c653a2063616c6c6572206973206e6f7420746865206f776e657281525060200191505060405180910390fd5b806103f48190555050565b61137f6120b4565b73ffffffffffffffffffffffffffffffffffffffff1661139d6117cd565b73ffffffffffffffffffffffffffffffffffffffff1614611426576040517f08c379a00000000000000000000000000000000000000000000000000000000081526004018080602001828103825260208152602001807f4f776e61626c653a2063616c6c6572206973206e6f7420746865206f776e657281525060200191505060405180910390fd5b806103f3836040516114389190614cb2565b908152602001604051809103902060006101000a81548173ffffffffffffffffffffffffffffffffffffffff021916908373ffffffffffffffffffffffffffffffffffffffff1602179055505050565b6114906120b4565b73ffffffffffffffffffffffffffffffffffffffff166114ae6117cd565b73ffffffffffffffffffffffffffffffffffffffff1614611537576040517f08c379a00000000000000000000000000000000000000000000000000000000081526004018080602001828103825260208152602001807f4f776e61626c653a2063616c6c6572206973206e6f7420746865206f776e657281525060200191505060405180910390fd5b806103f78190555050565b600c81565b61154f6120b4565b73ffffffffffffffffffffffffffffffffffffffff1661156d6117cd565b73ffffffffffffffffffffffffffffffffffffffff16146115f6576040517f08c379a00000000000000000000000000000000000000000000000000000000081526004018080602001828103825260208152602001807f4f776e61626c653a2063616c6c6572206973206e6f7420746865206f776e657281525060200191505060405180910390fd5b606b60006116049190613fcd565b606c60006116129190613fee565b565b61161c6120b4565b73ffffffffffffffffffffffffffffffffffffffff1661163a6117cd565b73ffffffffffffffffffffffffffffffffffffffff16146116c3576040517f08c379a00000000000000000000000000000000000000000000000000000000081526004018080602001828103825260208152602001807f4f776e61626c653a2063616c6c6572206973206e6f7420746865206f776e657281525060200191505060405180910390fd5b600073ffffffffffffffffffffffffffffffffffffffff16603960009054906101000a900473ffffffffffffffffffffffffffffffffffffffff1673ffffffffffffffffffffffffffffffffffffffff167f8be0079c531659141344cd1fd0a4f28419497f9722a3daafe3b4186f6b6457e060405160405180910390a36000603960006101000a81548173ffffffffffffffffffffffffffffffffffffffff021916908373ffffffffffffffffffffffffffffffffffffffff160217905550565b60006103f3826040516117979190614cb2565b908152602001604051809103902060009054906101000a900473ffffffffffffffffffffffffffffffffffffffff169050919050565b6000603960009054906101000a900473ffffffffffffffffffffffffffffffffffffffff16905090565b60006103f454905090565b61180a61400f565b61181261400f565b6000610180826000836103e85afa61182957600080fd5b819250505090565b60008061184761184186866125d0565b846125d0565b9050600061185482612727565b905061185e614032565b60208160c1846103e95afa61187257600080fd5b60018160006001811061188157fe5b60200201511493505050509392505050565b6000806118a86118a28861293d565b876125d0565b905060006118b582612727565b80519060200120905060006118da6118cc836129e3565b6118d5846129e3565b6125d0565b905060006118e788612727565b8051906020012090506118fb888389611831565b94508461193d576040517f08c379a000000000000000000000000000000000000000000000000000000000815260040161193490614ee9565b60405180910390fd5b61194681612a70565b945084611988576040517f08c379a000000000000000000000000000000000000000000000000000000000815260040161197f90614ec9565b60405180910390fd5b61199189612ac5565b611a3557606b8a9080600181540180825580915050600190039060005260206000200160009091909190916101000a81548173ffffffffffffffffffffffffffffffffffffffff021916908373ffffffffffffffffffffffffffffffffffffffff160217905550606c89908060018154018082558091505060019003906000526020600020016000909190919091509080519060200190611a33929190613e7c565b505b856103f38a604051611a479190614cb2565b908152602001604051809103902060006101000a81548173ffffffffffffffffffffffffffffffffffffffff021916908373ffffffffffffffffffffffffffffffffffffffff16021790555050505050505050505050565b60006103f754905090565b606080606b606c81805480602002602001604051908101604052809291908181526020018280548015611b3257602002820191906000526020600020905b8160009054906101000a900473ffffffffffffffffffffffffffffffffffffffff1673ffffffffffffffffffffffffffffffffffffffff1681526020019060010190808311611ae8575b5050505050915080805480602002602001604051908101604052809291908181526020016000905b82821015611c16578382906000526020600020018054600181600116156101000203166002900480601f016020809104026020016040519081016040528092919081815260200182805460018160011615610100020316600290048015611c025780601f10611bd757610100808354040283529160200191611c02565b820191906000526020600020905b815481529060010190602001808311611be557829003601f168201915b505050505081526020019060010190611b5a565b505050509050915091509091565b816005600082815260200190815260200160002060009054906101000a900473ffffffffffffffffffffffffffffffffffffffff1673ffffffffffffffffffffffffffffffffffffffff163373ffffffffffffffffffffffffffffffffffffffff1614611cdc576040517f08c379a00000000000000000000000000000000000000000000000000000000081526004018080602001828103825260288152602001806152e06028913960400191505060405180910390fd5b6005600082815260200190815260200160002060006101000a81549073ffffffffffffffffffffffffffffffffffffffff0219169055807f7cc135e0cebb02c3480ae5d74d377283180a2601f8f644edf7987b009316c63a60405160405180910390a2827f38797b189f8fcca19a8584f8e2b27aa01e3df12fc134242bcd02789670aff65d6002604051611d709190614e2c565b60405180910390a26000611d8384612bbd565b90506000838051906020012090506001606f8360328110611da057fe5b6012020160020160009054906101000a900460ff1660ff161415611e3a576000801b606f8360328110611dcf57fe5b60120201600301541415611e055780606f8360328110611deb57fe5b6012020160030181905550611e008286612c32565b611e2d565b80606f8360328110611e1357fe5b60120201600301541415611e2c57611e2b8286612c32565b5b5b611e3985838684612cd5565b5b5050505050565b611e496120b4565b73ffffffffffffffffffffffffffffffffffffffff16611e676117cd565b73ffffffffffffffffffffffffffffffffffffffff1614611ef0576040517f08c379a00000000000000000000000000000000000000000000000000000000081526004018080602001828103825260208152602001807f4f776e61626c653a2063616c6c6572206973206e6f7420746865206f776e657281525060200191505060405180910390fd5b600073ffffffffffffffffffffffffffffffffffffffff168173ffffffffffffffffffffffffffffffffffffffff161415611f76576040517f08c379a00000000000000000000000000000000000000000000000000000000081526004018080602001828103825260268152602001806152486026913960400191505060405180910390fd5b8073ffffffffffffffffffffffffffffffffffffffff16603960009054906101000a900473ffffffffffffffffffffffffffffffffffffffff1673ffffffffffffffffffffffffffffffffffffffff167f8be0079c531659141344cd1fd0a4f28419497f9722a3daafe3b4186f6b6457e060405160405180910390a380603960006101000a81548173ffffffffffffffffffffffffffffffffffffffff021916908373ffffffffffffffffffffffffffffffffffffffff16021790555050565b60005b60328110156120585761204b81612d68565b8080600101915050612039565b50565b60008160405160200161206e9190614cb2565b60405160208183030381529060405280519060200120836040516020016120959190614cb2565b6040516020818303038152906040528051906020012014905092915050565b600033905090565b60006120c730612ea7565b15905090565b61216a73a9e0a397e7ff13cfe4dd6632b48da41375292c2f73ffffffffffffffffffffffffffffffffffffffff166338cc48316040518163ffffffff1660e01b815260040160206040518083038186803b15801561212a57600080fd5b505afa15801561213e573d6000803e3d6000fd5b505050506040513d602081101561215457600080fd5b8101908080519060200190929190505050612eba565b565b600660019054906101000a900460ff168061218b575061218a6120bc565b5b806121a35750600660009054906101000a900460ff16155b6121f8576040517f08c379a000000000000000000000000000000000000000000000000000000000815260040180806020018281038252602e815260200180615291602e913960400191505060405180910390fd5b6000600660019054906101000a900460ff16159050801561224a576001600660016101000a81548160ff0219169083151502179055506001600660006101000a81548160ff0219169083151502179055505b612252612efe565b61225a613001565b801561227c576000600660016101000a81548160ff0219169083151502179055505b50565b60008082905060008151141561229b576000801b9150506122a4565b60208301519150505b919050565b6122b1614054565b6122b9614054565b6122d0858585846131ad909392919063ffffffff16565b9150509392505050565b6122f182846080015161325d90919063ffffffff16565b61230881846080015161325d90919063ffffffff16565b505050565b60606000821415612355576040518060400160405280600181526020017f3000000000000000000000000000000000000000000000000000000000000000815250905061244c565b600082905060005b6000821461237f578080600101915050600a828161237757fe5b04915061235d565b60008167ffffffffffffffff8111801561239857600080fd5b506040519080825280601f01601f1916602001820160405280156123cb5781602001600182028036833780820191505090505b50905060008290508593505b6000841461244457600a84816123e957fe5b0660300160f81b8282600190039250828151811061240357fe5b60200101907effffffffffffffffffffffffffffffffffffffffffffffffffffffffffffff1916908160001a905350600a848161243c57fe5b0493506123d7565b819450505050505b919050565b6000806004549050600181016004819055506000633c6d41b960e01b600080876000015188604001518660028b6080015160000151604051602401808873ffffffffffffffffffffffffffffffffffffffff168152602001878152602001868152602001857bffffffffffffffffffffffffffffffffffffffffffffffffffffffff1916815260200184815260200183815260200180602001828103825283818151815260200191508051906020019080838360005b83811015612522578082015181840152602081019050612507565b50505050905090810190601f16801561254f5780820380516001836020036101000a031916815260200191505b5098505050505050505050604051602081830303815290604052907bffffffffffffffffffffffffffffffffffffffffffffffffffffffff19166020820180517bffffffffffffffffffffffffffffffffffffffffffffffffffffffff838183161783525050505090506125c586838684613282565b925050509392505050565b6060600083905060008390506000815183510167ffffffffffffffff811180156125f957600080fd5b506040519080825280601f01601f19166020018201604052801561262c5781602001600182028036833780820191505090505b50905060008190506000805b85518110156126a65785818151811061264d57fe5b602001015160f81c60f81b83838060010194508151811061266a57fe5b60200101907effffffffffffffffffffffffffffffffffffffffffffffffffffffffffffff1916908160001a9053508080600101915050612638565b5060005b8451811015612718578481815181106126bf57fe5b602001015160f81c60f81b8383806001019450815181106126dc57fe5b60200101907effffffffffffffffffffffffffffffffffffffffffffffffffffffffffffff1916908160001a90535080806001019150506126aa565b50829550505050505092915050565b606060008290506000815167ffffffffffffffff8111801561274857600080fd5b506040519080825280602002602001820160405280156127775781602001602082028036833780820191505090505b50905060005b825181101561284857600083828151811061279457fe5b602001015160f81c60f81b60f81c905060608160ff1611156127dc57600a60618203018383815181106127c357fe5b602002602001019060ff16908160ff168152505061283a565b60428160ff16111561281457600a60418203018383815181106127fb57fe5b602002602001019060ff16908160ff1681525050612839565b6030810383838151811061282457fe5b602002602001019060ff16908160ff16815250505b5b50808060010191505061277d565b506000600282518161285657fe5b0467ffffffffffffffff8111801561286d57600080fd5b506040519080825280601f01601f1916602001820160405280156128a05781602001600182028036833780820191505090505b50905060005b8251811015612931578260018201815181106128be57fe5b602002602001015160108483815181106128d457fe5b6020026020010151020160f81b82600283816128ec57fe5b04815181106128f757fe5b60200101907effffffffffffffffffffffffffffffffffffffffffffffffffffffffffffff1916908160001a9053506002810190506128a6565b50809350505050919050565b6060600082604051602001808273ffffffffffffffffffffffffffffffffffffffff1660601b815260140191505060405160208183030381529060405290506000602867ffffffffffffffff8111801561299657600080fd5b506040519080825280601f01601f1916602001820160405280156129c95781602001600182028036833780820191505090505b5090506129d78260146134e5565b90508092505050919050565b60606000826040516020018082815260200191505060405160208183030381529060405290506000604067ffffffffffffffff81118015612a2357600080fd5b506040519080825280601f01601f191660200182016040528015612a565781602001600182028036833780820191505090505b509050612a648260206134e5565b90508092505050919050565b600080612a7b611802565b905060005b600c811015612ab9578181600c8110612a9557fe5b6020020151841415612aac57600192505050612ac0565b8080600101915050612a80565b5060009150505b919050565b600080606b80549050905060005b81811015612bb157612b94606c8281548110612aeb57fe5b906000526020600020018054600181600116156101000203166002900480601f016020809104026020016040519081016040528092919081815260200182805460018160011615610100020316600290048015612b895780601f10612b5e57610100808354040283529160200191612b89565b820191906000526020600020905b815481529060010190602001808311612b6c57829003601f168201915b50505050508561205b565b15612ba457600192505050612bb8565b8080600101915050612ad3565b5060009150505b919050565b600080600090505b6032811015612c275760005b600c811015612c195783606f8360328110612be857fe5b6012020160050182600c8110612bfa57fe5b01541415612c0c578192505050612c2d565b8080600101915050612bd1565b508080600101915050612bc5565b50600090505b919050565b60005b600c811015612cd05781606f8460328110612c4c57fe5b6012020160050182600c8110612c5e57fe5b01541415612cc3576001606f8460328110612c7557fe5b6012020160110182600c8110612c8757fe5b602091828204019190066101000a81548160ff0219169083151502179055506000801b606f8460328110612cb757fe5b60120201600301819055505b8080600101915050612c35565b505050565b6002600c026003612ce585613675565b0260ff1610612d6257837f0290f1d2e2f60aa240b412bbc45f994b802eb1673f6948bce1e0da2a62813a38834384604051612d2293929190614db8565b60405180910390a26002606f8460328110612d3957fe5b6012020160020160006101000a81548160ff021916908360ff160217905550612d61836136e2565b5b50505050565b60405180602001604052806000815250606f8260328110612d8557fe5b601202016000019080519060200190612d9f929190613e7c565b5060405180602001604052806000815250606f8260328110612dbd57fe5b601202016001019080519060200190612dd7929190613e7c565b506000606f8260328110612de757fe5b6012020160020160006101000a81548160ff021916908360ff1602179055506000801b606f8260328110612e1757fe5b601202016003018190555060005b600c811015612ea3576000801b606f8360328110612e3f57fe5b6012020160050182600c8110612e5157fe5b01819055506000606f8360328110612e6557fe5b6012020160110182600c8110612e7757fe5b602091828204019190066101000a81548160ff0219169083151502179055508080600101915050612e25565b5050565b600080823b905060008111915050919050565b80600260006101000a81548173ffffffffffffffffffffffffffffffffffffffff021916908373ffffffffffffffffffffffffffffffffffffffff16021790555050565b600660019054906101000a900460ff1680612f1d5750612f1c6120bc565b5b80612f355750600660009054906101000a900460ff16155b612f8a576040517f08c379a000000000000000000000000000000000000000000000000000000000815260040180806020018281038252602e815260200180615291602e913960400191505060405180910390fd5b6000600660019054906101000a900460ff161590508015612fdc576001600660016101000a81548160ff0219169083151502179055506001600660006101000a81548160ff0219169083151502179055505b8015612ffe576000600660016101000a81548160ff0219169083151502179055505b50565b600660019054906101000a900460ff1680613020575061301f6120bc565b5b806130385750600660009054906101000a900460ff16155b61308d576040517f08c379a000000000000000000000000000000000000000000000000000000000815260040180806020018281038252602e815260200180615291602e913960400191505060405180910390fd5b6000600660019054906101000a900460ff1615905080156130df576001600660016101000a81548160ff0219169083151502179055506001600660006101000a81548160ff0219169083151502179055505b60006130e96120b4565b905080603960006101000a81548173ffffffffffffffffffffffffffffffffffffffff021916908373ffffffffffffffffffffffffffffffffffffffff1602179055508073ffffffffffffffffffffffffffffffffffffffff16600073ffffffffffffffffffffffffffffffffffffffff167f8be0079c531659141344cd1fd0a4f28419497f9722a3daafe3b4186f6b6457e060405160405180910390a35080156131aa576000600660016101000a81548160ff0219169083151502179055505b50565b6131b5614054565b6131c58560800151610100613901565b508385600001818152505082856020019073ffffffffffffffffffffffffffffffffffffffff16908173ffffffffffffffffffffffffffffffffffffffff16815250508185604001907bffffffffffffffffffffffffffffffffffffffffffffffffffffffff191690817bffffffffffffffffffffffffffffffffffffffffffffffffffffffff191681525050849050949350505050565b61326a8260038351613955565b61327d8183613ada90919063ffffffff16565b505050565b60003084604051602001808373ffffffffffffffffffffffffffffffffffffffff1660601b815260140182815260200192505050604051602081830303815290604052805190602001209050846005600083815260200190815260200160002060006101000a81548173ffffffffffffffffffffffffffffffffffffffff021916908373ffffffffffffffffffffffffffffffffffffffff160217905550807fb5e6e01e79f91267dc17b4e6314d5d4d03593d2ceee0fbb452b750bd70ea5af960405160405180910390a2600260009054906101000a900473ffffffffffffffffffffffffffffffffffffffff1673ffffffffffffffffffffffffffffffffffffffff16634000aea08685856040518463ffffffff1660e01b8152600401808473ffffffffffffffffffffffffffffffffffffffff16815260200183815260200180602001828103825283818151815260200191508051906020019080838360005b838110156133ff5780820151818401526020810190506133e4565b50505050905090810190601f16801561342c5780820380516001836020036101000a031916815260200191505b50945050505050602060405180830381600087803b15801561344d57600080fd5b505af1158015613461573d6000803e3d6000fd5b505050506040513d602081101561347757600080fd5b81019080805190602001909291905050506134dd576040517f08c379a000000000000000000000000000000000000000000000000000000000815260040180806020018281038252602381526020018061526e6023913960400191505060405180910390fd5b949350505050565b606060006002830267ffffffffffffffff8111801561350357600080fd5b506040519080825280601f01601f1916602001820160405280156135365781602001600182028036833780820191505090505b50905060005b8381101561366a576000601086838151811061355457fe5b602001015160f81c60f81b60f81c60ff168161356c57fe5b04905060008160100287848151811061358157fe5b602001015160f81c60f81b60f81c0390506000600a8360ff16106135ab576057830160f81b6135b3565b6030830160f81b5b90506000600a8360ff16106135ce576057830160f81b6135d6565b6030830160f81b5b9050818686600202815181106135e857fe5b60200101907effffffffffffffffffffffffffffffffffffffffffffffffffffffffffffff1916908160001a9053508086600187600202018151811061362a57fe5b60200101907effffffffffffffffffffffffffffffffffffffffffffffffffffffffffffff1916908160001a90535050505050808060010191505061353c565b508091505092915050565b6000806000905060005b600c8110156136d857606f846032811061369557fe5b6012020160110181600c81106136a757fe5b602091828204019190069054906101000a900460ff16156136cb5781806001019250505b808060010191505061367f565b5080915050919050565b600061373560026003600c816136f457fe5b04026137276127106137196103f454612710036103f754613afc90919063ffffffff16565b613b8290919063ffffffff16565b613b8290919063ffffffff16565b905060005b600c8110156138fc57606f836032811061375057fe5b6012020160110181600c811061376257fe5b602091828204019190069054906101000a900460ff16156138ef576000606f846032811061378c57fe5b6012020160050182600c811061379e57fe5b0154905060006103f5600086815260200190815260200160002060008381526020019081526020016000208054600181600116156101000203166002900480601f01602080910402602001604051908101604052809291908181526020018280546001816001161561010002031660029004801561385d5780601f106138325761010080835404028352916020019161385d565b820191906000526020600020905b81548152906001019060200180831161384057829003601f168201915b5050505050905060006103f3826040516138779190614cb2565b908152602001604051809103902060009054906101000a900473ffffffffffffffffffffffffffffffffffffffff1690507f21e523e74b4bd28fea73412ad9fdd156d8aa03f6d5c93e0511f3bf40e194901681866040516138d9929190614ce4565b60405180910390a16138eb8186610974565b5050505b808060010191505061373a565b505050565b6139096140c1565b60006020838161391557fe5b061461392e576020828161392557fe5b06602003820191505b81836020018181525050604051808452600081528281016020016040525082905092915050565b60178167ffffffffffffffff161161398c576139868160058460ff16901b60ff161784613bcc90919063ffffffff16565b50613ad5565b60ff8167ffffffffffffffff16116139e2576139bb601860058460ff16901b1784613bcc90919063ffffffff16565b506139dc8167ffffffffffffffff16600185613bec9092919063ffffffff16565b50613ad4565b61ffff8167ffffffffffffffff1611613a3957613a12601960058460ff16901b1784613bcc90919063ffffffff16565b50613a338167ffffffffffffffff16600285613bec9092919063ffffffff16565b50613ad3565b63ffffffff8167ffffffffffffffff1611613a9257613a6b601a60058460ff16901b1784613bcc90919063ffffffff16565b50613a8c8167ffffffffffffffff16600485613bec9092919063ffffffff16565b50613ad2565b613aaf601b60058460ff16901b1784613bcc90919063ffffffff16565b50613ad08167ffffffffffffffff16600885613bec9092919063ffffffff16565b505b5b5b5b505050565b613ae26140c1565b613af483846000015151848551613c0e565b905092915050565b600080831415613b0f5760009050613b7c565b6000828402905082848281613b2057fe5b0414613b77576040517f08c379a00000000000000000000000000000000000000000000000000000000081526004018080602001828103825260218152602001806152bf6021913960400191505060405180910390fd5b809150505b92915050565b6000613bc483836040518060400160405280601a81526020017f536166654d6174683a206469766973696f6e206279207a65726f000000000000815250613cc7565b905092915050565b613bd46140c1565b613be48384600001515184613d8d565b905092915050565b613bf46140c1565b613c05848560000151518585613ddb565b90509392505050565b613c166140c1565b8251821115613c2457600080fd5b84602001518285011115613c4f57613c4e856002613c488860200151888701613e3c565b02613e58565b5b600080865180518760208301019350808887011115613c6e5787860182525b60208701925050505b60208410613c9a5780518252602082019150602081019050602084039350613c77565b60006001856020036101000a03905080198251168184511681811785525050879350505050949350505050565b60008083118290613d73576040517f08c379a00000000000000000000000000000000000000000000000000000000081526004018080602001828103825283818151815260200191508051906020019080838360005b83811015613d38578082015181840152602081019050613d1d565b50505050905090810190601f168015613d655780820380516001836020036101000a031916815260200191505b509250505060405180910390fd5b506000838581613d7f57fe5b049050809150509392505050565b613d956140c1565b83602001518310613db257613db1846002866020015102613e58565b5b8351805160208583010184815381861415613dce576001820183525b5050508390509392505050565b613de36140c1565b84602001518483011115613e0157613e0085600286850102613e58565b5b60006001836101000a0390508551838682010185831982511617815281518588011115613e2e5784870182525b505085915050949350505050565b600081831115613e4e57829050613e52565b8190505b92915050565b600082600001519050613e6b8383613901565b50613e768382613ada565b50505050565b828054600181600116156101000203166002900490600052602060002090601f016020900481019282613eb25760008555613ef9565b82601f10613ecb57805160ff1916838001178555613ef9565b82800160010185558215613ef9579182015b82811115613ef8578251825591602001919060010190613edd565b5b509050613f0691906140db565b5090565b828054600181600116156101000203166002900490600052602060002090601f016020900481019282613f405760008555613f8e565b82601f10613f515780548555613f8e565b82800160010185558215613f8e57600052602060002091601f016020900482015b82811115613f8d578254825591600101919060010190613f72565b5b509050613f9b91906140db565b5090565b6040518061064001604052806032905b613fb76140f8565b815260200190600190039081613faf5790505090565b5080546000825590600052602060002090810190613feb91906140db565b50565b508054600082559060005260206000209081019061400c919061414a565b50565b604051806101800160405280600c90602082028036833780820191505090505090565b6040518060200160405280600190602082028036833780820191505090505090565b6040518060a0016040528060008019168152602001600073ffffffffffffffffffffffffffffffffffffffff16815260200160007bffffffffffffffffffffffffffffffffffffffffffffffffffffffff19168152602001600081526020016140bb6140c1565b81525090565b604051806040016040528060608152602001600081525090565b5b808211156140f45760008160009055506001016140dc565b5090565b6040518060e001604052806060815260200160608152602001600060ff16815260200160008019168152602001600060ff16815260200161413761400f565b815260200161414461416e565b81525090565b5b8082111561416a57600081816141619190614191565b5060010161414b565b5090565b604051806101800160405280600c90602082028036833780820191505090505090565b50805460018160011615610100020316600290046000825580601f106141b757506141d6565b601f0160209004906000526020600020908101906141d591906140db565b5b50565b60006141ec6141e784614f55565b614f24565b90508281526020810184848401111561420457600080fd5b61420f8482856151ad565b509392505050565b600061422a61422584614f85565b614f24565b90508281526020810184848401111561424257600080fd5b61424d8482856151ad565b509392505050565b60008135905061426481615202565b92915050565b60008135905061427981615219565b92915050565b600082601f83011261429057600080fd5b81356142a08482602086016141d9565b91505092915050565b600082601f8301126142ba57600080fd5b81356142ca848260208601614217565b91505092915050565b6000813590506142e281615230565b92915050565b6000602082840312156142fa57600080fd5b600061430884828501614255565b91505092915050565b600080600080600060a0868803121561432957600080fd5b600061433788828901614255565b955050602086013567ffffffffffffffff81111561435457600080fd5b614360888289016142a9565b945050604086013567ffffffffffffffff81111561437d57600080fd5b614389888289016142a9565b935050606086013567ffffffffffffffff8111156143a657600080fd5b6143b2888289016142a9565b92505060806143c388828901614255565b9150509295509295909350565b600080604083850312156143e357600080fd5b60006143f185828601614255565b9250506020614402858286016142d3565b9150509250929050565b6000806040838503121561441f57600080fd5b600061442d8582860161426a565b925050602083013567ffffffffffffffff81111561444a57600080fd5b6144568582860161427f565b9150509250929050565b60006020828403121561447257600080fd5b600082013567ffffffffffffffff81111561448c57600080fd5b614498848285016142a9565b91505092915050565b600080604083850312156144b457600080fd5b600083013567ffffffffffffffff8111156144ce57600080fd5b6144da858286016142a9565b92505060206144eb85828601614255565b9150509250929050565b6000806040838503121561450857600080fd5b600083013567ffffffffffffffff81111561452257600080fd5b61452e858286016142a9565b925050602083013567ffffffffffffffff81111561454b57600080fd5b614557858286016142a9565b9150509250929050565b60008060006060848603121561457657600080fd5b600084013567ffffffffffffffff81111561459057600080fd5b61459c868287016142a9565b935050602084013567ffffffffffffffff8111156145b957600080fd5b6145c5868287016142a9565b925050604084013567ffffffffffffffff8111156145e257600080fd5b6145ee868287016142a9565b9150509250925092565b60006020828403121561460a57600080fd5b6000614618848285016142d3565b91505092915050565b600061462d8383614691565b60208301905092915050565b600061464583836148fc565b60208301905092915050565b600061465d838361491a565b60208301905092915050565b600061467583836149cf565b905092915050565b60006146898383614bd8565b905092915050565b61469a81615118565b82525050565b6146a981615118565b82525050565b60006146ba82614ff3565b6146c48185615081565b93506146cf83614fb5565b8060005b838110156147005781516146e78882614621565b97506146f283615040565b9250506001810190506146d3565b5085935050505092915050565b61471681614ffe565b6147208184615092565b925061472b82614fc5565b8060005b8381101561475c5781516147438782614639565b965061474e8361504d565b92505060018101905061472f565b505050505050565b61476d81615009565b614777818461509d565b925061478282614fcf565b8060005b838110156147b357815161479a8782614651565b96506147a58361505a565b925050600181019050614786565b505050505050565b6147c481615009565b6147ce81846150a8565b92506147d982614fcf565b8060005b8381101561480a5781516147f18782614651565b96506147fc8361505a565b9250506001810190506147dd565b505050505050565b600061481d82615014565b61482781856150b3565b93508360208202850161483985614fd9565b8060005b8581101561487557848403895281516148568582614669565b945061486183615067565b925060208a0199505060018101905061483d565b50829750879550505050505092915050565b60006148928261501f565b61489c81856150c4565b9350836020820285016148ae85614fe9565b8060005b858110156148ea57848403895281516148cb858261467d565b94506148d683615074565b925060208a019950506001810190506148b2565b50829750879550505050505092915050565b6149058161512a565b82525050565b6149148161512a565b82525050565b61492381615136565b82525050565b61493281615136565b82525050565b60006149438261502a565b61494d81856150cf565b935061495d8185602086016151bc565b614966816151f1565b840191505092915050565b600061497c8261502a565b61498681856150e0565b93506149968185602086016151bc565b80840191505092915050565b6149ab81615177565b82525050565b6149ba81615189565b82525050565b6149c98161519b565b82525050565b60006149da82615035565b6149e481856150eb565b93506149f48185602086016151bc565b6149fd816151f1565b840191505092915050565b6000614a1382615035565b614a1d81856150fc565b9350614a2d8185602086016151bc565b614a36816151f1565b840191505092915050565b6000614a4c82615035565b614a56818561510d565b9350614a668185602086016151bc565b80840191505092915050565b6000614a7f603e836150fc565b91507f5472616e7366657248656c7065723a3a736166655472616e736665724375727260008301527f656e63793a2043757272656e6379207472616e73666572206661696c656400006020830152604082019050919050565b6000614ae5601b836150fc565b91507f746f6f206d616e792063616c6c732c706c6561736520776169742000000000006000830152602082019050919050565b6000614b256011836150fc565b91507f666565206973206e6f7420656e6f7567680000000000000000000000000000006000830152602082019050919050565b6000614b65601c836150fc565b91507f61726269746572206973206e6f7420696e20746865206c6973742021000000006000830152602082019050919050565b6000614ba56018836150fc565b91507f7032353656657269667920646f206e6f742070617373202100000000000000006000830152602082019050919050565b60006103a0830160008301518482036000860152614bf682826149cf565b91505060208301518482036020860152614c1082826149cf565b9150506040830151614c256040860182614c8c565b506060830151614c38606086018261491a565b506080830151614c4b6080860182614c8c565b5060a0830151614c5e60a0860182614764565b5060c0830151614c7261022086018261470d565b508091505092915050565b614c8681615160565b82525050565b614c958161516a565b82525050565b6000614ca78284614971565b915081905092915050565b6000614cbe8284614a41565b915081905092915050565b6000602082019050614cde60008301846146a0565b92915050565b6000604082019050614cf960008301856146a0565b614d066020830184614c7d565b9392505050565b60006040820190508181036000830152614d2781856146af565b90508181036020830152614d3b8184614812565b90509392505050565b600061018082019050614d5a60008301846147bb565b92915050565b60006020820190508181036000830152614d7a8184614887565b905092915050565b6000602082019050614d97600083018461490b565b92915050565b6000602082019050614db26000830184614929565b92915050565b60006060820190508181036000830152614dd28186614938565b9050614de16020830185614c7d565b614dee6040830184614929565b949350505050565b6000602082019050614e0b60008301846149a2565b92915050565b6000602082019050614e2660008301846149b1565b92915050565b6000602082019050614e4160008301846149c0565b92915050565b60006020820190508181036000830152614e618184614a08565b905092915050565b60006020820190508181036000830152614e8281614a72565b9050919050565b60006020820190508181036000830152614ea281614ad8565b9050919050565b60006020820190508181036000830152614ec281614b18565b9050919050565b60006020820190508181036000830152614ee281614b58565b9050919050565b60006020820190508181036000830152614f0281614b98565b9050919050565b6000602082019050614f1e6000830184614c7d565b92915050565b6000604051905081810181811067ffffffffffffffff82111715614f4b57614f4a6151ef565b5b8060405250919050565b600067ffffffffffffffff821115614f7057614f6f6151ef565b5b601f19601f8301169050602081019050919050565b600067ffffffffffffffff821115614fa057614f9f6151ef565b5b601f19601f8301169050602081019050919050565b6000819050602082019050919050565b6000819050919050565b6000819050919050565b6000819050602082019050919050565b6000819050919050565b600081519050919050565b6000600c9050919050565b6000600c9050919050565b600081519050919050565b600060329050919050565b600081519050919050565b600081519050919050565b6000602082019050919050565b6000602082019050919050565b6000602082019050919050565b6000602082019050919050565b6000602082019050919050565b600082825260208201905092915050565b600081905092915050565b600081905092915050565b600081905092915050565b600082825260208201905092915050565b600081905092915050565b600082825260208201905092915050565b600081905092915050565b600082825260208201905092915050565b600082825260208201905092915050565b600081905092915050565b600061512382615140565b9050919050565b60008115159050919050565b6000819050919050565b600073ffffffffffffffffffffffffffffffffffffffff82169050919050565b6000819050919050565b600060ff82169050919050565b60006151828261516a565b9050919050565b60006151948261516a565b9050919050565b60006151a68261516a565b9050919050565b82818337600083830152505050565b60005b838110156151da5780820151818401526020810190506151bf565b838111156151e9576000848401525b50505050565bfe5b6000601f19601f8301169050919050565b61520b81615118565b811461521657600080fd5b50565b61522281615136565b811461522d57600080fd5b50565b61523981615160565b811461524457600080fd5b5056fe4f776e61626c653a206e6577206f776e657220697320746865207a65726f2061646472657373756e61626c6520746f207472616e73666572416e6443616c6c20746f206f7261636c65496e697469616c697a61626c653a20636f6e747261637420697320616c726561647920696e697469616c697a6564536166654d6174683a206d756c7469706c69636174696f6e206f766572666c6f77536f75726365206d75737420626520746865206f7261636c65206f66207468652072657175657374a2646970667358221220ba18131911a409ea53ce1cb11d3ff49af3a7289b9921ef296aea1b03ae9d947c64736f6c63430007060033",
  "linkReferences": {},
  "deployedLinkReferences": {}
}