{
  "_format": "hh-sol-artifact-1",
  "contractName": "DataConsumer",
  "sourceName": "contracts/DataConsumer.sol",
  "abi": [
    {
      "anonymous": false,
      "inputs": [
        {
          "indexed": true,
          "internalType": "bytes32",
          "name": "id",
          "type": "bytes32"
        }
      ],
      "name": "ChainlinkCancelled",
      "type": "event"
    },
    {
      "anonymous": false,
      "inputs": [
        {
          "indexed": true,
          "internalType": "bytes32",
          "name": "id",
          "type": "bytes32"
        }
      ],
      "name": "ChainlinkFulfilled",
      "type": "event"
    },
    {
      "anonymous": false,
      "inputs": [
        {
          "indexed": true,
          "internalType": "bytes32",
          "name": "id",
          "type": "bytes32"
        }
      ],
      "name": "ChainlinkRequested",
      "type": "event"
    },
    {
      "anonymous": false,
      "inputs": [
        {
          "indexed": true,
          "internalType": "bytes32",
          "name": "requestId",
          "type": "bytes32"
        },
        {
          "indexed": false,
          "internalType": "uint8",
          "name": "logNum",
          "type": "uint8"
        }
      ],
      "name": "Log",
      "type": "event"
    },
    {
      "anonymous": false,
      "inputs": [
        {
          "indexed": false,
          "internalType": "address",
          "name": "recAddress",
          "type": "address"
        },
        {
          "indexed": false,
          "internalType": "uint256",
          "name": "value",
          "type": "uint256"
        }
      ],
      "name": "LogAddress",
      "type": "event"
    },
    {
      "anonymous": false,
      "inputs": [
        {
          "indexed": true,
          "internalType": "address",
          "name": "previousOwner",
          "type": "address"
        },
        {
          "indexed": true,
          "internalType": "address",
          "name": "newOwner",
          "type": "address"
        }
      ],
      "name": "OwnershipTransferred",
      "type": "event"
    },
    {
      "anonymous": false,
      "inputs": [
        {
          "indexed": true,
          "internalType": "bytes32",
          "name": "requestId",
          "type": "bytes32"
        },
        {
          "indexed": false,
          "internalType": "bytes",
          "name": "data",
          "type": "bytes"
        },
        {
          "indexed": false,
          "internalType": "uint256",
          "name": "blockNumber",
          "type": "uint256"
        },
        {
          "indexed": false,
          "internalType": "bytes32",
          "name": "datahash",
          "type": "bytes32"
        }
      ],
      "name": "SearchConformed",
      "type": "event"
    },
    {
      "anonymous": false,
      "inputs": [
        {
          "indexed": true,
          "internalType": "bytes32",
          "name": "requestId",
          "type": "bytes32"
        },
        {
          "indexed": false,
          "internalType": "string",
          "name": "key",
          "type": "string"
        }
      ],
      "name": "SearchInfo",
      "type": "event"
    },
    {
      "stateMutability": "payable",
      "type": "fallback"
    },
    {
      "inputs": [],
      "name": "ARBITER_NUM",
      "outputs": [
        {
          "internalType": "uint256",
          "name": "",
          "type": "uint256"
        }
      ],
      "stateMutability": "view",
      "type": "function"
    },
    {
      "inputs": [
        {
          "internalType": "string",
          "name": "_version",
          "type": "string"
        }
      ],
      "name": "__DataConsumer_init",
      "outputs": [],
      "stateMutability": "nonpayable",
      "type": "function"
    },
    {
      "inputs": [
        {
          "internalType": "address",
          "name": "_to",
          "type": "address"
        },
        {
          "internalType": "uint256",
          "name": "_value",
          "type": "uint256"
        }
      ],
      "name": "_safeTransferCurrency",
      "outputs": [],
      "stateMutability": "nonpayable",
      "type": "function"
    },
    {
      "inputs": [
        {
          "internalType": "address",
          "name": "_oracle",
          "type": "address"
        },
        {
          "internalType": "string",
          "name": "_jobId",
          "type": "string"
        },
        {
          "internalType": "string",
          "name": "_pubKey",
          "type": "string"
        },
        {
          "internalType": "string",
          "name": "_sign",
          "type": "string"
        },
        {
          "internalType": "address",
          "name": "_receiveAddress",
          "type": "address"
        }
      ],
      "name": "addOralceAndJobId",
      "outputs": [],
      "stateMutability": "nonpayable",
      "type": "function"
    },
    {
      "inputs": [],
      "name": "clearOralceAndJobId",
      "outputs": [],
      "stateMutability": "nonpayable",
      "type": "function"
    },
    {
      "inputs": [],
      "name": "clearSearchResult",
      "outputs": [],
      "stateMutability": "nonpayable",
      "type": "function"
    },
    {
      "inputs": [
        {
          "internalType": "bytes32",
          "name": "_requestId",
          "type": "bytes32"
        },
        {
          "internalType": "bytes",
          "name": "_didData",
          "type": "bytes"
        }
      ],
      "name": "fulfillEthereumDidData",
      "outputs": [],
      "stateMutability": "nonpayable",
      "type": "function"
    },
    {
      "inputs": [],
      "name": "getArbiterList",
      "outputs": [
        {
          "internalType": "bytes32[12]",
          "name": "",
          "type": "bytes32[12]"
        }
      ],
      "stateMutability": "view",
      "type": "function"
    },
    {
      "inputs": [],
      "name": "getChannelInfoList",
      "outputs": [
        {
          "components": [
            {
              "internalType": "string",
              "name": "did",
              "type": "string"
            },
            {
              "internalType": "string",
              "name": "method",
              "type": "string"
            },
            {
              "internalType": "uint8",
              "name": "status",
              "type": "uint8"
            },
            {
              "internalType": "bytes32",
              "name": "dataHash",
              "type": "bytes32"
            },
            {
              "internalType": "uint8",
              "name": "totalReqestNum",
              "type": "uint8"
            },
            {
              "internalType": "bytes32[12]",
              "name": "requestIds",
              "type": "bytes32[12]"
            },
            {
              "internalType": "bool[12]",
              "name": "isSearchs",
              "type": "bool[12]"
            }
          ],
          "internalType": "struct DataConsumer.ChannelInfo[20]",
          "name": "",
          "type": "tuple[20]"
        }
      ],
      "stateMutability": "view",
      "type": "function"
    },
    {
      "inputs": [],
      "name": "getFee",
      "outputs": [
        {
          "internalType": "uint256",
          "name": "",
          "type": "uint256"
        }
      ],
      "stateMutability": "view",
      "type": "function"
    },
    {
      "inputs": [],
      "name": "getOralceAndJobs",
      "outputs": [
        {
          "internalType": "address[]",
          "name": "",
          "type": "address[]"
        },
        {
          "internalType": "string[]",
          "name": "",
          "type": "string[]"
        }
      ],
      "stateMutability": "view",
      "type": "function"
    },
    {
      "inputs": [
        {
          "internalType": "string",
          "name": "_jobId",
          "type": "string"
        }
      ],
      "name": "getPayMap",
      "outputs": [
        {
          "internalType": "address",
          "name": "",
          "type": "address"
        }
      ],
      "stateMutability": "view",
      "type": "function"
    },
    {
      "inputs": [],
      "name": "getPlatformRate",
      "outputs": [
        {
          "internalType": "uint256",
          "name": "",
          "type": "uint256"
        }
      ],
      "stateMutability": "view",
      "type": "function"
    },
    {
      "inputs": [
        {
          "internalType": "string",
          "name": "_did",
          "type": "string"
        },
        {
          "internalType": "string",
          "name": "_method",
          "type": "string"
        }
      ],
      "name": "getSearchResult",
      "outputs": [
        {
          "internalType": "bytes32",
          "name": "",
          "type": "bytes32"
        }
      ],
      "stateMutability": "view",
      "type": "function"
    },
    {
      "inputs": [],
      "name": "maxChannel",
      "outputs": [
        {
          "internalType": "uint256",
          "name": "",
          "type": "uint256"
        }
      ],
      "stateMutability": "view",
      "type": "function"
    },
    {
      "inputs": [],
      "name": "owner",
      "outputs": [
        {
          "internalType": "address",
          "name": "",
          "type": "address"
        }
      ],
      "stateMutability": "view",
      "type": "function"
    },
    {
      "inputs": [
        {
          "internalType": "string",
          "name": "_pubkey",
          "type": "string"
        },
        {
          "internalType": "string",
          "name": "_data",
          "type": "string"
        },
        {
          "internalType": "string",
          "name": "_sig",
          "type": "string"
        }
      ],
      "name": "p256Verify",
      "outputs": [
        {
          "internalType": "bool",
          "name": "",
          "type": "bool"
        }
      ],
      "stateMutability": "view",
      "type": "function"
    },
    {
      "inputs": [],
      "name": "renounceOwnership",
      "outputs": [],
      "stateMutability": "nonpayable",
      "type": "function"
    },
    {
      "inputs": [
        {
          "internalType": "string",
          "name": "did",
          "type": "string"
        },
        {
          "internalType": "string",
          "name": "method",
          "type": "string"
        }
      ],
      "name": "requestResultFromList",
      "outputs": [],
      "stateMutability": "payable",
      "type": "function"
    },
    {
      "inputs": [
        {
          "internalType": "uint256",
          "name": "_fee",
          "type": "uint256"
        }
      ],
      "name": "setFee",
      "outputs": [],
      "stateMutability": "nonpayable",
      "type": "function"
    },
    {
      "inputs": [
        {
          "internalType": "string",
          "name": "_jobId",
          "type": "string"
        },
        {
          "internalType": "address",
          "name": "_receiveAddress",
          "type": "address"
        }
      ],
      "name": "setPayMap",
      "outputs": [],
      "stateMutability": "nonpayable",
      "type": "function"
    },
    {
      "inputs": [
        {
          "internalType": "uint256",
          "name": "_platformRate",
          "type": "uint256"
        }
      ],
      "name": "setPlatformRate",
      "outputs": [],
      "stateMutability": "nonpayable",
      "type": "function"
    },
    {
      "inputs": [
        {
          "internalType": "address",
          "name": "newOwner",
          "type": "address"
        }
      ],
      "name": "transferOwnership",
      "outputs": [],
      "stateMutability": "nonpayable",
      "type": "function"
    },
    {
      "inputs": [],
      "name": "withDrawCurrency",
      "outputs": [],
      "stateMutability": "nonpayable",
      "type": "function"
    },
    {
      "stateMutability": "payable",
      "type": "receive"
    }
  ],
  "bytecode": "0x608060405234801561001057600080fd5b50615224806100206000396000f3fe60806040526004361061014f5760003560e01c80636f09273e116100b6578063b16b5a131161006f578063b16b5a1314610419578063b887cd5a14610456578063ced72f871461047f578063d1fd3948146104aa578063ed183a19146104d6578063f2fde38b146104ff57610156565b80636f09273e1461032d578063715018a6146103445780638681a58e1461035b5780638da5cb5b146103985780638f4ec2aa146103c3578063aa12bc3c146103ee57610156565b80634dd77f2e116101085780634dd77f2e14610240578063542d189e1461025c57806354db8d0d14610287578063685051c1146102b057806369fe0e2d146102d95780636ef382321461030257610156565b80630146cf291461015857806302be60401461016f5780632c7bcda7146101ac5780632e654c10146101c35780633115db9d146101ec5780633a5592821461021757610156565b3661015657005b005b34801561016457600080fd5b5061016d610528565b005b34801561017b57600080fd5b50610196600480360381019061019191906143dc565b61053a565b6040516101a39190614c84565b60405180910390f35b3480156101b857600080fd5b506101c161072a565b005b3480156101cf57600080fd5b506101ea60048036038101906101e59190614347565b610822565b005b3480156101f857600080fd5b5061020161096f565b60405161020e9190614df0565b60405180910390f35b34801561022357600080fd5b5061023e600480360381019061023991906142b7565b610974565b005b61025a600480360381019061025591906143dc565b610a72565b005b34801561026857600080fd5b5061027161105f565b60405161027e9190614c47565b60405180910390f35b34801561029357600080fd5b506102ae60048036038101906102a991906144df565b6112e8565b005b3480156102bc57600080fd5b506102d760048036038101906102d29190614388565b6113a2565b005b3480156102e557600080fd5b5061030060048036038101906102fb91906144df565b6114b3565b005b34801561030e57600080fd5b5061031761156d565b6040516103249190614df0565b60405180910390f35b34801561033957600080fd5b50610342611572565b005b34801561035057600080fd5b5061035961163f565b005b34801561036757600080fd5b50610382600480360381019061037d9190614347565b6117af565b60405161038f9190614bb0565b60405180910390f35b3480156103a457600080fd5b506103ad6117f8565b6040516103ba9190614bb0565b60405180910390f35b3480156103cf57600080fd5b506103d8611822565b6040516103e59190614df0565b60405180910390f35b3480156103fa57600080fd5b5061040361182d565b6040516104109190614c2b565b60405180910390f35b34801561042557600080fd5b50610440600480360381019061043b9190614448565b61185c565b60405161044d9190614c69565b60405180910390f35b34801561046257600080fd5b5061047d600480360381019061047891906141f8565b6118be565b005b34801561048b57600080fd5b50610494611aca565b6040516104a19190614df0565b60405180910390f35b3480156104b657600080fd5b506104bf611ad5565b6040516104cd929190614bf4565b60405180910390f35b3480156104e257600080fd5b506104fd60048036038101906104f891906142f3565b611c4f565b005b34801561050b57600080fd5b50610526600480360381019061052191906141cf565b611e6c565b005b6000606e81905550610538612061565b565b600080600090505b601481101561071e5761060184606f836014811061055c57fe5b601202016000018054600181600116156101000203166002900480601f0160208091040260200160405190810160405280929190818152602001828054600181600116156101000203166002900480156105f75780601f106105cc576101008083540402835291602001916105f7565b820191906000526020600020905b8154815290600101906020018083116105da57829003601f168201915b5050505050612086565b80156106bf57506106be83606f836014811061061957fe5b601202016001018054600181600116156101000203166002900480601f0160208091040260200160405190810160405280929190818152602001828054600181600116156101000203166002900480156106b45780601f10610689576101008083540402835291602001916106b4565b820191906000526020600020905b81548152906001019060200180831161069757829003601f168201915b5050505050612086565b5b80156106ef57506002606f82601481106106d557fe5b6012020160020160009054906101000a900460ff1660ff16145b1561071157606f816014811061070157fe5b6012020160030154915050610724565b8080600101915050610542565b50600090505b92915050565b6107326120df565b73ffffffffffffffffffffffffffffffffffffffff166107506117f8565b73ffffffffffffffffffffffffffffffffffffffff16146107d9576040517f08c379a00000000000000000000000000000000000000000000000000000000081526004018080602001828103825260208152602001807f4f776e61626c653a2063616c6c6572206973206e6f7420746865206f776e657281525060200191505060405180910390fd5b3373ffffffffffffffffffffffffffffffffffffffff166108fc479081150290604051600060405180830381858888f1935050505015801561081f573d6000803e3d6000fd5b50565b600660019054906101000a900460ff168061084157506108406120e7565b5b806108595750600660009054906101000a900460ff16155b6108ae576040517f08c379a000000000000000000000000000000000000000000000000000000000815260040180806020018281038252602e815260200180615178602e913960400191505060405180910390fd5b6000600660019054906101000a900460ff161590508015610900576001600660016101000a81548160ff0219169083151502179055506001600660006101000a81548160ff0219169083151502179055505b6109086120f8565b81606d908051906020019061091e929190613d63565b506000606e8190555061092f612197565b610937612061565b60006101d88190555060006101db81905550801561096b576000600660016101000a81548160ff0219169083151502179055505b5050565b601481565b60008273ffffffffffffffffffffffffffffffffffffffff1682600067ffffffffffffffff811180156109a657600080fd5b506040519080825280601f01601f1916602001820160405280156109d95781602001600182028036833780820191505090505b506040516109e79190614b82565b60006040518083038185875af1925050503d8060008114610a24576040519150601f19603f3d011682016040523d82523d6000602084013e610a29565b606091505b5050905080610a6d576040517f08c379a0000000000000000000000000000000000000000000000000000000008152600401610a6490614d50565b60405180910390fd5b505050565b6101db54341015610ab8576040517f08c379a0000000000000000000000000000000000000000000000000000000008152600401610aaf90614d90565b60405180910390fd5b6000801b7f38797b189f8fcca19a8584f8e2b27aa01e3df12fc134242bcd02789670aff65d6000604051610aec9190614cdd565b60405180910390a2606e600081548092919060010191905055506000606b805490509050600060146001606e540381610b2157fe5b0690506001606f8260148110610b3357fe5b6012020160020160009054906101000a900460ff1660ff161415610b8c576040517f08c379a0000000000000000000000000000000000000000000000000000000008152600401610b8390614d70565b60405180910390fd5b83606f8260148110610b9a57fe5b601202016000019080519060200190610bb4929190613d63565b5082606f8260148110610bc357fe5b601202016001019080519060200190610bdd929190613d63565b506001606f8260148110610bed57fe5b6012020160020160006101000a81548160ff021916908360ff16021790555060005b82811015611058576000610ce2610cd4606c8481548110610c2c57fe5b906000526020600020018054600181600116156101000203166002900480601f016020809104026020016040519081016040528092919081815260200182805460018160011615610100020316600290048015610cca5780601f10610c9f57610100808354040283529160200191610cca565b820191906000526020600020905b815481529060010190602001808311610cad57829003601f168201915b50505050506122aa565b3063ed183a1960e01b6122d4565b9050610d2e6040518060400160405280600381526020017f646964000000000000000000000000000000000000000000000000000000000081525087836123059092919063ffffffff16565b610dad6040518060400160405280600281526020017f69640000000000000000000000000000000000000000000000000000000000008152506040518060400160405280600381526020017f6162630000000000000000000000000000000000000000000000000000000000815250836123059092919063ffffffff16565b610df76040518060400160405280600681526020017f6d6574686f64000000000000000000000000000000000000000000000000000081525086836123059092919063ffffffff16565b610e766040518060400160405280600481526020017f70617468000000000000000000000000000000000000000000000000000000008152506040518060400160405280601281526020017f726573756c742c7472616e73616374696f6e0000000000000000000000000000815250836123059092919063ffffffff16565b610eb9606b8381548110610e8657fe5b9060005260206000200160009054906101000a900473ffffffffffffffffffffffffffffffffffffffff16826000612338565b606f8460148110610ec657fe5b6012020160050183600c8110610ed857fe5b0181905550606f8360148110610eea57fe5b6012020160050182600c8110610efc57fe5b01547f38797b189f8fcca19a8584f8e2b27aa01e3df12fc134242bcd02789670aff65d6001604051610f2e9190614cf8565b60405180910390a26000606f8460148110610f4557fe5b6012020160110183600c8110610f5757fe5b602091828204019190066101000a81548160ff021916908315150217905550606f8360148110610f8357fe5b6012020160050182600c8110610f9557fe5b01547f2fd9d21ee86512bf635aea9a4c120aed075b03667e1cb2a500183d908ac1b28587604051610fc69190614d2e565b60405180910390a2606c8281548110610fdb57fe5b906000526020600020016101d960008581526020019081526020016000206000606f866014811061100857fe5b6012020160050185600c811061101a57fe5b015481526020019081526020016000209080546001816001161561010002031660029004611049929190613df1565b50508080600101915050610c0f565b5050505050565b611067613e86565b606f601480602002604051908101604052809291906000905b828210156112df578382601202016040518060e0016040529081600082018054600181600116156101000203166002900480601f0160208091040260200160405190810160405280929190818152602001828054600181600116156101000203166002900480156111325780601f1061110757610100808354040283529160200191611132565b820191906000526020600020905b81548152906001019060200180831161111557829003601f168201915b50505050508152602001600182018054600181600116156101000203166002900480601f0160208091040260200160405190810160405280929190818152602001828054600181600116156101000203166002900480156111d45780601f106111a9576101008083540402835291602001916111d4565b820191906000526020600020905b8154815290600101906020018083116111b757829003601f168201915b505050505081526020016002820160009054906101000a900460ff1660ff1660ff168152602001600382015481526020016004820160009054906101000a900460ff1660ff1660ff16815260200160058201600c806020026040519081016040528092919082600c801561125d576020028201915b815481526020019060010190808311611249575b5050505050815260200160118201600c806020026040519081016040528092919082600c80156112c7576020028201916000905b82829054906101000a900460ff161515815260200190600101906020826000010492830192600103820291508084116112915790505b50505050508152505081526020019060010190611080565b50505050905090565b6112f06120df565b73ffffffffffffffffffffffffffffffffffffffff1661130e6117f8565b73ffffffffffffffffffffffffffffffffffffffff1614611397576040517f08c379a00000000000000000000000000000000000000000000000000000000081526004018080602001828103825260208152602001807f4f776e61626c653a2063616c6c6572206973206e6f7420746865206f776e657281525060200191505060405180910390fd5b806101d88190555050565b6113aa6120df565b73ffffffffffffffffffffffffffffffffffffffff166113c86117f8565b73ffffffffffffffffffffffffffffffffffffffff1614611451576040517f08c379a00000000000000000000000000000000000000000000000000000000081526004018080602001828103825260208152602001807f4f776e61626c653a2063616c6c6572206973206e6f7420746865206f776e657281525060200191505060405180910390fd5b806101d7836040516114639190614b99565b908152602001604051809103902060006101000a81548173ffffffffffffffffffffffffffffffffffffffff021916908373ffffffffffffffffffffffffffffffffffffffff1602179055505050565b6114bb6120df565b73ffffffffffffffffffffffffffffffffffffffff166114d96117f8565b73ffffffffffffffffffffffffffffffffffffffff1614611562576040517f08c379a00000000000000000000000000000000000000000000000000000000081526004018080602001828103825260208152602001807f4f776e61626c653a2063616c6c6572206973206e6f7420746865206f776e657281525060200191505060405180910390fd5b806101db8190555050565b600c81565b61157a6120df565b73ffffffffffffffffffffffffffffffffffffffff166115986117f8565b73ffffffffffffffffffffffffffffffffffffffff1614611621576040517f08c379a00000000000000000000000000000000000000000000000000000000081526004018080602001828103825260208152602001807f4f776e61626c653a2063616c6c6572206973206e6f7420746865206f776e657281525060200191505060405180910390fd5b606b600061162f9190613eb4565b606c600061163d9190613ed5565b565b6116476120df565b73ffffffffffffffffffffffffffffffffffffffff166116656117f8565b73ffffffffffffffffffffffffffffffffffffffff16146116ee576040517f08c379a00000000000000000000000000000000000000000000000000000000081526004018080602001828103825260208152602001807f4f776e61626c653a2063616c6c6572206973206e6f7420746865206f776e657281525060200191505060405180910390fd5b600073ffffffffffffffffffffffffffffffffffffffff16603960009054906101000a900473ffffffffffffffffffffffffffffffffffffffff1673ffffffffffffffffffffffffffffffffffffffff167f8be0079c531659141344cd1fd0a4f28419497f9722a3daafe3b4186f6b6457e060405160405180910390a36000603960006101000a81548173ffffffffffffffffffffffffffffffffffffffff021916908373ffffffffffffffffffffffffffffffffffffffff160217905550565b60006101d7826040516117c29190614b99565b908152602001604051809103902060009054906101000a900473ffffffffffffffffffffffffffffffffffffffff169050919050565b6000603960009054906101000a900473ffffffffffffffffffffffffffffffffffffffff16905090565b60006101d854905090565b611835613ef6565b61183d613ef6565b6000610180826000836103e85afa61185457600080fd5b819250505090565b60008061187261186c86866124b7565b846124b7565b9050600061187f8261260e565b9050611889613f19565b60208160c1846103e95afa61189d57600080fd5b6001816000600181106118ac57fe5b60200201511493505050509392505050565b6000806118d36118cd88612824565b876124b7565b905060006118e08261260e565b80519060200120905060006119056118f7836128ca565b611900846128ca565b6124b7565b905060006119128861260e565b80519060200120905061192688838961185c565b945084611968576040517f08c379a000000000000000000000000000000000000000000000000000000000815260040161195f90614dd0565b60405180910390fd5b61197181612957565b9450846119b3576040517f08c379a00000000000000000000000000000000000000000000000000000000081526004016119aa90614db0565b60405180910390fd5b6119bc896129ac565b611a6057606b8a9080600181540180825580915050600190039060005260206000200160009091909190916101000a81548173ffffffffffffffffffffffffffffffffffffffff021916908373ffffffffffffffffffffffffffffffffffffffff160217905550606c89908060018154018082558091505060019003906000526020600020016000909190919091509080519060200190611a5e929190613d63565b505b856101d78a604051611a729190614b99565b908152602001604051809103902060006101000a81548173ffffffffffffffffffffffffffffffffffffffff021916908373ffffffffffffffffffffffffffffffffffffffff16021790555050505050505050505050565b60006101db54905090565b606080606b606c81805480602002602001604051908101604052809291908181526020018280548015611b5d57602002820191906000526020600020905b8160009054906101000a900473ffffffffffffffffffffffffffffffffffffffff1673ffffffffffffffffffffffffffffffffffffffff1681526020019060010190808311611b13575b5050505050915080805480602002602001604051908101604052809291908181526020016000905b82821015611c41578382906000526020600020018054600181600116156101000203166002900480601f016020809104026020016040519081016040528092919081815260200182805460018160011615610100020316600290048015611c2d5780601f10611c0257610100808354040283529160200191611c2d565b820191906000526020600020905b815481529060010190602001808311611c1057829003601f168201915b505050505081526020019060010190611b85565b505050509050915091509091565b816005600082815260200190815260200160002060009054906101000a900473ffffffffffffffffffffffffffffffffffffffff1673ffffffffffffffffffffffffffffffffffffffff163373ffffffffffffffffffffffffffffffffffffffff1614611d07576040517f08c379a00000000000000000000000000000000000000000000000000000000081526004018080602001828103825260288152602001806151c76028913960400191505060405180910390fd5b6005600082815260200190815260200160002060006101000a81549073ffffffffffffffffffffffffffffffffffffffff0219169055807f7cc135e0cebb02c3480ae5d74d377283180a2601f8f644edf7987b009316c63a60405160405180910390a2827f38797b189f8fcca19a8584f8e2b27aa01e3df12fc134242bcd02789670aff65d6002604051611d9b9190614d13565b60405180910390a26000611dae84612aa4565b90506000838051906020012090506001606f8360148110611dcb57fe5b6012020160020160009054906101000a900460ff1660ff161415611e65576000801b606f8360148110611dfa57fe5b60120201600301541415611e305780606f8360148110611e1657fe5b6012020160030181905550611e2b8286612b19565b611e58565b80606f8360148110611e3e57fe5b60120201600301541415611e5757611e568286612b19565b5b5b611e6485838684612bbc565b5b5050505050565b611e746120df565b73ffffffffffffffffffffffffffffffffffffffff16611e926117f8565b73ffffffffffffffffffffffffffffffffffffffff1614611f1b576040517f08c379a00000000000000000000000000000000000000000000000000000000081526004018080602001828103825260208152602001807f4f776e61626c653a2063616c6c6572206973206e6f7420746865206f776e657281525060200191505060405180910390fd5b600073ffffffffffffffffffffffffffffffffffffffff168173ffffffffffffffffffffffffffffffffffffffff161415611fa1576040517f08c379a000000000000000000000000000000000000000000000000000000000815260040180806020018281038252602681526020018061512f6026913960400191505060405180910390fd5b8073ffffffffffffffffffffffffffffffffffffffff16603960009054906101000a900473ffffffffffffffffffffffffffffffffffffffff1673ffffffffffffffffffffffffffffffffffffffff167f8be0079c531659141344cd1fd0a4f28419497f9722a3daafe3b4186f6b6457e060405160405180910390a380603960006101000a81548173ffffffffffffffffffffffffffffffffffffffff021916908373ffffffffffffffffffffffffffffffffffffffff16021790555050565b60005b60148110156120835761207681612c4f565b8080600101915050612064565b50565b6000816040516020016120999190614b99565b60405160208183030381529060405280519060200120836040516020016120c09190614b99565b6040516020818303038152906040528051906020012014905092915050565b600033905090565b60006120f230612d8e565b15905090565b61219573a9e0a397e7ff13cfe4dd6632b48da41375292c2f73ffffffffffffffffffffffffffffffffffffffff166338cc48316040518163ffffffff1660e01b815260040160206040518083038186803b15801561215557600080fd5b505afa158015612169573d6000803e3d6000fd5b505050506040513d602081101561217f57600080fd5b8101908080519060200190929190505050612da1565b565b600660019054906101000a900460ff16806121b657506121b56120e7565b5b806121ce5750600660009054906101000a900460ff16155b612223576040517f08c379a000000000000000000000000000000000000000000000000000000000815260040180806020018281038252602e815260200180615178602e913960400191505060405180910390fd5b6000600660019054906101000a900460ff161590508015612275576001600660016101000a81548160ff0219169083151502179055506001600660006101000a81548160ff0219169083151502179055505b61227d612de5565b612285612ee8565b80156122a7576000600660016101000a81548160ff0219169083151502179055505b50565b6000808290506000815114156122c6576000801b9150506122cf565b60208301519150505b919050565b6122dc613f3b565b6122e4613f3b565b6122fb85858584613094909392919063ffffffff16565b9150509392505050565b61231c82846080015161314490919063ffffffff16565b61233381846080015161314490919063ffffffff16565b505050565b6000806004549050600181016004819055506000633c6d41b960e01b600080876000015188604001518660028b6080015160000151604051602401808873ffffffffffffffffffffffffffffffffffffffff168152602001878152602001868152602001857bffffffffffffffffffffffffffffffffffffffffffffffffffffffff1916815260200184815260200183815260200180602001828103825283818151815260200191508051906020019080838360005b838110156124095780820151818401526020810190506123ee565b50505050905090810190601f1680156124365780820380516001836020036101000a031916815260200191505b5098505050505050505050604051602081830303815290604052907bffffffffffffffffffffffffffffffffffffffffffffffffffffffff19166020820180517bffffffffffffffffffffffffffffffffffffffffffffffffffffffff838183161783525050505090506124ac86838684613169565b925050509392505050565b6060600083905060008390506000815183510167ffffffffffffffff811180156124e057600080fd5b506040519080825280601f01601f1916602001820160405280156125135781602001600182028036833780820191505090505b50905060008190506000805b855181101561258d5785818151811061253457fe5b602001015160f81c60f81b83838060010194508151811061255157fe5b60200101907effffffffffffffffffffffffffffffffffffffffffffffffffffffffffffff1916908160001a905350808060010191505061251f565b5060005b84518110156125ff578481815181106125a657fe5b602001015160f81c60f81b8383806001019450815181106125c357fe5b60200101907effffffffffffffffffffffffffffffffffffffffffffffffffffffffffffff1916908160001a9053508080600101915050612591565b50829550505050505092915050565b606060008290506000815167ffffffffffffffff8111801561262f57600080fd5b5060405190808252806020026020018201604052801561265e5781602001602082028036833780820191505090505b50905060005b825181101561272f57600083828151811061267b57fe5b602001015160f81c60f81b60f81c905060608160ff1611156126c357600a60618203018383815181106126aa57fe5b602002602001019060ff16908160ff1681525050612721565b60428160ff1611156126fb57600a60418203018383815181106126e257fe5b602002602001019060ff16908160ff1681525050612720565b6030810383838151811061270b57fe5b602002602001019060ff16908160ff16815250505b5b508080600101915050612664565b506000600282518161273d57fe5b0467ffffffffffffffff8111801561275457600080fd5b506040519080825280601f01601f1916602001820160405280156127875781602001600182028036833780820191505090505b50905060005b8251811015612818578260018201815181106127a557fe5b602002602001015160108483815181106127bb57fe5b6020026020010151020160f81b82600283816127d357fe5b04815181106127de57fe5b60200101907effffffffffffffffffffffffffffffffffffffffffffffffffffffffffffff1916908160001a90535060028101905061278d565b50809350505050919050565b6060600082604051602001808273ffffffffffffffffffffffffffffffffffffffff1660601b815260140191505060405160208183030381529060405290506000602867ffffffffffffffff8111801561287d57600080fd5b506040519080825280601f01601f1916602001820160405280156128b05781602001600182028036833780820191505090505b5090506128be8260146133cc565b90508092505050919050565b60606000826040516020018082815260200191505060405160208183030381529060405290506000604067ffffffffffffffff8111801561290a57600080fd5b506040519080825280601f01601f19166020018201604052801561293d5781602001600182028036833780820191505090505b50905061294b8260206133cc565b90508092505050919050565b60008061296261182d565b905060005b600c8110156129a0578181600c811061297c57fe5b6020020151841415612993576001925050506129a7565b8080600101915050612967565b5060009150505b919050565b600080606b80549050905060005b81811015612a9857612a7b606c82815481106129d257fe5b906000526020600020018054600181600116156101000203166002900480601f016020809104026020016040519081016040528092919081815260200182805460018160011615610100020316600290048015612a705780601f10612a4557610100808354040283529160200191612a70565b820191906000526020600020905b815481529060010190602001808311612a5357829003601f168201915b505050505085612086565b15612a8b57600192505050612a9f565b80806001019150506129ba565b5060009150505b919050565b600080600090505b6014811015612b0e5760005b600c811015612b005783606f8360148110612acf57fe5b6012020160050182600c8110612ae157fe5b01541415612af3578192505050612b14565b8080600101915050612ab8565b508080600101915050612aac565b50600090505b919050565b60005b600c811015612bb75781606f8460148110612b3357fe5b6012020160050182600c8110612b4557fe5b01541415612baa576001606f8460148110612b5c57fe5b6012020160110182600c8110612b6e57fe5b602091828204019190066101000a81548160ff0219169083151502179055506000801b606f8460148110612b9e57fe5b60120201600301819055505b8080600101915050612b1c565b505050565b6002600c026003612bcc8561355c565b0260ff1610612c4957837f0290f1d2e2f60aa240b412bbc45f994b802eb1673f6948bce1e0da2a62813a38834384604051612c0993929190614c9f565b60405180910390a26002606f8460148110612c2057fe5b6012020160020160006101000a81548160ff021916908360ff160217905550612c48836135c9565b5b50505050565b60405180602001604052806000815250606f8260148110612c6c57fe5b601202016000019080519060200190612c86929190613d63565b5060405180602001604052806000815250606f8260148110612ca457fe5b601202016001019080519060200190612cbe929190613d63565b506000606f8260148110612cce57fe5b6012020160020160006101000a81548160ff021916908360ff1602179055506000801b606f8260148110612cfe57fe5b601202016003018190555060005b600c811015612d8a576000801b606f8360148110612d2657fe5b6012020160050182600c8110612d3857fe5b01819055506000606f8360148110612d4c57fe5b6012020160110182600c8110612d5e57fe5b602091828204019190066101000a81548160ff0219169083151502179055508080600101915050612d0c565b5050565b600080823b905060008111915050919050565b80600260006101000a81548173ffffffffffffffffffffffffffffffffffffffff021916908373ffffffffffffffffffffffffffffffffffffffff16021790555050565b600660019054906101000a900460ff1680612e045750612e036120e7565b5b80612e1c5750600660009054906101000a900460ff16155b612e71576040517f08c379a000000000000000000000000000000000000000000000000000000000815260040180806020018281038252602e815260200180615178602e913960400191505060405180910390fd5b6000600660019054906101000a900460ff161590508015612ec3576001600660016101000a81548160ff0219169083151502179055506001600660006101000a81548160ff0219169083151502179055505b8015612ee5576000600660016101000a81548160ff0219169083151502179055505b50565b600660019054906101000a900460ff1680612f075750612f066120e7565b5b80612f1f5750600660009054906101000a900460ff16155b612f74576040517f08c379a000000000000000000000000000000000000000000000000000000000815260040180806020018281038252602e815260200180615178602e913960400191505060405180910390fd5b6000600660019054906101000a900460ff161590508015612fc6576001600660016101000a81548160ff0219169083151502179055506001600660006101000a81548160ff0219169083151502179055505b6000612fd06120df565b905080603960006101000a81548173ffffffffffffffffffffffffffffffffffffffff021916908373ffffffffffffffffffffffffffffffffffffffff1602179055508073ffffffffffffffffffffffffffffffffffffffff16600073ffffffffffffffffffffffffffffffffffffffff167f8be0079c531659141344cd1fd0a4f28419497f9722a3daafe3b4186f6b6457e060405160405180910390a3508015613091576000600660016101000a81548160ff0219169083151502179055505b50565b61309c613f3b565b6130ac85608001516101006137e8565b508385600001818152505082856020019073ffffffffffffffffffffffffffffffffffffffff16908173ffffffffffffffffffffffffffffffffffffffff16815250508185604001907bffffffffffffffffffffffffffffffffffffffffffffffffffffffff191690817bffffffffffffffffffffffffffffffffffffffffffffffffffffffff191681525050849050949350505050565b613151826003835161383c565b61316481836139c190919063ffffffff16565b505050565b60003084604051602001808373ffffffffffffffffffffffffffffffffffffffff1660601b815260140182815260200192505050604051602081830303815290604052805190602001209050846005600083815260200190815260200160002060006101000a81548173ffffffffffffffffffffffffffffffffffffffff021916908373ffffffffffffffffffffffffffffffffffffffff160217905550807fb5e6e01e79f91267dc17b4e6314d5d4d03593d2ceee0fbb452b750bd70ea5af960405160405180910390a2600260009054906101000a900473ffffffffffffffffffffffffffffffffffffffff1673ffffffffffffffffffffffffffffffffffffffff16634000aea08685856040518463ffffffff1660e01b8152600401808473ffffffffffffffffffffffffffffffffffffffff16815260200183815260200180602001828103825283818151815260200191508051906020019080838360005b838110156132e65780820151818401526020810190506132cb565b50505050905090810190601f1680156133135780820380516001836020036101000a031916815260200191505b50945050505050602060405180830381600087803b15801561333457600080fd5b505af1158015613348573d6000803e3d6000fd5b505050506040513d602081101561335e57600080fd5b81019080805190602001909291905050506133c4576040517f08c379a00000000000000000000000000000000000000000000000000000000081526004018080602001828103825260238152602001806151556023913960400191505060405180910390fd5b949350505050565b606060006002830267ffffffffffffffff811180156133ea57600080fd5b506040519080825280601f01601f19166020018201604052801561341d5781602001600182028036833780820191505090505b50905060005b83811015613551576000601086838151811061343b57fe5b602001015160f81c60f81b60f81c60ff168161345357fe5b04905060008160100287848151811061346857fe5b602001015160f81c60f81b60f81c0390506000600a8360ff1610613492576057830160f81b61349a565b6030830160f81b5b90506000600a8360ff16106134b5576057830160f81b6134bd565b6030830160f81b5b9050818686600202815181106134cf57fe5b60200101907effffffffffffffffffffffffffffffffffffffffffffffffffffffffffffff1916908160001a9053508086600187600202018151811061351157fe5b60200101907effffffffffffffffffffffffffffffffffffffffffffffffffffffffffffff1916908160001a905350505050508080600101915050613423565b508091505092915050565b6000806000905060005b600c8110156135bf57606f846014811061357c57fe5b6012020160110181600c811061358e57fe5b602091828204019190069054906101000a900460ff16156135b25781806001019250505b8080600101915050613566565b5080915050919050565b600061361c60026003600c816135db57fe5b040261360e6127106136006101d854612710036101db546139e390919063ffffffff16565b613a6990919063ffffffff16565b613a6990919063ffffffff16565b905060005b600c8110156137e357606f836014811061363757fe5b6012020160110181600c811061364957fe5b602091828204019190069054906101000a900460ff16156137d6576000606f846014811061367357fe5b6012020160050182600c811061368557fe5b0154905060006101d9600086815260200190815260200160002060008381526020019081526020016000208054600181600116156101000203166002900480601f0160208091040260200160405190810160405280929190818152602001828054600181600116156101000203166002900480156137445780601f1061371957610100808354040283529160200191613744565b820191906000526020600020905b81548152906001019060200180831161372757829003601f168201915b5050505050905060006101d78260405161375e9190614b99565b908152602001604051809103902060009054906101000a900473ffffffffffffffffffffffffffffffffffffffff1690507f21e523e74b4bd28fea73412ad9fdd156d8aa03f6d5c93e0511f3bf40e194901681866040516137c0929190614bcb565b60405180910390a16137d28186610974565b5050505b8080600101915050613621565b505050565b6137f0613fa8565b6000602083816137fc57fe5b0614613815576020828161380c57fe5b06602003820191505b81836020018181525050604051808452600081528281016020016040525082905092915050565b60178167ffffffffffffffff16116138735761386d8160058460ff16901b60ff161784613ab390919063ffffffff16565b506139bc565b60ff8167ffffffffffffffff16116138c9576138a2601860058460ff16901b1784613ab390919063ffffffff16565b506138c38167ffffffffffffffff16600185613ad39092919063ffffffff16565b506139bb565b61ffff8167ffffffffffffffff1611613920576138f9601960058460ff16901b1784613ab390919063ffffffff16565b5061391a8167ffffffffffffffff16600285613ad39092919063ffffffff16565b506139ba565b63ffffffff8167ffffffffffffffff161161397957613952601a60058460ff16901b1784613ab390919063ffffffff16565b506139738167ffffffffffffffff16600485613ad39092919063ffffffff16565b506139b9565b613996601b60058460ff16901b1784613ab390919063ffffffff16565b506139b78167ffffffffffffffff16600885613ad39092919063ffffffff16565b505b5b5b5b505050565b6139c9613fa8565b6139db83846000015151848551613af5565b905092915050565b6000808314156139f65760009050613a63565b6000828402905082848281613a0757fe5b0414613a5e576040517f08c379a00000000000000000000000000000000000000000000000000000000081526004018080602001828103825260218152602001806151a66021913960400191505060405180910390fd5b809150505b92915050565b6000613aab83836040518060400160405280601a81526020017f536166654d6174683a206469766973696f6e206279207a65726f000000000000815250613bae565b905092915050565b613abb613fa8565b613acb8384600001515184613c74565b905092915050565b613adb613fa8565b613aec848560000151518585613cc2565b90509392505050565b613afd613fa8565b8251821115613b0b57600080fd5b84602001518285011115613b3657613b35856002613b2f8860200151888701613d23565b02613d3f565b5b600080865180518760208301019350808887011115613b555787860182525b60208701925050505b60208410613b815780518252602082019150602081019050602084039350613b5e565b60006001856020036101000a03905080198251168184511681811785525050879350505050949350505050565b60008083118290613c5a576040517f08c379a00000000000000000000000000000000000000000000000000000000081526004018080602001828103825283818151815260200191508051906020019080838360005b83811015613c1f578082015181840152602081019050613c04565b50505050905090810190601f168015613c4c5780820380516001836020036101000a031916815260200191505b509250505060405180910390fd5b506000838581613c6657fe5b049050809150509392505050565b613c7c613fa8565b83602001518310613c9957613c98846002866020015102613d3f565b5b8351805160208583010184815381861415613cb5576001820183525b5050508390509392505050565b613cca613fa8565b84602001518483011115613ce857613ce785600286850102613d3f565b5b60006001836101000a0390508551838682010185831982511617815281518588011115613d155784870182525b505085915050949350505050565b600081831115613d3557829050613d39565b8190505b92915050565b600082600001519050613d5283836137e8565b50613d5d83826139c1565b50505050565b828054600181600116156101000203166002900490600052602060002090601f016020900481019282613d995760008555613de0565b82601f10613db257805160ff1916838001178555613de0565b82800160010185558215613de0579182015b82811115613ddf578251825591602001919060010190613dc4565b5b509050613ded9190613fc2565b5090565b828054600181600116156101000203166002900490600052602060002090601f016020900481019282613e275760008555613e75565b82601f10613e385780548555613e75565b82800160010185558215613e7557600052602060002091601f016020900482015b82811115613e74578254825591600101919060010190613e59565b5b509050613e829190613fc2565b5090565b6040518061028001604052806014905b613e9e613fdf565b815260200190600190039081613e965790505090565b5080546000825590600052602060002090810190613ed29190613fc2565b50565b5080546000825590600052602060002090810190613ef39190614031565b50565b604051806101800160405280600c90602082028036833780820191505090505090565b6040518060200160405280600190602082028036833780820191505090505090565b6040518060a0016040528060008019168152602001600073ffffffffffffffffffffffffffffffffffffffff16815260200160007bffffffffffffffffffffffffffffffffffffffffffffffffffffffff1916815260200160008152602001613fa2613fa8565b81525090565b604051806040016040528060608152602001600081525090565b5b80821115613fdb576000816000905550600101613fc3565b5090565b6040518060e001604052806060815260200160608152602001600060ff16815260200160008019168152602001600060ff16815260200161401e613ef6565b815260200161402b614055565b81525090565b5b8082111561405157600081816140489190614078565b50600101614032565b5090565b604051806101800160405280600c90602082028036833780820191505090505090565b50805460018160011615610100020316600290046000825580601f1061409e57506140bd565b601f0160209004906000526020600020908101906140bc9190613fc2565b5b50565b60006140d36140ce84614e3c565b614e0b565b9050828152602081018484840111156140eb57600080fd5b6140f6848285615094565b509392505050565b600061411161410c84614e6c565b614e0b565b90508281526020810184848401111561412957600080fd5b614134848285615094565b509392505050565b60008135905061414b816150e9565b92915050565b60008135905061416081615100565b92915050565b600082601f83011261417757600080fd5b81356141878482602086016140c0565b91505092915050565b600082601f8301126141a157600080fd5b81356141b18482602086016140fe565b91505092915050565b6000813590506141c981615117565b92915050565b6000602082840312156141e157600080fd5b60006141ef8482850161413c565b91505092915050565b600080600080600060a0868803121561421057600080fd5b600061421e8882890161413c565b955050602086013567ffffffffffffffff81111561423b57600080fd5b61424788828901614190565b945050604086013567ffffffffffffffff81111561426457600080fd5b61427088828901614190565b935050606086013567ffffffffffffffff81111561428d57600080fd5b61429988828901614190565b92505060806142aa8882890161413c565b9150509295509295909350565b600080604083850312156142ca57600080fd5b60006142d88582860161413c565b92505060206142e9858286016141ba565b9150509250929050565b6000806040838503121561430657600080fd5b600061431485828601614151565b925050602083013567ffffffffffffffff81111561433157600080fd5b61433d85828601614166565b9150509250929050565b60006020828403121561435957600080fd5b600082013567ffffffffffffffff81111561437357600080fd5b61437f84828501614190565b91505092915050565b6000806040838503121561439b57600080fd5b600083013567ffffffffffffffff8111156143b557600080fd5b6143c185828601614190565b92505060206143d28582860161413c565b9150509250929050565b600080604083850312156143ef57600080fd5b600083013567ffffffffffffffff81111561440957600080fd5b61441585828601614190565b925050602083013567ffffffffffffffff81111561443257600080fd5b61443e85828601614190565b9150509250929050565b60008060006060848603121561445d57600080fd5b600084013567ffffffffffffffff81111561447757600080fd5b61448386828701614190565b935050602084013567ffffffffffffffff8111156144a057600080fd5b6144ac86828701614190565b925050604084013567ffffffffffffffff8111156144c957600080fd5b6144d586828701614190565b9150509250925092565b6000602082840312156144f157600080fd5b60006144ff848285016141ba565b91505092915050565b60006145148383614578565b60208301905092915050565b600061452c83836147e3565b60208301905092915050565b60006145448383614801565b60208301905092915050565b600061455c83836148b6565b905092915050565b60006145708383614abf565b905092915050565b61458181614fff565b82525050565b61459081614fff565b82525050565b60006145a182614eda565b6145ab8185614f68565b93506145b683614e9c565b8060005b838110156145e75781516145ce8882614508565b97506145d983614f27565b9250506001810190506145ba565b5085935050505092915050565b6145fd81614ee5565b6146078184614f79565b925061461282614eac565b8060005b8381101561464357815161462a8782614520565b965061463583614f34565b925050600181019050614616565b505050505050565b61465481614ef0565b61465e8184614f84565b925061466982614eb6565b8060005b8381101561469a5781516146818782614538565b965061468c83614f41565b92505060018101905061466d565b505050505050565b6146ab81614ef0565b6146b58184614f8f565b92506146c082614eb6565b8060005b838110156146f15781516146d88782614538565b96506146e383614f41565b9250506001810190506146c4565b505050505050565b600061470482614efb565b61470e8185614f9a565b93508360208202850161472085614ec0565b8060005b8581101561475c578484038952815161473d8582614550565b945061474883614f4e565b925060208a01995050600181019050614724565b50829750879550505050505092915050565b600061477982614f06565b6147838185614fab565b93508360208202850161479585614ed0565b8060005b858110156147d157848403895281516147b28582614564565b94506147bd83614f5b565b925060208a01995050600181019050614799565b50829750879550505050505092915050565b6147ec81615011565b82525050565b6147fb81615011565b82525050565b61480a8161501d565b82525050565b6148198161501d565b82525050565b600061482a82614f11565b6148348185614fb6565b93506148448185602086016150a3565b61484d816150d8565b840191505092915050565b600061486382614f11565b61486d8185614fc7565b935061487d8185602086016150a3565b80840191505092915050565b6148928161505e565b82525050565b6148a181615070565b82525050565b6148b081615082565b82525050565b60006148c182614f1c565b6148cb8185614fd2565b93506148db8185602086016150a3565b6148e4816150d8565b840191505092915050565b60006148fa82614f1c565b6149048185614fe3565b93506149148185602086016150a3565b61491d816150d8565b840191505092915050565b600061493382614f1c565b61493d8185614ff4565b935061494d8185602086016150a3565b80840191505092915050565b6000614966603e83614fe3565b91507f5472616e7366657248656c7065723a3a736166655472616e736665724375727260008301527f656e63793a2043757272656e6379207472616e73666572206661696c656400006020830152604082019050919050565b60006149cc601b83614fe3565b91507f746f6f206d616e792063616c6c732c706c6561736520776169742000000000006000830152602082019050919050565b6000614a0c601183614fe3565b91507f666565206973206e6f7420656e6f7567680000000000000000000000000000006000830152602082019050919050565b6000614a4c601c83614fe3565b91507f61726269746572206973206e6f7420696e20746865206c6973742021000000006000830152602082019050919050565b6000614a8c601883614fe3565b91507f7032353656657269667920646f206e6f742070617373202100000000000000006000830152602082019050919050565b60006103a0830160008301518482036000860152614add82826148b6565b91505060208301518482036020860152614af782826148b6565b9150506040830151614b0c6040860182614b73565b506060830151614b1f6060860182614801565b506080830151614b326080860182614b73565b5060a0830151614b4560a086018261464b565b5060c0830151614b596102208601826145f4565b508091505092915050565b614b6d81615047565b82525050565b614b7c81615051565b82525050565b6000614b8e8284614858565b915081905092915050565b6000614ba58284614928565b915081905092915050565b6000602082019050614bc56000830184614587565b92915050565b6000604082019050614be06000830185614587565b614bed6020830184614b64565b9392505050565b60006040820190508181036000830152614c0e8185614596565b90508181036020830152614c2281846146f9565b90509392505050565b600061018082019050614c4160008301846146a2565b92915050565b60006020820190508181036000830152614c61818461476e565b905092915050565b6000602082019050614c7e60008301846147f2565b92915050565b6000602082019050614c996000830184614810565b92915050565b60006060820190508181036000830152614cb9818661481f565b9050614cc86020830185614b64565b614cd56040830184614810565b949350505050565b6000602082019050614cf26000830184614889565b92915050565b6000602082019050614d0d6000830184614898565b92915050565b6000602082019050614d2860008301846148a7565b92915050565b60006020820190508181036000830152614d4881846148ef565b905092915050565b60006020820190508181036000830152614d6981614959565b9050919050565b60006020820190508181036000830152614d89816149bf565b9050919050565b60006020820190508181036000830152614da9816149ff565b9050919050565b60006020820190508181036000830152614dc981614a3f565b9050919050565b60006020820190508181036000830152614de981614a7f565b9050919050565b6000602082019050614e056000830184614b64565b92915050565b6000604051905081810181811067ffffffffffffffff82111715614e3257614e316150d6565b5b8060405250919050565b600067ffffffffffffffff821115614e5757614e566150d6565b5b601f19601f8301169050602081019050919050565b600067ffffffffffffffff821115614e8757614e866150d6565b5b601f19601f8301169050602081019050919050565b6000819050602082019050919050565b6000819050919050565b6000819050919050565b6000819050602082019050919050565b6000819050919050565b600081519050919050565b6000600c9050919050565b6000600c9050919050565b600081519050919050565b600060149050919050565b600081519050919050565b600081519050919050565b6000602082019050919050565b6000602082019050919050565b6000602082019050919050565b6000602082019050919050565b6000602082019050919050565b600082825260208201905092915050565b600081905092915050565b600081905092915050565b600081905092915050565b600082825260208201905092915050565b600081905092915050565b600082825260208201905092915050565b600081905092915050565b600082825260208201905092915050565b600082825260208201905092915050565b600081905092915050565b600061500a82615027565b9050919050565b60008115159050919050565b6000819050919050565b600073ffffffffffffffffffffffffffffffffffffffff82169050919050565b6000819050919050565b600060ff82169050919050565b600061506982615051565b9050919050565b600061507b82615051565b9050919050565b600061508d82615051565b9050919050565b82818337600083830152505050565b60005b838110156150c15780820151818401526020810190506150a6565b838111156150d0576000848401525b50505050565bfe5b6000601f19601f8301169050919050565b6150f281614fff565b81146150fd57600080fd5b50565b6151098161501d565b811461511457600080fd5b50565b61512081615047565b811461512b57600080fd5b5056fe4f776e61626c653a206e6577206f776e657220697320746865207a65726f2061646472657373756e61626c6520746f207472616e73666572416e6443616c6c20746f206f7261636c65496e697469616c697a61626c653a20636f6e747261637420697320616c726561647920696e697469616c697a6564536166654d6174683a206d756c7469706c69636174696f6e206f766572666c6f77536f75726365206d75737420626520746865206f7261636c65206f66207468652072657175657374a2646970667358221220c11de2e67cff3c2ecdc2291db0237869262007f62f2b362c6f374824c7a66e9764736f6c63430007060033",
  "linkReferences": {},
  "deployedLinkReferences": {}
}