{
  "_format": "hh-sol-artifact-1",
  "contractName": "DataConsumer",
  "sourceName": "contracts/DataConsumer.sol",
  "abi": [
    {
      "anonymous": false,
      "inputs": [
        {
          "indexed": true,
          "internalType": "bytes32",
          "name": "id",
          "type": "bytes32"
        }
      ],
      "name": "ChainlinkCancelled",
      "type": "event"
    },
    {
      "anonymous": false,
      "inputs": [
        {
          "indexed": true,
          "internalType": "bytes32",
          "name": "id",
          "type": "bytes32"
        }
      ],
      "name": "ChainlinkFulfilled",
      "type": "event"
    },
    {
      "anonymous": false,
      "inputs": [
        {
          "indexed": true,
          "internalType": "bytes32",
          "name": "id",
          "type": "bytes32"
        }
      ],
      "name": "ChainlinkRequested",
      "type": "event"
    },
    {
      "anonymous": false,
      "inputs": [
        {
          "indexed": true,
          "internalType": "bytes32",
          "name": "requestId",
          "type": "bytes32"
        },
        {
          "indexed": false,
          "internalType": "uint8",
          "name": "logNum",
          "type": "uint8"
        }
      ],
      "name": "Log",
      "type": "event"
    },
    {
      "anonymous": false,
      "inputs": [
        {
          "indexed": false,
          "internalType": "address",
          "name": "recAddress",
          "type": "address"
        },
        {
          "indexed": false,
          "internalType": "uint256",
          "name": "value",
          "type": "uint256"
        }
      ],
      "name": "LogAddress",
      "type": "event"
    },
    {
      "anonymous": false,
      "inputs": [
        {
          "indexed": true,
          "internalType": "address",
          "name": "previousOwner",
          "type": "address"
        },
        {
          "indexed": true,
          "internalType": "address",
          "name": "newOwner",
          "type": "address"
        }
      ],
      "name": "OwnershipTransferred",
      "type": "event"
    },
    {
      "anonymous": false,
      "inputs": [
        {
          "indexed": true,
          "internalType": "bytes32",
          "name": "requestId",
          "type": "bytes32"
        },
        {
          "indexed": false,
          "internalType": "bytes",
          "name": "data",
          "type": "bytes"
        },
        {
          "indexed": false,
          "internalType": "uint256",
          "name": "blockNumber",
          "type": "uint256"
        },
        {
          "indexed": false,
          "internalType": "bytes32",
          "name": "datahash",
          "type": "bytes32"
        }
      ],
      "name": "SearchConformed",
      "type": "event"
    },
    {
      "anonymous": false,
      "inputs": [
        {
          "indexed": true,
          "internalType": "bytes32",
          "name": "requestId",
          "type": "bytes32"
        },
        {
          "indexed": false,
          "internalType": "string",
          "name": "key",
          "type": "string"
        }
      ],
      "name": "SearchInfo",
      "type": "event"
    },
    {
      "stateMutability": "payable",
      "type": "fallback"
    },
    {
      "inputs": [],
      "name": "ARBITER_NUM",
      "outputs": [
        {
          "internalType": "uint256",
          "name": "",
          "type": "uint256"
        }
      ],
      "stateMutability": "view",
      "type": "function"
    },
    {
      "inputs": [
        {
          "internalType": "string",
          "name": "_version",
          "type": "string"
        }
      ],
      "name": "__DataConsumer_init",
      "outputs": [],
      "stateMutability": "nonpayable",
      "type": "function"
    },
    {
      "inputs": [
        {
          "internalType": "address",
          "name": "_to",
          "type": "address"
        },
        {
          "internalType": "uint256",
          "name": "_value",
          "type": "uint256"
        }
      ],
      "name": "_safeTransferCurrency",
      "outputs": [],
      "stateMutability": "nonpayable",
      "type": "function"
    },
    {
      "inputs": [
        {
          "internalType": "address",
          "name": "_oracle",
          "type": "address"
        },
        {
          "internalType": "string",
          "name": "_jobId",
          "type": "string"
        },
        {
          "internalType": "string",
          "name": "_pubKey",
          "type": "string"
        },
        {
          "internalType": "string",
          "name": "_sign",
          "type": "string"
        },
        {
          "internalType": "address",
          "name": "_receiveAddress",
          "type": "address"
        }
      ],
      "name": "addOralceAndJobId",
      "outputs": [],
      "stateMutability": "nonpayable",
      "type": "function"
    },
    {
      "inputs": [],
      "name": "clearOralceAndJobId",
      "outputs": [],
      "stateMutability": "nonpayable",
      "type": "function"
    },
    {
      "inputs": [],
      "name": "clearSearchResult",
      "outputs": [],
      "stateMutability": "nonpayable",
      "type": "function"
    },
    {
      "inputs": [
        {
          "internalType": "bytes32",
          "name": "_requestId",
          "type": "bytes32"
        },
        {
          "internalType": "bytes",
          "name": "_didData",
          "type": "bytes"
        }
      ],
      "name": "fulfillEthereumDidData",
      "outputs": [],
      "stateMutability": "nonpayable",
      "type": "function"
    },
    {
      "inputs": [],
      "name": "getArbiterList",
      "outputs": [
        {
          "internalType": "bytes32[12]",
          "name": "",
          "type": "bytes32[12]"
        }
      ],
      "stateMutability": "view",
      "type": "function"
    },
    {
      "inputs": [],
      "name": "getChannelInfoList",
      "outputs": [
        {
          "components": [
            {
              "internalType": "string",
              "name": "did",
              "type": "string"
            },
            {
              "internalType": "string",
              "name": "method",
              "type": "string"
            },
            {
              "internalType": "uint8",
              "name": "status",
              "type": "uint8"
            },
            {
              "internalType": "bytes32",
              "name": "dataHash",
              "type": "bytes32"
            },
            {
              "internalType": "uint8",
              "name": "totalReqestNum",
              "type": "uint8"
            },
            {
              "internalType": "bytes32[12]",
              "name": "requestIds",
              "type": "bytes32[12]"
            },
            {
              "internalType": "bool[12]",
              "name": "isSearchs",
              "type": "bool[12]"
            }
          ],
          "internalType": "struct DataConsumer.ChannelInfo[50]",
          "name": "",
          "type": "tuple[50]"
        }
      ],
      "stateMutability": "view",
      "type": "function"
    },
    {
      "inputs": [],
      "name": "getFee",
      "outputs": [
        {
          "internalType": "uint256",
          "name": "",
          "type": "uint256"
        }
      ],
      "stateMutability": "view",
      "type": "function"
    },
    {
      "inputs": [],
      "name": "getOralceAndJobs",
      "outputs": [
        {
          "internalType": "address[]",
          "name": "",
          "type": "address[]"
        },
        {
          "internalType": "string[]",
          "name": "",
          "type": "string[]"
        }
      ],
      "stateMutability": "view",
      "type": "function"
    },
    {
      "inputs": [
        {
          "internalType": "string",
          "name": "_jobId",
          "type": "string"
        }
      ],
      "name": "getPayMap",
      "outputs": [
        {
          "internalType": "address",
          "name": "",
          "type": "address"
        }
      ],
      "stateMutability": "view",
      "type": "function"
    },
    {
      "inputs": [],
      "name": "getPlatformRate",
      "outputs": [
        {
          "internalType": "uint256",
          "name": "",
          "type": "uint256"
        }
      ],
      "stateMutability": "view",
      "type": "function"
    },
    {
      "inputs": [
        {
          "internalType": "string",
          "name": "_did",
          "type": "string"
        },
        {
          "internalType": "string",
          "name": "_method",
          "type": "string"
        }
      ],
      "name": "getSearchResult",
      "outputs": [
        {
          "internalType": "bytes32",
          "name": "",
          "type": "bytes32"
        }
      ],
      "stateMutability": "view",
      "type": "function"
    },
    {
      "inputs": [],
      "name": "getUsedChannel",
      "outputs": [
        {
          "internalType": "uint256",
          "name": "",
          "type": "uint256"
        }
      ],
      "stateMutability": "view",
      "type": "function"
    },
    {
      "inputs": [],
      "name": "maxChannel",
      "outputs": [
        {
          "internalType": "uint256",
          "name": "",
          "type": "uint256"
        }
      ],
      "stateMutability": "view",
      "type": "function"
    },
    {
      "inputs": [],
      "name": "owner",
      "outputs": [
        {
          "internalType": "address",
          "name": "",
          "type": "address"
        }
      ],
      "stateMutability": "view",
      "type": "function"
    },
    {
      "inputs": [
        {
          "internalType": "string",
          "name": "_pubkey",
          "type": "string"
        },
        {
          "internalType": "string",
          "name": "_data",
          "type": "string"
        },
        {
          "internalType": "string",
          "name": "_sig",
          "type": "string"
        }
      ],
      "name": "p256Verify",
      "outputs": [
        {
          "internalType": "bool",
          "name": "",
          "type": "bool"
        }
      ],
      "stateMutability": "view",
      "type": "function"
    },
    {
      "inputs": [],
      "name": "renounceOwnership",
      "outputs": [],
      "stateMutability": "nonpayable",
      "type": "function"
    },
    {
      "inputs": [
        {
          "internalType": "string",
          "name": "did",
          "type": "string"
        },
        {
          "internalType": "string",
          "name": "method",
          "type": "string"
        }
      ],
      "name": "requestResultFromList",
      "outputs": [],
      "stateMutability": "payable",
      "type": "function"
    },
    {
      "inputs": [],
      "name": "resetOracleAndSet",
      "outputs": [],
      "stateMutability": "nonpayable",
      "type": "function"
    },
    {
      "inputs": [
        {
          "internalType": "uint256",
          "name": "_fee",
          "type": "uint256"
        }
      ],
      "name": "setFee",
      "outputs": [],
      "stateMutability": "nonpayable",
      "type": "function"
    },
    {
      "inputs": [
        {
          "internalType": "string",
          "name": "_jobId",
          "type": "string"
        },
        {
          "internalType": "address",
          "name": "_receiveAddress",
          "type": "address"
        }
      ],
      "name": "setPayMap",
      "outputs": [],
      "stateMutability": "nonpayable",
      "type": "function"
    },
    {
      "inputs": [
        {
          "internalType": "uint256",
          "name": "_platformRate",
          "type": "uint256"
        }
      ],
      "name": "setPlatformRate",
      "outputs": [],
      "stateMutability": "nonpayable",
      "type": "function"
    },
    {
      "inputs": [
        {
          "internalType": "uint256",
          "name": "_usedChannel",
          "type": "uint256"
        }
      ],
      "name": "setUsedChannel",
      "outputs": [],
      "stateMutability": "nonpayable",
      "type": "function"
    },
    {
      "inputs": [
        {
          "internalType": "address",
          "name": "newOwner",
          "type": "address"
        }
      ],
      "name": "transferOwnership",
      "outputs": [],
      "stateMutability": "nonpayable",
      "type": "function"
    },
    {
      "inputs": [],
      "name": "withDrawCurrency",
      "outputs": [],
      "stateMutability": "nonpayable",
      "type": "function"
    },
    {
      "stateMutability": "payable",
      "type": "receive"
    }
  ],
  "bytecode": "0x608060405234801561001057600080fd5b5061577980620000216000396000f3fe6080604052600436106101a05760003560e01c80636ef38232116100ec578063b16b5a131161008a578063cfc45feb11610064578063cfc45feb1461053d578063d1fd394814610566578063ed183a1914610592578063f2fde38b146105bb576101a7565b8063b16b5a13146104ac578063b887cd5a146104e9578063ced72f8714610512576101a7565b80638681a58e116100c65780638681a58e146103ee5780638da5cb5b1461042b5780638f4ec2aa14610456578063aa12bc3c14610481576101a7565b80636ef38232146103955780636f09273e146103c0578063715018a6146103d7576101a7565b80633a55928211610159578063542d189e11610133578063542d189e146102ef57806354db8d0d1461031a578063685051c11461034357806369fe0e2d1461036c576101a7565b80633a55928214610293578063485a90f7146102bc5780634dd77f2e146102d3576101a7565b80630146cf29146101a957806302be6040146101c05780632c7bcda7146101fd5780632e654c101461021457806331024f1b1461023d5780633115db9d14610268576101a7565b366101a757005b005b3480156101b557600080fd5b506101be6105e4565b005b3480156101cc57600080fd5b506101e760048036038101906101e291906148d1565b6105f6565b6040516101f491906151b9565b60405180910390f35b34801561020957600080fd5b506102126107e6565b005b34801561022057600080fd5b5061023b6004803603810190610236919061483c565b6108de565b005b34801561024957600080fd5b50610252610a34565b60405161025f9190615345565b60405180910390f35b34801561027457600080fd5b5061027d610a3f565b60405161028a9190615345565b60405180910390f35b34801561029f57600080fd5b506102ba60048036038101906102b591906147ac565b610a44565b005b3480156102c857600080fd5b506102d1610b42565b005b6102ed60048036038101906102e891906148d1565b610dc3565b005b3480156102fb57600080fd5b5061030461137d565b604051610311919061517c565b60405180910390f35b34801561032657600080fd5b50610341600480360381019061033c91906149d4565b611606565b005b34801561034f57600080fd5b5061036a6004803603810190610365919061487d565b6116c0565b005b34801561037857600080fd5b50610393600480360381019061038e91906149d4565b6117d1565b005b3480156103a157600080fd5b506103aa61188b565b6040516103b79190615345565b60405180910390f35b3480156103cc57600080fd5b506103d5611890565b005b3480156103e357600080fd5b506103ec61195d565b005b3480156103fa57600080fd5b506104156004803603810190610410919061483c565b611acd565b60405161042291906150e5565b60405180910390f35b34801561043757600080fd5b50610440611b16565b60405161044d91906150e5565b60405180910390f35b34801561046257600080fd5b5061046b611b40565b6040516104789190615345565b60405180910390f35b34801561048d57600080fd5b50610496611b4b565b6040516104a39190615160565b60405180910390f35b3480156104b857600080fd5b506104d360048036038101906104ce919061493d565b611b7a565b6040516104e0919061519e565b60405180910390f35b3480156104f557600080fd5b50610510600480360381019061050b91906146ed565b611bdc565b005b34801561051e57600080fd5b50610527611de8565b6040516105349190615345565b60405180910390f35b34801561054957600080fd5b50610564600480360381019061055f91906149d4565b611df3565b005b34801561057257600080fd5b5061057b611ef4565b604051610589929190615129565b60405180910390f35b34801561059e57600080fd5b506105b960048036038101906105b491906147e8565b61206e565b005b3480156105c757600080fd5b506105e260048036038101906105dd91906146c4565b61228b565b005b6000606e819055506105f4612480565b565b600080600090505b60328110156107da576106bd84606f836032811061061857fe5b601202016000018054600181600116156101000203166002900480601f0160208091040260200160405190810160405280929190818152602001828054600181600116156101000203166002900480156106b35780601f10610688576101008083540402835291602001916106b3565b820191906000526020600020905b81548152906001019060200180831161069657829003601f168201915b50505050506124a5565b801561077b575061077a83606f83603281106106d557fe5b601202016001018054600181600116156101000203166002900480601f0160208091040260200160405190810160405280929190818152602001828054600181600116156101000203166002900480156107705780601f1061074557610100808354040283529160200191610770565b820191906000526020600020905b81548152906001019060200180831161075357829003601f168201915b50505050506124a5565b5b80156107ab57506002606f826032811061079157fe5b6012020160020160009054906101000a900460ff1660ff16145b156107cd57606f81603281106107bd57fe5b60120201600301549150506107e0565b80806001019150506105fe565b50600090505b92915050565b6107ee6124fe565b73ffffffffffffffffffffffffffffffffffffffff1661080c611b16565b73ffffffffffffffffffffffffffffffffffffffff1614610895576040517f08c379a00000000000000000000000000000000000000000000000000000000081526004018080602001828103825260208152602001807f4f776e61626c653a2063616c6c6572206973206e6f7420746865206f776e657281525060200191505060405180910390fd5b3373ffffffffffffffffffffffffffffffffffffffff166108fc479081150290604051600060405180830381858888f193505050501580156108db573d6000803e3d6000fd5b50565b600660019054906101000a900460ff16806108fd57506108fc612506565b5b806109155750600660009054906101000a900460ff16155b61096a576040517f08c379a000000000000000000000000000000000000000000000000000000000815260040180806020018281038252602e8152602001806156cd602e913960400191505060405180910390fd5b6000600660019054906101000a900460ff1615905080156109bc576001600660016101000a81548160ff0219169083151502179055506001600660006101000a81548160ff0219169083151502179055505b6109c4612517565b81606d90805190602001906109da929190614258565b506000606e819055506109eb6125b6565b6109f3612480565b60006103f48190555060006103f78190555060146103f8819055508015610a30576000600660016101000a81548160ff0219169083151502179055505b5050565b60006103f854905090565b603281565b60008273ffffffffffffffffffffffffffffffffffffffff1682600067ffffffffffffffff81118015610a7657600080fd5b506040519080825280601f01601f191660200182016040528015610aa95781602001600182028036833780820191505090505b50604051610ab791906150b7565b60006040518083038185875af1925050503d8060008114610af4576040519150601f19603f3d011682016040523d82523d6000602084013e610af9565b606091505b5050905080610b3d576040517f08c379a0000000000000000000000000000000000000000000000000000000008152600401610b3490615285565b60405180910390fd5b505050565b606080606b805480602002602001604051908101604052809291908181526020018280548015610bc757602002820191906000526020600020905b8160009054906101000a900473ffffffffffffffffffffffffffffffffffffffff1673ffffffffffffffffffffffffffffffffffffffff1681526020019060010190808311610b7d575b50505050509150606c805480602002602001604051908101604052809291908181526020016000905b82821015610cac578382906000526020600020018054600181600116156101000203166002900480601f016020809104026020016040519081016040528092919081815260200182805460018160011615610100020316600290048015610c985780601f10610c6d57610100808354040283529160200191610c98565b820191906000526020600020905b815481529060010190602001808311610c7b57829003601f168201915b505050505081526020019060010190610bf0565b5050505090506000600c606b80549050039050606b6000610ccd91906142e6565b606c6000610cdb9190614307565b60005b600c811015610dbd57606b8483830181518110610cf757fe5b60200260200101519080600181540180825580915050600190039060005260206000200160009091909190916101000a81548173ffffffffffffffffffffffffffffffffffffffff021916908373ffffffffffffffffffffffffffffffffffffffff160217905550606c8383830181518110610d6f57fe5b6020026020010151908060018154018082558091505060019003906000526020600020016000909190919091509080519060200190610daf929190614258565b508080600101915050610cde565b50505050565b6103f754341015610e09576040517f08c379a0000000000000000000000000000000000000000000000000000000008152600401610e00906152c5565b60405180910390fd5b6000801b7f38797b189f8fcca19a8584f8e2b27aa01e3df12fc134242bcd02789670aff65d6000604051610e3d9190615212565b60405180910390a2606e600081548092919060010191905055506000606b805490509050600060326001606e540381610e7257fe5b0690506001606f8260328110610e8457fe5b6012020160020160009054906101000a900460ff1660ff161415610edd576040517f08c379a0000000000000000000000000000000000000000000000000000000008152600401610ed4906152a5565b60405180910390fd5b83606f8260328110610eeb57fe5b601202016000019080519060200190610f05929190614258565b5082606f8260328110610f1457fe5b601202016001019080519060200190610f2e929190614258565b506001606f8260328110610f3e57fe5b6012020160020160006101000a81548160ff021916908360ff16021790555060005b82811015611376576000611033611025606c8481548110610f7d57fe5b906000526020600020018054600181600116156101000203166002900480601f01602080910402602001604051908101604052809291908181526020018280546001816001161561010002031660029004801561101b5780601f10610ff05761010080835404028352916020019161101b565b820191906000526020600020905b815481529060010190602001808311610ffe57829003601f168201915b50505050506126c9565b3063ed183a1960e01b6126f3565b905061107f6040518060400160405280600381526020017f646964000000000000000000000000000000000000000000000000000000000081525087836127249092919063ffffffff16565b6110cb6040518060400160405280600281526020017f6964000000000000000000000000000000000000000000000000000000000000815250606e54836127579092919063ffffffff16565b6111156040518060400160405280600681526020017f6d6574686f64000000000000000000000000000000000000000000000000000081525086836127249092919063ffffffff16565b6111946040518060400160405280600481526020017f70617468000000000000000000000000000000000000000000000000000000008152506040518060400160405280601281526020017f726573756c742c7472616e73616374696f6e0000000000000000000000000000815250836127249092919063ffffffff16565b6111d7606b83815481106111a457fe5b9060005260206000200160009054906101000a900473ffffffffffffffffffffffffffffffffffffffff1682600061278a565b606f84603281106111e457fe5b6012020160050183600c81106111f657fe5b0181905550606f836032811061120857fe5b6012020160050182600c811061121a57fe5b01547f38797b189f8fcca19a8584f8e2b27aa01e3df12fc134242bcd02789670aff65d600160405161124c919061522d565b60405180910390a26000606f846032811061126357fe5b6012020160110183600c811061127557fe5b602091828204019190066101000a81548160ff021916908315150217905550606f83603281106112a157fe5b6012020160050182600c81106112b357fe5b01547f2fd9d21ee86512bf635aea9a4c120aed075b03667e1cb2a500183d908ac1b285876040516112e49190615263565b60405180910390a2606c82815481106112f957fe5b906000526020600020016103f560008581526020019081526020016000206000606f866032811061132657fe5b6012020160050185600c811061133857fe5b015481526020019081526020016000209080546001816001161561010002031660029004611367929190614328565b50508080600101915050610f60565b5050505050565b6113856143bd565b606f603280602002604051908101604052809291906000905b828210156115fd578382601202016040518060e0016040529081600082018054600181600116156101000203166002900480601f0160208091040260200160405190810160405280929190818152602001828054600181600116156101000203166002900480156114505780601f1061142557610100808354040283529160200191611450565b820191906000526020600020905b81548152906001019060200180831161143357829003601f168201915b50505050508152602001600182018054600181600116156101000203166002900480601f0160208091040260200160405190810160405280929190818152602001828054600181600116156101000203166002900480156114f25780601f106114c7576101008083540402835291602001916114f2565b820191906000526020600020905b8154815290600101906020018083116114d557829003601f168201915b505050505081526020016002820160009054906101000a900460ff1660ff1660ff168152602001600382015481526020016004820160009054906101000a900460ff1660ff1660ff16815260200160058201600c806020026040519081016040528092919082600c801561157b576020028201915b815481526020019060010190808311611567575b5050505050815260200160118201600c806020026040519081016040528092919082600c80156115e5576020028201916000905b82829054906101000a900460ff161515815260200190600101906020826000010492830192600103820291508084116115af5790505b5050505050815250508152602001906001019061139e565b50505050905090565b61160e6124fe565b73ffffffffffffffffffffffffffffffffffffffff1661162c611b16565b73ffffffffffffffffffffffffffffffffffffffff16146116b5576040517f08c379a00000000000000000000000000000000000000000000000000000000081526004018080602001828103825260208152602001807f4f776e61626c653a2063616c6c6572206973206e6f7420746865206f776e657281525060200191505060405180910390fd5b806103f48190555050565b6116c86124fe565b73ffffffffffffffffffffffffffffffffffffffff166116e6611b16565b73ffffffffffffffffffffffffffffffffffffffff161461176f576040517f08c379a00000000000000000000000000000000000000000000000000000000081526004018080602001828103825260208152602001807f4f776e61626c653a2063616c6c6572206973206e6f7420746865206f776e657281525060200191505060405180910390fd5b806103f38360405161178191906150ce565b908152602001604051809103902060006101000a81548173ffffffffffffffffffffffffffffffffffffffff021916908373ffffffffffffffffffffffffffffffffffffffff1602179055505050565b6117d96124fe565b73ffffffffffffffffffffffffffffffffffffffff166117f7611b16565b73ffffffffffffffffffffffffffffffffffffffff1614611880576040517f08c379a00000000000000000000000000000000000000000000000000000000081526004018080602001828103825260208152602001807f4f776e61626c653a2063616c6c6572206973206e6f7420746865206f776e657281525060200191505060405180910390fd5b806103f78190555050565b600c81565b6118986124fe565b73ffffffffffffffffffffffffffffffffffffffff166118b6611b16565b73ffffffffffffffffffffffffffffffffffffffff161461193f576040517f08c379a00000000000000000000000000000000000000000000000000000000081526004018080602001828103825260208152602001807f4f776e61626c653a2063616c6c6572206973206e6f7420746865206f776e657281525060200191505060405180910390fd5b606b600061194d91906142e6565b606c600061195b9190614307565b565b6119656124fe565b73ffffffffffffffffffffffffffffffffffffffff16611983611b16565b73ffffffffffffffffffffffffffffffffffffffff1614611a0c576040517f08c379a00000000000000000000000000000000000000000000000000000000081526004018080602001828103825260208152602001807f4f776e61626c653a2063616c6c6572206973206e6f7420746865206f776e657281525060200191505060405180910390fd5b600073ffffffffffffffffffffffffffffffffffffffff16603960009054906101000a900473ffffffffffffffffffffffffffffffffffffffff1673ffffffffffffffffffffffffffffffffffffffff167f8be0079c531659141344cd1fd0a4f28419497f9722a3daafe3b4186f6b6457e060405160405180910390a36000603960006101000a81548173ffffffffffffffffffffffffffffffffffffffff021916908373ffffffffffffffffffffffffffffffffffffffff160217905550565b60006103f382604051611ae091906150ce565b908152602001604051809103902060009054906101000a900473ffffffffffffffffffffffffffffffffffffffff169050919050565b6000603960009054906101000a900473ffffffffffffffffffffffffffffffffffffffff16905090565b60006103f454905090565b611b536143eb565b611b5b6143eb565b6000610180826000836103e85afa611b7257600080fd5b819250505090565b600080611b90611b8a8686612909565b84612909565b90506000611b9d82612a60565b9050611ba761440e565b60208160c1846103e95afa611bbb57600080fd5b600181600060018110611bca57fe5b60200201511493505050509392505050565b600080611bf1611beb88612c76565b87612909565b90506000611bfe82612a60565b8051906020012090506000611c23611c1583612d1c565b611c1e84612d1c565b612909565b90506000611c3088612a60565b805190602001209050611c44888389611b7a565b945084611c86576040517f08c379a0000000000000000000000000000000000000000000000000000000008152600401611c7d90615305565b60405180910390fd5b611c8f81612da9565b945084611cd1576040517f08c379a0000000000000000000000000000000000000000000000000000000008152600401611cc8906152e5565b60405180910390fd5b611cda89612dfe565b611d7e57606b8a9080600181540180825580915050600190039060005260206000200160009091909190916101000a81548173ffffffffffffffffffffffffffffffffffffffff021916908373ffffffffffffffffffffffffffffffffffffffff160217905550606c89908060018154018082558091505060019003906000526020600020016000909190919091509080519060200190611d7c929190614258565b505b856103f38a604051611d9091906150ce565b908152602001604051809103902060006101000a81548173ffffffffffffffffffffffffffffffffffffffff021916908373ffffffffffffffffffffffffffffffffffffffff16021790555050505050505050505050565b60006103f754905090565b611dfb6124fe565b73ffffffffffffffffffffffffffffffffffffffff16611e19611b16565b73ffffffffffffffffffffffffffffffffffffffff1614611ea2576040517f08c379a00000000000000000000000000000000000000000000000000000000081526004018080602001828103825260208152602001807f4f776e61626c653a2063616c6c6572206973206e6f7420746865206f776e657281525060200191505060405180910390fd5b6103f85460321015611ee9576040517f08c379a0000000000000000000000000000000000000000000000000000000008152600401611ee090615325565b60405180910390fd5b806103f88190555050565b606080606b606c81805480602002602001604051908101604052809291908181526020018280548015611f7c57602002820191906000526020600020905b8160009054906101000a900473ffffffffffffffffffffffffffffffffffffffff1673ffffffffffffffffffffffffffffffffffffffff1681526020019060010190808311611f32575b5050505050915080805480602002602001604051908101604052809291908181526020016000905b82821015612060578382906000526020600020018054600181600116156101000203166002900480601f01602080910402602001604051908101604052809291908181526020018280546001816001161561010002031660029004801561204c5780601f106120215761010080835404028352916020019161204c565b820191906000526020600020905b81548152906001019060200180831161202f57829003601f168201915b505050505081526020019060010190611fa4565b505050509050915091509091565b816005600082815260200190815260200160002060009054906101000a900473ffffffffffffffffffffffffffffffffffffffff1673ffffffffffffffffffffffffffffffffffffffff163373ffffffffffffffffffffffffffffffffffffffff1614612126576040517f08c379a000000000000000000000000000000000000000000000000000000000815260040180806020018281038252602881526020018061571c6028913960400191505060405180910390fd5b6005600082815260200190815260200160002060006101000a81549073ffffffffffffffffffffffffffffffffffffffff0219169055807f7cc135e0cebb02c3480ae5d74d377283180a2601f8f644edf7987b009316c63a60405160405180910390a2827f38797b189f8fcca19a8584f8e2b27aa01e3df12fc134242bcd02789670aff65d60026040516121ba9190615248565b60405180910390a260006121cd84612ef6565b90506000838051906020012090506001606f83603281106121ea57fe5b6012020160020160009054906101000a900460ff1660ff161415612284576000801b606f836032811061221957fe5b6012020160030154141561224f5780606f836032811061223557fe5b601202016003018190555061224a8286612f6d565b612277565b80606f836032811061225d57fe5b60120201600301541415612276576122758286612f6d565b5b5b61228385838684613010565b5b5050505050565b6122936124fe565b73ffffffffffffffffffffffffffffffffffffffff166122b1611b16565b73ffffffffffffffffffffffffffffffffffffffff161461233a576040517f08c379a00000000000000000000000000000000000000000000000000000000081526004018080602001828103825260208152602001807f4f776e61626c653a2063616c6c6572206973206e6f7420746865206f776e657281525060200191505060405180910390fd5b600073ffffffffffffffffffffffffffffffffffffffff168173ffffffffffffffffffffffffffffffffffffffff1614156123c0576040517f08c379a00000000000000000000000000000000000000000000000000000000081526004018080602001828103825260268152602001806156846026913960400191505060405180910390fd5b8073ffffffffffffffffffffffffffffffffffffffff16603960009054906101000a900473ffffffffffffffffffffffffffffffffffffffff1673ffffffffffffffffffffffffffffffffffffffff167f8be0079c531659141344cd1fd0a4f28419497f9722a3daafe3b4186f6b6457e060405160405180910390a380603960006101000a81548173ffffffffffffffffffffffffffffffffffffffff021916908373ffffffffffffffffffffffffffffffffffffffff16021790555050565b60005b60328110156124a257612495816130a3565b8080600101915050612483565b50565b6000816040516020016124b891906150ce565b60405160208183030381529060405280519060200120836040516020016124df91906150ce565b6040516020818303038152906040528051906020012014905092915050565b600033905090565b6000612511306131e2565b15905090565b6125b473a9e0a397e7ff13cfe4dd6632b48da41375292c2f73ffffffffffffffffffffffffffffffffffffffff166338cc48316040518163ffffffff1660e01b815260040160206040518083038186803b15801561257457600080fd5b505afa158015612588573d6000803e3d6000fd5b505050506040513d602081101561259e57600080fd5b81019080805190602001909291905050506131f5565b565b600660019054906101000a900460ff16806125d557506125d4612506565b5b806125ed5750600660009054906101000a900460ff16155b612642576040517f08c379a000000000000000000000000000000000000000000000000000000000815260040180806020018281038252602e8152602001806156cd602e913960400191505060405180910390fd5b6000600660019054906101000a900460ff161590508015612694576001600660016101000a81548160ff0219169083151502179055506001600660006101000a81548160ff0219169083151502179055505b61269c613239565b6126a461333c565b80156126c6576000600660016101000a81548160ff0219169083151502179055505b50565b6000808290506000815114156126e5576000801b9150506126ee565b60208301519150505b919050565b6126fb614430565b612703614430565b61271a858585846134e8909392919063ffffffff16565b9150509392505050565b61273b82846080015161359890919063ffffffff16565b61275281846080015161359890919063ffffffff16565b505050565b61276e82846080015161359890919063ffffffff16565b6127858184608001516135bd90919063ffffffff16565b505050565b6000806004549050600181016004819055506000633c6d41b960e01b600080876000015188604001518660028b6080015160000151604051602401808873ffffffffffffffffffffffffffffffffffffffff168152602001878152602001868152602001857bffffffffffffffffffffffffffffffffffffffffffffffffffffffff1916815260200184815260200183815260200180602001828103825283818151815260200191508051906020019080838360005b8381101561285b578082015181840152602081019050612840565b50505050905090810190601f1680156128885780820380516001836020036101000a031916815260200191505b5098505050505050505050604051602081830303815290604052907bffffffffffffffffffffffffffffffffffffffffffffffffffffffff19166020820180517bffffffffffffffffffffffffffffffffffffffffffffffffffffffff838183161783525050505090506128fe868386846135ed565b925050509392505050565b6060600083905060008390506000815183510167ffffffffffffffff8111801561293257600080fd5b506040519080825280601f01601f1916602001820160405280156129655781602001600182028036833780820191505090505b50905060008190506000805b85518110156129df5785818151811061298657fe5b602001015160f81c60f81b8383806001019450815181106129a357fe5b60200101907effffffffffffffffffffffffffffffffffffffffffffffffffffffffffffff1916908160001a9053508080600101915050612971565b5060005b8451811015612a51578481815181106129f857fe5b602001015160f81c60f81b838380600101945081518110612a1557fe5b60200101907effffffffffffffffffffffffffffffffffffffffffffffffffffffffffffff1916908160001a90535080806001019150506129e3565b50829550505050505092915050565b606060008290506000815167ffffffffffffffff81118015612a8157600080fd5b50604051908082528060200260200182016040528015612ab05781602001602082028036833780820191505090505b50905060005b8251811015612b81576000838281518110612acd57fe5b602001015160f81c60f81b60f81c905060608160ff161115612b1557600a6061820301838381518110612afc57fe5b602002602001019060ff16908160ff1681525050612b73565b60428160ff161115612b4d57600a6041820301838381518110612b3457fe5b602002602001019060ff16908160ff1681525050612b72565b60308103838381518110612b5d57fe5b602002602001019060ff16908160ff16815250505b5b508080600101915050612ab6565b5060006002825181612b8f57fe5b0467ffffffffffffffff81118015612ba657600080fd5b506040519080825280601f01601f191660200182016040528015612bd95781602001600182028036833780820191505090505b50905060005b8251811015612c6a57826001820181518110612bf757fe5b60200260200101516010848381518110612c0d57fe5b6020026020010151020160f81b8260028381612c2557fe5b0481518110612c3057fe5b60200101907effffffffffffffffffffffffffffffffffffffffffffffffffffffffffffff1916908160001a905350600281019050612bdf565b50809350505050919050565b6060600082604051602001808273ffffffffffffffffffffffffffffffffffffffff1660601b815260140191505060405160208183030381529060405290506000602867ffffffffffffffff81118015612ccf57600080fd5b506040519080825280601f01601f191660200182016040528015612d025781602001600182028036833780820191505090505b509050612d10826014613850565b90508092505050919050565b60606000826040516020018082815260200191505060405160208183030381529060405290506000604067ffffffffffffffff81118015612d5c57600080fd5b506040519080825280601f01601f191660200182016040528015612d8f5781602001600182028036833780820191505090505b509050612d9d826020613850565b90508092505050919050565b600080612db4611b4b565b905060005b600c811015612df2578181600c8110612dce57fe5b6020020151841415612de557600192505050612df9565b8080600101915050612db9565b5060009150505b919050565b600080606b80549050905060005b81811015612eea57612ecd606c8281548110612e2457fe5b906000526020600020018054600181600116156101000203166002900480601f016020809104026020016040519081016040528092919081815260200182805460018160011615610100020316600290048015612ec25780601f10612e9757610100808354040283529160200191612ec2565b820191906000526020600020905b815481529060010190602001808311612ea557829003601f168201915b5050505050856124a5565b15612edd57600192505050612ef1565b8080600101915050612e0c565b5060009150505b919050565b600080600090505b6103f854811015612f625760005b600c811015612f545783606f8360328110612f2357fe5b6012020160050182600c8110612f3557fe5b01541415612f47578192505050612f68565b8080600101915050612f0c565b508080600101915050612efe565b50600090505b919050565b60005b600c81101561300b5781606f8460328110612f8757fe5b6012020160050182600c8110612f9957fe5b01541415612ffe576001606f8460328110612fb057fe5b6012020160110182600c8110612fc257fe5b602091828204019190066101000a81548160ff0219169083151502179055506000801b606f8460328110612ff257fe5b60120201600301819055505b8080600101915050612f70565b505050565b6002600c026003613020856139e0565b0260ff161061309d57837f0290f1d2e2f60aa240b412bbc45f994b802eb1673f6948bce1e0da2a62813a3883438460405161305d939291906151d4565b60405180910390a26002606f846032811061307457fe5b6012020160020160006101000a81548160ff021916908360ff16021790555061309c83613a4d565b5b50505050565b60405180602001604052806000815250606f82603281106130c057fe5b6012020160000190805190602001906130da929190614258565b5060405180602001604052806000815250606f82603281106130f857fe5b601202016001019080519060200190613112929190614258565b506000606f826032811061312257fe5b6012020160020160006101000a81548160ff021916908360ff1602179055506000801b606f826032811061315257fe5b601202016003018190555060005b600c8110156131de576000801b606f836032811061317a57fe5b6012020160050182600c811061318c57fe5b01819055506000606f83603281106131a057fe5b6012020160110182600c81106131b257fe5b602091828204019190066101000a81548160ff0219169083151502179055508080600101915050613160565b5050565b600080823b905060008111915050919050565b80600260006101000a81548173ffffffffffffffffffffffffffffffffffffffff021916908373ffffffffffffffffffffffffffffffffffffffff16021790555050565b600660019054906101000a900460ff16806132585750613257612506565b5b806132705750600660009054906101000a900460ff16155b6132c5576040517f08c379a000000000000000000000000000000000000000000000000000000000815260040180806020018281038252602e8152602001806156cd602e913960400191505060405180910390fd5b6000600660019054906101000a900460ff161590508015613317576001600660016101000a81548160ff0219169083151502179055506001600660006101000a81548160ff0219169083151502179055505b8015613339576000600660016101000a81548160ff0219169083151502179055505b50565b600660019054906101000a900460ff168061335b575061335a612506565b5b806133735750600660009054906101000a900460ff16155b6133c8576040517f08c379a000000000000000000000000000000000000000000000000000000000815260040180806020018281038252602e8152602001806156cd602e913960400191505060405180910390fd5b6000600660019054906101000a900460ff16159050801561341a576001600660016101000a81548160ff0219169083151502179055506001600660006101000a81548160ff0219169083151502179055505b60006134246124fe565b905080603960006101000a81548173ffffffffffffffffffffffffffffffffffffffff021916908373ffffffffffffffffffffffffffffffffffffffff1602179055508073ffffffffffffffffffffffffffffffffffffffff16600073ffffffffffffffffffffffffffffffffffffffff167f8be0079c531659141344cd1fd0a4f28419497f9722a3daafe3b4186f6b6457e060405160405180910390a35080156134e5576000600660016101000a81548160ff0219169083151502179055505b50565b6134f0614430565b6135008560800151610100613c6c565b508385600001818152505082856020019073ffffffffffffffffffffffffffffffffffffffff16908173ffffffffffffffffffffffffffffffffffffffff16815250508185604001907bffffffffffffffffffffffffffffffffffffffffffffffffffffffff191690817bffffffffffffffffffffffffffffffffffffffffffffffffffffffff191681525050849050949350505050565b6135a58260038351613cc0565b6135b88183613e4590919063ffffffff16565b505050565b67ffffffffffffffff8111156135dc576135d78282613e67565b6135e9565b6135e882600083613cc0565b5b5050565b60003084604051602001808373ffffffffffffffffffffffffffffffffffffffff1660601b815260140182815260200192505050604051602081830303815290604052805190602001209050846005600083815260200190815260200160002060006101000a81548173ffffffffffffffffffffffffffffffffffffffff021916908373ffffffffffffffffffffffffffffffffffffffff160217905550807fb5e6e01e79f91267dc17b4e6314d5d4d03593d2ceee0fbb452b750bd70ea5af960405160405180910390a2600260009054906101000a900473ffffffffffffffffffffffffffffffffffffffff1673ffffffffffffffffffffffffffffffffffffffff16634000aea08685856040518463ffffffff1660e01b8152600401808473ffffffffffffffffffffffffffffffffffffffff16815260200183815260200180602001828103825283818151815260200191508051906020019080838360005b8381101561376a57808201518184015260208101905061374f565b50505050905090810190601f1680156137975780820380516001836020036101000a031916815260200191505b50945050505050602060405180830381600087803b1580156137b857600080fd5b505af11580156137cc573d6000803e3d6000fd5b505050506040513d60208110156137e257600080fd5b8101908080519060200190929190505050613848576040517f08c379a00000000000000000000000000000000000000000000000000000000081526004018080602001828103825260238152602001806156aa6023913960400191505060405180910390fd5b949350505050565b606060006002830267ffffffffffffffff8111801561386e57600080fd5b506040519080825280601f01601f1916602001820160405280156138a15781602001600182028036833780820191505090505b50905060005b838110156139d557600060108683815181106138bf57fe5b602001015160f81c60f81b60f81c60ff16816138d757fe5b0490506000816010028784815181106138ec57fe5b602001015160f81c60f81b60f81c0390506000600a8360ff1610613916576057830160f81b61391e565b6030830160f81b5b90506000600a8360ff1610613939576057830160f81b613941565b6030830160f81b5b90508186866002028151811061395357fe5b60200101907effffffffffffffffffffffffffffffffffffffffffffffffffffffffffffff1916908160001a9053508086600187600202018151811061399557fe5b60200101907effffffffffffffffffffffffffffffffffffffffffffffffffffffffffffff1916908160001a9053505050505080806001019150506138a7565b508091505092915050565b6000806000905060005b600c811015613a4357606f8460328110613a0057fe5b6012020160110181600c8110613a1257fe5b602091828204019190069054906101000a900460ff1615613a365781806001019250505b80806001019150506139ea565b5080915050919050565b6000613aa060026003600c81613a5f57fe5b0402613a92612710613a846103f454612710036103f754613eb390919063ffffffff16565b613f3990919063ffffffff16565b613f3990919063ffffffff16565b905060005b600c811015613c6757606f8360328110613abb57fe5b6012020160110181600c8110613acd57fe5b602091828204019190069054906101000a900460ff1615613c5a576000606f8460328110613af757fe5b6012020160050182600c8110613b0957fe5b0154905060006103f5600086815260200190815260200160002060008381526020019081526020016000208054600181600116156101000203166002900480601f016020809104026020016040519081016040528092919081815260200182805460018160011615610100020316600290048015613bc85780601f10613b9d57610100808354040283529160200191613bc8565b820191906000526020600020905b815481529060010190602001808311613bab57829003601f168201915b5050505050905060006103f382604051613be291906150ce565b908152602001604051809103902060009054906101000a900473ffffffffffffffffffffffffffffffffffffffff1690507f21e523e74b4bd28fea73412ad9fdd156d8aa03f6d5c93e0511f3bf40e19490168186604051613c44929190615100565b60405180910390a1613c568186610a44565b5050505b8080600101915050613aa5565b505050565b613c7461449d565b600060208381613c8057fe5b0614613c995760208281613c9057fe5b06602003820191505b81836020018181525050604051808452600081528281016020016040525082905092915050565b60178167ffffffffffffffff1611613cf757613cf18160058460ff16901b60ff161784613f8390919063ffffffff16565b50613e40565b60ff8167ffffffffffffffff1611613d4d57613d26601860058460ff16901b1784613f8390919063ffffffff16565b50613d478167ffffffffffffffff16600185613fa39092919063ffffffff16565b50613e3f565b61ffff8167ffffffffffffffff1611613da457613d7d601960058460ff16901b1784613f8390919063ffffffff16565b50613d9e8167ffffffffffffffff16600285613fa39092919063ffffffff16565b50613e3e565b63ffffffff8167ffffffffffffffff1611613dfd57613dd6601a60058460ff16901b1784613f8390919063ffffffff16565b50613df78167ffffffffffffffff16600485613fa39092919063ffffffff16565b50613e3d565b613e1a601b60058460ff16901b1784613f8390919063ffffffff16565b50613e3b8167ffffffffffffffff16600885613fa39092919063ffffffff16565b505b5b5b5b505050565b613e4d61449d565b613e5f83846000015151848551613fc5565b905092915050565b613e8560026005600660ff16901b1783613f8390919063ffffffff16565b50613eaf82826040516020018082815260200191505060405160208183030381529060405261407e565b5050565b600080831415613ec65760009050613f33565b6000828402905082848281613ed757fe5b0414613f2e576040517f08c379a00000000000000000000000000000000000000000000000000000000081526004018080602001828103825260218152602001806156fb6021913960400191505060405180910390fd5b809150505b92915050565b6000613f7b83836040518060400160405280601a81526020017f536166654d6174683a206469766973696f6e206279207a65726f0000000000008152506140a3565b905092915050565b613f8b61449d565b613f9b8384600001515184614169565b905092915050565b613fab61449d565b613fbc8485600001515185856141b7565b90509392505050565b613fcd61449d565b8251821115613fdb57600080fd5b8460200151828501111561400657614005856002613fff8860200151888701614218565b02614234565b5b6000808651805187602083010193508088870111156140255787860182525b60208701925050505b60208410614051578051825260208201915060208101905060208403935061402e565b60006001856020036101000a03905080198251168184511681811785525050879350505050949350505050565b61408b8260028351613cc0565b61409e8183613e4590919063ffffffff16565b505050565b6000808311829061414f576040517f08c379a00000000000000000000000000000000000000000000000000000000081526004018080602001828103825283818151815260200191508051906020019080838360005b838110156141145780820151818401526020810190506140f9565b50505050905090810190601f1680156141415780820380516001836020036101000a031916815260200191505b509250505060405180910390fd5b50600083858161415b57fe5b049050809150509392505050565b61417161449d565b8360200151831061418e5761418d846002866020015102614234565b5b83518051602085830101848153818614156141aa576001820183525b5050508390509392505050565b6141bf61449d565b846020015184830111156141dd576141dc85600286850102614234565b5b60006001836101000a039050855183868201018583198251161781528151858801111561420a5784870182525b505085915050949350505050565b60008183111561422a5782905061422e565b8190505b92915050565b6000826000015190506142478383613c6c565b506142528382613e45565b50505050565b828054600181600116156101000203166002900490600052602060002090601f01602090048101928261428e57600085556142d5565b82601f106142a757805160ff19168380011785556142d5565b828001600101855582156142d5579182015b828111156142d45782518255916020019190600101906142b9565b5b5090506142e291906144b7565b5090565b508054600082559060005260206000209081019061430491906144b7565b50565b508054600082559060005260206000209081019061432591906144d4565b50565b828054600181600116156101000203166002900490600052602060002090601f01602090048101928261435e57600085556143ac565b82601f1061436f57805485556143ac565b828001600101855582156143ac57600052602060002091601f016020900482015b828111156143ab578254825591600101919060010190614390565b5b5090506143b991906144b7565b5090565b6040518061064001604052806032905b6143d56144f8565b8152602001906001900390816143cd5790505090565b604051806101800160405280600c90602082028036833780820191505090505090565b6040518060200160405280600190602082028036833780820191505090505090565b6040518060a0016040528060008019168152602001600073ffffffffffffffffffffffffffffffffffffffff16815260200160007bffffffffffffffffffffffffffffffffffffffffffffffffffffffff191681526020016000815260200161449761449d565b81525090565b604051806040016040528060608152602001600081525090565b5b808211156144d05760008160009055506001016144b8565b5090565b5b808211156144f457600081816144eb919061454a565b506001016144d5565b5090565b6040518060e001604052806060815260200160608152602001600060ff16815260200160008019168152602001600060ff1681526020016145376143eb565b8152602001614544614592565b81525090565b50805460018160011615610100020316600290046000825580601f10614570575061458f565b601f01602090049060005260206000209081019061458e91906144b7565b5b50565b604051806101800160405280600c90602082028036833780820191505090505090565b60006145c86145c384615391565b615360565b9050828152602081018484840111156145e057600080fd5b6145eb8482856155e9565b509392505050565b6000614606614601846153c1565b615360565b90508281526020810184848401111561461e57600080fd5b6146298482856155e9565b509392505050565b6000813590506146408161563e565b92915050565b60008135905061465581615655565b92915050565b600082601f83011261466c57600080fd5b813561467c8482602086016145b5565b91505092915050565b600082601f83011261469657600080fd5b81356146a68482602086016145f3565b91505092915050565b6000813590506146be8161566c565b92915050565b6000602082840312156146d657600080fd5b60006146e484828501614631565b91505092915050565b600080600080600060a0868803121561470557600080fd5b600061471388828901614631565b955050602086013567ffffffffffffffff81111561473057600080fd5b61473c88828901614685565b945050604086013567ffffffffffffffff81111561475957600080fd5b61476588828901614685565b935050606086013567ffffffffffffffff81111561478257600080fd5b61478e88828901614685565b925050608061479f88828901614631565b9150509295509295909350565b600080604083850312156147bf57600080fd5b60006147cd85828601614631565b92505060206147de858286016146af565b9150509250929050565b600080604083850312156147fb57600080fd5b600061480985828601614646565b925050602083013567ffffffffffffffff81111561482657600080fd5b6148328582860161465b565b9150509250929050565b60006020828403121561484e57600080fd5b600082013567ffffffffffffffff81111561486857600080fd5b61487484828501614685565b91505092915050565b6000806040838503121561489057600080fd5b600083013567ffffffffffffffff8111156148aa57600080fd5b6148b685828601614685565b92505060206148c785828601614631565b9150509250929050565b600080604083850312156148e457600080fd5b600083013567ffffffffffffffff8111156148fe57600080fd5b61490a85828601614685565b925050602083013567ffffffffffffffff81111561492757600080fd5b61493385828601614685565b9150509250929050565b60008060006060848603121561495257600080fd5b600084013567ffffffffffffffff81111561496c57600080fd5b61497886828701614685565b935050602084013567ffffffffffffffff81111561499557600080fd5b6149a186828701614685565b925050604084013567ffffffffffffffff8111156149be57600080fd5b6149ca86828701614685565b9150509250925092565b6000602082840312156149e657600080fd5b60006149f4848285016146af565b91505092915050565b6000614a098383614a6d565b60208301905092915050565b6000614a218383614cd8565b60208301905092915050565b6000614a398383614cf6565b60208301905092915050565b6000614a518383614dab565b905092915050565b6000614a658383614ff4565b905092915050565b614a7681615554565b82525050565b614a8581615554565b82525050565b6000614a968261542f565b614aa081856154bd565b9350614aab836153f1565b8060005b83811015614adc578151614ac388826149fd565b9750614ace8361547c565b925050600181019050614aaf565b5085935050505092915050565b614af28161543a565b614afc81846154ce565b9250614b0782615401565b8060005b83811015614b38578151614b1f8782614a15565b9650614b2a83615489565b925050600181019050614b0b565b505050505050565b614b4981615445565b614b5381846154d9565b9250614b5e8261540b565b8060005b83811015614b8f578151614b768782614a2d565b9650614b8183615496565b925050600181019050614b62565b505050505050565b614ba081615445565b614baa81846154e4565b9250614bb58261540b565b8060005b83811015614be6578151614bcd8782614a2d565b9650614bd883615496565b925050600181019050614bb9565b505050505050565b6000614bf982615450565b614c0381856154ef565b935083602082028501614c1585615415565b8060005b85811015614c515784840389528151614c328582614a45565b9450614c3d836154a3565b925060208a01995050600181019050614c19565b50829750879550505050505092915050565b6000614c6e8261545b565b614c788185615500565b935083602082028501614c8a85615425565b8060005b85811015614cc65784840389528151614ca78582614a59565b9450614cb2836154b0565b925060208a01995050600181019050614c8e565b50829750879550505050505092915050565b614ce181615566565b82525050565b614cf081615566565b82525050565b614cff81615572565b82525050565b614d0e81615572565b82525050565b6000614d1f82615466565b614d29818561550b565b9350614d398185602086016155f8565b614d428161562d565b840191505092915050565b6000614d5882615466565b614d62818561551c565b9350614d728185602086016155f8565b80840191505092915050565b614d87816155b3565b82525050565b614d96816155c5565b82525050565b614da5816155d7565b82525050565b6000614db682615471565b614dc08185615527565b9350614dd08185602086016155f8565b614dd98161562d565b840191505092915050565b6000614def82615471565b614df98185615538565b9350614e098185602086016155f8565b614e128161562d565b840191505092915050565b6000614e2882615471565b614e328185615549565b9350614e428185602086016155f8565b80840191505092915050565b6000614e5b603e83615538565b91507f5472616e7366657248656c7065723a3a736166655472616e736665724375727260008301527f656e63793a2043757272656e6379207472616e73666572206661696c656400006020830152604082019050919050565b6000614ec1601b83615538565b91507f746f6f206d616e792063616c6c732c706c6561736520776169742000000000006000830152602082019050919050565b6000614f01601183615538565b91507f666565206973206e6f7420656e6f7567680000000000000000000000000000006000830152602082019050919050565b6000614f41601c83615538565b91507f61726269746572206973206e6f7420696e20746865206c6973742021000000006000830152602082019050919050565b6000614f81601883615538565b91507f7032353656657269667920646f206e6f742070617373202100000000000000006000830152602082019050919050565b6000614fc1601483615538565b91507f736574206368616e6e656c20746f6f20626967200000000000000000000000006000830152602082019050919050565b60006103a08301600083015184820360008601526150128282614dab565b9150506020830151848203602086015261502c8282614dab565b915050604083015161504160408601826150a8565b5060608301516150546060860182614cf6565b50608083015161506760808601826150a8565b5060a083015161507a60a0860182614b40565b5060c083015161508e610220860182614ae9565b508091505092915050565b6150a28161559c565b82525050565b6150b1816155a6565b82525050565b60006150c38284614d4d565b915081905092915050565b60006150da8284614e1d565b915081905092915050565b60006020820190506150fa6000830184614a7c565b92915050565b60006040820190506151156000830185614a7c565b6151226020830184615099565b9392505050565b600060408201905081810360008301526151438185614a8b565b905081810360208301526151578184614bee565b90509392505050565b6000610180820190506151766000830184614b97565b92915050565b600060208201905081810360008301526151968184614c63565b905092915050565b60006020820190506151b36000830184614ce7565b92915050565b60006020820190506151ce6000830184614d05565b92915050565b600060608201905081810360008301526151ee8186614d14565b90506151fd6020830185615099565b61520a6040830184614d05565b949350505050565b60006020820190506152276000830184614d7e565b92915050565b60006020820190506152426000830184614d8d565b92915050565b600060208201905061525d6000830184614d9c565b92915050565b6000602082019050818103600083015261527d8184614de4565b905092915050565b6000602082019050818103600083015261529e81614e4e565b9050919050565b600060208201905081810360008301526152be81614eb4565b9050919050565b600060208201905081810360008301526152de81614ef4565b9050919050565b600060208201905081810360008301526152fe81614f34565b9050919050565b6000602082019050818103600083015261531e81614f74565b9050919050565b6000602082019050818103600083015261533e81614fb4565b9050919050565b600060208201905061535a6000830184615099565b92915050565b6000604051905081810181811067ffffffffffffffff821117156153875761538661562b565b5b8060405250919050565b600067ffffffffffffffff8211156153ac576153ab61562b565b5b601f19601f8301169050602081019050919050565b600067ffffffffffffffff8211156153dc576153db61562b565b5b601f19601f8301169050602081019050919050565b6000819050602082019050919050565b6000819050919050565b6000819050919050565b6000819050602082019050919050565b6000819050919050565b600081519050919050565b6000600c9050919050565b6000600c9050919050565b600081519050919050565b600060329050919050565b600081519050919050565b600081519050919050565b6000602082019050919050565b6000602082019050919050565b6000602082019050919050565b6000602082019050919050565b6000602082019050919050565b600082825260208201905092915050565b600081905092915050565b600081905092915050565b600081905092915050565b600082825260208201905092915050565b600081905092915050565b600082825260208201905092915050565b600081905092915050565b600082825260208201905092915050565b600082825260208201905092915050565b600081905092915050565b600061555f8261557c565b9050919050565b60008115159050919050565b6000819050919050565b600073ffffffffffffffffffffffffffffffffffffffff82169050919050565b6000819050919050565b600060ff82169050919050565b60006155be826155a6565b9050919050565b60006155d0826155a6565b9050919050565b60006155e2826155a6565b9050919050565b82818337600083830152505050565b60005b838110156156165780820151818401526020810190506155fb565b83811115615625576000848401525b50505050565bfe5b6000601f19601f8301169050919050565b61564781615554565b811461565257600080fd5b50565b61565e81615572565b811461566957600080fd5b50565b6156758161559c565b811461568057600080fd5b5056fe4f776e61626c653a206e6577206f776e657220697320746865207a65726f2061646472657373756e61626c6520746f207472616e73666572416e6443616c6c20746f206f7261636c65496e697469616c697a61626c653a20636f6e747261637420697320616c726561647920696e697469616c697a6564536166654d6174683a206d756c7469706c69636174696f6e206f766572666c6f77536f75726365206d75737420626520746865206f7261636c65206f66207468652072657175657374a26469706673582212209ff9c321120f4a430cbf948d17950761734f6cf0588c333552c5dc54f3bdbfae64736f6c63430007060033",
  "linkReferences": {},
  "deployedLinkReferences": {}
}