{
  "_format": "hh-sol-artifact-1",
  "contractName": "DataConsumer",
  "sourceName": "contracts/DataConsumer.sol",
  "abi": [
    {
      "anonymous": false,
      "inputs": [
        {
          "indexed": true,
          "internalType": "bytes32",
          "name": "id",
          "type": "bytes32"
        }
      ],
      "name": "ChainlinkCancelled",
      "type": "event"
    },
    {
      "anonymous": false,
      "inputs": [
        {
          "indexed": true,
          "internalType": "bytes32",
          "name": "id",
          "type": "bytes32"
        }
      ],
      "name": "ChainlinkFulfilled",
      "type": "event"
    },
    {
      "anonymous": false,
      "inputs": [
        {
          "indexed": true,
          "internalType": "bytes32",
          "name": "id",
          "type": "bytes32"
        }
      ],
      "name": "ChainlinkRequested",
      "type": "event"
    },
    {
      "anonymous": false,
      "inputs": [
        {
          "indexed": true,
          "internalType": "bytes32",
          "name": "requestId",
          "type": "bytes32"
        },
        {
          "indexed": false,
          "internalType": "uint8",
          "name": "logNum",
          "type": "uint8"
        }
      ],
      "name": "Log",
      "type": "event"
    },
    {
      "anonymous": false,
      "inputs": [
        {
          "indexed": false,
          "internalType": "address",
          "name": "recAddress",
          "type": "address"
        },
        {
          "indexed": false,
          "internalType": "uint256",
          "name": "value",
          "type": "uint256"
        }
      ],
      "name": "LogAddress",
      "type": "event"
    },
    {
      "anonymous": false,
      "inputs": [
        {
          "indexed": true,
          "internalType": "address",
          "name": "previousOwner",
          "type": "address"
        },
        {
          "indexed": true,
          "internalType": "address",
          "name": "newOwner",
          "type": "address"
        }
      ],
      "name": "OwnershipTransferred",
      "type": "event"
    },
    {
      "anonymous": false,
      "inputs": [
        {
          "indexed": true,
          "internalType": "bytes32",
          "name": "requestId",
          "type": "bytes32"
        },
        {
          "indexed": false,
          "internalType": "bytes",
          "name": "data",
          "type": "bytes"
        },
        {
          "indexed": false,
          "internalType": "uint256",
          "name": "blockNumber",
          "type": "uint256"
        },
        {
          "indexed": false,
          "internalType": "bytes32",
          "name": "datahash",
          "type": "bytes32"
        }
      ],
      "name": "SearchConformed",
      "type": "event"
    },
    {
      "anonymous": false,
      "inputs": [
        {
          "indexed": true,
          "internalType": "bytes32",
          "name": "requestId",
          "type": "bytes32"
        },
        {
          "indexed": false,
          "internalType": "string",
          "name": "key",
          "type": "string"
        }
      ],
      "name": "SearchInfo",
      "type": "event"
    },
    {
      "stateMutability": "payable",
      "type": "fallback"
    },
    {
      "inputs": [],
      "name": "ARBITER_NUM",
      "outputs": [
        {
          "internalType": "uint256",
          "name": "",
          "type": "uint256"
        }
      ],
      "stateMutability": "view",
      "type": "function"
    },
    {
      "inputs": [
        {
          "internalType": "string",
          "name": "_version",
          "type": "string"
        }
      ],
      "name": "__DataConsumer_init",
      "outputs": [],
      "stateMutability": "nonpayable",
      "type": "function"
    },
    {
      "inputs": [
        {
          "internalType": "address",
          "name": "_to",
          "type": "address"
        },
        {
          "internalType": "uint256",
          "name": "_value",
          "type": "uint256"
        }
      ],
      "name": "_safeTransferCurrency",
      "outputs": [],
      "stateMutability": "nonpayable",
      "type": "function"
    },
    {
      "inputs": [
        {
          "internalType": "address",
          "name": "_oracle",
          "type": "address"
        },
        {
          "internalType": "string",
          "name": "_jobId",
          "type": "string"
        },
        {
          "internalType": "string",
          "name": "_pubKey",
          "type": "string"
        },
        {
          "internalType": "string",
          "name": "_sign",
          "type": "string"
        },
        {
          "internalType": "address",
          "name": "_receiveAddress",
          "type": "address"
        }
      ],
      "name": "addOralceAndJobId",
      "outputs": [],
      "stateMutability": "nonpayable",
      "type": "function"
    },
    {
      "inputs": [],
      "name": "clearOralceAndJobId",
      "outputs": [],
      "stateMutability": "nonpayable",
      "type": "function"
    },
    {
      "inputs": [],
      "name": "clearSearchResult",
      "outputs": [],
      "stateMutability": "nonpayable",
      "type": "function"
    },
    {
      "inputs": [
        {
          "internalType": "uint256",
          "name": "_maxChannel",
          "type": "uint256"
        }
      ],
      "name": "createMaxChannel",
      "outputs": [],
      "stateMutability": "nonpayable",
      "type": "function"
    },
    {
      "inputs": [
        {
          "internalType": "bytes32",
          "name": "_requestId",
          "type": "bytes32"
        },
        {
          "internalType": "bytes",
          "name": "_didData",
          "type": "bytes"
        }
      ],
      "name": "fulfillEthereumDidData",
      "outputs": [],
      "stateMutability": "nonpayable",
      "type": "function"
    },
    {
      "inputs": [],
      "name": "getArbiterList",
      "outputs": [
        {
          "internalType": "bytes32[12]",
          "name": "",
          "type": "bytes32[12]"
        }
      ],
      "stateMutability": "view",
      "type": "function"
    },
    {
      "inputs": [],
      "name": "getChannelInfoList",
      "outputs": [
        {
          "components": [
            {
              "internalType": "string",
              "name": "did",
              "type": "string"
            },
            {
              "internalType": "string",
              "name": "method",
              "type": "string"
            },
            {
              "internalType": "uint8",
              "name": "status",
              "type": "uint8"
            },
            {
              "internalType": "bytes32",
              "name": "dataHash",
              "type": "bytes32"
            },
            {
              "internalType": "uint8",
              "name": "totalReqestNum",
              "type": "uint8"
            },
            {
              "internalType": "bytes32[12]",
              "name": "requestIds",
              "type": "bytes32[12]"
            },
            {
              "internalType": "bool[12]",
              "name": "isSearchs",
              "type": "bool[12]"
            }
          ],
          "internalType": "struct DataConsumer.ChannelInfo[]",
          "name": "",
          "type": "tuple[]"
        }
      ],
      "stateMutability": "view",
      "type": "function"
    },
    {
      "inputs": [],
      "name": "getFee",
      "outputs": [
        {
          "internalType": "uint256",
          "name": "",
          "type": "uint256"
        }
      ],
      "stateMutability": "view",
      "type": "function"
    },
    {
      "inputs": [],
      "name": "getMaxChannel",
      "outputs": [
        {
          "internalType": "uint256",
          "name": "",
          "type": "uint256"
        }
      ],
      "stateMutability": "view",
      "type": "function"
    },
    {
      "inputs": [],
      "name": "getOralceAndJobs",
      "outputs": [
        {
          "internalType": "address[]",
          "name": "",
          "type": "address[]"
        },
        {
          "internalType": "string[]",
          "name": "",
          "type": "string[]"
        }
      ],
      "stateMutability": "view",
      "type": "function"
    },
    {
      "inputs": [
        {
          "internalType": "string",
          "name": "_jobId",
          "type": "string"
        }
      ],
      "name": "getPayMap",
      "outputs": [
        {
          "internalType": "address",
          "name": "",
          "type": "address"
        }
      ],
      "stateMutability": "view",
      "type": "function"
    },
    {
      "inputs": [],
      "name": "getPlatformRate",
      "outputs": [
        {
          "internalType": "uint256",
          "name": "",
          "type": "uint256"
        }
      ],
      "stateMutability": "view",
      "type": "function"
    },
    {
      "inputs": [
        {
          "internalType": "string",
          "name": "_did",
          "type": "string"
        },
        {
          "internalType": "string",
          "name": "_method",
          "type": "string"
        }
      ],
      "name": "getSearchResult",
      "outputs": [
        {
          "internalType": "bytes32",
          "name": "",
          "type": "bytes32"
        }
      ],
      "stateMutability": "view",
      "type": "function"
    },
    {
      "inputs": [],
      "name": "owner",
      "outputs": [
        {
          "internalType": "address",
          "name": "",
          "type": "address"
        }
      ],
      "stateMutability": "view",
      "type": "function"
    },
    {
      "inputs": [
        {
          "internalType": "string",
          "name": "_pubkey",
          "type": "string"
        },
        {
          "internalType": "string",
          "name": "_data",
          "type": "string"
        },
        {
          "internalType": "string",
          "name": "_sig",
          "type": "string"
        }
      ],
      "name": "p256Verify",
      "outputs": [
        {
          "internalType": "bool",
          "name": "",
          "type": "bool"
        }
      ],
      "stateMutability": "view",
      "type": "function"
    },
    {
      "inputs": [],
      "name": "renounceOwnership",
      "outputs": [],
      "stateMutability": "nonpayable",
      "type": "function"
    },
    {
      "inputs": [
        {
          "internalType": "string",
          "name": "did",
          "type": "string"
        },
        {
          "internalType": "string",
          "name": "method",
          "type": "string"
        }
      ],
      "name": "requestResultFromList",
      "outputs": [],
      "stateMutability": "payable",
      "type": "function"
    },
    {
      "inputs": [
        {
          "internalType": "uint256",
          "name": "_fee",
          "type": "uint256"
        }
      ],
      "name": "setFee",
      "outputs": [],
      "stateMutability": "nonpayable",
      "type": "function"
    },
    {
      "inputs": [
        {
          "internalType": "string",
          "name": "_jobId",
          "type": "string"
        },
        {
          "internalType": "address",
          "name": "_receiveAddress",
          "type": "address"
        }
      ],
      "name": "setPayMap",
      "outputs": [],
      "stateMutability": "nonpayable",
      "type": "function"
    },
    {
      "inputs": [
        {
          "internalType": "uint256",
          "name": "_platformRate",
          "type": "uint256"
        }
      ],
      "name": "setPlatformRate",
      "outputs": [],
      "stateMutability": "nonpayable",
      "type": "function"
    },
    {
      "inputs": [
        {
          "internalType": "address",
          "name": "newOwner",
          "type": "address"
        }
      ],
      "name": "transferOwnership",
      "outputs": [],
      "stateMutability": "nonpayable",
      "type": "function"
    },
    {
      "inputs": [],
      "name": "withDrawCurrency",
      "outputs": [],
      "stateMutability": "nonpayable",
      "type": "function"
    },
    {
      "stateMutability": "payable",
      "type": "receive"
    }
  ],
  "bytecode": "0x608060405234801561001057600080fd5b506150d5806100206000396000f3fe60806040526004361061016a5760003560e01c80636f09273e116100d1578063b16b5a131161008a578063d1fd394811610064578063d1fd3948146104c5578063ddeaa264146104f1578063ed183a191461051a578063f2fde38b1461054357610171565b8063b16b5a1314610434578063b887cd5a14610471578063ced72f871461049a57610171565b80636f09273e14610348578063715018a61461035f5780638681a58e146103765780638da5cb5b146103b35780638f4ec2aa146103de578063aa12bc3c1461040957610171565b80634dd77f2e116101235780634dd77f2e1461025b578063542d189e1461027757806354db8d0d146102a2578063685051c1146102cb57806369fe0e2d146102f45780636ef382321461031d57610171565b80630146cf291461017357806302be60401461018a5780632c7bcda7146101c75780632e654c10146101de57806338590a2d146102075780633a5592821461023257610171565b3661017157005b005b34801561017f57600080fd5b5061018861056c565b005b34801561019657600080fd5b506101b160048036038101906101ac9190614353565b61057e565b6040516101be9190614b99565b60405180910390f35b3480156101d357600080fd5b506101dc610797565b005b3480156101ea57600080fd5b50610205600480360381019061020091906142be565b61088f565b005b34801561021357600080fd5b5061021c6109e2565b6040516102299190614cc7565b60405180910390f35b34801561023e57600080fd5b506102596004803603810190610254919061422e565b6109ec565b005b61027560048036038101906102709190614353565b610aea565b005b34801561028357600080fd5b5061028c611130565b6040516102999190614b5c565b60405180910390f35b3480156102ae57600080fd5b506102c960048036038101906102c49190614456565b6113c6565b005b3480156102d757600080fd5b506102f260048036038101906102ed91906142ff565b61147f565b005b34801561030057600080fd5b5061031b60048036038101906103169190614456565b61158f565b005b34801561032957600080fd5b50610332611648565b60405161033f9190614cc7565b60405180910390f35b34801561035457600080fd5b5061035d61164d565b005b34801561036b57600080fd5b5061037461171a565b005b34801561038257600080fd5b5061039d600480360381019061039891906142be565b61188a565b6040516103aa9190614aee565b60405180910390f35b3480156103bf57600080fd5b506103c86118d2565b6040516103d59190614aee565b60405180910390f35b3480156103ea57600080fd5b506103f36118fc565b6040516104009190614cc7565b60405180910390f35b34801561041557600080fd5b5061041e611906565b60405161042b9190614b40565b60405180910390f35b34801561044057600080fd5b5061045b600480360381019061045691906143bf565b611935565b6040516104689190614b7e565b60405180910390f35b34801561047d57600080fd5b506104986004803603810190610493919061416f565b611997565b005b3480156104a657600080fd5b506104af611ba2565b6040516104bc9190614cc7565b60405180910390f35b3480156104d157600080fd5b506104da611bac565b6040516104e8929190614b09565b60405180910390f35b3480156104fd57600080fd5b5061051860048036038101906105139190614456565b611d26565b005b34801561052657600080fd5b50610541600480360381019061053c919061426a565b611f4d565b005b34801561054f57600080fd5b5061056a60048036038101906105659190614146565b612166565b005b6000606e8190555061057c61235b565b565b600080600090505b60765481101561078b5761065084607483815481106105a157fe5b90600052602060002090601202016000018054600181600116156101000203166002900480601f0160208091040260200160405190810160405280929190818152602001828054600181600116156101000203166002900480156106465780601f1061061b57610100808354040283529160200191610646565b820191906000526020600020905b81548152906001019060200180831161062957829003601f168201915b5050505050612381565b80156107185750610717836074838154811061066857fe5b90600052602060002090601202016001018054600181600116156101000203166002900480601f01602080910402602001604051908101604052809291908181526020018280546001816001161561010002031660029004801561070d5780601f106106e25761010080835404028352916020019161070d565b820191906000526020600020905b8154815290600101906020018083116106f057829003601f168201915b5050505050612381565b5b8015610752575060026074828154811061072e57fe5b906000526020600020906012020160020160009054906101000a900460ff1660ff16145b1561077e576074818154811061076457fe5b906000526020600020906012020160030154915050610791565b8080600101915050610586565b50600090505b92915050565b61079f6123da565b73ffffffffffffffffffffffffffffffffffffffff166107bd6118d2565b73ffffffffffffffffffffffffffffffffffffffff1614610846576040517f08c379a00000000000000000000000000000000000000000000000000000000081526004018080602001828103825260208152602001807f4f776e61626c653a2063616c6c6572206973206e6f7420746865206f776e657281525060200191505060405180910390fd5b3373ffffffffffffffffffffffffffffffffffffffff166108fc479081150290604051600060405180830381858888f1935050505015801561088c573d6000803e3d6000fd5b50565b600660019054906101000a900460ff16806108ae57506108ad6123e2565b5b806108c65750600660009054906101000a900460ff16155b61091b576040517f08c379a000000000000000000000000000000000000000000000000000000000815260040180806020018281038252602e81526020018061504a602e913960400191505060405180910390fd5b6000600660019054906101000a900460ff16159050801561096d576001600660016101000a81548160ff0219169083151502179055506001600660006101000a81548160ff0219169083151502179055505b6109756123f3565b81606d908051906020019061098b929190613b4d565b506000606e8190555061099c612492565b6109a461235b565b60006071819055506000607581905550600060768190555080156109de576000600660016101000a81548160ff0219169083151502179055505b5050565b6000607654905090565b60008273ffffffffffffffffffffffffffffffffffffffff1682600067ffffffffffffffff81118015610a1e57600080fd5b506040519080825280601f01601f191660200182016040528015610a515781602001600182028036833780820191505090505b50604051610a5f9190614ac0565b60006040518083038185875af1925050503d8060008114610a9c576040519150601f19603f3d011682016040523d82523d6000602084013e610aa1565b606091505b5050905080610ae5576040517f08c379a0000000000000000000000000000000000000000000000000000000008152600401610adc90614c27565b60405180910390fd5b505050565b607554341015610b2f576040517f08c379a0000000000000000000000000000000000000000000000000000000008152600401610b2690614c67565b60405180910390fd5b6000801b7f38797b189f8fcca19a8584f8e2b27aa01e3df12fc134242bcd02789670aff65d6000604051610b639190614bb4565b60405180910390a2606e600081548092919060010191905055506000606b80549050905060006076546001606e540381610b9957fe5b069050600160748281548110610bab57fe5b906000526020600020906012020160020160009054906101000a900460ff1660ff161415610c0e576040517f08c379a0000000000000000000000000000000000000000000000000000000008152600401610c0590614c47565b60405180910390fd5b8360748281548110610c1c57fe5b90600052602060002090601202016000019080519060200190610c40929190613b4d565b508260748281548110610c4f57fe5b90600052602060002090601202016001019080519060200190610c73929190613b4d565b50600160748281548110610c8357fe5b906000526020600020906012020160020160006101000a81548160ff021916908360ff16021790555060005b82811015611129576000610d82610d74606c8481548110610ccc57fe5b906000526020600020018054600181600116156101000203166002900480601f016020809104026020016040519081016040528092919081815260200182805460018160011615610100020316600290048015610d6a5780601f10610d3f57610100808354040283529160200191610d6a565b820191906000526020600020905b815481529060010190602001808311610d4d57829003601f168201915b50505050506125a5565b3063ed183a1960e01b6125cf565b9050610dce6040518060400160405280600381526020017f646964000000000000000000000000000000000000000000000000000000000081525087836126009092919063ffffffff16565b610e4d6040518060400160405280600281526020017f69640000000000000000000000000000000000000000000000000000000000008152506040518060400160405280600381526020017f6162630000000000000000000000000000000000000000000000000000000000815250836126009092919063ffffffff16565b610e976040518060400160405280600681526020017f6d6574686f64000000000000000000000000000000000000000000000000000081525086836126009092919063ffffffff16565b610f166040518060400160405280600481526020017f70617468000000000000000000000000000000000000000000000000000000008152506040518060400160405280601281526020017f726573756c742c7472616e73616374696f6e0000000000000000000000000000815250836126009092919063ffffffff16565b610f59606b8381548110610f2657fe5b9060005260206000200160009054906101000a900473ffffffffffffffffffffffffffffffffffffffff16826000612633565b60748481548110610f6657fe5b906000526020600020906012020160050183600c8110610f8257fe5b018190555060748381548110610f9457fe5b906000526020600020906012020160050182600c8110610fb057fe5b01547f38797b189f8fcca19a8584f8e2b27aa01e3df12fc134242bcd02789670aff65d6001604051610fe29190614bcf565b60405180910390a2600060748481548110610ff957fe5b906000526020600020906012020160110183600c811061101557fe5b602091828204019190066101000a81548160ff0219169083151502179055506074838154811061104157fe5b906000526020600020906012020160050182600c811061105d57fe5b01547f2fd9d21ee86512bf635aea9a4c120aed075b03667e1cb2a500183d908ac1b2858760405161108e9190614c05565b60405180910390a2606c82815481106110a357fe5b90600052602060002001607260008581526020019081526020016000206000607486815481106110cf57fe5b906000526020600020906012020160050185600c81106110eb57fe5b01548152602001908152602001600020908054600181600116156101000203166002900461111a929190613bdb565b50508080600101915050610caf565b5050505050565b60606074805480602002602001604051908101604052809291908181526020016000905b828210156113bd57838290600052602060002090601202016040518060e0016040529081600082018054600181600116156101000203166002900480601f0160208091040260200160405190810160405280929190818152602001828054600181600116156101000203166002900480156112105780601f106111e557610100808354040283529160200191611210565b820191906000526020600020905b8154815290600101906020018083116111f357829003601f168201915b50505050508152602001600182018054600181600116156101000203166002900480601f0160208091040260200160405190810160405280929190818152602001828054600181600116156101000203166002900480156112b25780601f10611287576101008083540402835291602001916112b2565b820191906000526020600020905b81548152906001019060200180831161129557829003601f168201915b505050505081526020016002820160009054906101000a900460ff1660ff1660ff168152602001600382015481526020016004820160009054906101000a900460ff1660ff1660ff16815260200160058201600c806020026040519081016040528092919082600c801561133b576020028201915b815481526020019060010190808311611327575b5050505050815260200160118201600c806020026040519081016040528092919082600c80156113a5576020028201916000905b82829054906101000a900460ff1615158152602001906001019060208260000104928301926001038202915080841161136f5790505b50505050508152505081526020019060010190611154565b50505050905090565b6113ce6123da565b73ffffffffffffffffffffffffffffffffffffffff166113ec6118d2565b73ffffffffffffffffffffffffffffffffffffffff1614611475576040517f08c379a00000000000000000000000000000000000000000000000000000000081526004018080602001828103825260208152602001807f4f776e61626c653a2063616c6c6572206973206e6f7420746865206f776e657281525060200191505060405180910390fd5b8060718190555050565b6114876123da565b73ffffffffffffffffffffffffffffffffffffffff166114a56118d2565b73ffffffffffffffffffffffffffffffffffffffff161461152e576040517f08c379a00000000000000000000000000000000000000000000000000000000081526004018080602001828103825260208152602001807f4f776e61626c653a2063616c6c6572206973206e6f7420746865206f776e657281525060200191505060405180910390fd5b8060708360405161153f9190614ad7565b908152602001604051809103902060006101000a81548173ffffffffffffffffffffffffffffffffffffffff021916908373ffffffffffffffffffffffffffffffffffffffff1602179055505050565b6115976123da565b73ffffffffffffffffffffffffffffffffffffffff166115b56118d2565b73ffffffffffffffffffffffffffffffffffffffff161461163e576040517f08c379a00000000000000000000000000000000000000000000000000000000081526004018080602001828103825260208152602001807f4f776e61626c653a2063616c6c6572206973206e6f7420746865206f776e657281525060200191505060405180910390fd5b8060758190555050565b600c81565b6116556123da565b73ffffffffffffffffffffffffffffffffffffffff166116736118d2565b73ffffffffffffffffffffffffffffffffffffffff16146116fc576040517f08c379a00000000000000000000000000000000000000000000000000000000081526004018080602001828103825260208152602001807f4f776e61626c653a2063616c6c6572206973206e6f7420746865206f776e657281525060200191505060405180910390fd5b606b600061170a9190613c70565b606c60006117189190613c91565b565b6117226123da565b73ffffffffffffffffffffffffffffffffffffffff166117406118d2565b73ffffffffffffffffffffffffffffffffffffffff16146117c9576040517f08c379a00000000000000000000000000000000000000000000000000000000081526004018080602001828103825260208152602001807f4f776e61626c653a2063616c6c6572206973206e6f7420746865206f776e657281525060200191505060405180910390fd5b600073ffffffffffffffffffffffffffffffffffffffff16603960009054906101000a900473ffffffffffffffffffffffffffffffffffffffff1673ffffffffffffffffffffffffffffffffffffffff167f8be0079c531659141344cd1fd0a4f28419497f9722a3daafe3b4186f6b6457e060405160405180910390a36000603960006101000a81548173ffffffffffffffffffffffffffffffffffffffff021916908373ffffffffffffffffffffffffffffffffffffffff160217905550565b600060708260405161189c9190614ad7565b908152602001604051809103902060009054906101000a900473ffffffffffffffffffffffffffffffffffffffff169050919050565b6000603960009054906101000a900473ffffffffffffffffffffffffffffffffffffffff16905090565b6000607154905090565b61190e613cb2565b611916613cb2565b6000610180826000836103e85afa61192d57600080fd5b819250505090565b60008061194b61194586866127b2565b846127b2565b9050600061195882612909565b9050611962613cd5565b60208160c1846103e95afa61197657600080fd5b60018160006001811061198557fe5b60200201511493505050509392505050565b6000806119ac6119a688612b1f565b876127b2565b905060006119b982612909565b80519060200120905060006119de6119d083612bc5565b6119d984612bc5565b6127b2565b905060006119eb88612909565b8051906020012090506119ff888389611935565b945084611a41576040517f08c379a0000000000000000000000000000000000000000000000000000000008152600401611a3890614ca7565b60405180910390fd5b611a4a81612c52565b945084611a8c576040517f08c379a0000000000000000000000000000000000000000000000000000000008152600401611a8390614c87565b60405180910390fd5b611a9589612ca7565b611b3957606b8a9080600181540180825580915050600190039060005260206000200160009091909190916101000a81548173ffffffffffffffffffffffffffffffffffffffff021916908373ffffffffffffffffffffffffffffffffffffffff160217905550606c89908060018154018082558091505060019003906000526020600020016000909190919091509080519060200190611b37929190613b4d565b505b8560708a604051611b4a9190614ad7565b908152602001604051809103902060006101000a81548173ffffffffffffffffffffffffffffffffffffffff021916908373ffffffffffffffffffffffffffffffffffffffff16021790555050505050505050505050565b6000607554905090565b606080606b606c81805480602002602001604051908101604052809291908181526020018280548015611c3457602002820191906000526020600020905b8160009054906101000a900473ffffffffffffffffffffffffffffffffffffffff1673ffffffffffffffffffffffffffffffffffffffff1681526020019060010190808311611bea575b5050505050915080805480602002602001604051908101604052809291908181526020016000905b82821015611d18578382906000526020600020018054600181600116156101000203166002900480601f016020809104026020016040519081016040528092919081815260200182805460018160011615610100020316600290048015611d045780601f10611cd957610100808354040283529160200191611d04565b820191906000526020600020905b815481529060010190602001808311611ce757829003601f168201915b505050505081526020019060010190611c5c565b505050509050915091509091565b611d2e6123da565b73ffffffffffffffffffffffffffffffffffffffff16611d4c6118d2565b73ffffffffffffffffffffffffffffffffffffffff1614611dd5576040517f08c379a00000000000000000000000000000000000000000000000000000000081526004018080602001828103825260208152602001807f4f776e61626c653a2063616c6c6572206973206e6f7420746865206f776e657281525060200191505060405180910390fd5b6000606e8190555060746000611deb9190613cf7565b8060768190555060005b607654811015611f4957611e07613d1b565b6040518060200160405280600081525081600001819052506040518060200160405280600081525081602001819052506000816040019060ff16908160ff16815250506000801b81606001818152505060748190806001815401808255809150506001900390600052602060002090601202016000909190919091506000820151816000019080519060200190611e9f929190613b4d565b506020820151816001019080519060200190611ebc929190613b4d565b5060408201518160020160006101000a81548160ff021916908360ff1602179055506060820151816003015560808201518160040160006101000a81548160ff021916908360ff16021790555060a08201518160050190600c611f20929190613d6d565b5060c08201518160110190600c611f38929190613dad565b505050508080600101915050611df5565b5050565b816005600082815260200190815260200160002060009054906101000a900473ffffffffffffffffffffffffffffffffffffffff1673ffffffffffffffffffffffffffffffffffffffff163373ffffffffffffffffffffffffffffffffffffffff1614612005576040517f08c379a00000000000000000000000000000000000000000000000000000000081526004018080602001828103825260288152602001806150786028913960400191505060405180910390fd5b6005600082815260200190815260200160002060006101000a81549073ffffffffffffffffffffffffffffffffffffffff0219169055807f7cc135e0cebb02c3480ae5d74d377283180a2601f8f644edf7987b009316c63a60405160405180910390a2827f38797b189f8fcca19a8584f8e2b27aa01e3df12fc134242bcd02789670aff65d60026040516120999190614bea565b60405180910390a260006120ac84612d9f565b90506000838051906020012090506001607483815481106120c957fe5b906000526020600020906012020160020160009054906101000a900460ff1660ff16141561215f576000801b6074838154811061210257fe5b906000526020600020906012020160030154141561214257806074838154811061212857fe5b90600052602060002090601202016003018190555061215e565b806074838154811061215057fe5b906000526020600020905050505b5b5050505050565b61216e6123da565b73ffffffffffffffffffffffffffffffffffffffff1661218c6118d2565b73ffffffffffffffffffffffffffffffffffffffff1614612215576040517f08c379a00000000000000000000000000000000000000000000000000000000081526004018080602001828103825260208152602001807f4f776e61626c653a2063616c6c6572206973206e6f7420746865206f776e657281525060200191505060405180910390fd5b600073ffffffffffffffffffffffffffffffffffffffff168173ffffffffffffffffffffffffffffffffffffffff16141561229b576040517f08c379a00000000000000000000000000000000000000000000000000000000081526004018080602001828103825260268152602001806150016026913960400191505060405180910390fd5b8073ffffffffffffffffffffffffffffffffffffffff16603960009054906101000a900473ffffffffffffffffffffffffffffffffffffffff1673ffffffffffffffffffffffffffffffffffffffff167f8be0079c531659141344cd1fd0a4f28419497f9722a3daafe3b4186f6b6457e060405160405180910390a380603960006101000a81548173ffffffffffffffffffffffffffffffffffffffff021916908373ffffffffffffffffffffffffffffffffffffffff16021790555050565b60005b60765481101561237e5761237181612e1f565b808060010191505061235e565b50565b6000816040516020016123949190614ad7565b60405160208183030381529060405280519060200120836040516020016123bb9190614ad7565b6040516020818303038152906040528051906020012014905092915050565b600033905090565b60006123ed30612f9a565b15905090565b61249073a9e0a397e7ff13cfe4dd6632b48da41375292c2f73ffffffffffffffffffffffffffffffffffffffff166338cc48316040518163ffffffff1660e01b815260040160206040518083038186803b15801561245057600080fd5b505afa158015612464573d6000803e3d6000fd5b505050506040513d602081101561247a57600080fd5b8101908080519060200190929190505050612fad565b565b600660019054906101000a900460ff16806124b157506124b06123e2565b5b806124c95750600660009054906101000a900460ff16155b61251e576040517f08c379a000000000000000000000000000000000000000000000000000000000815260040180806020018281038252602e81526020018061504a602e913960400191505060405180910390fd5b6000600660019054906101000a900460ff161590508015612570576001600660016101000a81548160ff0219169083151502179055506001600660006101000a81548160ff0219169083151502179055505b612578612ff1565b6125806130f4565b80156125a2576000600660016101000a81548160ff0219169083151502179055505b50565b6000808290506000815114156125c1576000801b9150506125ca565b60208301519150505b919050565b6125d7613e46565b6125df613e46565b6125f6858585846132a0909392919063ffffffff16565b9150509392505050565b61261782846080015161335090919063ffffffff16565b61262e81846080015161335090919063ffffffff16565b505050565b6000806004549050600181016004819055506000633c6d41b960e01b600080876000015188604001518660028b6080015160000151604051602401808873ffffffffffffffffffffffffffffffffffffffff168152602001878152602001868152602001857bffffffffffffffffffffffffffffffffffffffffffffffffffffffff1916815260200184815260200183815260200180602001828103825283818151815260200191508051906020019080838360005b838110156127045780820151818401526020810190506126e9565b50505050905090810190601f1680156127315780820380516001836020036101000a031916815260200191505b5098505050505050505050604051602081830303815290604052907bffffffffffffffffffffffffffffffffffffffffffffffffffffffff19166020820180517bffffffffffffffffffffffffffffffffffffffffffffffffffffffff838183161783525050505090506127a786838684613375565b925050509392505050565b6060600083905060008390506000815183510167ffffffffffffffff811180156127db57600080fd5b506040519080825280601f01601f19166020018201604052801561280e5781602001600182028036833780820191505090505b50905060008190506000805b85518110156128885785818151811061282f57fe5b602001015160f81c60f81b83838060010194508151811061284c57fe5b60200101907effffffffffffffffffffffffffffffffffffffffffffffffffffffffffffff1916908160001a905350808060010191505061281a565b5060005b84518110156128fa578481815181106128a157fe5b602001015160f81c60f81b8383806001019450815181106128be57fe5b60200101907effffffffffffffffffffffffffffffffffffffffffffffffffffffffffffff1916908160001a905350808060010191505061288c565b50829550505050505092915050565b606060008290506000815167ffffffffffffffff8111801561292a57600080fd5b506040519080825280602002602001820160405280156129595781602001602082028036833780820191505090505b50905060005b8251811015612a2a57600083828151811061297657fe5b602001015160f81c60f81b60f81c905060608160ff1611156129be57600a60618203018383815181106129a557fe5b602002602001019060ff16908160ff1681525050612a1c565b60428160ff1611156129f657600a60418203018383815181106129dd57fe5b602002602001019060ff16908160ff1681525050612a1b565b60308103838381518110612a0657fe5b602002602001019060ff16908160ff16815250505b5b50808060010191505061295f565b5060006002825181612a3857fe5b0467ffffffffffffffff81118015612a4f57600080fd5b506040519080825280601f01601f191660200182016040528015612a825781602001600182028036833780820191505090505b50905060005b8251811015612b1357826001820181518110612aa057fe5b60200260200101516010848381518110612ab657fe5b6020026020010151020160f81b8260028381612ace57fe5b0481518110612ad957fe5b60200101907effffffffffffffffffffffffffffffffffffffffffffffffffffffffffffff1916908160001a905350600281019050612a88565b50809350505050919050565b6060600082604051602001808273ffffffffffffffffffffffffffffffffffffffff1660601b815260140191505060405160208183030381529060405290506000602867ffffffffffffffff81118015612b7857600080fd5b506040519080825280601f01601f191660200182016040528015612bab5781602001600182028036833780820191505090505b509050612bb98260146135d8565b90508092505050919050565b60606000826040516020018082815260200191505060405160208183030381529060405290506000604067ffffffffffffffff81118015612c0557600080fd5b506040519080825280601f01601f191660200182016040528015612c385781602001600182028036833780820191505090505b509050612c468260206135d8565b90508092505050919050565b600080612c5d611906565b905060005b600c811015612c9b578181600c8110612c7757fe5b6020020151841415612c8e57600192505050612ca2565b8080600101915050612c62565b5060009150505b919050565b600080606b80549050905060005b81811015612d9357612d76606c8281548110612ccd57fe5b906000526020600020018054600181600116156101000203166002900480601f016020809104026020016040519081016040528092919081815260200182805460018160011615610100020316600290048015612d6b5780601f10612d4057610100808354040283529160200191612d6b565b820191906000526020600020905b815481529060010190602001808311612d4e57829003601f168201915b505050505085612381565b15612d8657600192505050612d9a565b8080600101915050612cb5565b5060009150505b919050565b600080600090505b607654811015612e145760005b600c811015612e06578360748381548110612dcb57fe5b906000526020600020906012020160050182600c8110612de757fe5b01541415612df9578192505050612e1a565b8080600101915050612db4565b508080600101915050612da7565b50600090505b919050565b6040518060200160405280600081525060748281548110612e3c57fe5b90600052602060002090601202016000019080519060200190612e60929190613b4d565b506040518060200160405280600081525060748281548110612e7e57fe5b90600052602060002090601202016001019080519060200190612ea2929190613b4d565b50600060748281548110612eb257fe5b906000526020600020906012020160020160006101000a81548160ff021916908360ff1602179055506000801b60748281548110612eec57fe5b90600052602060002090601202016003018190555060005b600c811015612f96576000801b60748381548110612f1e57fe5b906000526020600020906012020160050182600c8110612f3a57fe5b0181905550600060748381548110612f4e57fe5b906000526020600020906012020160110182600c8110612f6a57fe5b602091828204019190066101000a81548160ff0219169083151502179055508080600101915050612f04565b5050565b600080823b905060008111915050919050565b80600260006101000a81548173ffffffffffffffffffffffffffffffffffffffff021916908373ffffffffffffffffffffffffffffffffffffffff16021790555050565b600660019054906101000a900460ff1680613010575061300f6123e2565b5b806130285750600660009054906101000a900460ff16155b61307d576040517f08c379a000000000000000000000000000000000000000000000000000000000815260040180806020018281038252602e81526020018061504a602e913960400191505060405180910390fd5b6000600660019054906101000a900460ff1615905080156130cf576001600660016101000a81548160ff0219169083151502179055506001600660006101000a81548160ff0219169083151502179055505b80156130f1576000600660016101000a81548160ff0219169083151502179055505b50565b600660019054906101000a900460ff168061311357506131126123e2565b5b8061312b5750600660009054906101000a900460ff16155b613180576040517f08c379a000000000000000000000000000000000000000000000000000000000815260040180806020018281038252602e81526020018061504a602e913960400191505060405180910390fd5b6000600660019054906101000a900460ff1615905080156131d2576001600660016101000a81548160ff0219169083151502179055506001600660006101000a81548160ff0219169083151502179055505b60006131dc6123da565b905080603960006101000a81548173ffffffffffffffffffffffffffffffffffffffff021916908373ffffffffffffffffffffffffffffffffffffffff1602179055508073ffffffffffffffffffffffffffffffffffffffff16600073ffffffffffffffffffffffffffffffffffffffff167f8be0079c531659141344cd1fd0a4f28419497f9722a3daafe3b4186f6b6457e060405160405180910390a350801561329d576000600660016101000a81548160ff0219169083151502179055505b50565b6132a8613e46565b6132b88560800151610100613768565b508385600001818152505082856020019073ffffffffffffffffffffffffffffffffffffffff16908173ffffffffffffffffffffffffffffffffffffffff16815250508185604001907bffffffffffffffffffffffffffffffffffffffffffffffffffffffff191690817bffffffffffffffffffffffffffffffffffffffffffffffffffffffff191681525050849050949350505050565b61335d82600383516137bc565b613370818361394190919063ffffffff16565b505050565b60003084604051602001808373ffffffffffffffffffffffffffffffffffffffff1660601b815260140182815260200192505050604051602081830303815290604052805190602001209050846005600083815260200190815260200160002060006101000a81548173ffffffffffffffffffffffffffffffffffffffff021916908373ffffffffffffffffffffffffffffffffffffffff160217905550807fb5e6e01e79f91267dc17b4e6314d5d4d03593d2ceee0fbb452b750bd70ea5af960405160405180910390a2600260009054906101000a900473ffffffffffffffffffffffffffffffffffffffff1673ffffffffffffffffffffffffffffffffffffffff16634000aea08685856040518463ffffffff1660e01b8152600401808473ffffffffffffffffffffffffffffffffffffffff16815260200183815260200180602001828103825283818151815260200191508051906020019080838360005b838110156134f25780820151818401526020810190506134d7565b50505050905090810190601f16801561351f5780820380516001836020036101000a031916815260200191505b50945050505050602060405180830381600087803b15801561354057600080fd5b505af1158015613554573d6000803e3d6000fd5b505050506040513d602081101561356a57600080fd5b81019080805190602001909291905050506135d0576040517f08c379a00000000000000000000000000000000000000000000000000000000081526004018080602001828103825260238152602001806150276023913960400191505060405180910390fd5b949350505050565b606060006002830267ffffffffffffffff811180156135f657600080fd5b506040519080825280601f01601f1916602001820160405280156136295781602001600182028036833780820191505090505b50905060005b8381101561375d576000601086838151811061364757fe5b602001015160f81c60f81b60f81c60ff168161365f57fe5b04905060008160100287848151811061367457fe5b602001015160f81c60f81b60f81c0390506000600a8360ff161061369e576057830160f81b6136a6565b6030830160f81b5b90506000600a8360ff16106136c1576057830160f81b6136c9565b6030830160f81b5b9050818686600202815181106136db57fe5b60200101907effffffffffffffffffffffffffffffffffffffffffffffffffffffffffffff1916908160001a9053508086600187600202018151811061371d57fe5b60200101907effffffffffffffffffffffffffffffffffffffffffffffffffffffffffffff1916908160001a90535050505050808060010191505061362f565b508091505092915050565b613770613eb3565b60006020838161377c57fe5b0614613795576020828161378c57fe5b06602003820191505b81836020018181525050604051808452600081528281016020016040525082905092915050565b60178167ffffffffffffffff16116137f3576137ed8160058460ff16901b60ff16178461396390919063ffffffff16565b5061393c565b60ff8167ffffffffffffffff161161384957613822601860058460ff16901b178461396390919063ffffffff16565b506138438167ffffffffffffffff166001856139839092919063ffffffff16565b5061393b565b61ffff8167ffffffffffffffff16116138a057613879601960058460ff16901b178461396390919063ffffffff16565b5061389a8167ffffffffffffffff166002856139839092919063ffffffff16565b5061393a565b63ffffffff8167ffffffffffffffff16116138f9576138d2601a60058460ff16901b178461396390919063ffffffff16565b506138f38167ffffffffffffffff166004856139839092919063ffffffff16565b50613939565b613916601b60058460ff16901b178461396390919063ffffffff16565b506139378167ffffffffffffffff166008856139839092919063ffffffff16565b505b5b5b5b505050565b613949613eb3565b61395b838460000151518485516139a5565b905092915050565b61396b613eb3565b61397b8384600001515184613a5e565b905092915050565b61398b613eb3565b61399c848560000151518585613aac565b90509392505050565b6139ad613eb3565b82518211156139bb57600080fd5b846020015182850111156139e6576139e58560026139df8860200151888701613b0d565b02613b29565b5b600080865180518760208301019350808887011115613a055787860182525b60208701925050505b60208410613a315780518252602082019150602081019050602084039350613a0e565b60006001856020036101000a03905080198251168184511681811785525050879350505050949350505050565b613a66613eb3565b83602001518310613a8357613a82846002866020015102613b29565b5b8351805160208583010184815381861415613a9f576001820183525b5050508390509392505050565b613ab4613eb3565b84602001518483011115613ad257613ad185600286850102613b29565b5b60006001836101000a0390508551838682010185831982511617815281518588011115613aff5784870182525b505085915050949350505050565b600081831115613b1f57829050613b23565b8190505b92915050565b600082600001519050613b3c8383613768565b50613b478382613941565b50505050565b828054600181600116156101000203166002900490600052602060002090601f016020900481019282613b835760008555613bca565b82601f10613b9c57805160ff1916838001178555613bca565b82800160010185558215613bca579182015b82811115613bc9578251825591602001919060010190613bae565b5b509050613bd79190613ecd565b5090565b828054600181600116156101000203166002900490600052602060002090601f016020900481019282613c115760008555613c5f565b82601f10613c225780548555613c5f565b82800160010185558215613c5f57600052602060002091601f016020900482015b82811115613c5e578254825591600101919060010190613c43565b5b509050613c6c9190613ecd565b5090565b5080546000825590600052602060002090810190613c8e9190613ecd565b50565b5080546000825590600052602060002090810190613caf9190613eea565b50565b604051806101800160405280600c90602082028036833780820191505090505090565b6040518060200160405280600190602082028036833780820191505090505090565b5080546000825560120290600052602060002090810190613d189190613f0e565b50565b6040518060e001604052806060815260200160608152602001600060ff16815260200160008019168152602001600060ff168152602001613d5a613cb2565b8152602001613d67613f95565b81525090565b82600c8101928215613d9c579160200282015b82811115613d9b578251825591602001919060010190613d80565b5b509050613da99190613fb8565b5090565b82600c601f01602090048101928215613e355791602002820160005b83821115613e0657835183826101000a81548160ff0219169083151502179055509260200192600101602081600001049283019260010302613dc9565b8015613e335782816101000a81549060ff0219169055600101602081600001049283019260010302613e06565b505b509050613e429190613ecd565b5090565b6040518060a0016040528060008019168152602001600073ffffffffffffffffffffffffffffffffffffffff16815260200160007bffffffffffffffffffffffffffffffffffffffffffffffffffffffff1916815260200160008152602001613ead613eb3565b81525090565b604051806040016040528060608152602001600081525090565b5b80821115613ee6576000816000905550600101613ece565b5090565b5b80821115613f0a5760008181613f019190613fd5565b50600101613eeb565b5090565b5b80821115613f915760008082016000613f289190613fd5565b600182016000613f389190613fd5565b6002820160006101000a81549060ff021916905560038201600090556004820160006101000a81549060ff0219169055600582016000613f78919061401d565b601182016000613f889190614030565b50601201613f0f565b5090565b604051806101800160405280600c90602082028036833780820191505090505090565b5b80821115613fd1576000816000905550600101613fb9565b5090565b50805460018160011615610100020316600290046000825580601f10613ffb575061401a565b601f0160209004906000526020600020908101906140199190613ecd565b5b50565b5080600c019061402d9190613fb8565b50565b5060009055565b600061404a61404584614d13565b614ce2565b90508281526020810184848401111561406257600080fd5b61406d848285614f66565b509392505050565b600061408861408384614d43565b614ce2565b9050828152602081018484840111156140a057600080fd5b6140ab848285614f66565b509392505050565b6000813590506140c281614fbb565b92915050565b6000813590506140d781614fd2565b92915050565b600082601f8301126140ee57600080fd5b81356140fe848260208601614037565b91505092915050565b600082601f83011261411857600080fd5b8135614128848260208601614075565b91505092915050565b60008135905061414081614fe9565b92915050565b60006020828403121561415857600080fd5b6000614166848285016140b3565b91505092915050565b600080600080600060a0868803121561418757600080fd5b6000614195888289016140b3565b955050602086013567ffffffffffffffff8111156141b257600080fd5b6141be88828901614107565b945050604086013567ffffffffffffffff8111156141db57600080fd5b6141e788828901614107565b935050606086013567ffffffffffffffff81111561420457600080fd5b61421088828901614107565b9250506080614221888289016140b3565b9150509295509295909350565b6000806040838503121561424157600080fd5b600061424f858286016140b3565b925050602061426085828601614131565b9150509250929050565b6000806040838503121561427d57600080fd5b600061428b858286016140c8565b925050602083013567ffffffffffffffff8111156142a857600080fd5b6142b4858286016140dd565b9150509250929050565b6000602082840312156142d057600080fd5b600082013567ffffffffffffffff8111156142ea57600080fd5b6142f684828501614107565b91505092915050565b6000806040838503121561431257600080fd5b600083013567ffffffffffffffff81111561432c57600080fd5b61433885828601614107565b9250506020614349858286016140b3565b9150509250929050565b6000806040838503121561436657600080fd5b600083013567ffffffffffffffff81111561438057600080fd5b61438c85828601614107565b925050602083013567ffffffffffffffff8111156143a957600080fd5b6143b585828601614107565b9150509250929050565b6000806000606084860312156143d457600080fd5b600084013567ffffffffffffffff8111156143ee57600080fd5b6143fa86828701614107565b935050602084013567ffffffffffffffff81111561441757600080fd5b61442386828701614107565b925050604084013567ffffffffffffffff81111561444057600080fd5b61444c86828701614107565b9150509250925092565b60006020828403121561446857600080fd5b600061447684828501614131565b91505092915050565b600061448b83836144ef565b60208301905092915050565b60006144a3838361475a565b60208301905092915050565b60006144bb8383614778565b60208301905092915050565b60006144d383836147f4565b905092915050565b60006144e783836149fd565b905092915050565b6144f881614ed1565b82525050565b61450781614ed1565b82525050565b600061451882614db7565b6145228185614e45565b935061452d83614d73565b8060005b8381101561455e578151614545888261447f565b975061455083614e04565b925050600181019050614531565b5085935050505092915050565b61457481614dc2565b61457e8184614e56565b925061458982614d83565b8060005b838110156145ba5781516145a18782614497565b96506145ac83614e11565b92505060018101905061458d565b505050505050565b6145cb81614dcd565b6145d58184614e61565b92506145e082614d8d565b8060005b838110156146115781516145f887826144af565b965061460383614e1e565b9250506001810190506145e4565b505050505050565b61462281614dcd565b61462c8184614e6c565b925061463782614d8d565b8060005b8381101561466857815161464f87826144af565b965061465a83614e1e565b92505060018101905061463b565b505050505050565b600061467b82614dd8565b6146858185614e77565b93508360208202850161469785614d97565b8060005b858110156146d357848403895281516146b485826144c7565b94506146bf83614e2b565b925060208a0199505060018101905061469b565b50829750879550505050505092915050565b60006146f082614de3565b6146fa8185614e88565b93508360208202850161470c85614da7565b8060005b85811015614748578484038952815161472985826144db565b945061473483614e38565b925060208a01995050600181019050614710565b50829750879550505050505092915050565b61476381614ee3565b82525050565b61477281614ee3565b82525050565b61478181614eef565b82525050565b61479081614eef565b82525050565b60006147a182614dee565b6147ab8185614e99565b93506147bb818560208601614f75565b80840191505092915050565b6147d081614f30565b82525050565b6147df81614f42565b82525050565b6147ee81614f54565b82525050565b60006147ff82614df9565b6148098185614ea4565b9350614819818560208601614f75565b61482281614faa565b840191505092915050565b600061483882614df9565b6148428185614eb5565b9350614852818560208601614f75565b61485b81614faa565b840191505092915050565b600061487182614df9565b61487b8185614ec6565b935061488b818560208601614f75565b80840191505092915050565b60006148a4603e83614eb5565b91507f5472616e7366657248656c7065723a3a736166655472616e736665724375727260008301527f656e63793a2043757272656e6379207472616e73666572206661696c656400006020830152604082019050919050565b600061490a601b83614eb5565b91507f746f6f206d616e792063616c6c732c706c6561736520776169742000000000006000830152602082019050919050565b600061494a601183614eb5565b91507f666565206973206e6f7420656e6f7567680000000000000000000000000000006000830152602082019050919050565b600061498a601c83614eb5565b91507f61726269746572206973206e6f7420696e20746865206c6973742021000000006000830152602082019050919050565b60006149ca601883614eb5565b91507f7032353656657269667920646f206e6f742070617373202100000000000000006000830152602082019050919050565b60006103a0830160008301518482036000860152614a1b82826147f4565b91505060208301518482036020860152614a3582826147f4565b9150506040830151614a4a6040860182614ab1565b506060830151614a5d6060860182614778565b506080830151614a706080860182614ab1565b5060a0830151614a8360a08601826145c2565b5060c0830151614a9761022086018261456b565b508091505092915050565b614aab81614f19565b82525050565b614aba81614f23565b82525050565b6000614acc8284614796565b915081905092915050565b6000614ae38284614866565b915081905092915050565b6000602082019050614b0360008301846144fe565b92915050565b60006040820190508181036000830152614b23818561450d565b90508181036020830152614b378184614670565b90509392505050565b600061018082019050614b566000830184614619565b92915050565b60006020820190508181036000830152614b7681846146e5565b905092915050565b6000602082019050614b936000830184614769565b92915050565b6000602082019050614bae6000830184614787565b92915050565b6000602082019050614bc960008301846147c7565b92915050565b6000602082019050614be460008301846147d6565b92915050565b6000602082019050614bff60008301846147e5565b92915050565b60006020820190508181036000830152614c1f818461482d565b905092915050565b60006020820190508181036000830152614c4081614897565b9050919050565b60006020820190508181036000830152614c60816148fd565b9050919050565b60006020820190508181036000830152614c808161493d565b9050919050565b60006020820190508181036000830152614ca08161497d565b9050919050565b60006020820190508181036000830152614cc0816149bd565b9050919050565b6000602082019050614cdc6000830184614aa2565b92915050565b6000604051905081810181811067ffffffffffffffff82111715614d0957614d08614fa8565b5b8060405250919050565b600067ffffffffffffffff821115614d2e57614d2d614fa8565b5b601f19601f8301169050602081019050919050565b600067ffffffffffffffff821115614d5e57614d5d614fa8565b5b601f19601f8301169050602081019050919050565b6000819050602082019050919050565b6000819050919050565b6000819050919050565b6000819050602082019050919050565b6000819050602082019050919050565b600081519050919050565b6000600c9050919050565b6000600c9050919050565b600081519050919050565b600081519050919050565b600081519050919050565b600081519050919050565b6000602082019050919050565b6000602082019050919050565b6000602082019050919050565b6000602082019050919050565b6000602082019050919050565b600082825260208201905092915050565b600081905092915050565b600081905092915050565b600081905092915050565b600082825260208201905092915050565b600082825260208201905092915050565b600081905092915050565b600082825260208201905092915050565b600082825260208201905092915050565b600081905092915050565b6000614edc82614ef9565b9050919050565b60008115159050919050565b6000819050919050565b600073ffffffffffffffffffffffffffffffffffffffff82169050919050565b6000819050919050565b600060ff82169050919050565b6000614f3b82614f23565b9050919050565b6000614f4d82614f23565b9050919050565b6000614f5f82614f23565b9050919050565b82818337600083830152505050565b60005b83811015614f93578082015181840152602081019050614f78565b83811115614fa2576000848401525b50505050565bfe5b6000601f19601f8301169050919050565b614fc481614ed1565b8114614fcf57600080fd5b50565b614fdb81614eef565b8114614fe657600080fd5b50565b614ff281614f19565b8114614ffd57600080fd5b5056fe4f776e61626c653a206e6577206f776e657220697320746865207a65726f2061646472657373756e61626c6520746f207472616e73666572416e6443616c6c20746f206f7261636c65496e697469616c697a61626c653a20636f6e747261637420697320616c726561647920696e697469616c697a6564536f75726365206d75737420626520746865206f7261636c65206f66207468652072657175657374a264697066735822122021bcf3a7d14efea21b964897bc2df4045dd8e43c602eb1e2d254e8f95d8ef68a64736f6c63430007060033",
  "linkReferences": {},
  "deployedLinkReferences": {}
}