{
  "_format": "hh-sol-artifact-1",
  "contractName": "DataConsumer",
  "sourceName": "contracts/DataConsumer.sol",
  "abi": [
    {
      "anonymous": false,
      "inputs": [
        {
          "indexed": true,
          "internalType": "bytes32",
          "name": "id",
          "type": "bytes32"
        }
      ],
      "name": "ChainlinkCancelled",
      "type": "event"
    },
    {
      "anonymous": false,
      "inputs": [
        {
          "indexed": true,
          "internalType": "bytes32",
          "name": "id",
          "type": "bytes32"
        }
      ],
      "name": "ChainlinkFulfilled",
      "type": "event"
    },
    {
      "anonymous": false,
      "inputs": [
        {
          "indexed": true,
          "internalType": "bytes32",
          "name": "id",
          "type": "bytes32"
        }
      ],
      "name": "ChainlinkRequested",
      "type": "event"
    },
    {
      "anonymous": false,
      "inputs": [
        {
          "indexed": true,
          "internalType": "bytes32",
          "name": "requestId",
          "type": "bytes32"
        },
        {
          "indexed": false,
          "internalType": "uint8",
          "name": "logNum",
          "type": "uint8"
        }
      ],
      "name": "Log",
      "type": "event"
    },
    {
      "anonymous": false,
      "inputs": [
        {
          "indexed": false,
          "internalType": "address",
          "name": "recAddress",
          "type": "address"
        },
        {
          "indexed": false,
          "internalType": "uint256",
          "name": "value",
          "type": "uint256"
        }
      ],
      "name": "LogAddress",
      "type": "event"
    },
    {
      "anonymous": false,
      "inputs": [
        {
          "indexed": true,
          "internalType": "address",
          "name": "previousOwner",
          "type": "address"
        },
        {
          "indexed": true,
          "internalType": "address",
          "name": "newOwner",
          "type": "address"
        }
      ],
      "name": "OwnershipTransferred",
      "type": "event"
    },
    {
      "anonymous": false,
      "inputs": [
        {
          "indexed": true,
          "internalType": "bytes32",
          "name": "requestId",
          "type": "bytes32"
        },
        {
          "indexed": false,
          "internalType": "bytes",
          "name": "data",
          "type": "bytes"
        },
        {
          "indexed": false,
          "internalType": "uint256",
          "name": "blockNumber",
          "type": "uint256"
        },
        {
          "indexed": false,
          "internalType": "bytes32",
          "name": "datahash",
          "type": "bytes32"
        }
      ],
      "name": "SearchConformed",
      "type": "event"
    },
    {
      "anonymous": false,
      "inputs": [
        {
          "indexed": true,
          "internalType": "bytes32",
          "name": "requestId",
          "type": "bytes32"
        },
        {
          "indexed": false,
          "internalType": "string",
          "name": "key",
          "type": "string"
        }
      ],
      "name": "SearchInfo",
      "type": "event"
    },
    {
      "stateMutability": "payable",
      "type": "fallback"
    },
    {
      "inputs": [],
      "name": "ARBITER_NUM",
      "outputs": [
        {
          "internalType": "uint256",
          "name": "",
          "type": "uint256"
        }
      ],
      "stateMutability": "view",
      "type": "function"
    },
    {
      "inputs": [
        {
          "internalType": "string",
          "name": "_version",
          "type": "string"
        }
      ],
      "name": "__DataConsumer_init",
      "outputs": [],
      "stateMutability": "nonpayable",
      "type": "function"
    },
    {
      "inputs": [
        {
          "internalType": "address",
          "name": "_to",
          "type": "address"
        },
        {
          "internalType": "uint256",
          "name": "_value",
          "type": "uint256"
        }
      ],
      "name": "_safeTransferCurrency",
      "outputs": [],
      "stateMutability": "nonpayable",
      "type": "function"
    },
    {
      "inputs": [
        {
          "internalType": "address",
          "name": "_oracle",
          "type": "address"
        },
        {
          "internalType": "string",
          "name": "_jobId",
          "type": "string"
        },
        {
          "internalType": "string",
          "name": "_pubKey",
          "type": "string"
        },
        {
          "internalType": "string",
          "name": "_sign",
          "type": "string"
        },
        {
          "internalType": "address",
          "name": "_receiveAddress",
          "type": "address"
        }
      ],
      "name": "addOralceAndJobId",
      "outputs": [],
      "stateMutability": "nonpayable",
      "type": "function"
    },
    {
      "inputs": [],
      "name": "clearOralceAndJobId",
      "outputs": [],
      "stateMutability": "nonpayable",
      "type": "function"
    },
    {
      "inputs": [],
      "name": "clearSearchResult",
      "outputs": [],
      "stateMutability": "nonpayable",
      "type": "function"
    },
    {
      "inputs": [
        {
          "internalType": "uint256",
          "name": "_maxChannel",
          "type": "uint256"
        }
      ],
      "name": "createMaxChannel",
      "outputs": [],
      "stateMutability": "nonpayable",
      "type": "function"
    },
    {
      "inputs": [
        {
          "internalType": "bytes32",
          "name": "_requestId",
          "type": "bytes32"
        },
        {
          "internalType": "bytes",
          "name": "_didData",
          "type": "bytes"
        }
      ],
      "name": "fulfillEthereumDidData",
      "outputs": [],
      "stateMutability": "nonpayable",
      "type": "function"
    },
    {
      "inputs": [],
      "name": "getArbiterList",
      "outputs": [
        {
          "internalType": "bytes32[12]",
          "name": "",
          "type": "bytes32[12]"
        }
      ],
      "stateMutability": "view",
      "type": "function"
    },
    {
      "inputs": [],
      "name": "getChannelInfoList",
      "outputs": [
        {
          "components": [
            {
              "internalType": "string",
              "name": "did",
              "type": "string"
            },
            {
              "internalType": "string",
              "name": "method",
              "type": "string"
            },
            {
              "internalType": "uint8",
              "name": "status",
              "type": "uint8"
            },
            {
              "internalType": "bytes32",
              "name": "dataHash",
              "type": "bytes32"
            },
            {
              "internalType": "uint8",
              "name": "totalReqestNum",
              "type": "uint8"
            },
            {
              "internalType": "bytes32[12]",
              "name": "requestIds",
              "type": "bytes32[12]"
            },
            {
              "internalType": "bool[12]",
              "name": "isSearchs",
              "type": "bool[12]"
            }
          ],
          "internalType": "struct DataConsumer.ChannelInfo[]",
          "name": "",
          "type": "tuple[]"
        }
      ],
      "stateMutability": "view",
      "type": "function"
    },
    {
      "inputs": [],
      "name": "getFee",
      "outputs": [
        {
          "internalType": "uint256",
          "name": "",
          "type": "uint256"
        }
      ],
      "stateMutability": "view",
      "type": "function"
    },
    {
      "inputs": [],
      "name": "getMaxChannel",
      "outputs": [
        {
          "internalType": "uint256",
          "name": "",
          "type": "uint256"
        }
      ],
      "stateMutability": "view",
      "type": "function"
    },
    {
      "inputs": [],
      "name": "getOralceAndJobs",
      "outputs": [
        {
          "internalType": "address[]",
          "name": "",
          "type": "address[]"
        },
        {
          "internalType": "string[]",
          "name": "",
          "type": "string[]"
        }
      ],
      "stateMutability": "view",
      "type": "function"
    },
    {
      "inputs": [
        {
          "internalType": "string",
          "name": "_jobId",
          "type": "string"
        }
      ],
      "name": "getPayMap",
      "outputs": [
        {
          "internalType": "address",
          "name": "",
          "type": "address"
        }
      ],
      "stateMutability": "view",
      "type": "function"
    },
    {
      "inputs": [],
      "name": "getPlatformRate",
      "outputs": [
        {
          "internalType": "uint256",
          "name": "",
          "type": "uint256"
        }
      ],
      "stateMutability": "view",
      "type": "function"
    },
    {
      "inputs": [
        {
          "internalType": "string",
          "name": "_did",
          "type": "string"
        },
        {
          "internalType": "string",
          "name": "_method",
          "type": "string"
        }
      ],
      "name": "getSearchResult",
      "outputs": [
        {
          "internalType": "bytes32",
          "name": "",
          "type": "bytes32"
        }
      ],
      "stateMutability": "view",
      "type": "function"
    },
    {
      "inputs": [],
      "name": "owner",
      "outputs": [
        {
          "internalType": "address",
          "name": "",
          "type": "address"
        }
      ],
      "stateMutability": "view",
      "type": "function"
    },
    {
      "inputs": [
        {
          "internalType": "string",
          "name": "_pubkey",
          "type": "string"
        },
        {
          "internalType": "string",
          "name": "_data",
          "type": "string"
        },
        {
          "internalType": "string",
          "name": "_sig",
          "type": "string"
        }
      ],
      "name": "p256Verify",
      "outputs": [
        {
          "internalType": "bool",
          "name": "",
          "type": "bool"
        }
      ],
      "stateMutability": "view",
      "type": "function"
    },
    {
      "inputs": [],
      "name": "renounceOwnership",
      "outputs": [],
      "stateMutability": "nonpayable",
      "type": "function"
    },
    {
      "inputs": [
        {
          "internalType": "string",
          "name": "did",
          "type": "string"
        },
        {
          "internalType": "string",
          "name": "method",
          "type": "string"
        }
      ],
      "name": "requestResultFromList",
      "outputs": [],
      "stateMutability": "payable",
      "type": "function"
    },
    {
      "inputs": [
        {
          "internalType": "uint256",
          "name": "_fee",
          "type": "uint256"
        }
      ],
      "name": "setFee",
      "outputs": [],
      "stateMutability": "nonpayable",
      "type": "function"
    },
    {
      "inputs": [
        {
          "internalType": "string",
          "name": "_jobId",
          "type": "string"
        },
        {
          "internalType": "address",
          "name": "_receiveAddress",
          "type": "address"
        }
      ],
      "name": "setPayMap",
      "outputs": [],
      "stateMutability": "nonpayable",
      "type": "function"
    },
    {
      "inputs": [
        {
          "internalType": "uint256",
          "name": "_platformRate",
          "type": "uint256"
        }
      ],
      "name": "setPlatformRate",
      "outputs": [],
      "stateMutability": "nonpayable",
      "type": "function"
    },
    {
      "inputs": [
        {
          "internalType": "address",
          "name": "newOwner",
          "type": "address"
        }
      ],
      "name": "transferOwnership",
      "outputs": [],
      "stateMutability": "nonpayable",
      "type": "function"
    },
    {
      "inputs": [],
      "name": "withDrawCurrency",
      "outputs": [],
      "stateMutability": "nonpayable",
      "type": "function"
    },
    {
      "stateMutability": "payable",
      "type": "receive"
    }
  ],
  "bytecode": "0x608060405234801561001057600080fd5b506151ee806100206000396000f3fe60806040526004361061016a5760003560e01c80636f09273e116100d1578063b16b5a131161008a578063d1fd394811610064578063d1fd3948146104c5578063ddeaa264146104f1578063ed183a191461051a578063f2fde38b1461054357610171565b8063b16b5a1314610434578063b887cd5a14610471578063ced72f871461049a57610171565b80636f09273e14610348578063715018a61461035f5780638681a58e146103765780638da5cb5b146103b35780638f4ec2aa146103de578063aa12bc3c1461040957610171565b80634dd77f2e116101235780634dd77f2e1461025b578063542d189e1461027757806354db8d0d146102a2578063685051c1146102cb57806369fe0e2d146102f45780636ef382321461031d57610171565b80630146cf291461017357806302be60401461018a5780632c7bcda7146101c75780632e654c10146101de57806338590a2d146102075780633a5592821461023257610171565b3661017157005b005b34801561017f57600080fd5b5061018861056c565b005b34801561019657600080fd5b506101b160048036038101906101ac919061446c565b61057e565b6040516101be9190614cb2565b60405180910390f35b3480156101d357600080fd5b506101dc610797565b005b3480156101ea57600080fd5b50610205600480360381019061020091906143d7565b61088f565b005b34801561021357600080fd5b5061021c6109e2565b6040516102299190614de0565b60405180910390f35b34801561023e57600080fd5b5061025960048036038101906102549190614347565b6109ec565b005b6102756004803603810190610270919061446c565b610aea565b005b34801561028357600080fd5b5061028c611105565b6040516102999190614c75565b60405180910390f35b3480156102ae57600080fd5b506102c960048036038101906102c4919061456f565b61139b565b005b3480156102d757600080fd5b506102f260048036038101906102ed9190614418565b611454565b005b34801561030057600080fd5b5061031b6004803603810190610316919061456f565b611564565b005b34801561032957600080fd5b5061033261161d565b60405161033f9190614de0565b60405180910390f35b34801561035457600080fd5b5061035d611622565b005b34801561036b57600080fd5b506103746116ef565b005b34801561038257600080fd5b5061039d600480360381019061039891906143d7565b61185f565b6040516103aa9190614c07565b60405180910390f35b3480156103bf57600080fd5b506103c86118a7565b6040516103d59190614c07565b60405180910390f35b3480156103ea57600080fd5b506103f36118d1565b6040516104009190614de0565b60405180910390f35b34801561041557600080fd5b5061041e6118db565b60405161042b9190614c59565b60405180910390f35b34801561044057600080fd5b5061045b600480360381019061045691906144d8565b61190a565b6040516104689190614c97565b60405180910390f35b34801561047d57600080fd5b5061049860048036038101906104939190614288565b61196c565b005b3480156104a657600080fd5b506104af611b77565b6040516104bc9190614de0565b60405180910390f35b3480156104d157600080fd5b506104da611b81565b6040516104e8929190614c22565b60405180910390f35b3480156104fd57600080fd5b506105186004803603810190610513919061456f565b611cfb565b005b34801561052657600080fd5b50610541600480360381019061053c9190614383565b611f22565b005b34801561054f57600080fd5b5061056a6004803603810190610565919061425f565b61213b565b005b6000606e8190555061057c612330565b565b600080600090505b60765481101561078b5761065084607483815481106105a157fe5b90600052602060002090601202016000018054600181600116156101000203166002900480601f0160208091040260200160405190810160405280929190818152602001828054600181600116156101000203166002900480156106465780601f1061061b57610100808354040283529160200191610646565b820191906000526020600020905b81548152906001019060200180831161062957829003601f168201915b5050505050612356565b80156107185750610717836074838154811061066857fe5b90600052602060002090601202016001018054600181600116156101000203166002900480601f01602080910402602001604051908101604052809291908181526020018280546001816001161561010002031660029004801561070d5780601f106106e25761010080835404028352916020019161070d565b820191906000526020600020905b8154815290600101906020018083116106f057829003601f168201915b5050505050612356565b5b8015610752575060026074828154811061072e57fe5b906000526020600020906012020160020160009054906101000a900460ff1660ff16145b1561077e576074818154811061076457fe5b906000526020600020906012020160030154915050610791565b8080600101915050610586565b50600090505b92915050565b61079f6123af565b73ffffffffffffffffffffffffffffffffffffffff166107bd6118a7565b73ffffffffffffffffffffffffffffffffffffffff1614610846576040517f08c379a00000000000000000000000000000000000000000000000000000000081526004018080602001828103825260208152602001807f4f776e61626c653a2063616c6c6572206973206e6f7420746865206f776e657281525060200191505060405180910390fd5b3373ffffffffffffffffffffffffffffffffffffffff166108fc479081150290604051600060405180830381858888f1935050505015801561088c573d6000803e3d6000fd5b50565b600660019054906101000a900460ff16806108ae57506108ad6123b7565b5b806108c65750600660009054906101000a900460ff16155b61091b576040517f08c379a000000000000000000000000000000000000000000000000000000000815260040180806020018281038252602e815260200180615163602e913960400191505060405180910390fd5b6000600660019054906101000a900460ff16159050801561096d576001600660016101000a81548160ff0219169083151502179055506001600660006101000a81548160ff0219169083151502179055505b6109756123c8565b81606d908051906020019061098b929190613c66565b506000606e8190555061099c612467565b6109a4612330565b60006071819055506000607581905550600060768190555080156109de576000600660016101000a81548160ff0219169083151502179055505b5050565b6000607654905090565b60008273ffffffffffffffffffffffffffffffffffffffff1682600067ffffffffffffffff81118015610a1e57600080fd5b506040519080825280601f01601f191660200182016040528015610a515781602001600182028036833780820191505090505b50604051610a5f9190614bd9565b60006040518083038185875af1925050503d8060008114610a9c576040519150601f19603f3d011682016040523d82523d6000602084013e610aa1565b606091505b5050905080610ae5576040517f08c379a0000000000000000000000000000000000000000000000000000000008152600401610adc90614d40565b60405180910390fd5b505050565b607554341015610b2f576040517f08c379a0000000000000000000000000000000000000000000000000000000008152600401610b2690614d80565b60405180910390fd5b6000801b7f38797b189f8fcca19a8584f8e2b27aa01e3df12fc134242bcd02789670aff65d6000604051610b639190614ccd565b60405180910390a2606e600081548092919060010191905055506000606b80549050905060006076546001606e540381610b9957fe5b069050600160748281548110610bab57fe5b906000526020600020906012020160020160009054906101000a900460ff1660ff161415610c0e576040517f08c379a0000000000000000000000000000000000000000000000000000000008152600401610c0590614d60565b60405180910390fd5b8360748281548110610c1c57fe5b90600052602060002090601202016000019080519060200190610c40929190613c66565b508260748281548110610c4f57fe5b90600052602060002090601202016001019080519060200190610c73929190613c66565b50600160748281548110610c8357fe5b906000526020600020906012020160020160006101000a81548160ff021916908360ff16021790555060005b828110156110fe576000610d82610d74606c8481548110610ccc57fe5b906000526020600020018054600181600116156101000203166002900480601f016020809104026020016040519081016040528092919081815260200182805460018160011615610100020316600290048015610d6a5780601f10610d3f57610100808354040283529160200191610d6a565b820191906000526020600020905b815481529060010190602001808311610d4d57829003601f168201915b505050505061257a565b3063ed183a1960e01b6125a4565b9050610dce6040518060400160405280600381526020017f646964000000000000000000000000000000000000000000000000000000000081525087836125d59092919063ffffffff16565b610e226040518060400160405280600281526020017f6964000000000000000000000000000000000000000000000000000000000000815250610e12606e54612608565b836125d59092919063ffffffff16565b610e6c6040518060400160405280600681526020017f6d6574686f64000000000000000000000000000000000000000000000000000081525086836125d59092919063ffffffff16565b610eeb6040518060400160405280600481526020017f70617468000000000000000000000000000000000000000000000000000000008152506040518060400160405280601281526020017f726573756c742c7472616e73616374696f6e0000000000000000000000000000815250836125d59092919063ffffffff16565b610f2e606b8381548110610efb57fe5b9060005260206000200160009054906101000a900473ffffffffffffffffffffffffffffffffffffffff1682600061274c565b60748481548110610f3b57fe5b906000526020600020906012020160050183600c8110610f5757fe5b018190555060748381548110610f6957fe5b906000526020600020906012020160050182600c8110610f8557fe5b01547f38797b189f8fcca19a8584f8e2b27aa01e3df12fc134242bcd02789670aff65d6001604051610fb79190614ce8565b60405180910390a2600060748481548110610fce57fe5b906000526020600020906012020160110183600c8110610fea57fe5b602091828204019190066101000a81548160ff0219169083151502179055506074838154811061101657fe5b906000526020600020906012020160050182600c811061103257fe5b01547f2fd9d21ee86512bf635aea9a4c120aed075b03667e1cb2a500183d908ac1b285876040516110639190614d1e565b60405180910390a2606c828154811061107857fe5b90600052602060002001607260008581526020019081526020016000206000607486815481106110a457fe5b906000526020600020906012020160050185600c81106110c057fe5b0154815260200190815260200160002090805460018160011615610100020316600290046110ef929190613cf4565b50508080600101915050610caf565b5050505050565b60606074805480602002602001604051908101604052809291908181526020016000905b8282101561139257838290600052602060002090601202016040518060e0016040529081600082018054600181600116156101000203166002900480601f0160208091040260200160405190810160405280929190818152602001828054600181600116156101000203166002900480156111e55780601f106111ba576101008083540402835291602001916111e5565b820191906000526020600020905b8154815290600101906020018083116111c857829003601f168201915b50505050508152602001600182018054600181600116156101000203166002900480601f0160208091040260200160405190810160405280929190818152602001828054600181600116156101000203166002900480156112875780601f1061125c57610100808354040283529160200191611287565b820191906000526020600020905b81548152906001019060200180831161126a57829003601f168201915b505050505081526020016002820160009054906101000a900460ff1660ff1660ff168152602001600382015481526020016004820160009054906101000a900460ff1660ff1660ff16815260200160058201600c806020026040519081016040528092919082600c8015611310576020028201915b8154815260200190600101908083116112fc575b5050505050815260200160118201600c806020026040519081016040528092919082600c801561137a576020028201916000905b82829054906101000a900460ff161515815260200190600101906020826000010492830192600103820291508084116113445790505b50505050508152505081526020019060010190611129565b50505050905090565b6113a36123af565b73ffffffffffffffffffffffffffffffffffffffff166113c16118a7565b73ffffffffffffffffffffffffffffffffffffffff161461144a576040517f08c379a00000000000000000000000000000000000000000000000000000000081526004018080602001828103825260208152602001807f4f776e61626c653a2063616c6c6572206973206e6f7420746865206f776e657281525060200191505060405180910390fd5b8060718190555050565b61145c6123af565b73ffffffffffffffffffffffffffffffffffffffff1661147a6118a7565b73ffffffffffffffffffffffffffffffffffffffff1614611503576040517f08c379a00000000000000000000000000000000000000000000000000000000081526004018080602001828103825260208152602001807f4f776e61626c653a2063616c6c6572206973206e6f7420746865206f776e657281525060200191505060405180910390fd5b806070836040516115149190614bf0565b908152602001604051809103902060006101000a81548173ffffffffffffffffffffffffffffffffffffffff021916908373ffffffffffffffffffffffffffffffffffffffff1602179055505050565b61156c6123af565b73ffffffffffffffffffffffffffffffffffffffff1661158a6118a7565b73ffffffffffffffffffffffffffffffffffffffff1614611613576040517f08c379a00000000000000000000000000000000000000000000000000000000081526004018080602001828103825260208152602001807f4f776e61626c653a2063616c6c6572206973206e6f7420746865206f776e657281525060200191505060405180910390fd5b8060758190555050565b600c81565b61162a6123af565b73ffffffffffffffffffffffffffffffffffffffff166116486118a7565b73ffffffffffffffffffffffffffffffffffffffff16146116d1576040517f08c379a00000000000000000000000000000000000000000000000000000000081526004018080602001828103825260208152602001807f4f776e61626c653a2063616c6c6572206973206e6f7420746865206f776e657281525060200191505060405180910390fd5b606b60006116df9190613d89565b606c60006116ed9190613daa565b565b6116f76123af565b73ffffffffffffffffffffffffffffffffffffffff166117156118a7565b73ffffffffffffffffffffffffffffffffffffffff161461179e576040517f08c379a00000000000000000000000000000000000000000000000000000000081526004018080602001828103825260208152602001807f4f776e61626c653a2063616c6c6572206973206e6f7420746865206f776e657281525060200191505060405180910390fd5b600073ffffffffffffffffffffffffffffffffffffffff16603960009054906101000a900473ffffffffffffffffffffffffffffffffffffffff1673ffffffffffffffffffffffffffffffffffffffff167f8be0079c531659141344cd1fd0a4f28419497f9722a3daafe3b4186f6b6457e060405160405180910390a36000603960006101000a81548173ffffffffffffffffffffffffffffffffffffffff021916908373ffffffffffffffffffffffffffffffffffffffff160217905550565b60006070826040516118719190614bf0565b908152602001604051809103902060009054906101000a900473ffffffffffffffffffffffffffffffffffffffff169050919050565b6000603960009054906101000a900473ffffffffffffffffffffffffffffffffffffffff16905090565b6000607154905090565b6118e3613dcb565b6118eb613dcb565b6000610180826000836103e85afa61190257600080fd5b819250505090565b60008061192061191a86866128cb565b846128cb565b9050600061192d82612a22565b9050611937613dee565b60208160c1846103e95afa61194b57600080fd5b60018160006001811061195a57fe5b60200201511493505050509392505050565b60008061198161197b88612c38565b876128cb565b9050600061198e82612a22565b80519060200120905060006119b36119a583612cde565b6119ae84612cde565b6128cb565b905060006119c088612a22565b8051906020012090506119d488838961190a565b945084611a16576040517f08c379a0000000000000000000000000000000000000000000000000000000008152600401611a0d90614dc0565b60405180910390fd5b611a1f81612d6b565b945084611a61576040517f08c379a0000000000000000000000000000000000000000000000000000000008152600401611a5890614da0565b60405180910390fd5b611a6a89612dc0565b611b0e57606b8a9080600181540180825580915050600190039060005260206000200160009091909190916101000a81548173ffffffffffffffffffffffffffffffffffffffff021916908373ffffffffffffffffffffffffffffffffffffffff160217905550606c89908060018154018082558091505060019003906000526020600020016000909190919091509080519060200190611b0c929190613c66565b505b8560708a604051611b1f9190614bf0565b908152602001604051809103902060006101000a81548173ffffffffffffffffffffffffffffffffffffffff021916908373ffffffffffffffffffffffffffffffffffffffff16021790555050505050505050505050565b6000607554905090565b606080606b606c81805480602002602001604051908101604052809291908181526020018280548015611c0957602002820191906000526020600020905b8160009054906101000a900473ffffffffffffffffffffffffffffffffffffffff1673ffffffffffffffffffffffffffffffffffffffff1681526020019060010190808311611bbf575b5050505050915080805480602002602001604051908101604052809291908181526020016000905b82821015611ced578382906000526020600020018054600181600116156101000203166002900480601f016020809104026020016040519081016040528092919081815260200182805460018160011615610100020316600290048015611cd95780601f10611cae57610100808354040283529160200191611cd9565b820191906000526020600020905b815481529060010190602001808311611cbc57829003601f168201915b505050505081526020019060010190611c31565b505050509050915091509091565b611d036123af565b73ffffffffffffffffffffffffffffffffffffffff16611d216118a7565b73ffffffffffffffffffffffffffffffffffffffff1614611daa576040517f08c379a00000000000000000000000000000000000000000000000000000000081526004018080602001828103825260208152602001807f4f776e61626c653a2063616c6c6572206973206e6f7420746865206f776e657281525060200191505060405180910390fd5b6000606e8190555060746000611dc09190613e10565b8060768190555060005b607654811015611f1e57611ddc613e34565b6040518060200160405280600081525081600001819052506040518060200160405280600081525081602001819052506000816040019060ff16908160ff16815250506000801b81606001818152505060748190806001815401808255809150506001900390600052602060002090601202016000909190919091506000820151816000019080519060200190611e74929190613c66565b506020820151816001019080519060200190611e91929190613c66565b5060408201518160020160006101000a81548160ff021916908360ff1602179055506060820151816003015560808201518160040160006101000a81548160ff021916908360ff16021790555060a08201518160050190600c611ef5929190613e86565b5060c08201518160110190600c611f0d929190613ec6565b505050508080600101915050611dca565b5050565b816005600082815260200190815260200160002060009054906101000a900473ffffffffffffffffffffffffffffffffffffffff1673ffffffffffffffffffffffffffffffffffffffff163373ffffffffffffffffffffffffffffffffffffffff1614611fda576040517f08c379a00000000000000000000000000000000000000000000000000000000081526004018080602001828103825260288152602001806151916028913960400191505060405180910390fd5b6005600082815260200190815260200160002060006101000a81549073ffffffffffffffffffffffffffffffffffffffff0219169055807f7cc135e0cebb02c3480ae5d74d377283180a2601f8f644edf7987b009316c63a60405160405180910390a2827f38797b189f8fcca19a8584f8e2b27aa01e3df12fc134242bcd02789670aff65d600260405161206e9190614d03565b60405180910390a2600061208184612eb8565b905060008380519060200120905060016074838154811061209e57fe5b906000526020600020906012020160020160009054906101000a900460ff1660ff161415612134576000801b607483815481106120d757fe5b90600052602060002090601202016003015414156121175780607483815481106120fd57fe5b906000526020600020906012020160030181905550612133565b806074838154811061212557fe5b906000526020600020905050505b5b5050505050565b6121436123af565b73ffffffffffffffffffffffffffffffffffffffff166121616118a7565b73ffffffffffffffffffffffffffffffffffffffff16146121ea576040517f08c379a00000000000000000000000000000000000000000000000000000000081526004018080602001828103825260208152602001807f4f776e61626c653a2063616c6c6572206973206e6f7420746865206f776e657281525060200191505060405180910390fd5b600073ffffffffffffffffffffffffffffffffffffffff168173ffffffffffffffffffffffffffffffffffffffff161415612270576040517f08c379a000000000000000000000000000000000000000000000000000000000815260040180806020018281038252602681526020018061511a6026913960400191505060405180910390fd5b8073ffffffffffffffffffffffffffffffffffffffff16603960009054906101000a900473ffffffffffffffffffffffffffffffffffffffff1673ffffffffffffffffffffffffffffffffffffffff167f8be0079c531659141344cd1fd0a4f28419497f9722a3daafe3b4186f6b6457e060405160405180910390a380603960006101000a81548173ffffffffffffffffffffffffffffffffffffffff021916908373ffffffffffffffffffffffffffffffffffffffff16021790555050565b60005b6076548110156123535761234681612f38565b8080600101915050612333565b50565b6000816040516020016123699190614bf0565b60405160208183030381529060405280519060200120836040516020016123909190614bf0565b6040516020818303038152906040528051906020012014905092915050565b600033905090565b60006123c2306130b3565b15905090565b61246573a9e0a397e7ff13cfe4dd6632b48da41375292c2f73ffffffffffffffffffffffffffffffffffffffff166338cc48316040518163ffffffff1660e01b815260040160206040518083038186803b15801561242557600080fd5b505afa158015612439573d6000803e3d6000fd5b505050506040513d602081101561244f57600080fd5b81019080805190602001909291905050506130c6565b565b600660019054906101000a900460ff168061248657506124856123b7565b5b8061249e5750600660009054906101000a900460ff16155b6124f3576040517f08c379a000000000000000000000000000000000000000000000000000000000815260040180806020018281038252602e815260200180615163602e913960400191505060405180910390fd5b6000600660019054906101000a900460ff161590508015612545576001600660016101000a81548160ff0219169083151502179055506001600660006101000a81548160ff0219169083151502179055505b61254d61310a565b61255561320d565b8015612577576000600660016101000a81548160ff0219169083151502179055505b50565b600080829050600081511415612596576000801b91505061259f565b60208301519150505b919050565b6125ac613f5f565b6125b4613f5f565b6125cb858585846133b9909392919063ffffffff16565b9150509392505050565b6125ec82846080015161346990919063ffffffff16565b61260381846080015161346990919063ffffffff16565b505050565b60606000821415612650576040518060400160405280600181526020017f30000000000000000000000000000000000000000000000000000000000000008152509050612747565b600082905060005b6000821461267a578080600101915050600a828161267257fe5b049150612658565b60008167ffffffffffffffff8111801561269357600080fd5b506040519080825280601f01601f1916602001820160405280156126c65781602001600182028036833780820191505090505b50905060008290508593505b6000841461273f57600a84816126e457fe5b0660300160f81b828260019003925082815181106126fe57fe5b60200101907effffffffffffffffffffffffffffffffffffffffffffffffffffffffffffff1916908160001a905350600a848161273757fe5b0493506126d2565b819450505050505b919050565b6000806004549050600181016004819055506000633c6d41b960e01b600080876000015188604001518660028b6080015160000151604051602401808873ffffffffffffffffffffffffffffffffffffffff168152602001878152602001868152602001857bffffffffffffffffffffffffffffffffffffffffffffffffffffffff1916815260200184815260200183815260200180602001828103825283818151815260200191508051906020019080838360005b8381101561281d578082015181840152602081019050612802565b50505050905090810190601f16801561284a5780820380516001836020036101000a031916815260200191505b5098505050505050505050604051602081830303815290604052907bffffffffffffffffffffffffffffffffffffffffffffffffffffffff19166020820180517bffffffffffffffffffffffffffffffffffffffffffffffffffffffff838183161783525050505090506128c08683868461348e565b925050509392505050565b6060600083905060008390506000815183510167ffffffffffffffff811180156128f457600080fd5b506040519080825280601f01601f1916602001820160405280156129275781602001600182028036833780820191505090505b50905060008190506000805b85518110156129a15785818151811061294857fe5b602001015160f81c60f81b83838060010194508151811061296557fe5b60200101907effffffffffffffffffffffffffffffffffffffffffffffffffffffffffffff1916908160001a9053508080600101915050612933565b5060005b8451811015612a13578481815181106129ba57fe5b602001015160f81c60f81b8383806001019450815181106129d757fe5b60200101907effffffffffffffffffffffffffffffffffffffffffffffffffffffffffffff1916908160001a90535080806001019150506129a5565b50829550505050505092915050565b606060008290506000815167ffffffffffffffff81118015612a4357600080fd5b50604051908082528060200260200182016040528015612a725781602001602082028036833780820191505090505b50905060005b8251811015612b43576000838281518110612a8f57fe5b602001015160f81c60f81b60f81c905060608160ff161115612ad757600a6061820301838381518110612abe57fe5b602002602001019060ff16908160ff1681525050612b35565b60428160ff161115612b0f57600a6041820301838381518110612af657fe5b602002602001019060ff16908160ff1681525050612b34565b60308103838381518110612b1f57fe5b602002602001019060ff16908160ff16815250505b5b508080600101915050612a78565b5060006002825181612b5157fe5b0467ffffffffffffffff81118015612b6857600080fd5b506040519080825280601f01601f191660200182016040528015612b9b5781602001600182028036833780820191505090505b50905060005b8251811015612c2c57826001820181518110612bb957fe5b60200260200101516010848381518110612bcf57fe5b6020026020010151020160f81b8260028381612be757fe5b0481518110612bf257fe5b60200101907effffffffffffffffffffffffffffffffffffffffffffffffffffffffffffff1916908160001a905350600281019050612ba1565b50809350505050919050565b6060600082604051602001808273ffffffffffffffffffffffffffffffffffffffff1660601b815260140191505060405160208183030381529060405290506000602867ffffffffffffffff81118015612c9157600080fd5b506040519080825280601f01601f191660200182016040528015612cc45781602001600182028036833780820191505090505b509050612cd28260146136f1565b90508092505050919050565b60606000826040516020018082815260200191505060405160208183030381529060405290506000604067ffffffffffffffff81118015612d1e57600080fd5b506040519080825280601f01601f191660200182016040528015612d515781602001600182028036833780820191505090505b509050612d5f8260206136f1565b90508092505050919050565b600080612d766118db565b905060005b600c811015612db4578181600c8110612d9057fe5b6020020151841415612da757600192505050612dbb565b8080600101915050612d7b565b5060009150505b919050565b600080606b80549050905060005b81811015612eac57612e8f606c8281548110612de657fe5b906000526020600020018054600181600116156101000203166002900480601f016020809104026020016040519081016040528092919081815260200182805460018160011615610100020316600290048015612e845780601f10612e5957610100808354040283529160200191612e84565b820191906000526020600020905b815481529060010190602001808311612e6757829003601f168201915b505050505085612356565b15612e9f57600192505050612eb3565b8080600101915050612dce565b5060009150505b919050565b600080600090505b607654811015612f2d5760005b600c811015612f1f578360748381548110612ee457fe5b906000526020600020906012020160050182600c8110612f0057fe5b01541415612f12578192505050612f33565b8080600101915050612ecd565b508080600101915050612ec0565b50600090505b919050565b6040518060200160405280600081525060748281548110612f5557fe5b90600052602060002090601202016000019080519060200190612f79929190613c66565b506040518060200160405280600081525060748281548110612f9757fe5b90600052602060002090601202016001019080519060200190612fbb929190613c66565b50600060748281548110612fcb57fe5b906000526020600020906012020160020160006101000a81548160ff021916908360ff1602179055506000801b6074828154811061300557fe5b90600052602060002090601202016003018190555060005b600c8110156130af576000801b6074838154811061303757fe5b906000526020600020906012020160050182600c811061305357fe5b018190555060006074838154811061306757fe5b906000526020600020906012020160110182600c811061308357fe5b602091828204019190066101000a81548160ff021916908315150217905550808060010191505061301d565b5050565b600080823b905060008111915050919050565b80600260006101000a81548173ffffffffffffffffffffffffffffffffffffffff021916908373ffffffffffffffffffffffffffffffffffffffff16021790555050565b600660019054906101000a900460ff168061312957506131286123b7565b5b806131415750600660009054906101000a900460ff16155b613196576040517f08c379a000000000000000000000000000000000000000000000000000000000815260040180806020018281038252602e815260200180615163602e913960400191505060405180910390fd5b6000600660019054906101000a900460ff1615905080156131e8576001600660016101000a81548160ff0219169083151502179055506001600660006101000a81548160ff0219169083151502179055505b801561320a576000600660016101000a81548160ff0219169083151502179055505b50565b600660019054906101000a900460ff168061322c575061322b6123b7565b5b806132445750600660009054906101000a900460ff16155b613299576040517f08c379a000000000000000000000000000000000000000000000000000000000815260040180806020018281038252602e815260200180615163602e913960400191505060405180910390fd5b6000600660019054906101000a900460ff1615905080156132eb576001600660016101000a81548160ff0219169083151502179055506001600660006101000a81548160ff0219169083151502179055505b60006132f56123af565b905080603960006101000a81548173ffffffffffffffffffffffffffffffffffffffff021916908373ffffffffffffffffffffffffffffffffffffffff1602179055508073ffffffffffffffffffffffffffffffffffffffff16600073ffffffffffffffffffffffffffffffffffffffff167f8be0079c531659141344cd1fd0a4f28419497f9722a3daafe3b4186f6b6457e060405160405180910390a35080156133b6576000600660016101000a81548160ff0219169083151502179055505b50565b6133c1613f5f565b6133d18560800151610100613881565b508385600001818152505082856020019073ffffffffffffffffffffffffffffffffffffffff16908173ffffffffffffffffffffffffffffffffffffffff16815250508185604001907bffffffffffffffffffffffffffffffffffffffffffffffffffffffff191690817bffffffffffffffffffffffffffffffffffffffffffffffffffffffff191681525050849050949350505050565b61347682600383516138d5565b6134898183613a5a90919063ffffffff16565b505050565b60003084604051602001808373ffffffffffffffffffffffffffffffffffffffff1660601b815260140182815260200192505050604051602081830303815290604052805190602001209050846005600083815260200190815260200160002060006101000a81548173ffffffffffffffffffffffffffffffffffffffff021916908373ffffffffffffffffffffffffffffffffffffffff160217905550807fb5e6e01e79f91267dc17b4e6314d5d4d03593d2ceee0fbb452b750bd70ea5af960405160405180910390a2600260009054906101000a900473ffffffffffffffffffffffffffffffffffffffff1673ffffffffffffffffffffffffffffffffffffffff16634000aea08685856040518463ffffffff1660e01b8152600401808473ffffffffffffffffffffffffffffffffffffffff16815260200183815260200180602001828103825283818151815260200191508051906020019080838360005b8381101561360b5780820151818401526020810190506135f0565b50505050905090810190601f1680156136385780820380516001836020036101000a031916815260200191505b50945050505050602060405180830381600087803b15801561365957600080fd5b505af115801561366d573d6000803e3d6000fd5b505050506040513d602081101561368357600080fd5b81019080805190602001909291905050506136e9576040517f08c379a00000000000000000000000000000000000000000000000000000000081526004018080602001828103825260238152602001806151406023913960400191505060405180910390fd5b949350505050565b606060006002830267ffffffffffffffff8111801561370f57600080fd5b506040519080825280601f01601f1916602001820160405280156137425781602001600182028036833780820191505090505b50905060005b83811015613876576000601086838151811061376057fe5b602001015160f81c60f81b60f81c60ff168161377857fe5b04905060008160100287848151811061378d57fe5b602001015160f81c60f81b60f81c0390506000600a8360ff16106137b7576057830160f81b6137bf565b6030830160f81b5b90506000600a8360ff16106137da576057830160f81b6137e2565b6030830160f81b5b9050818686600202815181106137f457fe5b60200101907effffffffffffffffffffffffffffffffffffffffffffffffffffffffffffff1916908160001a9053508086600187600202018151811061383657fe5b60200101907effffffffffffffffffffffffffffffffffffffffffffffffffffffffffffff1916908160001a905350505050508080600101915050613748565b508091505092915050565b613889613fcc565b60006020838161389557fe5b06146138ae57602082816138a557fe5b06602003820191505b81836020018181525050604051808452600081528281016020016040525082905092915050565b60178167ffffffffffffffff161161390c576139068160058460ff16901b60ff161784613a7c90919063ffffffff16565b50613a55565b60ff8167ffffffffffffffff16116139625761393b601860058460ff16901b1784613a7c90919063ffffffff16565b5061395c8167ffffffffffffffff16600185613a9c9092919063ffffffff16565b50613a54565b61ffff8167ffffffffffffffff16116139b957613992601960058460ff16901b1784613a7c90919063ffffffff16565b506139b38167ffffffffffffffff16600285613a9c9092919063ffffffff16565b50613a53565b63ffffffff8167ffffffffffffffff1611613a12576139eb601a60058460ff16901b1784613a7c90919063ffffffff16565b50613a0c8167ffffffffffffffff16600485613a9c9092919063ffffffff16565b50613a52565b613a2f601b60058460ff16901b1784613a7c90919063ffffffff16565b50613a508167ffffffffffffffff16600885613a9c9092919063ffffffff16565b505b5b5b5b505050565b613a62613fcc565b613a7483846000015151848551613abe565b905092915050565b613a84613fcc565b613a948384600001515184613b77565b905092915050565b613aa4613fcc565b613ab5848560000151518585613bc5565b90509392505050565b613ac6613fcc565b8251821115613ad457600080fd5b84602001518285011115613aff57613afe856002613af88860200151888701613c26565b02613c42565b5b600080865180518760208301019350808887011115613b1e5787860182525b60208701925050505b60208410613b4a5780518252602082019150602081019050602084039350613b27565b60006001856020036101000a03905080198251168184511681811785525050879350505050949350505050565b613b7f613fcc565b83602001518310613b9c57613b9b846002866020015102613c42565b5b8351805160208583010184815381861415613bb8576001820183525b5050508390509392505050565b613bcd613fcc565b84602001518483011115613beb57613bea85600286850102613c42565b5b60006001836101000a0390508551838682010185831982511617815281518588011115613c185784870182525b505085915050949350505050565b600081831115613c3857829050613c3c565b8190505b92915050565b600082600001519050613c558383613881565b50613c608382613a5a565b50505050565b828054600181600116156101000203166002900490600052602060002090601f016020900481019282613c9c5760008555613ce3565b82601f10613cb557805160ff1916838001178555613ce3565b82800160010185558215613ce3579182015b82811115613ce2578251825591602001919060010190613cc7565b5b509050613cf09190613fe6565b5090565b828054600181600116156101000203166002900490600052602060002090601f016020900481019282613d2a5760008555613d78565b82601f10613d3b5780548555613d78565b82800160010185558215613d7857600052602060002091601f016020900482015b82811115613d77578254825591600101919060010190613d5c565b5b509050613d859190613fe6565b5090565b5080546000825590600052602060002090810190613da79190613fe6565b50565b5080546000825590600052602060002090810190613dc89190614003565b50565b604051806101800160405280600c90602082028036833780820191505090505090565b6040518060200160405280600190602082028036833780820191505090505090565b5080546000825560120290600052602060002090810190613e319190614027565b50565b6040518060e001604052806060815260200160608152602001600060ff16815260200160008019168152602001600060ff168152602001613e73613dcb565b8152602001613e806140ae565b81525090565b82600c8101928215613eb5579160200282015b82811115613eb4578251825591602001919060010190613e99565b5b509050613ec291906140d1565b5090565b82600c601f01602090048101928215613f4e5791602002820160005b83821115613f1f57835183826101000a81548160ff0219169083151502179055509260200192600101602081600001049283019260010302613ee2565b8015613f4c5782816101000a81549060ff0219169055600101602081600001049283019260010302613f1f565b505b509050613f5b9190613fe6565b5090565b6040518060a0016040528060008019168152602001600073ffffffffffffffffffffffffffffffffffffffff16815260200160007bffffffffffffffffffffffffffffffffffffffffffffffffffffffff1916815260200160008152602001613fc6613fcc565b81525090565b604051806040016040528060608152602001600081525090565b5b80821115613fff576000816000905550600101613fe7565b5090565b5b80821115614023576000818161401a91906140ee565b50600101614004565b5090565b5b808211156140aa576000808201600061404191906140ee565b60018201600061405191906140ee565b6002820160006101000a81549060ff021916905560038201600090556004820160006101000a81549060ff02191690556005820160006140919190614136565b6011820160006140a19190614149565b50601201614028565b5090565b604051806101800160405280600c90602082028036833780820191505090505090565b5b808211156140ea5760008160009055506001016140d2565b5090565b50805460018160011615610100020316600290046000825580601f106141145750614133565b601f0160209004906000526020600020908101906141329190613fe6565b5b50565b5080600c019061414691906140d1565b50565b5060009055565b600061416361415e84614e2c565b614dfb565b90508281526020810184848401111561417b57600080fd5b61418684828561507f565b509392505050565b60006141a161419c84614e5c565b614dfb565b9050828152602081018484840111156141b957600080fd5b6141c484828561507f565b509392505050565b6000813590506141db816150d4565b92915050565b6000813590506141f0816150eb565b92915050565b600082601f83011261420757600080fd5b8135614217848260208601614150565b91505092915050565b600082601f83011261423157600080fd5b813561424184826020860161418e565b91505092915050565b60008135905061425981615102565b92915050565b60006020828403121561427157600080fd5b600061427f848285016141cc565b91505092915050565b600080600080600060a086880312156142a057600080fd5b60006142ae888289016141cc565b955050602086013567ffffffffffffffff8111156142cb57600080fd5b6142d788828901614220565b945050604086013567ffffffffffffffff8111156142f457600080fd5b61430088828901614220565b935050606086013567ffffffffffffffff81111561431d57600080fd5b61432988828901614220565b925050608061433a888289016141cc565b9150509295509295909350565b6000806040838503121561435a57600080fd5b6000614368858286016141cc565b92505060206143798582860161424a565b9150509250929050565b6000806040838503121561439657600080fd5b60006143a4858286016141e1565b925050602083013567ffffffffffffffff8111156143c157600080fd5b6143cd858286016141f6565b9150509250929050565b6000602082840312156143e957600080fd5b600082013567ffffffffffffffff81111561440357600080fd5b61440f84828501614220565b91505092915050565b6000806040838503121561442b57600080fd5b600083013567ffffffffffffffff81111561444557600080fd5b61445185828601614220565b9250506020614462858286016141cc565b9150509250929050565b6000806040838503121561447f57600080fd5b600083013567ffffffffffffffff81111561449957600080fd5b6144a585828601614220565b925050602083013567ffffffffffffffff8111156144c257600080fd5b6144ce85828601614220565b9150509250929050565b6000806000606084860312156144ed57600080fd5b600084013567ffffffffffffffff81111561450757600080fd5b61451386828701614220565b935050602084013567ffffffffffffffff81111561453057600080fd5b61453c86828701614220565b925050604084013567ffffffffffffffff81111561455957600080fd5b61456586828701614220565b9150509250925092565b60006020828403121561458157600080fd5b600061458f8482850161424a565b91505092915050565b60006145a48383614608565b60208301905092915050565b60006145bc8383614873565b60208301905092915050565b60006145d48383614891565b60208301905092915050565b60006145ec838361490d565b905092915050565b60006146008383614b16565b905092915050565b61461181614fea565b82525050565b61462081614fea565b82525050565b600061463182614ed0565b61463b8185614f5e565b935061464683614e8c565b8060005b8381101561467757815161465e8882614598565b975061466983614f1d565b92505060018101905061464a565b5085935050505092915050565b61468d81614edb565b6146978184614f6f565b92506146a282614e9c565b8060005b838110156146d35781516146ba87826145b0565b96506146c583614f2a565b9250506001810190506146a6565b505050505050565b6146e481614ee6565b6146ee8184614f7a565b92506146f982614ea6565b8060005b8381101561472a57815161471187826145c8565b965061471c83614f37565b9250506001810190506146fd565b505050505050565b61473b81614ee6565b6147458184614f85565b925061475082614ea6565b8060005b8381101561478157815161476887826145c8565b965061477383614f37565b925050600181019050614754565b505050505050565b600061479482614ef1565b61479e8185614f90565b9350836020820285016147b085614eb0565b8060005b858110156147ec57848403895281516147cd85826145e0565b94506147d883614f44565b925060208a019950506001810190506147b4565b50829750879550505050505092915050565b600061480982614efc565b6148138185614fa1565b93508360208202850161482585614ec0565b8060005b85811015614861578484038952815161484285826145f4565b945061484d83614f51565b925060208a01995050600181019050614829565b50829750879550505050505092915050565b61487c81614ffc565b82525050565b61488b81614ffc565b82525050565b61489a81615008565b82525050565b6148a981615008565b82525050565b60006148ba82614f07565b6148c48185614fb2565b93506148d481856020860161508e565b80840191505092915050565b6148e981615049565b82525050565b6148f88161505b565b82525050565b6149078161506d565b82525050565b600061491882614f12565b6149228185614fbd565b935061493281856020860161508e565b61493b816150c3565b840191505092915050565b600061495182614f12565b61495b8185614fce565b935061496b81856020860161508e565b614974816150c3565b840191505092915050565b600061498a82614f12565b6149948185614fdf565b93506149a481856020860161508e565b80840191505092915050565b60006149bd603e83614fce565b91507f5472616e7366657248656c7065723a3a736166655472616e736665724375727260008301527f656e63793a2043757272656e6379207472616e73666572206661696c656400006020830152604082019050919050565b6000614a23601b83614fce565b91507f746f6f206d616e792063616c6c732c706c6561736520776169742000000000006000830152602082019050919050565b6000614a63601183614fce565b91507f666565206973206e6f7420656e6f7567680000000000000000000000000000006000830152602082019050919050565b6000614aa3601c83614fce565b91507f61726269746572206973206e6f7420696e20746865206c6973742021000000006000830152602082019050919050565b6000614ae3601883614fce565b91507f7032353656657269667920646f206e6f742070617373202100000000000000006000830152602082019050919050565b60006103a0830160008301518482036000860152614b34828261490d565b91505060208301518482036020860152614b4e828261490d565b9150506040830151614b636040860182614bca565b506060830151614b766060860182614891565b506080830151614b896080860182614bca565b5060a0830151614b9c60a08601826146db565b5060c0830151614bb0610220860182614684565b508091505092915050565b614bc481615032565b82525050565b614bd38161503c565b82525050565b6000614be582846148af565b915081905092915050565b6000614bfc828461497f565b915081905092915050565b6000602082019050614c1c6000830184614617565b92915050565b60006040820190508181036000830152614c3c8185614626565b90508181036020830152614c508184614789565b90509392505050565b600061018082019050614c6f6000830184614732565b92915050565b60006020820190508181036000830152614c8f81846147fe565b905092915050565b6000602082019050614cac6000830184614882565b92915050565b6000602082019050614cc760008301846148a0565b92915050565b6000602082019050614ce260008301846148e0565b92915050565b6000602082019050614cfd60008301846148ef565b92915050565b6000602082019050614d1860008301846148fe565b92915050565b60006020820190508181036000830152614d388184614946565b905092915050565b60006020820190508181036000830152614d59816149b0565b9050919050565b60006020820190508181036000830152614d7981614a16565b9050919050565b60006020820190508181036000830152614d9981614a56565b9050919050565b60006020820190508181036000830152614db981614a96565b9050919050565b60006020820190508181036000830152614dd981614ad6565b9050919050565b6000602082019050614df56000830184614bbb565b92915050565b6000604051905081810181811067ffffffffffffffff82111715614e2257614e216150c1565b5b8060405250919050565b600067ffffffffffffffff821115614e4757614e466150c1565b5b601f19601f8301169050602081019050919050565b600067ffffffffffffffff821115614e7757614e766150c1565b5b601f19601f8301169050602081019050919050565b6000819050602082019050919050565b6000819050919050565b6000819050919050565b6000819050602082019050919050565b6000819050602082019050919050565b600081519050919050565b6000600c9050919050565b6000600c9050919050565b600081519050919050565b600081519050919050565b600081519050919050565b600081519050919050565b6000602082019050919050565b6000602082019050919050565b6000602082019050919050565b6000602082019050919050565b6000602082019050919050565b600082825260208201905092915050565b600081905092915050565b600081905092915050565b600081905092915050565b600082825260208201905092915050565b600082825260208201905092915050565b600081905092915050565b600082825260208201905092915050565b600082825260208201905092915050565b600081905092915050565b6000614ff582615012565b9050919050565b60008115159050919050565b6000819050919050565b600073ffffffffffffffffffffffffffffffffffffffff82169050919050565b6000819050919050565b600060ff82169050919050565b60006150548261503c565b9050919050565b60006150668261503c565b9050919050565b60006150788261503c565b9050919050565b82818337600083830152505050565b60005b838110156150ac578082015181840152602081019050615091565b838111156150bb576000848401525b50505050565bfe5b6000601f19601f8301169050919050565b6150dd81614fea565b81146150e857600080fd5b50565b6150f481615008565b81146150ff57600080fd5b50565b61510b81615032565b811461511657600080fd5b5056fe4f776e61626c653a206e6577206f776e657220697320746865207a65726f2061646472657373756e61626c6520746f207472616e73666572416e6443616c6c20746f206f7261636c65496e697469616c697a61626c653a20636f6e747261637420697320616c726561647920696e697469616c697a6564536f75726365206d75737420626520746865206f7261636c65206f66207468652072657175657374a264697066735822122078715b2d6074440ac53d58c9e9153c838b8922e6474fa02ff2a166e39e8f94c164736f6c63430007060033",
  "linkReferences": {},
  "deployedLinkReferences": {}
}