{
  "_format": "hh-sol-artifact-1",
  "contractName": "KeeperRegistryDev",
  "sourceName": "contracts/chainlink/dev/KeeperRegistryDev.sol",
  "abi": [
    {
      "inputs": [
        {
          "internalType": "address",
          "name": "link",
          "type": "address"
        },
        {
          "internalType": "address",
          "name": "linkEthFeed",
          "type": "address"
        },
        {
          "internalType": "address",
          "name": "fastGasFeed",
          "type": "address"
        },
        {
          "internalType": "uint32",
          "name": "paymentPremiumPPB",
          "type": "uint32"
        },
        {
          "internalType": "uint32",
          "name": "flatFeeMicroLink",
          "type": "uint32"
        },
        {
          "internalType": "uint24",
          "name": "blockCountPerTurn",
          "type": "uint24"
        },
        {
          "internalType": "uint32",
          "name": "checkGasLimit",
          "type": "uint32"
        },
        {
          "internalType": "uint24",
          "name": "stalenessSeconds",
          "type": "uint24"
        },
        {
          "internalType": "uint16",
          "name": "gasCeilingMultiplier",
          "type": "uint16"
        },
        {
          "internalType": "uint256",
          "name": "fallbackGasPrice",
          "type": "uint256"
        },
        {
          "internalType": "uint256",
          "name": "fallbackLinkPrice",
          "type": "uint256"
        }
      ],
      "stateMutability": "nonpayable",
      "type": "constructor"
    },
    {
      "anonymous": false,
      "inputs": [
        {
          "indexed": false,
          "internalType": "uint32",
          "name": "paymentPremiumPPB",
          "type": "uint32"
        },
        {
          "indexed": false,
          "internalType": "uint24",
          "name": "blockCountPerTurn",
          "type": "uint24"
        },
        {
          "indexed": false,
          "internalType": "uint32",
          "name": "checkGasLimit",
          "type": "uint32"
        },
        {
          "indexed": false,
          "internalType": "uint24",
          "name": "stalenessSeconds",
          "type": "uint24"
        },
        {
          "indexed": false,
          "internalType": "uint16",
          "name": "gasCeilingMultiplier",
          "type": "uint16"
        },
        {
          "indexed": false,
          "internalType": "uint256",
          "name": "fallbackGasPrice",
          "type": "uint256"
        },
        {
          "indexed": false,
          "internalType": "uint256",
          "name": "fallbackLinkPrice",
          "type": "uint256"
        }
      ],
      "name": "ConfigSet",
      "type": "event"
    },
    {
      "anonymous": false,
      "inputs": [
        {
          "indexed": false,
          "internalType": "uint32",
          "name": "flatFeeMicroLink",
          "type": "uint32"
        }
      ],
      "name": "FlatFeeSet",
      "type": "event"
    },
    {
      "anonymous": false,
      "inputs": [
        {
          "indexed": true,
          "internalType": "uint256",
          "name": "id",
          "type": "uint256"
        },
        {
          "indexed": true,
          "internalType": "address",
          "name": "from",
          "type": "address"
        },
        {
          "indexed": false,
          "internalType": "uint96",
          "name": "amount",
          "type": "uint96"
        }
      ],
      "name": "FundsAdded",
      "type": "event"
    },
    {
      "anonymous": false,
      "inputs": [
        {
          "indexed": true,
          "internalType": "uint256",
          "name": "id",
          "type": "uint256"
        },
        {
          "indexed": false,
          "internalType": "uint256",
          "name": "amount",
          "type": "uint256"
        },
        {
          "indexed": false,
          "internalType": "address",
          "name": "to",
          "type": "address"
        }
      ],
      "name": "FundsWithdrawn",
      "type": "event"
    },
    {
      "anonymous": false,
      "inputs": [
        {
          "indexed": false,
          "internalType": "address[]",
          "name": "keepers",
          "type": "address[]"
        },
        {
          "indexed": false,
          "internalType": "address[]",
          "name": "payees",
          "type": "address[]"
        }
      ],
      "name": "KeepersUpdated",
      "type": "event"
    },
    {
      "anonymous": false,
      "inputs": [
        {
          "indexed": true,
          "internalType": "address",
          "name": "from",
          "type": "address"
        },
        {
          "indexed": true,
          "internalType": "address",
          "name": "to",
          "type": "address"
        }
      ],
      "name": "OwnershipTransferRequested",
      "type": "event"
    },
    {
      "anonymous": false,
      "inputs": [
        {
          "indexed": true,
          "internalType": "address",
          "name": "from",
          "type": "address"
        },
        {
          "indexed": true,
          "internalType": "address",
          "name": "to",
          "type": "address"
        }
      ],
      "name": "OwnershipTransferred",
      "type": "event"
    },
    {
      "anonymous": false,
      "inputs": [
        {
          "indexed": false,
          "internalType": "address",
          "name": "account",
          "type": "address"
        }
      ],
      "name": "Paused",
      "type": "event"
    },
    {
      "anonymous": false,
      "inputs": [
        {
          "indexed": true,
          "internalType": "address",
          "name": "keeper",
          "type": "address"
        },
        {
          "indexed": true,
          "internalType": "address",
          "name": "from",
          "type": "address"
        },
        {
          "indexed": true,
          "internalType": "address",
          "name": "to",
          "type": "address"
        }
      ],
      "name": "PayeeshipTransferRequested",
      "type": "event"
    },
    {
      "anonymous": false,
      "inputs": [
        {
          "indexed": true,
          "internalType": "address",
          "name": "keeper",
          "type": "address"
        },
        {
          "indexed": true,
          "internalType": "address",
          "name": "from",
          "type": "address"
        },
        {
          "indexed": true,
          "internalType": "address",
          "name": "to",
          "type": "address"
        }
      ],
      "name": "PayeeshipTransferred",
      "type": "event"
    },
    {
      "anonymous": false,
      "inputs": [
        {
          "indexed": true,
          "internalType": "address",
          "name": "keeper",
          "type": "address"
        },
        {
          "indexed": true,
          "internalType": "uint256",
          "name": "amount",
          "type": "uint256"
        },
        {
          "indexed": true,
          "internalType": "address",
          "name": "to",
          "type": "address"
        },
        {
          "indexed": false,
          "internalType": "address",
          "name": "payee",
          "type": "address"
        }
      ],
      "name": "PaymentWithdrawn",
      "type": "event"
    },
    {
      "anonymous": false,
      "inputs": [
        {
          "indexed": true,
          "internalType": "address",
          "name": "from",
          "type": "address"
        },
        {
          "indexed": true,
          "internalType": "address",
          "name": "to",
          "type": "address"
        }
      ],
      "name": "RegistrarChanged",
      "type": "event"
    },
    {
      "anonymous": false,
      "inputs": [
        {
          "indexed": false,
          "internalType": "address",
          "name": "account",
          "type": "address"
        }
      ],
      "name": "Unpaused",
      "type": "event"
    },
    {
      "anonymous": false,
      "inputs": [
        {
          "indexed": true,
          "internalType": "uint256",
          "name": "id",
          "type": "uint256"
        },
        {
          "indexed": true,
          "internalType": "uint64",
          "name": "atBlockHeight",
          "type": "uint64"
        }
      ],
      "name": "UpkeepCanceled",
      "type": "event"
    },
    {
      "anonymous": false,
      "inputs": [
        {
          "indexed": true,
          "internalType": "uint256",
          "name": "id",
          "type": "uint256"
        },
        {
          "indexed": true,
          "internalType": "bool",
          "name": "success",
          "type": "bool"
        },
        {
          "indexed": true,
          "internalType": "address",
          "name": "from",
          "type": "address"
        },
        {
          "indexed": false,
          "internalType": "uint96",
          "name": "payment",
          "type": "uint96"
        },
        {
          "indexed": false,
          "internalType": "bytes",
          "name": "performData",
          "type": "bytes"
        }
      ],
      "name": "UpkeepPerformed",
      "type": "event"
    },
    {
      "anonymous": false,
      "inputs": [
        {
          "indexed": true,
          "internalType": "uint256",
          "name": "id",
          "type": "uint256"
        },
        {
          "indexed": false,
          "internalType": "uint32",
          "name": "executeGas",
          "type": "uint32"
        },
        {
          "indexed": false,
          "internalType": "address",
          "name": "admin",
          "type": "address"
        }
      ],
      "name": "UpkeepRegistered",
      "type": "event"
    },
    {
      "inputs": [],
      "name": "FAST_GAS_FEED",
      "outputs": [
        {
          "internalType": "contract AggregatorV3Interface",
          "name": "",
          "type": "address"
        }
      ],
      "stateMutability": "view",
      "type": "function"
    },
    {
      "inputs": [],
      "name": "LINK",
      "outputs": [
        {
          "internalType": "contract LinkTokenInterface",
          "name": "",
          "type": "address"
        }
      ],
      "stateMutability": "view",
      "type": "function"
    },
    {
      "inputs": [],
      "name": "LINK_ETH_FEED",
      "outputs": [
        {
          "internalType": "contract AggregatorV3Interface",
          "name": "",
          "type": "address"
        }
      ],
      "stateMutability": "view",
      "type": "function"
    },
    {
      "inputs": [],
      "name": "acceptOwnership",
      "outputs": [],
      "stateMutability": "nonpayable",
      "type": "function"
    },
    {
      "inputs": [
        {
          "internalType": "address",
          "name": "keeper",
          "type": "address"
        }
      ],
      "name": "acceptPayeeship",
      "outputs": [],
      "stateMutability": "nonpayable",
      "type": "function"
    },
    {
      "inputs": [
        {
          "internalType": "uint256",
          "name": "id",
          "type": "uint256"
        },
        {
          "internalType": "uint96",
          "name": "amount",
          "type": "uint96"
        }
      ],
      "name": "addFunds",
      "outputs": [],
      "stateMutability": "nonpayable",
      "type": "function"
    },
    {
      "inputs": [
        {
          "internalType": "uint256",
          "name": "id",
          "type": "uint256"
        }
      ],
      "name": "cancelUpkeep",
      "outputs": [],
      "stateMutability": "nonpayable",
      "type": "function"
    },
    {
      "inputs": [
        {
          "internalType": "uint256",
          "name": "id",
          "type": "uint256"
        },
        {
          "internalType": "address",
          "name": "from",
          "type": "address"
        }
      ],
      "name": "checkUpkeep",
      "outputs": [
        {
          "internalType": "bytes",
          "name": "performData",
          "type": "bytes"
        },
        {
          "internalType": "uint256",
          "name": "maxLinkPayment",
          "type": "uint256"
        },
        {
          "internalType": "uint256",
          "name": "gasLimit",
          "type": "uint256"
        },
        {
          "internalType": "uint256",
          "name": "adjustedGasWei",
          "type": "uint256"
        },
        {
          "internalType": "uint256",
          "name": "linkEth",
          "type": "uint256"
        }
      ],
      "stateMutability": "nonpayable",
      "type": "function"
    },
    {
      "inputs": [],
      "name": "getCanceledUpkeepList",
      "outputs": [
        {
          "internalType": "uint256[]",
          "name": "",
          "type": "uint256[]"
        }
      ],
      "stateMutability": "view",
      "type": "function"
    },
    {
      "inputs": [],
      "name": "getConfig",
      "outputs": [
        {
          "internalType": "uint32",
          "name": "paymentPremiumPPB",
          "type": "uint32"
        },
        {
          "internalType": "uint24",
          "name": "blockCountPerTurn",
          "type": "uint24"
        },
        {
          "internalType": "uint32",
          "name": "checkGasLimit",
          "type": "uint32"
        },
        {
          "internalType": "uint24",
          "name": "stalenessSeconds",
          "type": "uint24"
        },
        {
          "internalType": "uint16",
          "name": "gasCeilingMultiplier",
          "type": "uint16"
        },
        {
          "internalType": "uint256",
          "name": "fallbackGasPrice",
          "type": "uint256"
        },
        {
          "internalType": "uint256",
          "name": "fallbackLinkPrice",
          "type": "uint256"
        }
      ],
      "stateMutability": "view",
      "type": "function"
    },
    {
      "inputs": [],
      "name": "getFlatFee",
      "outputs": [
        {
          "internalType": "uint32",
          "name": "",
          "type": "uint32"
        }
      ],
      "stateMutability": "view",
      "type": "function"
    },
    {
      "inputs": [
        {
          "internalType": "address",
          "name": "query",
          "type": "address"
        }
      ],
      "name": "getKeeperInfo",
      "outputs": [
        {
          "internalType": "address",
          "name": "payee",
          "type": "address"
        },
        {
          "internalType": "bool",
          "name": "active",
          "type": "bool"
        },
        {
          "internalType": "uint96",
          "name": "balance",
          "type": "uint96"
        }
      ],
      "stateMutability": "view",
      "type": "function"
    },
    {
      "inputs": [],
      "name": "getKeeperList",
      "outputs": [
        {
          "internalType": "address[]",
          "name": "",
          "type": "address[]"
        }
      ],
      "stateMutability": "view",
      "type": "function"
    },
    {
      "inputs": [
        {
          "internalType": "uint256",
          "name": "gasLimit",
          "type": "uint256"
        }
      ],
      "name": "getMaxPaymentForGas",
      "outputs": [
        {
          "internalType": "uint96",
          "name": "maxPayment",
          "type": "uint96"
        }
      ],
      "stateMutability": "view",
      "type": "function"
    },
    {
      "inputs": [
        {
          "internalType": "uint256",
          "name": "id",
          "type": "uint256"
        }
      ],
      "name": "getMinBalanceForUpkeep",
      "outputs": [
        {
          "internalType": "uint96",
          "name": "minBalance",
          "type": "uint96"
        }
      ],
      "stateMutability": "view",
      "type": "function"
    },
    {
      "inputs": [],
      "name": "getRegistrar",
      "outputs": [
        {
          "internalType": "address",
          "name": "",
          "type": "address"
        }
      ],
      "stateMutability": "view",
      "type": "function"
    },
    {
      "inputs": [
        {
          "internalType": "uint256",
          "name": "id",
          "type": "uint256"
        }
      ],
      "name": "getUpkeep",
      "outputs": [
        {
          "internalType": "address",
          "name": "target",
          "type": "address"
        },
        {
          "internalType": "uint32",
          "name": "executeGas",
          "type": "uint32"
        },
        {
          "internalType": "bytes",
          "name": "checkData",
          "type": "bytes"
        },
        {
          "internalType": "uint96",
          "name": "balance",
          "type": "uint96"
        },
        {
          "internalType": "address",
          "name": "lastKeeper",
          "type": "address"
        },
        {
          "internalType": "address",
          "name": "admin",
          "type": "address"
        },
        {
          "internalType": "uint64",
          "name": "maxValidBlocknumber",
          "type": "uint64"
        }
      ],
      "stateMutability": "view",
      "type": "function"
    },
    {
      "inputs": [],
      "name": "getUpkeepCount",
      "outputs": [
        {
          "internalType": "uint256",
          "name": "",
          "type": "uint256"
        }
      ],
      "stateMutability": "view",
      "type": "function"
    },
    {
      "inputs": [
        {
          "internalType": "address",
          "name": "sender",
          "type": "address"
        },
        {
          "internalType": "uint256",
          "name": "amount",
          "type": "uint256"
        },
        {
          "internalType": "bytes",
          "name": "data",
          "type": "bytes"
        }
      ],
      "name": "onTokenTransfer",
      "outputs": [],
      "stateMutability": "nonpayable",
      "type": "function"
    },
    {
      "inputs": [],
      "name": "owner",
      "outputs": [
        {
          "internalType": "address",
          "name": "",
          "type": "address"
        }
      ],
      "stateMutability": "view",
      "type": "function"
    },
    {
      "inputs": [],
      "name": "pause",
      "outputs": [],
      "stateMutability": "nonpayable",
      "type": "function"
    },
    {
      "inputs": [],
      "name": "paused",
      "outputs": [
        {
          "internalType": "bool",
          "name": "",
          "type": "bool"
        }
      ],
      "stateMutability": "view",
      "type": "function"
    },
    {
      "inputs": [
        {
          "internalType": "uint256",
          "name": "id",
          "type": "uint256"
        },
        {
          "internalType": "bytes",
          "name": "performData",
          "type": "bytes"
        }
      ],
      "name": "performUpkeep",
      "outputs": [
        {
          "internalType": "bool",
          "name": "success",
          "type": "bool"
        }
      ],
      "stateMutability": "nonpayable",
      "type": "function"
    },
    {
      "inputs": [],
      "name": "recoverFunds",
      "outputs": [],
      "stateMutability": "nonpayable",
      "type": "function"
    },
    {
      "inputs": [
        {
          "internalType": "address",
          "name": "target",
          "type": "address"
        },
        {
          "internalType": "uint32",
          "name": "gasLimit",
          "type": "uint32"
        },
        {
          "internalType": "address",
          "name": "admin",
          "type": "address"
        },
        {
          "internalType": "bytes",
          "name": "checkData",
          "type": "bytes"
        }
      ],
      "name": "registerUpkeep",
      "outputs": [
        {
          "internalType": "uint256",
          "name": "id",
          "type": "uint256"
        }
      ],
      "stateMutability": "nonpayable",
      "type": "function"
    },
    {
      "inputs": [
        {
          "internalType": "uint32",
          "name": "paymentPremiumPPB",
          "type": "uint32"
        },
        {
          "internalType": "uint32",
          "name": "flatFeeMicroLink",
          "type": "uint32"
        },
        {
          "internalType": "uint24",
          "name": "blockCountPerTurn",
          "type": "uint24"
        },
        {
          "internalType": "uint32",
          "name": "checkGasLimit",
          "type": "uint32"
        },
        {
          "internalType": "uint24",
          "name": "stalenessSeconds",
          "type": "uint24"
        },
        {
          "internalType": "uint16",
          "name": "gasCeilingMultiplier",
          "type": "uint16"
        },
        {
          "internalType": "uint256",
          "name": "fallbackGasPrice",
          "type": "uint256"
        },
        {
          "internalType": "uint256",
          "name": "fallbackLinkPrice",
          "type": "uint256"
        }
      ],
      "name": "setConfig",
      "outputs": [],
      "stateMutability": "nonpayable",
      "type": "function"
    },
    {
      "inputs": [
        {
          "internalType": "address[]",
          "name": "keepers",
          "type": "address[]"
        },
        {
          "internalType": "address[]",
          "name": "payees",
          "type": "address[]"
        }
      ],
      "name": "setKeepers",
      "outputs": [],
      "stateMutability": "nonpayable",
      "type": "function"
    },
    {
      "inputs": [
        {
          "internalType": "address",
          "name": "registrar",
          "type": "address"
        }
      ],
      "name": "setRegistrar",
      "outputs": [],
      "stateMutability": "nonpayable",
      "type": "function"
    },
    {
      "inputs": [
        {
          "internalType": "address",
          "name": "to",
          "type": "address"
        }
      ],
      "name": "transferOwnership",
      "outputs": [],
      "stateMutability": "nonpayable",
      "type": "function"
    },
    {
      "inputs": [
        {
          "internalType": "address",
          "name": "keeper",
          "type": "address"
        },
        {
          "internalType": "address",
          "name": "proposed",
          "type": "address"
        }
      ],
      "name": "transferPayeeship",
      "outputs": [],
      "stateMutability": "nonpayable",
      "type": "function"
    },
    {
      "inputs": [],
      "name": "typeAndVersion",
      "outputs": [
        {
          "internalType": "string",
          "name": "",
          "type": "string"
        }
      ],
      "stateMutability": "view",
      "type": "function"
    },
    {
      "inputs": [],
      "name": "unpause",
      "outputs": [],
      "stateMutability": "nonpayable",
      "type": "function"
    },
    {
      "inputs": [
        {
          "internalType": "uint256",
          "name": "id",
          "type": "uint256"
        },
        {
          "internalType": "address",
          "name": "to",
          "type": "address"
        }
      ],
      "name": "withdrawFunds",
      "outputs": [],
      "stateMutability": "nonpayable",
      "type": "function"
    },
    {
      "inputs": [
        {
          "internalType": "address",
          "name": "from",
          "type": "address"
        },
        {
          "internalType": "address",
          "name": "to",
          "type": "address"
        }
      ],
      "name": "withdrawPayment",
      "outputs": [],
      "stateMutability": "nonpayable",
      "type": "function"
    }
  ],
  "bytecode": "0x60e06040523480156200001157600080fd5b506040516200696a3803806200696a83398181016040526101608110156200003857600080fd5b810190808051906020019092919080519060200190929190805190602001909291908051906020019092919080519060200190929190805190602001909291908051906020019092919080519060200190929190805190602001909291908051906020019092919080519060200190929190505050338060008073ffffffffffffffffffffffffffffffffffffffff168273ffffffffffffffffffffffffffffffffffffffff16141562000154576040517f08c379a00000000000000000000000000000000000000000000000000000000081526004018080602001828103825260188152602001807f43616e6e6f7420736574206f776e657220746f207a65726f000000000000000081525060200191505060405180910390fd5b816000806101000a81548173ffffffffffffffffffffffffffffffffffffffff021916908373ffffffffffffffffffffffffffffffffffffffff160217905550600073ffffffffffffffffffffffffffffffffffffffff168173ffffffffffffffffffffffffffffffffffffffff1614620001db57620001da81620002cf60201b60201c565b5b50505060016002819055506000600360006101000a81548160ff0219169083151502179055508a73ffffffffffffffffffffffffffffffffffffffff1660808173ffffffffffffffffffffffffffffffffffffffff1660601b815250508973ffffffffffffffffffffffffffffffffffffffff1660a08173ffffffffffffffffffffffffffffffffffffffff1660601b815250508873ffffffffffffffffffffffffffffffffffffffff1660c08173ffffffffffffffffffffffffffffffffffffffff1660601b81525050620002be88888888888888886200043060201b60201c565b50505050505050505050506200070e565b3373ffffffffffffffffffffffffffffffffffffffff168173ffffffffffffffffffffffffffffffffffffffff16141562000372576040517f08c379a00000000000000000000000000000000000000000000000000000000081526004018080602001828103825260178152602001807f43616e6e6f74207472616e7366657220746f2073656c6600000000000000000081525060200191505060405180910390fd5b80600160006101000a81548173ffffffffffffffffffffffffffffffffffffffff021916908373ffffffffffffffffffffffffffffffffffffffff1602179055508073ffffffffffffffffffffffffffffffffffffffff1660008054906101000a900473ffffffffffffffffffffffffffffffffffffffff1673ffffffffffffffffffffffffffffffffffffffff167fed8889f560326eb138920d842192f0eb3dd22b4f139c87a2c57538e05bae127860405160405180910390a350565b620004406200064a60201b60201c565b6040518060c001604052808963ffffffff1681526020018863ffffffff1681526020018762ffffff1681526020018663ffffffff1681526020018562ffffff1681526020018461ffff16815250600b60008201518160000160006101000a81548163ffffffff021916908363ffffffff16021790555060208201518160000160046101000a81548163ffffffff021916908363ffffffff16021790555060408201518160000160086101000a81548162ffffff021916908362ffffff160217905550606082015181600001600b6101000a81548163ffffffff021916908363ffffffff160217905550608082015181600001600f6101000a81548162ffffff021916908362ffffff16021790555060a08201518160000160126101000a81548161ffff021916908361ffff16021790555090505081600c8190555080600d819055507feb3c06937e6595fd80ec1add18a195026d5cf65f122cc3ffedbfb18a9ed80b3988878787878787604051808863ffffffff1681526020018762ffffff1681526020018663ffffffff1681526020018562ffffff1681526020018461ffff16815260200183815260200182815260200197505050505050505060405180910390a17f17b46a44a823646eef686b7824df2962de896bc9a012a60b67694c5cbf184d8b87604051808263ffffffff16815260200191505060405180910390a15050505050505050565b60008054906101000a900473ffffffffffffffffffffffffffffffffffffffff1673ffffffffffffffffffffffffffffffffffffffff163373ffffffffffffffffffffffffffffffffffffffff16146200070c576040517f08c379a00000000000000000000000000000000000000000000000000000000081526004018080602001828103825260168152602001807f4f6e6c792063616c6c61626c65206279206f776e65720000000000000000000081525060200191505060405180910390fd5b565b60805160601c60a05160601c60c05160601c6161fe6200076c600039806110c352806151d352508061221652806152e0525080610f17528061144552806119405280611a9a5280612131528061255e528061262252506161fe6000f3fe608060405234801561001057600080fd5b50600436106102065760003560e01c8063a4c0ed361161011a578063c41b813a116100ad578063db30a3861161007c578063db30a38614610caf578063eb5dcd6c14610d44578063f2fde38b14610da8578063faab9d3914610dec578063fecf27c914610e3057610206565b8063c41b813a14610990578063c7c3a19a14610a73578063c804802214610ba4578063da5c674114610bd257610206565b8063b657bc9c116100e9578063b657bc9c14610806578063b79550be14610856578063b7fdb43614610860578063c3f909d41461092e57610206565b8063a4c0ed3614610687578063a710b2211461072a578063ad1783611461078e578063b121e147146107c257610206565b80635c975abb1161019d5780638456cb591161016c5780638456cb591461058f5780638a601fc8146105995780638da5cb5b146105bd57806393f0c1fc146105f1578063948108f71461064157610206565b80635c975abb1461047e578063744bfe611461049e57806379ba5097146104ec5780637bbaf1ea146104f657610206565b80632cb6864d116101d95780632cb6864d146103ad5780633f4ba83a1461040c5780634584a419146104165780634d3f73341461044a57610206565b806315a126ea1461020b578063181f5a771461026a5780631b6b6d23146102ed5780631e12b8a514610321575b600080fd5b610213610e4e565b6040518080602001828103825283818151815260200191508051906020019060200280838360005b8381101561025657808201518184015260208101905061023b565b505050509050019250505060405180910390f35b610272610edc565b6040518080602001828103825283818151815260200191508051906020019080838360005b838110156102b2578082015181840152602081019050610297565b50505050905090810190601f1680156102df5780820380516001836020036101000a031916815260200191505b509250505060405180910390f35b6102f5610f15565b604051808273ffffffffffffffffffffffffffffffffffffffff16815260200191505060405180910390f35b6103636004803603602081101561033757600080fd5b81019080803573ffffffffffffffffffffffffffffffffffffffff169060200190929190505050610f39565b604051808473ffffffffffffffffffffffffffffffffffffffff1681526020018315158152602001826bffffffffffffffffffffffff168152602001935050505060405180910390f35b6103b5611057565b6040518080602001828103825283818151815260200191508051906020019060200280838360005b838110156103f85780820151818401526020810190506103dd565b505050509050019250505060405180910390f35b6104146110af565b005b61041e6110c1565b604051808273ffffffffffffffffffffffffffffffffffffffff16815260200191505060405180910390f35b6104526110e5565b604051808273ffffffffffffffffffffffffffffffffffffffff16815260200191505060405180910390f35b61048661110f565b60405180821515815260200191505060405180910390f35b6104ea600480360360408110156104b457600080fd5b8101908080359060200190929190803573ffffffffffffffffffffffffffffffffffffffff169060200190929190505050611126565b005b6104f4611516565b005b6105776004803603604081101561050c57600080fd5b81019080803590602001909291908035906020019064010000000081111561053357600080fd5b82018360208201111561054557600080fd5b8035906020019184600183028401116401000000008311171561056757600080fd5b90919293919293905050506116de565b60405180821515815260200191505060405180910390f35b610597611742565b005b6105a1611754565b604051808263ffffffff16815260200191505060405180910390f35b6105c5611771565b604051808273ffffffffffffffffffffffffffffffffffffffff16815260200191505060405180910390f35b61061d6004803603602081101561060757600080fd5b810190808035906020019092919050505061179a565b60405180826bffffffffffffffffffffffff16815260200191505060405180910390f35b6106856004803603604081101561065757600080fd5b810190808035906020019092919080356bffffffffffffffffffffffff1690602001909291905050506117cf565b005b6107286004803603606081101561069d57600080fd5b81019080803573ffffffffffffffffffffffffffffffffffffffff16906020019092919080359060200190929190803590602001906401000000008111156106e457600080fd5b8201836020820111156106f657600080fd5b8035906020019184600183028401116401000000008311171561071857600080fd5b9091929391929390505050611a98565b005b61078c6004803603604081101561074057600080fd5b81019080803573ffffffffffffffffffffffffffffffffffffffff169060200190929190803573ffffffffffffffffffffffffffffffffffffffff169060200190929190505050611dbc565b005b610796612214565b604051808273ffffffffffffffffffffffffffffffffffffffff16815260200191505060405180910390f35b610804600480360360208110156107d857600080fd5b81019080803573ffffffffffffffffffffffffffffffffffffffff169060200190929190505050612238565b005b6108326004803603602081101561081c57600080fd5b8101908080359060200190929190505050612514565b60405180826bffffffffffffffffffffffff16815260200191505060405180910390f35b61085e612552565b005b61092c6004803603604081101561087657600080fd5b810190808035906020019064010000000081111561089357600080fd5b8201836020820111156108a557600080fd5b803590602001918460208302840111640100000000831117156108c757600080fd5b9091929391929390803590602001906401000000008111156108e857600080fd5b8201836020820111156108fa57600080fd5b8035906020019184602083028401116401000000008311171561091c57600080fd5b9091929391929390505050612704565b005b610936612ce2565b604051808863ffffffff1681526020018762ffffff1681526020018663ffffffff1681526020018562ffffff1681526020018461ffff16815260200183815260200182815260200197505050505050505060405180910390f35b6109dc600480360360408110156109a657600080fd5b8101908080359060200190929190803573ffffffffffffffffffffffffffffffffffffffff169060200190929190505050612e0c565b6040518080602001868152602001858152602001848152602001838152602001828103825287818151815260200191508051906020019080838360005b83811015610a34578082015181840152602081019050610a19565b50505050905090810190601f168015610a615780820380516001836020036101000a031916815260200191505b50965050505050505060405180910390f35b610a9f60048036036020811015610a8957600080fd5b810190808035906020019092919050505061352c565b604051808873ffffffffffffffffffffffffffffffffffffffff1681526020018763ffffffff16815260200180602001866bffffffffffffffffffffffff1681526020018573ffffffffffffffffffffffffffffffffffffffff1681526020018473ffffffffffffffffffffffffffffffffffffffff1681526020018367ffffffffffffffff168152602001828103825287818151815260200191508051906020019080838360005b83811015610b63578082015181840152602081019050610b48565b50505050905090810190601f168015610b905780820380516001836020036101000a031916815260200191505b509850505050505050505060405180910390f35b610bd060048036036020811015610bba57600080fd5b81019080803590602001909291905050506137d8565b005b610c9960048036036080811015610be857600080fd5b81019080803573ffffffffffffffffffffffffffffffffffffffff169060200190929190803563ffffffff169060200190929190803573ffffffffffffffffffffffffffffffffffffffff16906020019092919080359060200190640100000000811115610c5557600080fd5b820183602082011115610c6757600080fd5b80359060200191846001830284011164010000000083111715610c8957600080fd5b9091929391929390505050613a98565b6040518082815260200191505060405180910390f35b610d426004803603610100811015610cc657600080fd5b81019080803563ffffffff169060200190929190803563ffffffff169060200190929190803562ffffff169060200190929190803563ffffffff169060200190929190803562ffffff169060200190929190803561ffff1690602001909291908035906020019092919080359060200190929190505050613fb1565b005b610da660048036036040811015610d5a57600080fd5b81019080803573ffffffffffffffffffffffffffffffffffffffff169060200190929190803573ffffffffffffffffffffffffffffffffffffffff1690602001909291905050506141c3565b005b610dea60048036036020811015610dbe57600080fd5b81019080803573ffffffffffffffffffffffffffffffffffffffff1690602001909291905050506144ee565b005b610e2e60048036036020811015610e0257600080fd5b81019080803573ffffffffffffffffffffffffffffffffffffffff169060200190929190505050614502565b005b610e3861474d565b6040518082815260200191505060405180910390f35b60606006805480602002602001604051908101604052809291908181526020018280548015610ed257602002820191906000526020600020905b8160009054906101000a900473ffffffffffffffffffffffffffffffffffffffff1673ffffffffffffffffffffffffffffffffffffffff1681526020019060010190808311610e88575b5050505050905090565b6040518060400160405280601481526020017f4b6565706572526567697374727920312e322e3000000000000000000000000081525081565b7f000000000000000000000000000000000000000000000000000000000000000081565b600080600080600860008673ffffffffffffffffffffffffffffffffffffffff1673ffffffffffffffffffffffffffffffffffffffff1681526020019081526020016000206040518060600160405290816000820160009054906101000a900473ffffffffffffffffffffffffffffffffffffffff1673ffffffffffffffffffffffffffffffffffffffff1673ffffffffffffffffffffffffffffffffffffffff1681526020016000820160149054906101000a90046bffffffffffffffffffffffff166bffffffffffffffffffffffff166bffffffffffffffffffffffff1681526020016001820160009054906101000a900460ff1615151515815250509050806000015181604001518260200151935093509350509193909250565b606060058054806020026020016040519081016040528092919081815260200182805480156110a557602002820191906000526020600020905b815481526020019060010190808311611091575b5050505050905090565b6110b7614757565b6110bf61481a565b565b7f000000000000000000000000000000000000000000000000000000000000000081565b6000600f60009054906101000a900473ffffffffffffffffffffffffffffffffffffffff16905090565b6000600360009054906101000a900460ff16905090565b80600073ffffffffffffffffffffffffffffffffffffffff168173ffffffffffffffffffffffffffffffffffffffff1614156111ca576040517f08c379a000000000000000000000000000000000000000000000000000000000815260040180806020018281038252601b8152602001807f63616e6e6f742073656e6420746f207a65726f2061646472657373000000000081525060200191505060405180910390fd5b3373ffffffffffffffffffffffffffffffffffffffff1660076000858152602001908152602001600020600101600c9054906101000a900473ffffffffffffffffffffffffffffffffffffffff1673ffffffffffffffffffffffffffffffffffffffff16146112a1576040517f08c379a00000000000000000000000000000000000000000000000000000000081526004018080602001828103825260168152602001807f6f6e6c792063616c6c61626c652062792061646d696e0000000000000000000081525060200191505060405180910390fd5b436007600085815260200190815260200160002060020160009054906101000a900467ffffffffffffffff1667ffffffffffffffff16111561134b576040517f08c379a00000000000000000000000000000000000000000000000000000000081526004018080602001828103825260178152602001807f75706b656570206d7573742062652063616e63656c656400000000000000000081525060200191505060405180910390fd5b60006007600085815260200190815260200160002060010160009054906101000a90046bffffffffffffffffffffffff166bffffffffffffffffffffffff16905060006007600086815260200190815260200160002060010160006101000a8154816bffffffffffffffffffffffff02191690836bffffffffffffffffffffffff1602179055506113e781600e5461490590919063ffffffff16565b600e81905550837ff3b5906e5672f3e524854103bcafbbdba80dbdfeca2c35e116127b1060a683188285604051808381526020018273ffffffffffffffffffffffffffffffffffffffff1681526020019250505060405180910390a27f000000000000000000000000000000000000000000000000000000000000000073ffffffffffffffffffffffffffffffffffffffff1663a9059cbb84836040518363ffffffff1660e01b8152600401808373ffffffffffffffffffffffffffffffffffffffff16815260200182815260200192505050602060405180830381600087803b1580156114d457600080fd5b505af11580156114e8573d6000803e3d6000fd5b505050506040513d60208110156114fe57600080fd5b81019080805190602001909291905050505050505050565b600160009054906101000a900473ffffffffffffffffffffffffffffffffffffffff1673ffffffffffffffffffffffffffffffffffffffff163373ffffffffffffffffffffffffffffffffffffffff16146115d9576040517f08c379a00000000000000000000000000000000000000000000000000000000081526004018080602001828103825260168152602001807f4d7573742062652070726f706f736564206f776e65720000000000000000000081525060200191505060405180910390fd5b60008060009054906101000a900473ffffffffffffffffffffffffffffffffffffffff169050336000806101000a81548173ffffffffffffffffffffffffffffffffffffffff021916908373ffffffffffffffffffffffffffffffffffffffff1602179055506000600160006101000a81548173ffffffffffffffffffffffffffffffffffffffff021916908373ffffffffffffffffffffffffffffffffffffffff1602179055503373ffffffffffffffffffffffffffffffffffffffff168173ffffffffffffffffffffffffffffffffffffffff167f8be0079c531659141344cd1fd0a4f28419497f9722a3daafe3b4186f6b6457e060405160405180910390a350565b6000611739611734338686868080601f016020809104026020016040519081016040528093929190818152602001838380828437600081840152601f19601f82011690508083019250505050505050600161498e565b614a59565b90509392505050565b61174a614757565b6117526150b4565b565b6000600b60000160049054906101000a900463ffffffff16905090565b60008060009054906101000a900473ffffffffffffffffffffffffffffffffffffffff16905090565b60008060006117a76151a0565b9150915060006117b88360006153f3565b90506117c585828461543c565b9350505050919050565b67ffffffffffffffff80166007600084815260200190815260200160002060020160009054906101000a900467ffffffffffffffff1667ffffffffffffffff1614611882576040517f08c379a00000000000000000000000000000000000000000000000000000000081526004018080602001828103825260158152602001807f75706b656570206d75737420626520616374697665000000000000000000000081525060200191505060405180910390fd5b6118d1816007600085815260200190815260200160002060010160009054906101000a90046bffffffffffffffffffffffff166bffffffffffffffffffffffff1661568790919063ffffffff16565b6007600084815260200190815260200160002060010160006101000a8154816bffffffffffffffffffffffff02191690836bffffffffffffffffffffffff160217905550611938816bffffffffffffffffffffffff16600e5461572b90919063ffffffff16565b600e819055507f000000000000000000000000000000000000000000000000000000000000000073ffffffffffffffffffffffffffffffffffffffff166323b872dd3330846040518463ffffffff1660e01b8152600401808473ffffffffffffffffffffffffffffffffffffffff1681526020018373ffffffffffffffffffffffffffffffffffffffff168152602001826bffffffffffffffffffffffff1681526020019350505050602060405180830381600087803b1580156119fb57600080fd5b505af1158015611a0f573d6000803e3d6000fd5b505050506040513d6020811015611a2557600080fd5b8101908080519060200190929190505050503373ffffffffffffffffffffffffffffffffffffffff16827fafd24114486da8ebfc32f3626dada8863652e187461aa74d4bfa7348915062038360405180826bffffffffffffffffffffffff16815260200191505060405180910390a35050565b7f000000000000000000000000000000000000000000000000000000000000000073ffffffffffffffffffffffffffffffffffffffff163373ffffffffffffffffffffffffffffffffffffffff1614611b59576040517f08c379a000000000000000000000000000000000000000000000000000000000815260040180806020018281038252601a8152602001807f6f6e6c792063616c6c61626c65207468726f756768204c494e4b00000000000081525060200191505060405180910390fd5b60208282905014611bd2576040517f08c379a00000000000000000000000000000000000000000000000000000000081526004018080602001828103825260158152602001807f64617461206d757374206265203332206279746573000000000000000000000081525060200191505060405180910390fd5b600082826020811015611be457600080fd5b8101908080359060200190929190505050905067ffffffffffffffff80166007600083815260200190815260200160002060020160009054906101000a900467ffffffffffffffff1667ffffffffffffffff1614611caa576040517f08c379a00000000000000000000000000000000000000000000000000000000081526004018080602001828103825260158152602001807f75706b656570206d75737420626520616374697665000000000000000000000081525060200191505060405180910390fd5b611cf9846007600084815260200190815260200160002060010160009054906101000a90046bffffffffffffffffffffffff166bffffffffffffffffffffffff1661568790919063ffffffff16565b6007600083815260200190815260200160002060010160006101000a8154816bffffffffffffffffffffffff02191690836bffffffffffffffffffffffff160217905550611d5284600e5461572b90919063ffffffff16565b600e819055508473ffffffffffffffffffffffffffffffffffffffff16817fafd24114486da8ebfc32f3626dada8863652e187461aa74d4bfa7348915062038660405180826bffffffffffffffffffffffff16815260200191505060405180910390a35050505050565b80600073ffffffffffffffffffffffffffffffffffffffff168173ffffffffffffffffffffffffffffffffffffffff161415611e60576040517f08c379a000000000000000000000000000000000000000000000000000000000815260040180806020018281038252601b8152602001807f63616e6e6f742073656e6420746f207a65726f2061646472657373000000000081525060200191505060405180910390fd5b6000600860008573ffffffffffffffffffffffffffffffffffffffff1673ffffffffffffffffffffffffffffffffffffffff1681526020019081526020016000206040518060600160405290816000820160009054906101000a900473ffffffffffffffffffffffffffffffffffffffff1673ffffffffffffffffffffffffffffffffffffffff1673ffffffffffffffffffffffffffffffffffffffff1681526020016000820160149054906101000a90046bffffffffffffffffffffffff166bffffffffffffffffffffffff166bffffffffffffffffffffffff1681526020016001820160009054906101000a900460ff16151515158152505090503373ffffffffffffffffffffffffffffffffffffffff16816000015173ffffffffffffffffffffffffffffffffffffffff1614612002576040517f08c379a00000000000000000000000000000000000000000000000000000000081526004018080602001828103825260168152602001807f6f6e6c792063616c6c61626c652062792070617965650000000000000000000081525060200191505060405180910390fd5b6000600860008673ffffffffffffffffffffffffffffffffffffffff1673ffffffffffffffffffffffffffffffffffffffff16815260200190815260200160002060000160146101000a8154816bffffffffffffffffffffffff02191690836bffffffffffffffffffffffff16021790555061209b81602001516bffffffffffffffffffffffff16600e5461490590919063ffffffff16565b600e819055508273ffffffffffffffffffffffffffffffffffffffff1681602001516bffffffffffffffffffffffff168573ffffffffffffffffffffffffffffffffffffffff167f9819093176a1851202c7bcfa46845809b4e47c261866550e94ed3775d2f4069833604051808273ffffffffffffffffffffffffffffffffffffffff16815260200191505060405180910390a47f000000000000000000000000000000000000000000000000000000000000000073ffffffffffffffffffffffffffffffffffffffff1663a9059cbb8483602001516040518363ffffffff1660e01b8152600401808373ffffffffffffffffffffffffffffffffffffffff168152602001826bffffffffffffffffffffffff16815260200192505050602060405180830381600087803b1580156121d257600080fd5b505af11580156121e6573d6000803e3d6000fd5b505050506040513d60208110156121fc57600080fd5b81019080805190602001909291905050505050505050565b7f000000000000000000000000000000000000000000000000000000000000000081565b3373ffffffffffffffffffffffffffffffffffffffff16600960008373ffffffffffffffffffffffffffffffffffffffff1673ffffffffffffffffffffffffffffffffffffffff16815260200190815260200160002060009054906101000a900473ffffffffffffffffffffffffffffffffffffffff1673ffffffffffffffffffffffffffffffffffffffff1614612338576040517f08c379a000000000000000000000000000000000000000000000000000000000815260040180806020018281038252601f8152602001807f6f6e6c792063616c6c61626c652062792070726f706f7365642070617965650081525060200191505060405180910390fd5b6000600860008373ffffffffffffffffffffffffffffffffffffffff1673ffffffffffffffffffffffffffffffffffffffff16815260200190815260200160002060000160009054906101000a900473ffffffffffffffffffffffffffffffffffffffff16905033600860008473ffffffffffffffffffffffffffffffffffffffff1673ffffffffffffffffffffffffffffffffffffffff16815260200190815260200160002060000160006101000a81548173ffffffffffffffffffffffffffffffffffffffff021916908373ffffffffffffffffffffffffffffffffffffffff1602179055506000600960008473ffffffffffffffffffffffffffffffffffffffff1673ffffffffffffffffffffffffffffffffffffffff16815260200190815260200160002060006101000a81548173ffffffffffffffffffffffffffffffffffffffff021916908373ffffffffffffffffffffffffffffffffffffffff1602179055503373ffffffffffffffffffffffffffffffffffffffff168173ffffffffffffffffffffffffffffffffffffffff168373ffffffffffffffffffffffffffffffffffffffff167f78af32efdcad432315431e9b03d27e6cd98fb79c405fdc5af7c1714d9c0f75b360405160405180910390a45050565b600061254b6007600084815260200190815260200160002060000160149054906101000a900463ffffffff1663ffffffff1661179a565b9050919050565b61255a614757565b60007f000000000000000000000000000000000000000000000000000000000000000073ffffffffffffffffffffffffffffffffffffffff166370a08231306040518263ffffffff1660e01b8152600401808273ffffffffffffffffffffffffffffffffffffffff16815260200191505060206040518083038186803b1580156125e357600080fd5b505afa1580156125f7573d6000803e3d6000fd5b505050506040513d602081101561260d57600080fd5b810190808051906020019092919050505090507f000000000000000000000000000000000000000000000000000000000000000073ffffffffffffffffffffffffffffffffffffffff1663a9059cbb33612672600e548561490590919063ffffffff16565b6040518363ffffffff1660e01b8152600401808373ffffffffffffffffffffffffffffffffffffffff16815260200182815260200192505050602060405180830381600087803b1580156126c557600080fd5b505af11580156126d9573d6000803e3d6000fd5b505050506040513d60208110156126ef57600080fd5b81019080805190602001909291905050505050565b61270c614757565b81819050848490501461276a576040517f08c379a00000000000000000000000000000000000000000000000000000000081526004018080602001828103825260218152602001806161a86021913960400191505060405180910390fd5b60028484905010156127e4576040517f08c379a00000000000000000000000000000000000000000000000000000000081526004018080602001828103825260128152602001807f6e6f7420656e6f756768206b656570657273000000000000000000000000000081525060200191505060405180910390fd5b60005b6006805490508110156128995760006006828154811061280357fe5b9060005260206000200160009054906101000a900473ffffffffffffffffffffffffffffffffffffffff1690506000600860008373ffffffffffffffffffffffffffffffffffffffff1673ffffffffffffffffffffffffffffffffffffffff16815260200190815260200160002060010160006101000a81548160ff0219169083151502179055505080806001019150506127e7565b5060005b84849050811015612c2c5760008585838181106128b657fe5b9050602002013573ffffffffffffffffffffffffffffffffffffffff1690506000600860008373ffffffffffffffffffffffffffffffffffffffff1673ffffffffffffffffffffffffffffffffffffffff168152602001908152602001600020905060008160000160009054906101000a900473ffffffffffffffffffffffffffffffffffffffff169050600086868681811061294f57fe5b9050602002013573ffffffffffffffffffffffffffffffffffffffff169050600073ffffffffffffffffffffffffffffffffffffffff168173ffffffffffffffffffffffffffffffffffffffff1614156129f4576040517f08c379a00000000000000000000000000000000000000000000000000000000081526004018080602001828103825260248152602001806161406024913960400191505060405180910390fd5b600073ffffffffffffffffffffffffffffffffffffffff168273ffffffffffffffffffffffffffffffffffffffff161480612a5a57508073ffffffffffffffffffffffffffffffffffffffff168273ffffffffffffffffffffffffffffffffffffffff16145b80612a90575073ffffffffffffffffffffffffffffffffffffffff80168173ffffffffffffffffffffffffffffffffffffffff16145b612b02576040517f08c379a00000000000000000000000000000000000000000000000000000000081526004018080602001828103825260138152602001807f63616e6e6f74206368616e67652070617965650000000000000000000000000081525060200191505060405180910390fd5b8260010160009054906101000a900460ff1615612b87576040517f08c379a00000000000000000000000000000000000000000000000000000000081526004018080602001828103825260178152602001807f63616e6e6f7420616464206b656570657220747769636500000000000000000081525060200191505060405180910390fd5b60018360010160006101000a81548160ff02191690831515021790555073ffffffffffffffffffffffffffffffffffffffff80168173ffffffffffffffffffffffffffffffffffffffff1614612c1b57808360000160006101000a81548173ffffffffffffffffffffffffffffffffffffffff021916908373ffffffffffffffffffffffffffffffffffffffff1602179055505b50505050808060010191505061289d565b50838360069190612c3e929190615fa1565b507f056264c94f28bb06c99d13f0446eb96c67c215d8d707bce2655a98ddf1c0b71f848484846040518080602001806020018381038352878782818152602001925060200280828437600081840152601f19601f8201169050808301925050508381038252858582818152602001925060200280828437600081840152601f19601f820116905080830192505050965050505050505060405180910390a150505050565b600080600080600080600080600b6040518060c00160405290816000820160009054906101000a900463ffffffff1663ffffffff1663ffffffff1681526020016000820160049054906101000a900463ffffffff1663ffffffff1663ffffffff1681526020016000820160089054906101000a900462ffffff1662ffffff1662ffffff16815260200160008201600b9054906101000a900463ffffffff1663ffffffff1663ffffffff16815260200160008201600f9054906101000a900462ffffff1662ffffff1662ffffff1681526020016000820160129054906101000a900461ffff1661ffff1661ffff1681525050905080600001518160400151826060015183608001518460a00151600c54600d5497509750975097509750975097505090919293949596565b6060600080600080612e1c61110f565b15612e8f576040517f08c379a00000000000000000000000000000000000000000000000000000000081526004018080602001828103825260108152602001807f5061757361626c653a207061757365640000000000000000000000000000000081525060200191505060405180910390fd5b612e976157b3565b6000600760008981526020019081526020016000206040518060c00160405290816000820160009054906101000a900473ffffffffffffffffffffffffffffffffffffffff1673ffffffffffffffffffffffffffffffffffffffff1673ffffffffffffffffffffffffffffffffffffffff1681526020016000820160149054906101000a900463ffffffff1663ffffffff1663ffffffff1681526020016001820160009054906101000a90046bffffffffffffffffffffffff166bffffffffffffffffffffffff166bffffffffffffffffffffffff16815260200160018201600c9054906101000a900473ffffffffffffffffffffffffffffffffffffffff1673ffffffffffffffffffffffffffffffffffffffff1673ffffffffffffffffffffffffffffffffffffffff1681526020016002820160009054906101000a900467ffffffffffffffff1667ffffffffffffffff1667ffffffffffffffff1681526020016002820160089054906101000a900473ffffffffffffffffffffffffffffffffffffffff1673ffffffffffffffffffffffffffffffffffffffff1673ffffffffffffffffffffffffffffffffffffffff168152505090506000636e04ff0d60e01b600a60008b815260200190815260200160002060405160240180806020018281038252838181546001816001161561010002031660029004815260200191508054600181600116156101000203166002900480156130fa5780601f106130cf576101008083540402835291602001916130fa565b820191906000526020600020905b8154815290600101906020018083116130dd57829003601f168201915b505092505050604051602081830303815290604052907bffffffffffffffffffffffffffffffffffffffffffffffffffffffff19166020820180517bffffffffffffffffffffffffffffffffffffffffffffffffffffffff83818316178352505050509050600080836000015173ffffffffffffffffffffffffffffffffffffffff16600b600001600b9054906101000a900463ffffffff1663ffffffff16846040518082805190602001908083835b602083106131cd57805182526020820191506020810190506020830392506131aa565b6001836020036101000a03801982511681845116808217855250505050505090500191505060006040518083038160008787f1925050503d8060008114613230576040519150601f19603f3d011682016040523d82523d6000602084013e613235565b606091505b50915091508161338557600061324a82615857565b905060008160405160200180807f63616c6c20746f20636865636b20746172676574206661696c65643a20000000815250601d0182805190602001908083835b602083106132ad578051825260208201915060208101905060208303925061328a565b6001836020036101000a0380198251168184511680821785525050505050509050019150506040516020818303038152906040529050806040517f08c379a00000000000000000000000000000000000000000000000000000000081526004018080602001828103825283818151815260200191508051906020019080838360005b8381101561334a57808201518184015260208101905061332f565b50505050905090810190601f1680156133775780820380516001836020036101000a031916815260200191505b509250505060405180910390fd5b80806020019051604081101561339a57600080fd5b8101908080519060200190929190805160405193929190846401000000008211156133c457600080fd5b838201915060208201858111156133da57600080fd5b82518660018202830111640100000000821117156133f757600080fd5b8083526020830192505050908051906020019080838360005b8381101561342b578082015181840152602081019050613410565b50505050905090810190601f1680156134585780820380516001836020036101000a031916815260200191505b50604052505050809a508193505050816134da576040517f08c379a00000000000000000000000000000000000000000000000000000000081526004018080602001828103825260118152602001807f75706b656570206e6f74206e656564656400000000000000000000000000000081525060200191505060405180910390fd5b60006134e98b8d8c600061498e565b90506134fe858260000151836060015161597e565b89816060015182608001518360a001518460c001519950995099509950995050505050509295509295909350565b60008060606000806000806000600760008a81526020019081526020016000206040518060c00160405290816000820160009054906101000a900473ffffffffffffffffffffffffffffffffffffffff1673ffffffffffffffffffffffffffffffffffffffff1673ffffffffffffffffffffffffffffffffffffffff1681526020016000820160149054906101000a900463ffffffff1663ffffffff1663ffffffff1681526020016001820160009054906101000a90046bffffffffffffffffffffffff166bffffffffffffffffffffffff166bffffffffffffffffffffffff16815260200160018201600c9054906101000a900473ffffffffffffffffffffffffffffffffffffffff1673ffffffffffffffffffffffffffffffffffffffff1673ffffffffffffffffffffffffffffffffffffffff1681526020016002820160009054906101000a900467ffffffffffffffff1667ffffffffffffffff1667ffffffffffffffff1681526020016002820160089054906101000a900473ffffffffffffffffffffffffffffffffffffffff1673ffffffffffffffffffffffffffffffffffffffff1673ffffffffffffffffffffffffffffffffffffffff1681525050905080600001518160200151600a60008c815260200190815260200160002083604001518460a0015185606001518660800151848054600181600116156101000203166002900480601f0160208091040260200160405190810160405280929190818152602001828054600181600116156101000203166002900480156137b75780601f1061378c576101008083540402835291602001916137b7565b820191906000526020600020905b81548152906001019060200180831161379a57829003601f168201915b50505050509450975097509750975097509750975050919395979092949650565b60006007600083815260200190815260200160002060020160009054906101000a900467ffffffffffffffff169050600067ffffffffffffffff80168267ffffffffffffffff16149050600061382c611771565b73ffffffffffffffffffffffffffffffffffffffff163373ffffffffffffffffffffffffffffffffffffffff16149050818061387a57508080156138795750438367ffffffffffffffff16115b5b6138ec576040517f08c379a00000000000000000000000000000000000000000000000000000000081526004018080602001828103825260198152602001807f746f6f206c61746520746f2063616e63656c2075706b6565700000000000000081525060200191505060405180910390fd5b8080613959575060076000858152602001908152602001600020600101600c9054906101000a900473ffffffffffffffffffffffffffffffffffffffff1673ffffffffffffffffffffffffffffffffffffffff163373ffffffffffffffffffffffffffffffffffffffff16145b6139cb576040517f08c379a00000000000000000000000000000000000000000000000000000000081526004018080602001828103825260138152602001807f6f6e6c79206f776e6572206f722061646d696e0000000000000000000000000081525060200191505060405180910390fd5b6000439050816139ec576139e960328261572b90919063ffffffff16565b90505b806007600087815260200190815260200160002060020160006101000a81548167ffffffffffffffff021916908367ffffffffffffffff1602179055508215613a595760058590806001815401808255809150506001900390600052602060002001600090919091909150555b8067ffffffffffffffff16857f91cb3bb75cfbd718bbfccc56b7f53d92d7048ef4ca39a3b7b7c6d4af1f79118160405160405180910390a35050505050565b6000613aa2611771565b73ffffffffffffffffffffffffffffffffffffffff163373ffffffffffffffffffffffffffffffffffffffff161480613b285750600f60009054906101000a900473ffffffffffffffffffffffffffffffffffffffff1673ffffffffffffffffffffffffffffffffffffffff163373ffffffffffffffffffffffffffffffffffffffff16145b613b7d576040517f08c379a00000000000000000000000000000000000000000000000000000000081526004018080602001828103825260238152602001806161646023913960400191505060405180910390fd5b613b9c8673ffffffffffffffffffffffffffffffffffffffff16615b73565b613c0e576040517f08c379a00000000000000000000000000000000000000000000000000000000081526004018080602001828103825260188152602001807f746172676574206973206e6f74206120636f6e7472616374000000000000000081525060200191505060405180910390fd5b6108fc8563ffffffff161015613c8c576040517f08c379a000000000000000000000000000000000000000000000000000000000815260040180806020018281038252600f8152602001807f6d696e206761732069732032333030000000000000000000000000000000000081525060200191505060405180910390fd5b624c4b408563ffffffff161115613d0b576040517f08c379a00000000000000000000000000000000000000000000000000000000081526004018080602001828103825260128152602001807f6d6178206761732069732035303030303030000000000000000000000000000081525060200191505060405180910390fd5b60045490506040518060c001604052808773ffffffffffffffffffffffffffffffffffffffff1681526020018663ffffffff16815260200160006bffffffffffffffffffffffff1681526020018573ffffffffffffffffffffffffffffffffffffffff16815260200167ffffffffffffffff80168152602001600073ffffffffffffffffffffffffffffffffffffffff168152506007600083815260200190815260200160002060008201518160000160006101000a81548173ffffffffffffffffffffffffffffffffffffffff021916908373ffffffffffffffffffffffffffffffffffffffff16021790555060208201518160000160146101000a81548163ffffffff021916908363ffffffff16021790555060408201518160010160006101000a8154816bffffffffffffffffffffffff02191690836bffffffffffffffffffffffff160217905550606082015181600101600c6101000a81548173ffffffffffffffffffffffffffffffffffffffff021916908373ffffffffffffffffffffffffffffffffffffffff16021790555060808201518160020160006101000a81548167ffffffffffffffff021916908367ffffffffffffffff16021790555060a08201518160020160086101000a81548173ffffffffffffffffffffffffffffffffffffffff021916908373ffffffffffffffffffffffffffffffffffffffff1602179055509050508282600a60008481526020019081526020016000209190613f39929190616041565b50600460008154809291906001019190505550807fbae366358c023f887e791d7a62f2e4316f1026bd77f6fb49501a917b3bc5d0128686604051808363ffffffff1681526020018273ffffffffffffffffffffffffffffffffffffffff1681526020019250505060405180910390a295945050505050565b613fb9614757565b6040518060c001604052808963ffffffff1681526020018863ffffffff1681526020018762ffffff1681526020018663ffffffff1681526020018562ffffff1681526020018461ffff16815250600b60008201518160000160006101000a81548163ffffffff021916908363ffffffff16021790555060208201518160000160046101000a81548163ffffffff021916908363ffffffff16021790555060408201518160000160086101000a81548162ffffff021916908362ffffff160217905550606082015181600001600b6101000a81548163ffffffff021916908363ffffffff160217905550608082015181600001600f6101000a81548162ffffff021916908362ffffff16021790555060a08201518160000160126101000a81548161ffff021916908361ffff16021790555090505081600c8190555080600d819055507feb3c06937e6595fd80ec1add18a195026d5cf65f122cc3ffedbfb18a9ed80b3988878787878787604051808863ffffffff1681526020018762ffffff1681526020018663ffffffff1681526020018562ffffff1681526020018461ffff16815260200183815260200182815260200197505050505050505060405180910390a17f17b46a44a823646eef686b7824df2962de896bc9a012a60b67694c5cbf184d8b87604051808263ffffffff16815260200191505060405180910390a15050505050505050565b3373ffffffffffffffffffffffffffffffffffffffff16600860008473ffffffffffffffffffffffffffffffffffffffff1673ffffffffffffffffffffffffffffffffffffffff16815260200190815260200160002060000160009054906101000a900473ffffffffffffffffffffffffffffffffffffffff1673ffffffffffffffffffffffffffffffffffffffff16146142c6576040517f08c379a00000000000000000000000000000000000000000000000000000000081526004018080602001828103825260168152602001807f6f6e6c792063616c6c61626c652062792070617965650000000000000000000081525060200191505060405180910390fd5b3373ffffffffffffffffffffffffffffffffffffffff168173ffffffffffffffffffffffffffffffffffffffff161415614368576040517f08c379a00000000000000000000000000000000000000000000000000000000081526004018080602001828103825260178152602001807f63616e6e6f74207472616e7366657220746f2073656c6600000000000000000081525060200191505060405180910390fd5b8073ffffffffffffffffffffffffffffffffffffffff16600960008473ffffffffffffffffffffffffffffffffffffffff1673ffffffffffffffffffffffffffffffffffffffff16815260200190815260200160002060009054906101000a900473ffffffffffffffffffffffffffffffffffffffff1673ffffffffffffffffffffffffffffffffffffffff16146144ea5780600960008473ffffffffffffffffffffffffffffffffffffffff1673ffffffffffffffffffffffffffffffffffffffff16815260200190815260200160002060006101000a81548173ffffffffffffffffffffffffffffffffffffffff021916908373ffffffffffffffffffffffffffffffffffffffff1602179055508073ffffffffffffffffffffffffffffffffffffffff163373ffffffffffffffffffffffffffffffffffffffff168373ffffffffffffffffffffffffffffffffffffffff167f84f7c7c80bb8ed2279b4aab5f61cd05e6374073d38f46d7f32de8c30e9e3836760405160405180910390a45b5050565b6144f6614757565b6144ff81615b86565b50565b61450a611771565b73ffffffffffffffffffffffffffffffffffffffff163373ffffffffffffffffffffffffffffffffffffffff1614806145905750600f60009054906101000a900473ffffffffffffffffffffffffffffffffffffffff1673ffffffffffffffffffffffffffffffffffffffff163373ffffffffffffffffffffffffffffffffffffffff16145b6145e5576040517f08c379a00000000000000000000000000000000000000000000000000000000081526004018080602001828103825260238152602001806161646023913960400191505060405180910390fd5b6000600f60009054906101000a900473ffffffffffffffffffffffffffffffffffffffff1690508073ffffffffffffffffffffffffffffffffffffffff168273ffffffffffffffffffffffffffffffffffffffff1614156146ae576040517f08c379a000000000000000000000000000000000000000000000000000000000815260040180806020018281038252600e8152602001807f53616d652072656769737472617200000000000000000000000000000000000081525060200191505060405180910390fd5b81600f60006101000a81548173ffffffffffffffffffffffffffffffffffffffff021916908373ffffffffffffffffffffffffffffffffffffffff1602179055508173ffffffffffffffffffffffffffffffffffffffff168173ffffffffffffffffffffffffffffffffffffffff167f9bf4a5b30267728df68663e14adb47e559863967c419dc6030638883408bed2e60405160405180910390a35050565b6000600454905090565b60008054906101000a900473ffffffffffffffffffffffffffffffffffffffff1673ffffffffffffffffffffffffffffffffffffffff163373ffffffffffffffffffffffffffffffffffffffff1614614818576040517f08c379a00000000000000000000000000000000000000000000000000000000081526004018080602001828103825260168152602001807f4f6e6c792063616c6c61626c65206279206f776e65720000000000000000000081525060200191505060405180910390fd5b565b61482261110f565b614894576040517f08c379a00000000000000000000000000000000000000000000000000000000081526004018080602001828103825260148152602001807f5061757361626c653a206e6f742070617573656400000000000000000000000081525060200191505060405180910390fd5b6000600360006101000a81548160ff0219169083151502179055507f5db9ee0a495bf2e6ff9c91a7834c1ba4fdd244a5e8aa4e537bd38aeae4b073aa6148d8615ce6565b604051808273ffffffffffffffffffffffffffffffffffffffff16815260200191505060405180910390a1565b60008282111561497d576040517f08c379a000000000000000000000000000000000000000000000000000000000815260040180806020018281038252601e8152602001807f536166654d6174683a207375627472616374696f6e206f766572666c6f77000081525060200191505060405180910390fd5b600082840390508091505092915050565b6149966160cf565b60006007600086815260200190815260200160002060000160149054906101000a900463ffffffff1663ffffffff1690506000806149d26151a0565b9150915060006149e283876153f3565b905060006149f185838561543c565b90506040518060e001604052808b73ffffffffffffffffffffffffffffffffffffffff1681526020018a8152602001898152602001826bffffffffffffffffffffffff1681526020018681526020018381526020018481525095505050505050949350505050565b6000600280541415614ad3576040517f08c379a000000000000000000000000000000000000000000000000000000000815260040180806020018281038252601f8152602001807f5265656e7472616e637947756172643a207265656e7472616e742063616c6c0081525060200191505060405180910390fd5b600280819055508160200151614ae881615cee565b600060076000856020015181526020019081526020016000206040518060c00160405290816000820160009054906101000a900473ffffffffffffffffffffffffffffffffffffffff1673ffffffffffffffffffffffffffffffffffffffff1673ffffffffffffffffffffffffffffffffffffffff1681526020016000820160149054906101000a900463ffffffff1663ffffffff1663ffffffff1681526020016001820160009054906101000a90046bffffffffffffffffffffffff166bffffffffffffffffffffffff166bffffffffffffffffffffffff16815260200160018201600c9054906101000a900473ffffffffffffffffffffffffffffffffffffffff1673ffffffffffffffffffffffffffffffffffffffff1673ffffffffffffffffffffffffffffffffffffffff1681526020016002820160009054906101000a900467ffffffffffffffff1667ffffffffffffffff1667ffffffffffffffff1681526020016002820160089054906101000a900473ffffffffffffffffffffffffffffffffffffffff1673ffffffffffffffffffffffffffffffffffffffff1673ffffffffffffffffffffffffffffffffffffffff16815250509050614cb9818560000151866060015161597e565b60005a90506000634585e33b60e01b86604001516040516024018080602001828103825283818151815260200191508051906020019080838360005b83811015614d10578082015181840152602081019050614cf5565b50505050905090810190601f168015614d3d5780820380516001836020036101000a031916815260200191505b5092505050604051602081830303815290604052907bffffffffffffffffffffffffffffffffffffffffffffffffffffffff19166020820180517bffffffffffffffffffffffffffffffffffffffffffffffffffffffff83818316178352505050509050614db48660800151846000015183615d9a565b94505a820391506000614dd0838860a001518960c0015161543c565b90506000614e2782600760008b60200151815260200190815260200160002060010160009054906101000a90046bffffffffffffffffffffffff166bffffffffffffffffffffffff16615de790919063ffffffff16565b905080600760008a60200151815260200190815260200160002060010160006101000a8154816bffffffffffffffffffffffff02191690836bffffffffffffffffffffffff1602179055508760000151600760008a60200151815260200190815260200160002060020160086101000a81548173ffffffffffffffffffffffffffffffffffffffff021916908373ffffffffffffffffffffffffffffffffffffffff1602179055506000614f5083600860008c6000015173ffffffffffffffffffffffffffffffffffffffff1673ffffffffffffffffffffffffffffffffffffffff16815260200190815260200160002060000160149054906101000a90046bffffffffffffffffffffffff166bffffffffffffffffffffffff1661568790919063ffffffff16565b905080600860008b6000015173ffffffffffffffffffffffffffffffffffffffff1673ffffffffffffffffffffffffffffffffffffffff16815260200190815260200160002060000160146101000a8154816bffffffffffffffffffffffff02191690836bffffffffffffffffffffffff160217905550886000015173ffffffffffffffffffffffffffffffffffffffff168815158a602001517fcaacad83e47cc45c280d487ec84184eee2fa3b54ebaa393bda7549f13da228f6868d6040015160405180836bffffffffffffffffffffffff16815260200180602001828103825283818151815260200191508051906020019080838360005b8381101561506557808201518184015260208101905061504a565b50505050905090810190601f1680156150925780820380516001836020036101000a031916815260200191505b50935050505060405180910390a4505050505050506001600281905550919050565b6150bc61110f565b1561512f576040517f08c379a00000000000000000000000000000000000000000000000000000000081526004018080602001828103825260108152602001807f5061757361626c653a207061757365640000000000000000000000000000000081525060200191505060405180910390fd5b6001600360006101000a81548160ff0219169083151502179055507f62e78cea01bee320cd4e420270b5ea74000d11b0c9f74754ebdbfc544b05a258615173615ce6565b604051808273ffffffffffffffffffffffffffffffffffffffff16815260200191505060405180910390a1565b6000806000600b600001600f9054906101000a900462ffffff1662ffffff1690506000808263ffffffff161190506000807f000000000000000000000000000000000000000000000000000000000000000073ffffffffffffffffffffffffffffffffffffffff1663feaf968c6040518163ffffffff1660e01b815260040160a06040518083038186803b15801561523757600080fd5b505afa15801561524b573d6000803e3d6000fd5b505050506040513d60a081101561526157600080fd5b81019080805190602001909291908051906020019092919080519060200190929190805190602001909291908051906020019092919050505090919293509091505080935081925050508280156152bf57508142038463ffffffff16105b806152cb575060008113155b156152da57600c5495506152de565b8095505b7f000000000000000000000000000000000000000000000000000000000000000073ffffffffffffffffffffffffffffffffffffffff1663feaf968c6040518163ffffffff1660e01b815260040160a06040518083038186803b15801561534457600080fd5b505afa158015615358573d6000803e3d6000fd5b505050506040513d60a081101561536e57600080fd5b81019080805190602001909291908051906020019092919080519060200190929190805190602001909291908051906020019092919050505090919293509091505080935081925050508280156153cc57508142038463ffffffff16105b806153d8575060008113155b156153e757600d5494506153eb565b8094505b505050509091565b600061541f600b60000160129054906101000a900461ffff1661ffff1684615e8c90919063ffffffff16565b905081801561542d5750803a105b15615436573a90505b92915050565b600080600b6040518060c00160405290816000820160009054906101000a900463ffffffff1663ffffffff1663ffffffff1681526020016000820160049054906101000a900463ffffffff1663ffffffff1663ffffffff1681526020016000820160089054906101000a900462ffffff1662ffffff1662ffffff16815260200160008201600b9054906101000a900463ffffffff1663ffffffff1663ffffffff16815260200160008201600f9054906101000a900462ffffff1662ffffff1662ffffff1681526020016000820160129054906101000a900461ffff1661ffff1661ffff168152505090506000615550615541620138808861572b90919063ffffffff16565b86615e8c90919063ffffffff16565b90506000615575836000015163ffffffff16633b9aca0061572b90919063ffffffff16565b905060006155e761559e64e8d4a51000866020015163ffffffff16615e8c90919063ffffffff16565b6155d9886155cb866155bd633b9aca008a615e8c90919063ffffffff16565b615e8c90919063ffffffff16565b615f1290919063ffffffff16565b61572b90919063ffffffff16565b90506b033b2e3c9fd0803ce80000006bffffffffffffffffffffffff16811115615679576040517f08c379a000000000000000000000000000000000000000000000000000000000815260040180806020018281038252601d8152602001807f7061796d656e742067726561746572207468616e20616c6c204c494e4b00000081525060200191505060405180910390fd5b809450505050509392505050565b6000808284019050836bffffffffffffffffffffffff16816bffffffffffffffffffffffff161015615721576040517f08c379a000000000000000000000000000000000000000000000000000000000815260040180806020018281038252601b8152602001807f536166654d6174683a206164646974696f6e206f766572666c6f77000000000081525060200191505060405180910390fd5b8091505092915050565b6000808284019050838110156157a9576040517f08c379a000000000000000000000000000000000000000000000000000000000815260040180806020018281038252601b8152602001807f536166654d6174683a206164646974696f6e206f766572666c6f77000000000081525060200191505060405180910390fd5b8091505092915050565b600073ffffffffffffffffffffffffffffffffffffffff163273ffffffffffffffffffffffffffffffffffffffff1614615855576040517f08c379a000000000000000000000000000000000000000000000000000000000815260040180806020018281038252601a8152602001807f6f6e6c7920666f722073696d756c61746564206261636b656e6400000000000081525060200191505060405180910390fd5b565b60606044825110156158a0576040518060400160405280601d81526020017f7472616e73616374696f6e2072657665727465642073696c656e746c790000008152509050615979565b6004820191508180602001905160208110156158bb57600080fd5b81019080805160405193929190846401000000008211156158db57600080fd5b838201915060208201858111156158f157600080fd5b825186600182028301116401000000008211171561590e57600080fd5b8083526020830192505050908051906020019080838360005b83811015615942578082015181840152602081019050615927565b50505050905090810190601f16801561596f5780820380516001836020036101000a031916815260200191505b5060405250505090505b919050565b600860008373ffffffffffffffffffffffffffffffffffffffff1673ffffffffffffffffffffffffffffffffffffffff16815260200190815260200160002060010160009054906101000a900460ff16615a40576040517f08c379a00000000000000000000000000000000000000000000000000000000081526004018080602001828103825260138152602001807f6f6e6c7920616374697665206b6565706572730000000000000000000000000081525060200191505060405180910390fd5b8083604001516bffffffffffffffffffffffff161015615ac8576040517f08c379a00000000000000000000000000000000000000000000000000000000081526004018080602001828103825260128152602001807f696e73756666696369656e742066756e6473000000000000000000000000000081525060200191505060405180910390fd5b8173ffffffffffffffffffffffffffffffffffffffff168360a0015173ffffffffffffffffffffffffffffffffffffffff161415615b6e576040517f08c379a00000000000000000000000000000000000000000000000000000000081526004018080602001828103825260178152602001807f6b656570657273206d7573742074616b65207475726e7300000000000000000081525060200191505060405180910390fd5b505050565b600080823b905060008111915050919050565b3373ffffffffffffffffffffffffffffffffffffffff168173ffffffffffffffffffffffffffffffffffffffff161415615c28576040517f08c379a00000000000000000000000000000000000000000000000000000000081526004018080602001828103825260178152602001807f43616e6e6f74207472616e7366657220746f2073656c6600000000000000000081525060200191505060405180910390fd5b80600160006101000a81548173ffffffffffffffffffffffffffffffffffffffff021916908373ffffffffffffffffffffffffffffffffffffffff1602179055508073ffffffffffffffffffffffffffffffffffffffff1660008054906101000a900473ffffffffffffffffffffffffffffffffffffffff1673ffffffffffffffffffffffffffffffffffffffff167fed8889f560326eb138920d842192f0eb3dd22b4f139c87a2c57538e05bae127860405160405180910390a350565b600033905090565b436007600083815260200190815260200160002060020160009054906101000a900467ffffffffffffffff1667ffffffffffffffff1611615d97576040517f08c379a00000000000000000000000000000000000000000000000000000000081526004018080602001828103825260118152602001807f696e76616c69642075706b65657020696400000000000000000000000000000081525060200191505060405180910390fd5b50565b60005a611388811015615dac57600080fd5b611388810390508460408204820311615dc457600080fd5b833b615dcf57600080fd5b6000808451602086016000888af19150509392505050565b6000826bffffffffffffffffffffffff16826bffffffffffffffffffffffff161115615e7b576040517f08c379a000000000000000000000000000000000000000000000000000000000815260040180806020018281038252601e8152602001807f536166654d6174683a207375627472616374696f6e206f766572666c6f77000081525060200191505060405180910390fd5b600082840390508091505092915050565b600080831415615e9f5760009050615f0c565b6000828402905082848281615eb057fe5b0414615f07576040517f08c379a00000000000000000000000000000000000000000000000000000000081526004018080602001828103825260218152602001806161876021913960400191505060405180910390fd5b809150505b92915050565b6000808211615f89576040517f08c379a000000000000000000000000000000000000000000000000000000000815260040180806020018281038252601a8152602001807f536166654d6174683a206469766973696f6e206279207a65726f00000000000081525060200191505060405180910390fd5b6000828481615f9457fe5b0490508091505092915050565b828054828255906000526020600020908101928215616030579160200282015b8281111561602f57823573ffffffffffffffffffffffffffffffffffffffff168260006101000a81548173ffffffffffffffffffffffffffffffffffffffff021916908373ffffffffffffffffffffffffffffffffffffffff16021790555091602001919060010190615fc1565b5b50905061603d9190616122565b5090565b828054600181600116156101000203166002900490600052602060002090601f01602090048101928261607757600085556160be565b82601f1061609057803560ff19168380011785556160be565b828001600101855582156160be579182015b828111156160bd5782358255916020019190600101906160a2565b5b5090506160cb9190616122565b5090565b6040518060e00160405280600073ffffffffffffffffffffffffffffffffffffffff1681526020016000815260200160608152602001600081526020016000815260200160008152602001600081525090565b5b8082111561613b576000816000905550600101616123565b509056fe63616e6e6f742073657420706179656520746f20746865207a65726f20616464726573734f6e6c792063616c6c61626c65206279206f776e6572206f7220726567697374726172536166654d6174683a206d756c7469706c69636174696f6e206f766572666c6f7761646472657373206c69737473206e6f74207468652073616d65206c656e677468a2646970667358221220e6ec11caafc34abb4d3bb25dcd03ecb6ad8f721ba168c84427197766973355b764736f6c63430007060033",
  "linkReferences": {},
  "deployedLinkReferences": {}
}