{
  "_format": "hh-sol-artifact-1",
  "contractName": "UpkeepReverter",
  "sourceName": "contracts/chainlink/tests/UpkeepReverter.sol",
  "abi": [
    {
      "inputs": [
        {
          "internalType": "bytes",
          "name": "data",
          "type": "bytes"
        }
      ],
      "name": "checkUpkeep",
      "outputs": [
        {
          "internalType": "bool",
          "name": "callable",
          "type": "bool"
        },
        {
          "internalType": "bytes",
          "name": "executedata",
          "type": "bytes"
        }
      ],
      "stateMutability": "view",
      "type": "function"
    },
    {
      "inputs": [
        {
          "internalType": "bytes",
          "name": "",
          "type": "bytes"
        }
      ],
      "name": "performUpkeep",
      "outputs": [],
      "stateMutability": "pure",
      "type": "function"
    }
  ],
  "bytecode": "0x608060405234801561001057600080fd5b50610359806100206000396000f3fe608060405234801561001057600080fd5b50600436106100365760003560e01c80634585e33b1461003b5780636e04ff0d146100b4575b600080fd5b6100b26004803603602081101561005157600080fd5b810190808035906020019064010000000081111561006e57600080fd5b82018360208201111561008057600080fd5b803590602001918460018302840111640100000000831117156100a257600080fd5b9091929391929390505050610175565b005b61012b600480360360208110156100ca57600080fd5b81019080803590602001906401000000008111156100e757600080fd5b8201836020820111156100f957600080fd5b8035906020019184600183028401116401000000008311171561011b57600080fd5b90919293919293905050506101ed565b604051808415158152602001806020018281038252848482818152602001925080828437600081840152601f19601f82011690508083019250505094505050505060405180910390f35b60006101e9576040517f08c379a00000000000000000000000000000000000000000000000000000000081526004018080602001828103825260088152602001807f21776f726b696e6700000000000000000000000000000000000000000000000081525060200191505060405180910390fd5b5050565b60003660006101fa61027f565b600061026e576040517f08c379a00000000000000000000000000000000000000000000000000000000081526004018080602001828103825260088152602001807f21776f726b696e6700000000000000000000000000000000000000000000000081525060200191505060405180910390fd5b600185859250925092509250925092565b600073ffffffffffffffffffffffffffffffffffffffff163273ffffffffffffffffffffffffffffffffffffffff1614610321576040517f08c379a000000000000000000000000000000000000000000000000000000000815260040180806020018281038252601a8152602001807f6f6e6c7920666f722073696d756c61746564206261636b656e6400000000000081525060200191505060405180910390fd5b56fea2646970667358221220bf8ded829ec448398e7453b29177df113763047cc957126be889971a0aedda5d64736f6c63430007060033",
  "linkReferences": {},
  "deployedLinkReferences": {}
}