{
  "_format": "hh-sol-artifact-1",
  "contractName": "MultiWordConsumer",
  "sourceName": "contracts/chainlink/tests/MultiWordConsumer.sol",
  "abi": [
    {
      "inputs": [
        {
          "internalType": "address",
          "name": "_link",
          "type": "address"
        },
        {
          "internalType": "address",
          "name": "_oracle",
          "type": "address"
        },
        {
          "internalType": "bytes32",
          "name": "_specId",
          "type": "bytes32"
        }
      ],
      "stateMutability": "nonpayable",
      "type": "constructor"
    },
    {
      "anonymous": false,
      "inputs": [
        {
          "indexed": true,
          "internalType": "bytes32",
          "name": "id",
          "type": "bytes32"
        }
      ],
      "name": "ChainlinkCancelled",
      "type": "event"
    },
    {
      "anonymous": false,
      "inputs": [
        {
          "indexed": true,
          "internalType": "bytes32",
          "name": "id",
          "type": "bytes32"
        }
      ],
      "name": "ChainlinkFulfilled",
      "type": "event"
    },
    {
      "anonymous": false,
      "inputs": [
        {
          "indexed": true,
          "internalType": "bytes32",
          "name": "id",
          "type": "bytes32"
        }
      ],
      "name": "ChainlinkRequested",
      "type": "event"
    },
    {
      "anonymous": false,
      "inputs": [
        {
          "indexed": true,
          "internalType": "bytes32",
          "name": "requestId",
          "type": "bytes32"
        },
        {
          "indexed": true,
          "internalType": "bytes",
          "name": "price",
          "type": "bytes"
        }
      ],
      "name": "RequestFulfilled",
      "type": "event"
    },
    {
      "anonymous": false,
      "inputs": [
        {
          "indexed": true,
          "internalType": "bytes32",
          "name": "requestId",
          "type": "bytes32"
        },
        {
          "indexed": true,
          "internalType": "bytes32",
          "name": "usd",
          "type": "bytes32"
        },
        {
          "indexed": true,
          "internalType": "bytes32",
          "name": "eur",
          "type": "bytes32"
        },
        {
          "indexed": false,
          "internalType": "bytes32",
          "name": "jpy",
          "type": "bytes32"
        }
      ],
      "name": "RequestMultipleFulfilled",
      "type": "event"
    },
    {
      "anonymous": false,
      "inputs": [
        {
          "indexed": true,
          "internalType": "bytes32",
          "name": "requestId",
          "type": "bytes32"
        },
        {
          "indexed": true,
          "internalType": "uint256",
          "name": "usd",
          "type": "uint256"
        },
        {
          "indexed": true,
          "internalType": "uint256",
          "name": "eur",
          "type": "uint256"
        },
        {
          "indexed": false,
          "internalType": "uint256",
          "name": "jpy",
          "type": "uint256"
        }
      ],
      "name": "RequestMultipleFulfilledWithCustomURLs",
      "type": "event"
    },
    {
      "inputs": [
        {
          "internalType": "address",
          "name": "_oracle",
          "type": "address"
        },
        {
          "internalType": "bytes32",
          "name": "_requestId",
          "type": "bytes32"
        }
      ],
      "name": "addExternalRequest",
      "outputs": [],
      "stateMutability": "nonpayable",
      "type": "function"
    },
    {
      "inputs": [
        {
          "internalType": "address",
          "name": "_oracle",
          "type": "address"
        },
        {
          "internalType": "bytes32",
          "name": "_requestId",
          "type": "bytes32"
        },
        {
          "internalType": "uint256",
          "name": "_payment",
          "type": "uint256"
        },
        {
          "internalType": "bytes4",
          "name": "_callbackFunctionId",
          "type": "bytes4"
        },
        {
          "internalType": "uint256",
          "name": "_expiration",
          "type": "uint256"
        }
      ],
      "name": "cancelRequest",
      "outputs": [],
      "stateMutability": "nonpayable",
      "type": "function"
    },
    {
      "inputs": [],
      "name": "currentPrice",
      "outputs": [
        {
          "internalType": "bytes",
          "name": "",
          "type": "bytes"
        }
      ],
      "stateMutability": "view",
      "type": "function"
    },
    {
      "inputs": [],
      "name": "eur",
      "outputs": [
        {
          "internalType": "bytes32",
          "name": "",
          "type": "bytes32"
        }
      ],
      "stateMutability": "view",
      "type": "function"
    },
    {
      "inputs": [],
      "name": "eurInt",
      "outputs": [
        {
          "internalType": "uint256",
          "name": "",
          "type": "uint256"
        }
      ],
      "stateMutability": "view",
      "type": "function"
    },
    {
      "inputs": [
        {
          "internalType": "bytes32",
          "name": "_requestId",
          "type": "bytes32"
        },
        {
          "internalType": "bytes",
          "name": "_price",
          "type": "bytes"
        }
      ],
      "name": "fulfillBytes",
      "outputs": [],
      "stateMutability": "nonpayable",
      "type": "function"
    },
    {
      "inputs": [
        {
          "internalType": "bytes32",
          "name": "_requestId",
          "type": "bytes32"
        },
        {
          "internalType": "bytes32",
          "name": "_usd",
          "type": "bytes32"
        },
        {
          "internalType": "bytes32",
          "name": "_eur",
          "type": "bytes32"
        },
        {
          "internalType": "bytes32",
          "name": "_jpy",
          "type": "bytes32"
        }
      ],
      "name": "fulfillMultipleParameters",
      "outputs": [],
      "stateMutability": "nonpayable",
      "type": "function"
    },
    {
      "inputs": [
        {
          "internalType": "bytes32",
          "name": "_requestId",
          "type": "bytes32"
        },
        {
          "internalType": "uint256",
          "name": "_usd",
          "type": "uint256"
        },
        {
          "internalType": "uint256",
          "name": "_eur",
          "type": "uint256"
        },
        {
          "internalType": "uint256",
          "name": "_jpy",
          "type": "uint256"
        }
      ],
      "name": "fulfillMultipleParametersWithCustomURLs",
      "outputs": [],
      "stateMutability": "nonpayable",
      "type": "function"
    },
    {
      "inputs": [],
      "name": "jpy",
      "outputs": [
        {
          "internalType": "bytes32",
          "name": "",
          "type": "bytes32"
        }
      ],
      "stateMutability": "view",
      "type": "function"
    },
    {
      "inputs": [],
      "name": "jpyInt",
      "outputs": [
        {
          "internalType": "uint256",
          "name": "",
          "type": "uint256"
        }
      ],
      "stateMutability": "view",
      "type": "function"
    },
    {
      "inputs": [],
      "name": "publicGetNextRequestCount",
      "outputs": [
        {
          "internalType": "uint256",
          "name": "",
          "type": "uint256"
        }
      ],
      "stateMutability": "view",
      "type": "function"
    },
    {
      "inputs": [
        {
          "internalType": "string",
          "name": "_currency",
          "type": "string"
        },
        {
          "internalType": "uint256",
          "name": "_payment",
          "type": "uint256"
        }
      ],
      "name": "requestEthereumPrice",
      "outputs": [],
      "stateMutability": "nonpayable",
      "type": "function"
    },
    {
      "inputs": [
        {
          "internalType": "string",
          "name": "_currency",
          "type": "string"
        },
        {
          "internalType": "uint256",
          "name": "_payment",
          "type": "uint256"
        }
      ],
      "name": "requestMultipleParameters",
      "outputs": [],
      "stateMutability": "nonpayable",
      "type": "function"
    },
    {
      "inputs": [
        {
          "internalType": "string",
          "name": "_urlUSD",
          "type": "string"
        },
        {
          "internalType": "string",
          "name": "_pathUSD",
          "type": "string"
        },
        {
          "internalType": "string",
          "name": "_urlEUR",
          "type": "string"
        },
        {
          "internalType": "string",
          "name": "_pathEUR",
          "type": "string"
        },
        {
          "internalType": "string",
          "name": "_urlJPY",
          "type": "string"
        },
        {
          "internalType": "string",
          "name": "_pathJPY",
          "type": "string"
        },
        {
          "internalType": "uint256",
          "name": "_payment",
          "type": "uint256"
        }
      ],
      "name": "requestMultipleParametersWithCustomURLs",
      "outputs": [],
      "stateMutability": "nonpayable",
      "type": "function"
    },
    {
      "inputs": [
        {
          "internalType": "bytes32",
          "name": "_specId",
          "type": "bytes32"
        }
      ],
      "name": "setSpecID",
      "outputs": [],
      "stateMutability": "nonpayable",
      "type": "function"
    },
    {
      "inputs": [],
      "name": "usd",
      "outputs": [
        {
          "internalType": "bytes32",
          "name": "",
          "type": "bytes32"
        }
      ],
      "stateMutability": "view",
      "type": "function"
    },
    {
      "inputs": [],
      "name": "usdInt",
      "outputs": [
        {
          "internalType": "uint256",
          "name": "",
          "type": "uint256"
        }
      ],
      "stateMutability": "view",
      "type": "function"
    },
    {
      "inputs": [],
      "name": "withdrawLink",
      "outputs": [],
      "stateMutability": "nonpayable",
      "type": "function"
    }
  ],
  "bytecode": "0x60806040523480156200001157600080fd5b50604051620021d2380380620021d2833981810160405260608110156200003757600080fd5b810190808051906020019092919080519060200190929190805190602001909291905050506200006d836200008e60201b60201c565b6200007e82620000d260201b60201c565b8060068190555050505062000116565b80600260006101000a81548173ffffffffffffffffffffffffffffffffffffffff021916908373ffffffffffffffffffffffffffffffffffffffff16021790555050565b80600360006101000a81548173ffffffffffffffffffffffffffffffffffffffff021916908373ffffffffffffffffffffffffffffffffffffffff16021790555050565b6120ac80620001266000396000f3fe608060405234801561001057600080fd5b50600436106101155760003560e01c80639d1b464a116100a2578063d63a6ccd11610071578063d63a6ccd14610884578063e89855ba146108a2578063e8d5359d14610967578063ef593473146109b5578063faa3676114610a0157610115565b80639d1b464a146106d2578063a856ff6b14610755578063b44cb469146107a1578063c2fb8523146107bf57610115565b8063673cd6aa116100e9578063673cd6aa1461020f5780637439ae591461022d57806383db5cbc1461024b5780638dc654a214610310578063938649e51461031a57610115565b80629879571461011a5780632f0dc45814610138578063501fdd5d146101565780635591a60814610184575b600080fd5b610122610a1f565b6040518082815260200191505060405180910390f35b610140610a25565b6040518082815260200191505060405180910390f35b6101826004803603602081101561016c57600080fd5b8101908080359060200190929190505050610a2b565b005b61020d600480360360a081101561019a57600080fd5b81019080803573ffffffffffffffffffffffffffffffffffffffff169060200190929190803590602001909291908035906020019092919080357bffffffffffffffffffffffffffffffffffffffffffffffffffffffff1916906020019092919080359060200190929190505050610a35565b005b610217610ae4565b6040518082815260200191505060405180910390f35b610235610af3565b6040518082815260200191505060405180910390f35b61030e6004803603604081101561026157600080fd5b810190808035906020019064010000000081111561027e57600080fd5b82018360208201111561029057600080fd5b803590602001918460018302840111640100000000831117156102b257600080fd5b91908080601f016020809104026020016040519081016040528093929190818152602001838380828437600081840152601f19601f82011690508083019250505050505050919291929080359060200190929190505050610af9565b005b610318610b20565b005b6106d0600480360360e081101561033057600080fd5b810190808035906020019064010000000081111561034d57600080fd5b82018360208201111561035f57600080fd5b8035906020019184600183028401116401000000008311171561038157600080fd5b91908080601f016020809104026020016040519081016040528093929190818152602001838380828437600081840152601f19601f820116905080830192505050505050509192919290803590602001906401000000008111156103e457600080fd5b8201836020820111156103f657600080fd5b8035906020019184600183028401116401000000008311171561041857600080fd5b91908080601f016020809104026020016040519081016040528093929190818152602001838380828437600081840152601f19601f8201169050808301925050505050505091929192908035906020019064010000000081111561047b57600080fd5b82018360208201111561048d57600080fd5b803590602001918460018302840111640100000000831117156104af57600080fd5b91908080601f016020809104026020016040519081016040528093929190818152602001838380828437600081840152601f19601f8201169050808301925050505050505091929192908035906020019064010000000081111561051257600080fd5b82018360208201111561052457600080fd5b8035906020019184600183028401116401000000008311171561054657600080fd5b91908080601f016020809104026020016040519081016040528093929190818152602001838380828437600081840152601f19601f820116905080830192505050505050509192919290803590602001906401000000008111156105a957600080fd5b8201836020820111156105bb57600080fd5b803590602001918460018302840111640100000000831117156105dd57600080fd5b91908080601f016020809104026020016040519081016040528093929190818152602001838380828437600081840152601f19601f8201169050808301925050505050505091929192908035906020019064010000000081111561064057600080fd5b82018360208201111561065257600080fd5b8035906020019184600183028401116401000000008311171561067457600080fd5b91908080601f016020809104026020016040519081016040528093929190818152602001838380828437600081840152601f19601f82011690508083019250505050505050919291929080359060200190929190505050610cee565b005b6106da610ed6565b6040518080602001828103825283818151815260200191508051906020019080838360005b8381101561071a5780820151818401526020810190506106ff565b50505050905090810190601f1680156107475780820380516001836020036101000a031916815260200191505b509250505060405180910390f35b61079f6004803603608081101561076b57600080fd5b8101908080359060200190929190803590602001909291908035906020019092919080359060200190929190505050610f74565b005b6107a96110e5565b6040518082815260200191505060405180910390f35b610882600480360360408110156107d557600080fd5b8101908080359060200190929190803590602001906401000000008111156107fc57600080fd5b82018360208201111561080e57600080fd5b8035906020019184600183028401116401000000008311171561083057600080fd5b91908080601f016020809104026020016040519081016040528093929190818152602001838380828437600081840152601f19601f8201169050808301925050505050505091929192905050506110eb565b005b61088c6112b0565b6040518082815260200191505060405180910390f35b610965600480360360408110156108b857600080fd5b81019080803590602001906401000000008111156108d557600080fd5b8201836020820111156108e757600080fd5b8035906020019184600183028401116401000000008311171561090957600080fd5b91908080601f016020809104026020016040519081016040528093929190818152602001838380828437600081840152601f19601f820116905080830192505050505050509192919290803590602001909291905050506112b6565b005b6109b36004803603604081101561097d57600080fd5b81019080803573ffffffffffffffffffffffffffffffffffffffff169060200190929190803590602001909291905050506112dd565b005b6109ff600480360360808110156109cb57600080fd5b81019080803590602001909291908035906020019092919080359060200190929190803590602001909291905050506112eb565b005b610a0961145c565b6040518082815260200191505060405180910390f35b600c5481565b600d5481565b8060068190555050565b60008590508073ffffffffffffffffffffffffffffffffffffffff16636ee4d553868686866040518563ffffffff1660e01b815260040180858152602001848152602001837bffffffffffffffffffffffffffffffffffffffffffffffffffffffff19168152602001828152602001945050505050600060405180830381600087803b158015610ac457600080fd5b505af1158015610ad8573d6000803e3d6000fd5b50505050505050505050565b6000610aee611462565b905090565b60095481565b6000610b0e60065463c2fb852360e01b61146c565b9050610b1a818361149c565b50505050565b6000610b2a6114d3565b90508073ffffffffffffffffffffffffffffffffffffffff1663a9059cbb338373ffffffffffffffffffffffffffffffffffffffff166370a08231306040518263ffffffff1660e01b8152600401808273ffffffffffffffffffffffffffffffffffffffff16815260200191505060206040518083038186803b158015610bb057600080fd5b505afa158015610bc4573d6000803e3d6000fd5b505050506040513d6020811015610bda57600080fd5b81019080805190602001909291905050506040518363ffffffff1660e01b8152600401808373ffffffffffffffffffffffffffffffffffffffff16815260200182815260200192505050602060405180830381600087803b158015610c3e57600080fd5b505af1158015610c52573d6000803e3d6000fd5b505050506040513d6020811015610c6857600080fd5b8101908080519060200190929190505050610ceb576040517f08c379a00000000000000000000000000000000000000000000000000000000081526004018080602001828103825260128152602001807f556e61626c6520746f207472616e73666572000000000000000000000000000081525060200191505060405180910390fd5b50565b6000610d0360065463ef59347360e01b61146c565b9050610d4f6040518060400160405280600681526020017f75726c555344000000000000000000000000000000000000000000000000000081525089836114fd9092919063ffffffff16565b610d996040518060400160405280600781526020017f706174685553440000000000000000000000000000000000000000000000000081525088836114fd9092919063ffffffff16565b610de36040518060400160405280600681526020017f75726c455552000000000000000000000000000000000000000000000000000081525087836114fd9092919063ffffffff16565b610e2d6040518060400160405280600781526020017f706174684555520000000000000000000000000000000000000000000000000081525086836114fd9092919063ffffffff16565b610e776040518060400160405280600681526020017f75726c4a5059000000000000000000000000000000000000000000000000000081525085836114fd9092919063ffffffff16565b610ec16040518060400160405280600781526020017f706174684a50590000000000000000000000000000000000000000000000000081525084836114fd9092919063ffffffff16565b610ecb818361149c565b505050505050505050565b60078054600181600116156101000203166002900480601f016020809104026020016040519081016040528092919081815260200182805460018160011615610100020316600290048015610f6c5780601f10610f4157610100808354040283529160200191610f6c565b820191906000526020600020905b815481529060010190602001808311610f4f57829003601f168201915b505050505081565b836005600082815260200190815260200160002060009054906101000a900473ffffffffffffffffffffffffffffffffffffffff1673ffffffffffffffffffffffffffffffffffffffff163373ffffffffffffffffffffffffffffffffffffffff161461102c576040517f08c379a000000000000000000000000000000000000000000000000000000000815260040180806020018281038252602881526020018061204f6028913960400191505060405180910390fd5b6005600082815260200190815260200160002060006101000a81549073ffffffffffffffffffffffffffffffffffffffff0219169055807f7cc135e0cebb02c3480ae5d74d377283180a2601f8f644edf7987b009316c63a60405160405180910390a28284867f0ec0c13e44aa04198947078cb990660252870dd3363f4c4bb3cc780f808dabbe856040518082815260200191505060405180910390a4836008819055508260098190555081600a819055505050505050565b600b5481565b816005600082815260200190815260200160002060009054906101000a900473ffffffffffffffffffffffffffffffffffffffff1673ffffffffffffffffffffffffffffffffffffffff163373ffffffffffffffffffffffffffffffffffffffff16146111a3576040517f08c379a000000000000000000000000000000000000000000000000000000000815260040180806020018281038252602881526020018061204f6028913960400191505060405180910390fd5b6005600082815260200190815260200160002060006101000a81549073ffffffffffffffffffffffffffffffffffffffff0219169055807f7cc135e0cebb02c3480ae5d74d377283180a2601f8f644edf7987b009316c63a60405160405180910390a2816040518082805190602001908083835b6020831061123a5780518252602082019150602081019050602083039250611217565b6001836020036101000a0380198251168184511680821785525050505050509050019150506040518091039020837f1a111c5dcf9a71088bd5e1797fdfaf399fec2afbb24aca247e4e3e9f4b61df9160405160405180910390a381600790805190602001906112aa929190611ef9565b50505050565b60085481565b60006112cb60065463a856ff6b60e01b61146c565b90506112d7818361149c565b50505050565b6112e78282611530565b5050565b836005600082815260200190815260200160002060009054906101000a900473ffffffffffffffffffffffffffffffffffffffff1673ffffffffffffffffffffffffffffffffffffffff163373ffffffffffffffffffffffffffffffffffffffff16146113a3576040517f08c379a000000000000000000000000000000000000000000000000000000000815260040180806020018281038252602881526020018061204f6028913960400191505060405180910390fd5b6005600082815260200190815260200160002060006101000a81549073ffffffffffffffffffffffffffffffffffffffff0219169055807f7cc135e0cebb02c3480ae5d74d377283180a2601f8f644edf7987b009316c63a60405160405180910390a28284867f077e16d6f19163c0c96d84a7bff48b4ba41f3956f95d6fb0e584ec77297fe245856040518082815260200191505060405180910390a483600b8190555082600c8190555081600d819055505050505050565b600a5481565b6000600454905090565b611474611f87565b61147c611f87565b6114938430858461165d909392919063ffffffff16565b91505092915050565b60006114cb600360009054906101000a900473ffffffffffffffffffffffffffffffffffffffff16848461170d565b905092915050565b6000600260009054906101000a900473ffffffffffffffffffffffffffffffffffffffff16905090565b61151482846080015161188c90919063ffffffff16565b61152b81846080015161188c90919063ffffffff16565b505050565b80600073ffffffffffffffffffffffffffffffffffffffff166005600083815260200190815260200160002060009054906101000a900473ffffffffffffffffffffffffffffffffffffffff1673ffffffffffffffffffffffffffffffffffffffff1614611606576040517f08c379a000000000000000000000000000000000000000000000000000000000815260040180806020018281038252601a8152602001807f5265717565737420697320616c72656164792070656e64696e6700000000000081525060200191505060405180910390fd5b826005600084815260200190815260200160002060006101000a81548173ffffffffffffffffffffffffffffffffffffffff021916908373ffffffffffffffffffffffffffffffffffffffff160217905550505050565b611665611f87565b61167585608001516101006118b1565b508385600001818152505082856020019073ffffffffffffffffffffffffffffffffffffffff16908173ffffffffffffffffffffffffffffffffffffffff16815250508185604001907bffffffffffffffffffffffffffffffffffffffffffffffffffffffff191690817bffffffffffffffffffffffffffffffffffffffffffffffffffffffff191681525050849050949350505050565b6000806004549050600181016004819055506000633c6d41b960e01b600080876000015188604001518660028b6080015160000151604051602401808873ffffffffffffffffffffffffffffffffffffffff168152602001878152602001868152602001857bffffffffffffffffffffffffffffffffffffffffffffffffffffffff1916815260200184815260200183815260200180602001828103825283818151815260200191508051906020019080838360005b838110156117de5780820151818401526020810190506117c3565b50505050905090810190601f16801561180b5780820380516001836020036101000a031916815260200191505b5098505050505050505050604051602081830303815290604052907bffffffffffffffffffffffffffffffffffffffffffffffffffffffff19166020820180517bffffffffffffffffffffffffffffffffffffffffffffffffffffffff8381831617835250505050905061188186838684611905565b925050509392505050565b6118998260038351611b68565b6118ac8183611ced90919063ffffffff16565b505050565b6118b9611ff4565b6000602083816118c557fe5b06146118de57602082816118d557fe5b06602003820191505b81836020018181525050604051808452600081528281016020016040525082905092915050565b60003084604051602001808373ffffffffffffffffffffffffffffffffffffffff1660601b815260140182815260200192505050604051602081830303815290604052805190602001209050846005600083815260200190815260200160002060006101000a81548173ffffffffffffffffffffffffffffffffffffffff021916908373ffffffffffffffffffffffffffffffffffffffff160217905550807fb5e6e01e79f91267dc17b4e6314d5d4d03593d2ceee0fbb452b750bd70ea5af960405160405180910390a2600260009054906101000a900473ffffffffffffffffffffffffffffffffffffffff1673ffffffffffffffffffffffffffffffffffffffff16634000aea08685856040518463ffffffff1660e01b8152600401808473ffffffffffffffffffffffffffffffffffffffff16815260200183815260200180602001828103825283818151815260200191508051906020019080838360005b83811015611a82578082015181840152602081019050611a67565b50505050905090810190601f168015611aaf5780820380516001836020036101000a031916815260200191505b50945050505050602060405180830381600087803b158015611ad057600080fd5b505af1158015611ae4573d6000803e3d6000fd5b505050506040513d6020811015611afa57600080fd5b8101908080519060200190929190505050611b60576040517f08c379a000000000000000000000000000000000000000000000000000000000815260040180806020018281038252602381526020018061202c6023913960400191505060405180910390fd5b949350505050565b60178167ffffffffffffffff1611611b9f57611b998160058460ff16901b60ff161784611d0f90919063ffffffff16565b50611ce8565b60ff8167ffffffffffffffff1611611bf557611bce601860058460ff16901b1784611d0f90919063ffffffff16565b50611bef8167ffffffffffffffff16600185611d2f9092919063ffffffff16565b50611ce7565b61ffff8167ffffffffffffffff1611611c4c57611c25601960058460ff16901b1784611d0f90919063ffffffff16565b50611c468167ffffffffffffffff16600285611d2f9092919063ffffffff16565b50611ce6565b63ffffffff8167ffffffffffffffff1611611ca557611c7e601a60058460ff16901b1784611d0f90919063ffffffff16565b50611c9f8167ffffffffffffffff16600485611d2f9092919063ffffffff16565b50611ce5565b611cc2601b60058460ff16901b1784611d0f90919063ffffffff16565b50611ce38167ffffffffffffffff16600885611d2f9092919063ffffffff16565b505b5b5b5b505050565b611cf5611ff4565b611d0783846000015151848551611d51565b905092915050565b611d17611ff4565b611d278384600001515184611e0a565b905092915050565b611d37611ff4565b611d48848560000151518585611e58565b90509392505050565b611d59611ff4565b8251821115611d6757600080fd5b84602001518285011115611d9257611d91856002611d8b8860200151888701611eb9565b02611ed5565b5b600080865180518760208301019350808887011115611db15787860182525b60208701925050505b60208410611ddd5780518252602082019150602081019050602084039350611dba565b60006001856020036101000a03905080198251168184511681811785525050879350505050949350505050565b611e12611ff4565b83602001518310611e2f57611e2e846002866020015102611ed5565b5b8351805160208583010184815381861415611e4b576001820183525b5050508390509392505050565b611e60611ff4565b84602001518483011115611e7e57611e7d85600286850102611ed5565b5b60006001836101000a0390508551838682010185831982511617815281518588011115611eab5784870182525b505085915050949350505050565b600081831115611ecb57829050611ecf565b8190505b92915050565b600082600001519050611ee883836118b1565b50611ef38382611ced565b50505050565b828054600181600116156101000203166002900490600052602060002090601f016020900481019282611f2f5760008555611f76565b82601f10611f4857805160ff1916838001178555611f76565b82800160010185558215611f76579182015b82811115611f75578251825591602001919060010190611f5a565b5b509050611f83919061200e565b5090565b6040518060a0016040528060008019168152602001600073ffffffffffffffffffffffffffffffffffffffff16815260200160007bffffffffffffffffffffffffffffffffffffffffffffffffffffffff1916815260200160008152602001611fee611ff4565b81525090565b604051806040016040528060608152602001600081525090565b5b8082111561202757600081600090555060010161200f565b509056fe756e61626c6520746f207472616e73666572416e6443616c6c20746f206f7261636c65536f75726365206d75737420626520746865206f7261636c65206f66207468652072657175657374a2646970667358221220ea31d1a531bf93eeea50f4a35e3de5f766f6cb42a7f5bacd4776b8a21bb437e164736f6c63430007060033",
  "linkReferences": {},
  "deployedLinkReferences": {}
}