{
  "_format": "hh-sol-artifact-1",
  "contractName": "UpkeepCounter",
  "sourceName": "contracts/chainlink/tests/UpkeepCounter.sol",
  "abi": [
    {
      "inputs": [
        {
          "internalType": "uint256",
          "name": "_testRange",
          "type": "uint256"
        },
        {
          "internalType": "uint256",
          "name": "_interval",
          "type": "uint256"
        }
      ],
      "stateMutability": "nonpayable",
      "type": "constructor"
    },
    {
      "anonymous": false,
      "inputs": [
        {
          "indexed": true,
          "internalType": "address",
          "name": "from",
          "type": "address"
        },
        {
          "indexed": false,
          "internalType": "uint256",
          "name": "initialBlock",
          "type": "uint256"
        },
        {
          "indexed": false,
          "internalType": "uint256",
          "name": "lastBlock",
          "type": "uint256"
        },
        {
          "indexed": false,
          "internalType": "uint256",
          "name": "previousBlock",
          "type": "uint256"
        },
        {
          "indexed": false,
          "internalType": "uint256",
          "name": "counter",
          "type": "uint256"
        }
      ],
      "name": "PerformingUpkeep",
      "type": "event"
    },
    {
      "inputs": [
        {
          "internalType": "bytes",
          "name": "data",
          "type": "bytes"
        }
      ],
      "name": "checkUpkeep",
      "outputs": [
        {
          "internalType": "bool",
          "name": "",
          "type": "bool"
        },
        {
          "internalType": "bytes",
          "name": "",
          "type": "bytes"
        }
      ],
      "stateMutability": "view",
      "type": "function"
    },
    {
      "inputs": [],
      "name": "counter",
      "outputs": [
        {
          "internalType": "uint256",
          "name": "",
          "type": "uint256"
        }
      ],
      "stateMutability": "view",
      "type": "function"
    },
    {
      "inputs": [],
      "name": "eligible",
      "outputs": [
        {
          "internalType": "bool",
          "name": "",
          "type": "bool"
        }
      ],
      "stateMutability": "view",
      "type": "function"
    },
    {
      "inputs": [],
      "name": "initialBlock",
      "outputs": [
        {
          "internalType": "uint256",
          "name": "",
          "type": "uint256"
        }
      ],
      "stateMutability": "view",
      "type": "function"
    },
    {
      "inputs": [],
      "name": "interval",
      "outputs": [
        {
          "internalType": "uint256",
          "name": "",
          "type": "uint256"
        }
      ],
      "stateMutability": "view",
      "type": "function"
    },
    {
      "inputs": [],
      "name": "lastBlock",
      "outputs": [
        {
          "internalType": "uint256",
          "name": "",
          "type": "uint256"
        }
      ],
      "stateMutability": "view",
      "type": "function"
    },
    {
      "inputs": [
        {
          "internalType": "bytes",
          "name": "performData",
          "type": "bytes"
        }
      ],
      "name": "performUpkeep",
      "outputs": [],
      "stateMutability": "nonpayable",
      "type": "function"
    },
    {
      "inputs": [],
      "name": "previousPerformBlock",
      "outputs": [
        {
          "internalType": "uint256",
          "name": "",
          "type": "uint256"
        }
      ],
      "stateMutability": "view",
      "type": "function"
    },
    {
      "inputs": [
        {
          "internalType": "uint256",
          "name": "_testRange",
          "type": "uint256"
        },
        {
          "internalType": "uint256",
          "name": "_interval",
          "type": "uint256"
        }
      ],
      "name": "setSpread",
      "outputs": [],
      "stateMutability": "nonpayable",
      "type": "function"
    },
    {
      "inputs": [],
      "name": "testRange",
      "outputs": [
        {
          "internalType": "uint256",
          "name": "",
          "type": "uint256"
        }
      ],
      "stateMutability": "view",
      "type": "function"
    }
  ],
  "bytecode": "0x608060405234801561001057600080fd5b506040516105643803806105648339818101604052604081101561003357600080fd5b81019080805190602001909291908051906020019092919050505081600081905550806001819055506000600381905550436002819055506000600481905550600060058190555050506104d88061008c6000396000f3fe608060405234801561001057600080fd5b506004361061009e5760003560e01c80637f407edf116100665780637f407edf14610271578063806b984f146102a9578063917d895f146102c7578063947a36fb146102e5578063d832d92f146103035761009e565b80632cb15864146100a35780634585e33b146100c157806361bc221a1461013a5780636250a13a146101585780636e04ff0d14610176575b600080fd5b6100ab610323565b6040518082815260200191505060405180910390f35b610138600480360360208110156100d757600080fd5b81019080803590602001906401000000008111156100f457600080fd5b82018360208201111561010657600080fd5b8035906020019184600183028401116401000000008311171561012857600080fd5b9091929391929390505050610329565b005b6101426103ca565b6040518082815260200191505060405180910390f35b6101606103d0565b6040518082815260200191505060405180910390f35b6101ed6004803603602081101561018c57600080fd5b81019080803590602001906401000000008111156101a957600080fd5b8201836020820111156101bb57600080fd5b803590602001918460018302840111640100000000831117156101dd57600080fd5b90919293919293905050506103d6565b60405180831515815260200180602001828103825283818151815260200191508051906020019080838360005b8381101561023557808201518184015260208101905061021a565b50505050905090810190601f1680156102625780820380516001836020036101000a031916815260200191505b50935050505060405180910390f35b6102a76004803603604081101561028757600080fd5b810190808035906020019092919080359060200190929190505050610438565b005b6102b161045a565b6040518082815260200191505060405180910390f35b6102cf610460565b6040518082815260200191505060405180910390f35b6102ed610466565b6040518082815260200191505060405180910390f35b61030b61046c565b60405180821515815260200191505060405180910390f35b60045481565b6000600454141561033c57436004819055505b436002819055506001600554016005819055503273ffffffffffffffffffffffffffffffffffffffff167f8e8112f20a2134e18e591d2cdd68cd86a95d06e6328ede501fc6314f4a5075fa6004546002546003546005546040518085815260200184815260200183815260200182815260200194505050505060405180910390a26002546003819055505050565b60055481565b60005481565b600060606103e261046c565b848481818080601f016020809104026020016040519081016040528093929190818152602001838380828437600081840152601f19601f8201169050808301925050505050505090509050915091509250929050565b8160008190555080600181905550600060048190555060006005819055505050565b60025481565b60035481565b60015481565b6000806004541415610481576001905061049f565b600054600454430310801561049c5750600154600254430310155b90505b9056fea264697066735822122003d57dd35bc8fe55eda60939b8405e371918c9141d0099d1d3abe55776a318bb64736f6c63430007060033",
  "linkReferences": {},
  "deployedLinkReferences": {}
}