{
  "_format": "hh-sol-artifact-1",
  "contractName": "Arbiter",
  "sourceName": "contracts/Arbiter.sol",
  "abi": [
    {
      "inputs": [],
      "name": "ARBITER_NUM",
      "outputs": [
        {
          "internalType": "uint256",
          "name": "",
          "type": "uint256"
        }
      ],
      "stateMutability": "view",
      "type": "function"
    },
    {
      "inputs": [],
      "name": "getArbiterList",
      "outputs": [
        {
          "internalType": "bytes32[3]",
          "name": "",
          "type": "bytes32[3]"
        }
      ],
      "stateMutability": "view",
      "type": "function"
    },
    {
      "inputs": [
        {
          "internalType": "string",
          "name": "_pubkey",
          "type": "string"
        },
        {
          "internalType": "string",
          "name": "_data",
          "type": "string"
        },
        {
          "internalType": "string",
          "name": "_sig",
          "type": "string"
        }
      ],
      "name": "p256Verify",
      "outputs": [
        {
          "internalType": "bool",
          "name": "",
          "type": "bool"
        }
      ],
      "stateMutability": "view",
      "type": "function"
    }
  ],
  "bytecode": "0x608060405234801561001057600080fd5b50610726806100206000396000f3fe608060405234801561001057600080fd5b50600436106100415760003560e01c80636ef3823214610046578063aa12bc3c14610064578063b16b5a13146100aa575b600080fd5b61004e6102a9565b6040518082815260200191505060405180910390f35b61006c6102ae565b6040518082600360200280838360005b8381101561009757808201518184015260208101905061007c565b5050505090500191505060405180910390f35b610291600480360360608110156100c057600080fd5b81019080803590602001906401000000008111156100dd57600080fd5b8201836020820111156100ef57600080fd5b8035906020019184600183028401116401000000008311171561011157600080fd5b91908080601f016020809104026020016040519081016040528093929190818152602001838380828437600081840152601f19601f8201169050808301925050505050505091929192908035906020019064010000000081111561017457600080fd5b82018360208201111561018657600080fd5b803590602001918460018302840111640100000000831117156101a857600080fd5b91908080601f016020809104026020016040519081016040528093929190818152602001838380828437600081840152601f19601f8201169050808301925050505050505091929192908035906020019064010000000081111561020b57600080fd5b82018360208201111561021d57600080fd5b8035906020019184600183028401116401000000008311171561023f57600080fd5b91908080601f016020809104026020016040519081016040528093929190818152602001838380828437600081840152601f19601f8201169050808301925050505050505091929192905050506102dd565b60405180821515815260200191505060405180910390f35b600381565b6102b66106ac565b6102be6106ac565b6000610180826000836103e85afa6102d557600080fd5b819250505090565b6000806102f36102ed868661033f565b8461033f565b9050600061030082610496565b905061030a6106ce565b60208160c1846103e95afa61031e57600080fd5b60018160006001811061032d57fe5b60200201511493505050509392505050565b6060600083905060008390506000815183510167ffffffffffffffff8111801561036857600080fd5b506040519080825280601f01601f19166020018201604052801561039b5781602001600182028036833780820191505090505b50905060008190506000805b8551811015610415578581815181106103bc57fe5b602001015160f81c60f81b8383806001019450815181106103d957fe5b60200101907effffffffffffffffffffffffffffffffffffffffffffffffffffffffffffff1916908160001a90535080806001019150506103a7565b5060005b84518110156104875784818151811061042e57fe5b602001015160f81c60f81b83838060010194508151811061044b57fe5b60200101907effffffffffffffffffffffffffffffffffffffffffffffffffffffffffffff1916908160001a9053508080600101915050610419565b50829550505050505092915050565b606060008290506000815167ffffffffffffffff811180156104b757600080fd5b506040519080825280602002602001820160405280156104e65781602001602082028036833780820191505090505b50905060005b82518110156105b757600083828151811061050357fe5b602001015160f81c60f81b60f81c905060608160ff16111561054b57600a606182030183838151811061053257fe5b602002602001019060ff16908160ff16815250506105a9565b60428160ff16111561058357600a604182030183838151811061056a57fe5b602002602001019060ff16908160ff16815250506105a8565b6030810383838151811061059357fe5b602002602001019060ff16908160ff16815250505b5b5080806001019150506104ec565b50600060028251816105c557fe5b0467ffffffffffffffff811180156105dc57600080fd5b506040519080825280601f01601f19166020018201604052801561060f5781602001600182028036833780820191505090505b50905060005b82518110156106a05782600182018151811061062d57fe5b6020026020010151601084838151811061064357fe5b6020026020010151020160f81b826002838161065b57fe5b048151811061066657fe5b60200101907effffffffffffffffffffffffffffffffffffffffffffffffffffffffffffff1916908160001a905350600281019050610615565b50809350505050919050565b6040518060600160405280600390602082028036833780820191505090505090565b604051806020016040528060019060208202803683378082019150509050509056fea2646970667358221220ee6e9881900afa83be8adacf97c3f1c47e1a30aadc16403b72c3d89c646283f764736f6c63430007060033",
  "linkReferences": {},
  "deployedLinkReferences": {}
}