{
  "_format": "hh-sol-artifact-1",
  "contractName": "MockCompoundOracle",
  "sourceName": "contracts/chainlink/tests/MockCompoundOracle.sol",
  "abi": [
    {
      "inputs": [
        {
          "internalType": "string",
          "name": "symbol",
          "type": "string"
        }
      ],
      "name": "price",
      "outputs": [
        {
          "internalType": "uint256",
          "name": "",
          "type": "uint256"
        }
      ],
      "stateMutability": "view",
      "type": "function"
    },
    {
      "inputs": [
        {
          "internalType": "string",
          "name": "symbol",
          "type": "string"
        },
        {
          "internalType": "uint256",
          "name": "newPrice",
          "type": "uint256"
        },
        {
          "internalType": "uint256",
          "name": "newDecimals",
          "type": "uint256"
        }
      ],
      "name": "setPrice",
      "outputs": [],
      "stateMutability": "nonpayable",
      "type": "function"
    }
  ],
  "bytecode": "0x608060405234801561001057600080fd5b506103aa806100206000396000f3fe608060405234801561001057600080fd5b50600436106100365760003560e01c80631d74e6781461003b578063fe2c61981461010a575b600080fd5b6101086004803603606081101561005157600080fd5b810190808035906020019064010000000081111561006e57600080fd5b82018360208201111561008057600080fd5b803590602001918460018302840111640100000000831117156100a257600080fd5b91908080601f016020809104026020016040519081016040528093929190818152602001838380828437600081840152601f19601f82011690508083019250505050505050919291929080359060200190929190803590602001909291905050506101d9565b005b6101c36004803603602081101561012057600080fd5b810190808035906020019064010000000081111561013d57600080fd5b82018360208201111561014f57600080fd5b8035906020019184600183028401116401000000008311171561017157600080fd5b91908080601f016020809104026020016040519081016040528093929190818152602001838380828437600081840152601f19601f8201169050808301925050505050505091929192905050506102ff565b6040518082815260200191505060405180910390f35b600080846040518082805190602001908083835b6020831061021057805182526020820191506020810190506020830392506101ed565b6001836020036101000a03801982511681845116808217855250505050505090500191505090815260200160405180910390206040518060400160405290816000820154815260200160018201548152505090508281600001818152505081816020018181525050806000856040518082805190602001908083835b602083106102af578051825260208201915060208101905060208303925061028c565b6001836020036101000a0380198251168184511680821785525050505050509050019150509081526020016040518091039020600082015181600001556020820151816001015590505050505050565b600080826040518082805190602001908083835b602083106103365780518252602082019150602081019050602083039250610313565b6001836020036101000a038019825116818451168082178552505050505050905001915050908152602001604051809103902060000154905091905056fea2646970667358221220fe1e9034182b80b7c3e1d6c09f26b80f10612b56a57eee240d099a8a3b3efbc464736f6c63430007060033",
  "linkReferences": {},
  "deployedLinkReferences": {}
}