{
  "_format": "hh-sol-artifact-1",
  "contractName": "KeeperCompatibleTestHelper",
  "sourceName": "contracts/chainlink/tests/KeeperCompatibleTestHelper.sol",
  "abi": [
    {
      "inputs": [
        {
          "internalType": "bytes",
          "name": "",
          "type": "bytes"
        }
      ],
      "name": "checkUpkeep",
      "outputs": [
        {
          "internalType": "bool",
          "name": "",
          "type": "bool"
        },
        {
          "internalType": "bytes",
          "name": "",
          "type": "bytes"
        }
      ],
      "stateMutability": "nonpayable",
      "type": "function"
    },
    {
      "inputs": [
        {
          "internalType": "bytes",
          "name": "",
          "type": "bytes"
        }
      ],
      "name": "performUpkeep",
      "outputs": [],
      "stateMutability": "nonpayable",
      "type": "function"
    },
    {
      "inputs": [],
      "name": "testCannotExecute",
      "outputs": [],
      "stateMutability": "view",
      "type": "function"
    }
  ],
  "bytecode": "0x608060405234801561001057600080fd5b506102b7806100206000396000f3fe608060405234801561001057600080fd5b50600436106100415760003560e01c80632e825c86146100465780634585e33b146100505780636e04ff0d146100c9575b600080fd5b61004e6101c4565b005b6100c76004803603602081101561006657600080fd5b810190808035906020019064010000000081111561008357600080fd5b82018360208201111561009557600080fd5b803590602001918460018302840111640100000000831117156100b757600080fd5b90919293919293905050506101ce565b005b610140600480360360208110156100df57600080fd5b81019080803590602001906401000000008111156100fc57600080fd5b82018360208201111561010e57600080fd5b8035906020019184600183028401116401000000008311171561013057600080fd5b90919293919293905050506101d2565b60405180831515815260200180602001828103825283818151815260200191508051906020019080838360005b8381101561018857808201518184015260208101905061016d565b50505050905090810190601f1680156101b55780820380516001836020036101000a031916815260200191505b50935050505060405180910390f35b6101cc6101dd565b565b5050565b600060609250929050565b600073ffffffffffffffffffffffffffffffffffffffff163273ffffffffffffffffffffffffffffffffffffffff161461027f576040517f08c379a000000000000000000000000000000000000000000000000000000000815260040180806020018281038252601a8152602001807f6f6e6c7920666f722073696d756c61746564206261636b656e6400000000000081525060200191505060405180910390fd5b56fea26469706673582212200fd36832dd82f7f7c4794555b26f6e4163e5e02a3af4f3d8196ae5c7f610b67464736f6c63430007060033",
  "linkReferences": {},
  "deployedLinkReferences": {}
}