{
  "_format": "hh-sol-artifact-1",
  "contractName": "ChainlinkTestHelper",
  "sourceName": "contracts/chainlink/tests/ChainlinkTestHelper.sol",
  "abi": [
    {
      "anonymous": false,
      "inputs": [
        {
          "indexed": false,
          "internalType": "bytes",
          "name": "payload",
          "type": "bytes"
        }
      ],
      "name": "RequestData",
      "type": "event"
    },
    {
      "inputs": [
        {
          "internalType": "string",
          "name": "_key",
          "type": "string"
        },
        {
          "internalType": "string",
          "name": "_value",
          "type": "string"
        }
      ],
      "name": "add",
      "outputs": [],
      "stateMutability": "nonpayable",
      "type": "function"
    },
    {
      "inputs": [
        {
          "internalType": "string",
          "name": "_key",
          "type": "string"
        },
        {
          "internalType": "bytes",
          "name": "_value",
          "type": "bytes"
        }
      ],
      "name": "addBytes",
      "outputs": [],
      "stateMutability": "nonpayable",
      "type": "function"
    },
    {
      "inputs": [
        {
          "internalType": "string",
          "name": "_key",
          "type": "string"
        },
        {
          "internalType": "int256",
          "name": "_value",
          "type": "int256"
        }
      ],
      "name": "addInt",
      "outputs": [],
      "stateMutability": "nonpayable",
      "type": "function"
    },
    {
      "inputs": [
        {
          "internalType": "string",
          "name": "_key",
          "type": "string"
        },
        {
          "internalType": "bytes32[]",
          "name": "_values",
          "type": "bytes32[]"
        }
      ],
      "name": "addStringArray",
      "outputs": [],
      "stateMutability": "nonpayable",
      "type": "function"
    },
    {
      "inputs": [
        {
          "internalType": "string",
          "name": "_key",
          "type": "string"
        },
        {
          "internalType": "uint256",
          "name": "_value",
          "type": "uint256"
        }
      ],
      "name": "addUint",
      "outputs": [],
      "stateMutability": "nonpayable",
      "type": "function"
    },
    {
      "inputs": [],
      "name": "closeEvent",
      "outputs": [],
      "stateMutability": "nonpayable",
      "type": "function"
    },
    {
      "inputs": [
        {
          "internalType": "bytes",
          "name": "data",
          "type": "bytes"
        }
      ],
      "name": "setBuffer",
      "outputs": [],
      "stateMutability": "nonpayable",
      "type": "function"
    }
  ],
  "bytecode": "0x608060405234801561001057600080fd5b50612073806100206000396000f3fe608060405234801561001057600080fd5b506004361061007d5760003560e01c806347655b1b1161005b57806347655b1b146102a35780635e31692e146103f2578063cc39406f146104b7578063ebdf86ca146105725761007d565b806303dc5326146100825780630e734a581461008c5780632255beb014610151575b600080fd5b61008a6106c4565b005b61014f600480360360408110156100a257600080fd5b81019080803590602001906401000000008111156100bf57600080fd5b8201836020820111156100d157600080fd5b803590602001918460018302840111640100000000831117156100f357600080fd5b91908080601f016020809104026020016040519081016040528093929190818152602001838380828437600081840152601f19601f82011690508083019250505050505050919291929080359060200190929190505050610786565b005b6102a16004803603604081101561016757600080fd5b810190808035906020019064010000000081111561018457600080fd5b82018360208201111561019657600080fd5b803590602001918460018302840111640100000000831117156101b857600080fd5b91908080601f016020809104026020016040519081016040528093929190818152602001838380828437600081840152601f19601f8201169050808301925050505050505091929192908035906020019064010000000081111561021b57600080fd5b82018360208201111561022d57600080fd5b8035906020019184600183028401116401000000008311171561024f57600080fd5b91908080601f016020809104026020016040519081016040528093929190818152602001838380828437600081840152601f19601f8201169050808301925050505050505091929192905050506109e5565b005b6103f0600480360360408110156102b957600080fd5b81019080803590602001906401000000008111156102d657600080fd5b8201836020820111156102e857600080fd5b8035906020019184600183028401116401000000008311171561030a57600080fd5b91908080601f016020809104026020016040519081016040528093929190818152602001838380828437600081840152601f19601f8201169050808301925050505050505091929192908035906020019064010000000081111561036d57600080fd5b82018360208201111561037f57600080fd5b803590602001918460208302840111640100000000831117156103a157600080fd5b919080806020026020016040519081016040528093929190818152602001838360200280828437600081840152601f19601f820116905080830192505050505050509192919290505050610c44565b005b6104b56004803603604081101561040857600080fd5b810190808035906020019064010000000081111561042557600080fd5b82018360208201111561043757600080fd5b8035906020019184600183028401116401000000008311171561045957600080fd5b91908080601f016020809104026020016040519081016040528093929190818152602001838380828437600081840152601f19601f82011690508083019250505050505050919291929080359060200190929190505050610f42565b005b610570600480360360208110156104cd57600080fd5b81019080803590602001906401000000008111156104ea57600080fd5b8201836020820111156104fc57600080fd5b8035906020019184600183028401116401000000008311171561051e57600080fd5b91908080601f016020809104026020016040519081016040528093929190818152602001838380828437600081840152601f19601f8201169050808301925050505050505091929192905050506111a1565b005b6106c26004803603604081101561058857600080fd5b81019080803590602001906401000000008111156105a557600080fd5b8201836020820111156105b757600080fd5b803590602001918460018302840111640100000000831117156105d957600080fd5b91908080601f016020809104026020016040519081016040528093929190818152602001838380828437600081840152601f19601f8201169050808301925050505050505091929192908035906020019064010000000081111561063c57600080fd5b82018360208201111561064e57600080fd5b8035906020019184600183028401116401000000008311171561067057600080fd5b91908080601f016020809104026020016040519081016040528093929190818152602001838380828437600081840152601f19601f8201169050808301925050505050505091929192905050506113fd565b005b7f84485ae823e5c366e9581c146349e23f73b2f459d9eee1b9f15f36aac3b3145a600060030160000160405180806020018281038252838181546001816001161561010002031660029004815260200191508054600181600116156101000203166002900480156107765780601f1061074b57610100808354040283529160200191610776565b820191906000526020600020905b81548152906001019060200180831161075957829003601f168201915b50509250505060405180910390a1565b6000806040518060a0016040529081600082015481526020016001820160009054906101000a900473ffffffffffffffffffffffffffffffffffffffff1673ffffffffffffffffffffffffffffffffffffffff1673ffffffffffffffffffffffffffffffffffffffff1681526020016001820160149054906101000a900460e01b7bffffffffffffffffffffffffffffffffffffffffffffffffffffffff19167bffffffffffffffffffffffffffffffffffffffffffffffffffffffff191681526020016002820154815260200160038201604051806040016040529081600082018054600181600116156101000203166002900480601f0160208091040260200160405190810160405280929190818152602001828054600181600116156101000203166002900480156108fc5780601f106108d1576101008083540402835291602001916108fc565b820191906000526020600020905b8154815290600101906020018083116108df57829003601f168201915b5050505050815260200160018201548152505081525050905061092a83838361165c9092919063ffffffff16565b80600080820151816000015560208201518160010160006101000a81548173ffffffffffffffffffffffffffffffffffffffff021916908373ffffffffffffffffffffffffffffffffffffffff16021790555060408201518160010160146101000a81548163ffffffff021916908360e01c02179055506060820151816002015560808201518160030160008201518160000190805190602001906109d0929190611f78565b50602082015181600101555050905050505050565b6000806040518060a0016040529081600082015481526020016001820160009054906101000a900473ffffffffffffffffffffffffffffffffffffffff1673ffffffffffffffffffffffffffffffffffffffff1673ffffffffffffffffffffffffffffffffffffffff1681526020016001820160149054906101000a900460e01b7bffffffffffffffffffffffffffffffffffffffffffffffffffffffff19167bffffffffffffffffffffffffffffffffffffffffffffffffffffffff191681526020016002820154815260200160038201604051806040016040529081600082018054600181600116156101000203166002900480601f016020809104026020016040519081016040528092919081815260200182805460018160011615610100020316600290048015610b5b5780601f10610b3057610100808354040283529160200191610b5b565b820191906000526020600020905b815481529060010190602001808311610b3e57829003601f168201915b50505050508152602001600182015481525050815250509050610b8983838361168f9092919063ffffffff16565b80600080820151816000015560208201518160010160006101000a81548173ffffffffffffffffffffffffffffffffffffffff021916908373ffffffffffffffffffffffffffffffffffffffff16021790555060408201518160010160146101000a81548163ffffffff021916908360e01c0217905550606082015181600201556080820151816003016000820151816000019080519060200190610c2f929190611f78565b50602082015181600101555050905050505050565b6000815167ffffffffffffffff81118015610c5e57600080fd5b50604051908082528060200260200182016040528015610c9257816020015b6060815260200190600190039081610c7d5790505b50905060005b8251811015610ce157610cbd838281518110610cb057fe5b60200260200101516116c2565b828281518110610cc957fe5b60200260200101819052508080600101915050610c98565b506000806040518060a0016040529081600082015481526020016001820160009054906101000a900473ffffffffffffffffffffffffffffffffffffffff1673ffffffffffffffffffffffffffffffffffffffff1673ffffffffffffffffffffffffffffffffffffffff1681526020016001820160149054906101000a900460e01b7bffffffffffffffffffffffffffffffffffffffffffffffffffffffff19167bffffffffffffffffffffffffffffffffffffffffffffffffffffffff191681526020016002820154815260200160038201604051806040016040529081600082018054600181600116156101000203166002900480601f016020809104026020016040519081016040528092919081815260200182805460018160011615610100020316600290048015610e585780601f10610e2d57610100808354040283529160200191610e58565b820191906000526020600020905b815481529060010190602001808311610e3b57829003601f168201915b50505050508152602001600182015481525050815250509050610e8684838361187a9092919063ffffffff16565b80600080820151816000015560208201518160010160006101000a81548173ffffffffffffffffffffffffffffffffffffffff021916908373ffffffffffffffffffffffffffffffffffffffff16021790555060408201518160010160146101000a81548163ffffffff021916908360e01c0217905550606082015181600201556080820151816003016000820151816000019080519060200190610f2c929190611f78565b5060208201518160010155505090505050505050565b6000806040518060a0016040529081600082015481526020016001820160009054906101000a900473ffffffffffffffffffffffffffffffffffffffff1673ffffffffffffffffffffffffffffffffffffffff1673ffffffffffffffffffffffffffffffffffffffff1681526020016001820160149054906101000a900460e01b7bffffffffffffffffffffffffffffffffffffffffffffffffffffffff19167bffffffffffffffffffffffffffffffffffffffffffffffffffffffff191681526020016002820154815260200160038201604051806040016040529081600082018054600181600116156101000203166002900480601f0160208091040260200160405190810160405280929190818152602001828054600181600116156101000203166002900480156110b85780601f1061108d576101008083540402835291602001916110b8565b820191906000526020600020905b81548152906001019060200180831161109b57829003601f168201915b505050505081526020016001820154815250508152505090506110e68383836118f49092919063ffffffff16565b80600080820151816000015560208201518160010160006101000a81548173ffffffffffffffffffffffffffffffffffffffff021916908373ffffffffffffffffffffffffffffffffffffffff16021790555060408201518160010160146101000a81548163ffffffff021916908360e01c021790555060608201518160020155608082015181600301600082015181600001908051906020019061118c929190611f78565b50602082015181600101555050905050505050565b6000806040518060a0016040529081600082015481526020016001820160009054906101000a900473ffffffffffffffffffffffffffffffffffffffff1673ffffffffffffffffffffffffffffffffffffffff1673ffffffffffffffffffffffffffffffffffffffff1681526020016001820160149054906101000a900460e01b7bffffffffffffffffffffffffffffffffffffffffffffffffffffffff19167bffffffffffffffffffffffffffffffffffffffffffffffffffffffff191681526020016002820154815260200160038201604051806040016040529081600082018054600181600116156101000203166002900480601f0160208091040260200160405190810160405280929190818152602001828054600181600116156101000203166002900480156113175780601f106112ec57610100808354040283529160200191611317565b820191906000526020600020905b8154815290600101906020018083116112fa57829003601f168201915b50505050508152602001600182015481525050815250509050611343828261192790919063ffffffff16565b80600080820151816000015560208201518160010160006101000a81548173ffffffffffffffffffffffffffffffffffffffff021916908373ffffffffffffffffffffffffffffffffffffffff16021790555060408201518160010160146101000a81548163ffffffff021916908360e01c02179055506060820151816002015560808201518160030160008201518160000190805190602001906113e9929190611f78565b506020820151816001015550509050505050565b6000806040518060a0016040529081600082015481526020016001820160009054906101000a900473ffffffffffffffffffffffffffffffffffffffff1673ffffffffffffffffffffffffffffffffffffffff1673ffffffffffffffffffffffffffffffffffffffff1681526020016001820160149054906101000a900460e01b7bffffffffffffffffffffffffffffffffffffffffffffffffffffffff19167bffffffffffffffffffffffffffffffffffffffffffffffffffffffff191681526020016002820154815260200160038201604051806040016040529081600082018054600181600116156101000203166002900480601f0160208091040260200160405190810160405280929190818152602001828054600181600116156101000203166002900480156115735780601f1061154857610100808354040283529160200191611573565b820191906000526020600020905b81548152906001019060200180831161155657829003601f168201915b505050505081526020016001820154815250508152505090506115a183838361194a9092919063ffffffff16565b80600080820151816000015560208201518160010160006101000a81548173ffffffffffffffffffffffffffffffffffffffff021916908373ffffffffffffffffffffffffffffffffffffffff16021790555060408201518160010160146101000a81548163ffffffff021916908360e01c0217905550606082015181600201556080820151816003016000820151816000019080519060200190611647929190611f78565b50602082015181600101555050905050505050565b61167382846080015161197d90919063ffffffff16565b61168a8184608001516119a290919063ffffffff16565b505050565b6116a682846080015161197d90919063ffffffff16565b6116bd8184608001516119d290919063ffffffff16565b505050565b60606000602067ffffffffffffffff811180156116de57600080fd5b506040519080825280601f01601f1916602001820160405280156117115781602001600182028036833780820191505090505b5090506000805b60208110156117b45760008160080260020a8660001c0260001b9050600060f81b817effffffffffffffffffffffffffffffffffffffffffffffffffffffffffffff1916146117a6578084848151811061176e57fe5b60200101907effffffffffffffffffffffffffffffffffffffffffffffffffffffffffffff1916908160001a90535082806001019350505b508080600101915050611718565b5060008167ffffffffffffffff811180156117ce57600080fd5b506040519080825280601f01601f1916602001820160405280156118015781602001600182028036833780820191505090505b50905060005b8281101561186e5783818151811061181b57fe5b602001015160f81c60f81b82828151811061183257fe5b60200101907effffffffffffffffffffffffffffffffffffffffffffffffffffffffffffff1916908160001a9053508080600101915050611807565b50809350505050919050565b61189182846080015161197d90919063ffffffff16565b61189e83608001516119f7565b60005b81518110156118e1576118d48282815181106118b957fe5b6020026020010151856080015161197d90919063ffffffff16565b80806001019150506118a1565b506118ef8360800151611a05565b505050565b61190b82846080015161197d90919063ffffffff16565b611922818460800151611a1390919063ffffffff16565b505050565b61193682608001518251611ab7565b50611945826080015182611b0b565b505050565b61196182846080015161197d90919063ffffffff16565b61197881846080015161197d90919063ffffffff16565b505050565b61198a8260038351611b2d565b61199d8183611b0b90919063ffffffff16565b505050565b67ffffffffffffffff8111156119c1576119bc8282611cb2565b6119ce565b6119cd82600083611b2d565b5b5050565b6119df8260028351611b2d565b6119f28183611b0b90919063ffffffff16565b505050565b611a02816004611cfe565b50565b611a10816007611cfe565b50565b7fffffffffffffffffffffffffffffffffffffffffffffffff0000000000000000811215611a4a57611a458282611d20565b611ab3565b67ffffffffffffffff811315611a6957611a648282611cb2565b611ab2565b60008112611a8257611a7d82600083611b2d565b611ab1565b611ab0826001837fffffffffffffffffffffffffffffffffffffffffffffffffffffffffffffffff03611b2d565b5b5b5b5050565b611abf612006565b600060208381611acb57fe5b0614611ae45760208281611adb57fe5b06602003820191505b81836020018181525050604051808452600081528281016020016040525082905092915050565b611b13612006565b611b2583846000015151848551611d8e565b905092915050565b60178167ffffffffffffffff1611611b6457611b5e8160058460ff16901b60ff161784611e4790919063ffffffff16565b50611cad565b60ff8167ffffffffffffffff1611611bba57611b93601860058460ff16901b1784611e4790919063ffffffff16565b50611bb48167ffffffffffffffff16600185611e679092919063ffffffff16565b50611cac565b61ffff8167ffffffffffffffff1611611c1157611bea601960058460ff16901b1784611e4790919063ffffffff16565b50611c0b8167ffffffffffffffff16600285611e679092919063ffffffff16565b50611cab565b63ffffffff8167ffffffffffffffff1611611c6a57611c43601a60058460ff16901b1784611e4790919063ffffffff16565b50611c648167ffffffffffffffff16600485611e679092919063ffffffff16565b50611caa565b611c87601b60058460ff16901b1784611e4790919063ffffffff16565b50611ca88167ffffffffffffffff16600885611e679092919063ffffffff16565b505b5b5b5b505050565b611cd060026005600660ff16901b1783611e4790919063ffffffff16565b50611cfa8282604051602001808281526020019150506040516020818303038152906040526119d2565b5050565b611d1b601f60058360ff16901b1783611e4790919063ffffffff16565b505050565b611d3e60036005600660ff16901b1783611e4790919063ffffffff16565b50611d8a82827fffffffffffffffffffffffffffffffffffffffffffffffffffffffffffffffff03604051602001808281526020019150506040516020818303038152906040526119d2565b5050565b611d96612006565b8251821115611da457600080fd5b84602001518285011115611dcf57611dce856002611dc88860200151888701611e89565b02611ea5565b5b600080865180518760208301019350808887011115611dee5787860182525b60208701925050505b60208410611e1a5780518252602082019150602081019050602084039350611df7565b60006001856020036101000a03905080198251168184511681811785525050879350505050949350505050565b611e4f612006565b611e5f8384600001515184611ec9565b905092915050565b611e6f612006565b611e80848560000151518585611f17565b90509392505050565b600081831115611e9b57829050611e9f565b8190505b92915050565b600082600001519050611eb88383611ab7565b50611ec38382611b0b565b50505050565b611ed1612006565b83602001518310611eee57611eed846002866020015102611ea5565b5b8351805160208583010184815381861415611f0a576001820183525b5050508390509392505050565b611f1f612006565b84602001518483011115611f3d57611f3c85600286850102611ea5565b5b60006001836101000a0390508551838682010185831982511617815281518588011115611f6a5784870182525b505085915050949350505050565b828054600181600116156101000203166002900490600052602060002090601f016020900481019282611fae5760008555611ff5565b82601f10611fc757805160ff1916838001178555611ff5565b82800160010185558215611ff5579182015b82811115611ff4578251825591602001919060010190611fd9565b5b5090506120029190612020565b5090565b604051806040016040528060608152602001600081525090565b5b80821115612039576000816000905550600101612021565b509056fea2646970667358221220d2efa955ccf482a2b1f240c71bc4a93be5c7974c430d81cce64a588e5f20177164736f6c63430007060033",
  "linkReferences": {},
  "deployedLinkReferences": {}
}