{
  "_format": "hh-sol-artifact-1",
  "contractName": "UpkeepPerformCounterRestrictive",
  "sourceName": "contracts/chainlink/tests/UpkeepPerformCounterRestrictive.sol",
  "abi": [
    {
      "inputs": [
        {
          "internalType": "uint256",
          "name": "_testRange",
          "type": "uint256"
        },
        {
          "internalType": "uint256",
          "name": "_averageEligibilityCadence",
          "type": "uint256"
        }
      ],
      "stateMutability": "nonpayable",
      "type": "constructor"
    },
    {
      "anonymous": false,
      "inputs": [
        {
          "indexed": false,
          "internalType": "bool",
          "name": "eligible",
          "type": "bool"
        },
        {
          "indexed": false,
          "internalType": "address",
          "name": "from",
          "type": "address"
        },
        {
          "indexed": false,
          "internalType": "uint256",
          "name": "initialCall",
          "type": "uint256"
        },
        {
          "indexed": false,
          "internalType": "uint256",
          "name": "nextEligible",
          "type": "uint256"
        },
        {
          "indexed": false,
          "internalType": "uint256",
          "name": "blockNumber",
          "type": "uint256"
        }
      ],
      "name": "PerformingUpkeep",
      "type": "event"
    },
    {
      "inputs": [],
      "name": "averageEligibilityCadence",
      "outputs": [
        {
          "internalType": "uint256",
          "name": "",
          "type": "uint256"
        }
      ],
      "stateMutability": "view",
      "type": "function"
    },
    {
      "inputs": [],
      "name": "checkEligible",
      "outputs": [
        {
          "internalType": "bool",
          "name": "",
          "type": "bool"
        }
      ],
      "stateMutability": "view",
      "type": "function"
    },
    {
      "inputs": [],
      "name": "checkGasToBurn",
      "outputs": [
        {
          "internalType": "uint256",
          "name": "",
          "type": "uint256"
        }
      ],
      "stateMutability": "view",
      "type": "function"
    },
    {
      "inputs": [
        {
          "internalType": "bytes",
          "name": "data",
          "type": "bytes"
        }
      ],
      "name": "checkUpkeep",
      "outputs": [
        {
          "internalType": "bool",
          "name": "",
          "type": "bool"
        },
        {
          "internalType": "bytes",
          "name": "",
          "type": "bytes"
        }
      ],
      "stateMutability": "view",
      "type": "function"
    },
    {
      "inputs": [
        {
          "internalType": "bytes32",
          "name": "",
          "type": "bytes32"
        }
      ],
      "name": "dummyMap",
      "outputs": [
        {
          "internalType": "bool",
          "name": "",
          "type": "bool"
        }
      ],
      "stateMutability": "view",
      "type": "function"
    },
    {
      "inputs": [],
      "name": "getCountPerforms",
      "outputs": [
        {
          "internalType": "uint256",
          "name": "",
          "type": "uint256"
        }
      ],
      "stateMutability": "view",
      "type": "function"
    },
    {
      "inputs": [],
      "name": "initialCall",
      "outputs": [
        {
          "internalType": "uint256",
          "name": "",
          "type": "uint256"
        }
      ],
      "stateMutability": "view",
      "type": "function"
    },
    {
      "inputs": [],
      "name": "nextEligible",
      "outputs": [
        {
          "internalType": "uint256",
          "name": "",
          "type": "uint256"
        }
      ],
      "stateMutability": "view",
      "type": "function"
    },
    {
      "inputs": [],
      "name": "performGasToBurn",
      "outputs": [
        {
          "internalType": "uint256",
          "name": "",
          "type": "uint256"
        }
      ],
      "stateMutability": "view",
      "type": "function"
    },
    {
      "inputs": [
        {
          "internalType": "bytes",
          "name": "",
          "type": "bytes"
        }
      ],
      "name": "performUpkeep",
      "outputs": [],
      "stateMutability": "nonpayable",
      "type": "function"
    },
    {
      "inputs": [],
      "name": "reset",
      "outputs": [],
      "stateMutability": "nonpayable",
      "type": "function"
    },
    {
      "inputs": [
        {
          "internalType": "uint256",
          "name": "value",
          "type": "uint256"
        }
      ],
      "name": "setCheckGasToBurn",
      "outputs": [],
      "stateMutability": "nonpayable",
      "type": "function"
    },
    {
      "inputs": [
        {
          "internalType": "uint256",
          "name": "value",
          "type": "uint256"
        }
      ],
      "name": "setPerformGasToBurn",
      "outputs": [],
      "stateMutability": "nonpayable",
      "type": "function"
    },
    {
      "inputs": [
        {
          "internalType": "uint256",
          "name": "_newTestRange",
          "type": "uint256"
        },
        {
          "internalType": "uint256",
          "name": "_newAverageEligibilityCadence",
          "type": "uint256"
        }
      ],
      "name": "setSpread",
      "outputs": [],
      "stateMutability": "nonpayable",
      "type": "function"
    },
    {
      "inputs": [],
      "name": "testRange",
      "outputs": [
        {
          "internalType": "uint256",
          "name": "",
          "type": "uint256"
        }
      ],
      "stateMutability": "view",
      "type": "function"
    }
  ],
  "bytecode": "0x6080604052600080556000600155600060075534801561001e57600080fd5b506040516107c63803806107c68339818101604052604081101561004157600080fd5b8101908080519060200190929190805190602001909291905050508160028190555080600381905550505061074b8061007b6000396000f3fe608060405234801561001057600080fd5b50600436106100f55760003560e01c80637145f11b11610097578063b30566b411610066578063b30566b4146103dc578063c228a98e146103fa578063d826f88f1461041a578063e303666f14610424576100f5565b80637145f11b146103245780637f407edf14610368578063926f086e146103a0578063a9a4c57c146103be576100f5565b80634585e33b116100d35780634585e33b14610174578063523d9b8a146101ed5780636250a13a1461020b5780636e04ff0d14610229576100f5565b806313bda75b146100fa5780632555d2cf146101285780632ff3617d14610156575b600080fd5b6101266004803603602081101561011057600080fd5b8101908080359060200190929190505050610442565b005b6101546004803603602081101561013e57600080fd5b810190808035906020019092919050505061044c565b005b61015e610456565b6040518082815260200191505060405180910390f35b6101eb6004803603602081101561018a57600080fd5b81019080803590602001906401000000008111156101a757600080fd5b8201836020820111156101b957600080fd5b803590602001918460018302840111640100000000831117156101db57600080fd5b909192939192939050505061045c565b005b6101f561058c565b6040518082815260200191505060405180910390f35b610213610592565b6040518082815260200191505060405180910390f35b6102a06004803603602081101561023f57600080fd5b810190808035906020019064010000000081111561025c57600080fd5b82018360208201111561026e57600080fd5b8035906020019184600183028401116401000000008311171561029057600080fd5b9091929391929390505050610598565b60405180831515815260200180602001828103825283818151815260200191508051906020019080838360005b838110156102e85780820151818401526020810190506102cd565b50505050905090810190601f1680156103155780820380516001836020036101000a031916815260200191505b50935050505060405180910390f35b6103506004803603602081101561033a57600080fd5b810190808035906020019092919050505061062b565b60405180821515815260200191505060405180910390f35b61039e6004803603604081101561037e57600080fd5b81019080803590602001909291908035906020019092919050505061064b565b005b6103a861065d565b6040518082815260200191505060405180910390f35b6103c6610663565b6040518082815260200191505060405180910390f35b6103e4610669565b6040518082815260200191505060405180910390f35b61040261066f565b60405180821515815260200191505060405180910390f35b61042261067e565b005b61042c61068f565b6040518082815260200191505060405180910390f35b8060048190555050565b8060058190555050565b60045481565b60005a9050600061046b610699565b905060004390507fbd6b6608a51477954e8b498c633bda87e5cd555e06ead50486398d9e3b9cebc08232600054600154856040518086151581526020018573ffffffffffffffffffffffffffffffffffffffff1681526020018481526020018381526020018281526020019550505050505060405180910390a1816104ef57600080fd5b60008054141561050157806000819055505b60016002600354026105116106c2565b8161051857fe5b068201016001819055506007600081548092919060010191905055508080600190039150505b6005545a84031015610585576000600660008340815260200190815260200160002060006101000a81548160ff02191690831515021790555080806001900391505061053e565b5050505050565b60015481565b60025481565b6000606060005a9050600060014303905060005b6004545a840310156105f3578080156105e35750600660008340815260200190815260200160002060009054906101000a900460ff165b90508180600190039250506105ac565b6105fb610699565b81604051602001808215158152602001915050604051602081830303815290604052945094505050509250929050565b60066020528060005260406000206000915054906101000a900460ff1681565b81600281905550806003819055505050565b60005481565b60035481565b60055481565b6000610679610699565b905090565b600080819055506000600781905550565b6000600754905090565b60008060005414806106bd575060025460005443031080156106bc575060015443115b5b905090565b6000600143034030604051602001808381526020018273ffffffffffffffffffffffffffffffffffffffff168152602001925050506040516020818303038152906040528051906020012060001c90509056fea26469706673582212201c2e6bb5e52b974eb30781cafee07d99befcb4c73c50aeafbc3f0fc1c22959cf64736f6c63430007060033",
  "linkReferences": {},
  "deployedLinkReferences": {}
}