{
  "_format": "hh-sol-artifact-1",
  "contractName": "UpkeepMock",
  "sourceName": "contracts/chainlink/tests/UpkeepMock.sol",
  "abi": [
    {
      "anonymous": false,
      "inputs": [
        {
          "indexed": false,
          "internalType": "bytes",
          "name": "upkeepData",
          "type": "bytes"
        }
      ],
      "name": "UpkeepPerformedWith",
      "type": "event"
    },
    {
      "inputs": [],
      "name": "canCheck",
      "outputs": [
        {
          "internalType": "bool",
          "name": "",
          "type": "bool"
        }
      ],
      "stateMutability": "view",
      "type": "function"
    },
    {
      "inputs": [],
      "name": "canPerform",
      "outputs": [
        {
          "internalType": "bool",
          "name": "",
          "type": "bool"
        }
      ],
      "stateMutability": "view",
      "type": "function"
    },
    {
      "inputs": [],
      "name": "checkGasToBurn",
      "outputs": [
        {
          "internalType": "uint256",
          "name": "",
          "type": "uint256"
        }
      ],
      "stateMutability": "view",
      "type": "function"
    },
    {
      "inputs": [
        {
          "internalType": "bytes",
          "name": "data",
          "type": "bytes"
        }
      ],
      "name": "checkUpkeep",
      "outputs": [
        {
          "internalType": "bool",
          "name": "callable",
          "type": "bool"
        },
        {
          "internalType": "bytes",
          "name": "executedata",
          "type": "bytes"
        }
      ],
      "stateMutability": "nonpayable",
      "type": "function"
    },
    {
      "inputs": [],
      "name": "performGasToBurn",
      "outputs": [
        {
          "internalType": "uint256",
          "name": "",
          "type": "uint256"
        }
      ],
      "stateMutability": "view",
      "type": "function"
    },
    {
      "inputs": [
        {
          "internalType": "bytes",
          "name": "data",
          "type": "bytes"
        }
      ],
      "name": "performUpkeep",
      "outputs": [],
      "stateMutability": "nonpayable",
      "type": "function"
    },
    {
      "inputs": [
        {
          "internalType": "bool",
          "name": "value",
          "type": "bool"
        }
      ],
      "name": "setCanCheck",
      "outputs": [],
      "stateMutability": "nonpayable",
      "type": "function"
    },
    {
      "inputs": [
        {
          "internalType": "bool",
          "name": "value",
          "type": "bool"
        }
      ],
      "name": "setCanPerform",
      "outputs": [],
      "stateMutability": "nonpayable",
      "type": "function"
    },
    {
      "inputs": [
        {
          "internalType": "uint256",
          "name": "value",
          "type": "uint256"
        }
      ],
      "name": "setCheckGasToBurn",
      "outputs": [],
      "stateMutability": "nonpayable",
      "type": "function"
    },
    {
      "inputs": [
        {
          "internalType": "uint256",
          "name": "value",
          "type": "uint256"
        }
      ],
      "name": "setPerformGasToBurn",
      "outputs": [],
      "stateMutability": "nonpayable",
      "type": "function"
    }
  ],
  "bytecode": "0x608060405234801561001057600080fd5b50610712806100206000396000f3fe608060405234801561001057600080fd5b506004361061009e5760003560e01c80636e04ff0d116100665780636e04ff0d146101c657806379bbf47c14610287578063b30566b4146102a7578063c0ecfc59146102c5578063f8c82606146102e55761009e565b806313bda75b146100a35780632555d2cf146100d15780632ff3617d146100ff5780634585e33b1461011d57806360f9008014610196575b600080fd5b6100cf600480360360208110156100b957600080fd5b8101908080359060200190929190505050610315565b005b6100fd600480360360208110156100e757600080fd5b8101908080359060200190929190505050610388565b005b6101076103fb565b6040518082815260200191505060405180910390f35b6101946004803603602081101561013357600080fd5b810190808035906020019064010000000081111561015057600080fd5b82018360208201111561016257600080fd5b8035906020019184600183028401116401000000008311171561018457600080fd5b9091929391929390505050610401565b005b6101c4600480360360208110156101ac57600080fd5b8101908080351515906020019092919050505061050c565b005b61023d600480360360208110156101dc57600080fd5b81019080803590602001906401000000008111156101f957600080fd5b82018360208201111561020b57600080fd5b8035906020019184600183028401116401000000008311171561022d57600080fd5b9091929391929390505050610529565b604051808415158152602001806020018281038252848482818152602001925080828437600081840152601f19601f82011690508083019250505094505050505060405180910390f35b61028f61057c565b60405180821515815260200191505060405180910390f35b6102af61058d565b6040518082815260200191505060405180910390f35b6102cd610593565b60405180821515815260200191505060405180910390f35b610313600480360360208110156102fb57600080fd5b810190808035151590602001909291905050506105a6565b005b6103e88111806103255750600081145b61037a576040517f08c379a000000000000000000000000000000000000000000000000000000000815260040180806020018281038252603a815260200180610667603a913960400191505060405180910390fd5b6103e8810360018190555050565b6103e88111806103985750600081145b6103ed576040517f08c379a000000000000000000000000000000000000000000000000000000000815260040180806020018281038252603c8152602001806106a1603c913960400191505060405180910390fd5b6103e8810360028190555050565b60015481565b60005a9050600060019054906101000a900460ff16610488576040517f08c379a000000000000000000000000000000000000000000000000000000000815260040180806020018281038252600e8152602001807f43616e6e6f7420706572666f726d00000000000000000000000000000000000081525060200191505060405180910390fd5b610492600061050c565b7f20ce13cdd0a772811a0b719829d2b4cc837ad2a03e6b8330f9f41156c1560096838360405180806020018281038252848482818152602001925080828437600081840152601f19601f820116905080830192505050935050505060405180910390a15b6002545a82031015610507576104f6565b505050565b80600060016101000a81548160ff02191690831515021790555050565b60003660006105366105c2565b60005a905060008060009054906101000a900460ff16905061055860006105a6565b5b6001545a8303101561056a57610559565b80878794509450945050509250925092565b60008054906101000a900460ff1681565b60025481565b600060019054906101000a900460ff1681565b806000806101000a81548160ff02191690831515021790555050565b600073ffffffffffffffffffffffffffffffffffffffff163273ffffffffffffffffffffffffffffffffffffffff1614610664576040517f08c379a000000000000000000000000000000000000000000000000000000000815260040180806020018281038252601a8152602001807f6f6e6c7920666f722073696d756c61746564206261636b656e6400000000000081525060200191505060405180910390fd5b56fe636865636b476173546f4275726e206d7573742062652030202864697361626c656429206f722067726561746572207468616e20627566666572706572666f726d476173546f4275726e206d7573742062652030202864697361626c656429206f722067726561746572207468616e20627566666572a264697066735822122083ea2ea5112525cbaa80867e9e7133a5636cc9a3bc04ee1ebb924afaa00f924764736f6c63430007060033",
  "linkReferences": {},
  "deployedLinkReferences": {}
}